:0A0000000C943E020C9400000C94D6
:10000A0000000C9400000C9400000C949C020C94C8
:10001A0000000C94BB020C9400000C9400000C9499
:10002A005E050C9400000C9400000C9400000C94E3
:10003A0045030C9400000C9436040C9400000C94B4
:10004A0000000C9400000C9400000C946E020C94B6
:10005A0000000C9400000C9400000C9413070C94FC
:10006A0053070C9400000C9400000C9400000C94AC
:10007A0000000C9400000C9400000C94501B0C948B
:10008A0000001027E80364000A00010000100001C4
:10009A001000010001000100AA0000000000000099
:1000AA001B000A004441544100504F534954494FE0
:1000BA004E2D534552564F004C4546543A20310076
:1000CA004C4546543A2030002052494748543A2079
:1000DA0031002052494748543A2030004D4C454699
:1000EA00543A2031004D4C4546543A2030004D5286
:1000FA00494748543A31004D52494748543A30002A
:10010A002020202020454E434F44455220203E3E89
:10011A00003C3C202020454E434F4445522020209D
:10012A0020004C3A0020523A00202020202052453C
:10013A0043485453202020200020202020204C49CE
:10014A004E4B532020202000464C4546543A20313D
:10015A0000464C4546543A203000465249474854D6
:10016A003A31004652494748543A30004C454654C1
:10017A003A0052494748543A004F626A656B742004
:10018A00676566756E64656E004B65696E204F62C1
:10019A006A656B7400616C6C006E6F7468696E6777
:1001AA00003637003638003639003730003731002C
:1001BA003732003733003735003830003831004CD9
:1001CA0020737461746500203200203300203400EB
:1001DA00203500203600203700627567006D6F7485
:1001EA006800464F4C4C4F5700534D4152545048AB
:1001FA004F4E4520204F4E4C59004F4B00427566DA
:10020A00666572206F766572666C6F7700417262FE
:10021A006974726174696F6E206C6F7374004275D1
:10022A0073206572726F72004E41434B2072656390
:10023A006569766564004275732074696D656F75CA
:10024A0074004661696C00556E6B6E6F776E20653F
:10025A0072726F72000001002D4E414E00494E46E7
:10026A000000070080C0010002009E000A0004008E
:10027A00A00001000F07AA0001004A07AC00050010
:10028A000005AE000F000505B30008001405C20002
:10029A0008001C05CA000A002405D2000A002E051F
:1002AA00DC0009003805E60009004105EF000900F5
:1002BA004A05F80009005305010111005C050A010D
:1002CA0011006D051B0103007E052C010400810548
:1002DA002F011000850533010F0095054301030026
:1002EA00A4052C010400A7052F010800AB05C200D4
:1002FA000800B305CA000A00BB05D2000A00C505FA
:10030A00DC000900CF0552010900D8055B0109008C
:10031A00E10564010900EA056D010600F3057601AD
:10032A000700F9057C01030000062C0104000306FE
:10033A002F01030007062C0104000A062F010400FE
:10034A000E069F0108001206A30103001A06AB015C
:10035A0003001D06AE0103002006B10103002306B7
:10036A00B40103002606B70103002906BA010300F7
:10037A002C06BD0103002F06C00103003206C3018B
:10038A0003003506C601030038062C0104003B06AB
:10039A002F0108003F06C90103004706C7000300F2
:1003AA004A062C0104004D062F0108005106C90116
:1003BA0003005906D10103005C062C0104005F0604
:1003CA002F0108006306C90103006B06D40103006C
:1003DA006E062C01040071062F0108007506C9017A
:1003EA0003007D06D701030080062C010400830662
:1003FA002F0108008706C90103008F06DA010300EE
:10040A0092062C01040095062F0108009906C901DD
:10041A000300A106DD010300A4062C010400A706BF
:10042A002F010800AB06C9010300B306E00103006F
:10043A00B6062C010400B9062F010400BD06E3012B
:10044A000200C1062A010500C306E7010200C80628
:10045A002A010700CA06EC011100D106F3010100C6
:10046A00F80760020100E4066C02020008086E0246
:10047A000000F894EE27ECBBF1E0F5BFE5BFE0938E
:10048A006C008DE0A2E0BB27ED938A95E9F780E046
:10049A0090E1A0E0B1E0ED930197E9F7E0E7F2E03F
:1004AA0085919591009761F0A591B5910590159068
:1004BA00BF01F00105900D920197E1F7FB01F0CF22
:1004CA008BBFEFEFEDBFE0E1EEBFC0E0D5E00C94EB
:1004DA008B1A8A93AA93BA93EA93FA93EFB7EA9399
:1004EA00E091DB07ADECB7E0F0E0EE0FFF1FAE0FD7
:1004FA00BF1FE4B1F5B1ED93FC93A091DB07AF5FA9
:10050A00A093DB07A73018F0E0E0E093DB07E09167
:10051A00DB07E05CE7B985E38A95F1F7369AE9915A
:10052A00EFBFF991E991B991A991899118950E9422
:10053A00CA1D0E94D61D0E94DF1D0E94D61D0E9460
:10054A00E71D89F0DF9B08C0A0EEB7E00E945724A0
:10055A0031976040704004C0A0EEB7E00E94EF1DE2
:10056A000E945C2402C00E94F61D1EC00E94CA1D81
:10057A000E94001E0E94DF1D0E94001E0E94E71DAD
:10058A0089F0DD9B08C0ACEDB7E00E945724319793
:10059A006040704004C0ACEDB7E00E94EF1D0E94BD
:1005AA005C2402C00E94091EE991EFBFF991E9910A
:1005BA00B991A9919991899179916991099018951F
:1005CA00EAE8EABBE2E0E7BBE1EAE1BBE4E0E2B980
:1005DA00E0E2E0936100A0E10E94961DE0E4E7B941
:1005EA00EFECE6B9E0E0E0BDE0E8E8B9E0E0E0938E
:1005FA006A00E1E1EABFE0E5E9BFE0E0E8BFE0BFA9
:10060A00E6E0E3BFE3E8E2BFE0E0E1BFE1E0EFBD3F
:10061A00EAE0EEBDE0E0EDBDECBDE7BDE6BDEBBD59
:10062A00EABDE9BDE8BDE0937900E0937800E4E033
:10063A00E5BDE0E0E4BDE3BDE0938B00EBECE093C5
:10064A008A00E0E0E0938900E0938800E09381006B
:10065A00E0938000E1E6E0938700E8EAE093860011
:10066A00E0E0E0938500E0938400E0938300E09368
:10067A008200E5E4E7BFE0E3E0937D007894089523
:10068A000A92AA93BA93EA93FA93EFB7EA93ECE938
:10069A00ECBDA5E2B7E00E94131E0E94191EA53602
:1006AA00E0E0BE072CF0E0E0E0932507E0932607A0
:1006BA00E0912707F09128070E94191EAE17BF077D
:1006CA0014F0DB9801C0DB9AE0912907F0912A0720
:1006DA000E94191EAE17BF0714F0D99801C0D99A03
:1006EA00A091EC07B091ED07A83BEBE0BE072CF414
:1006FA00ACEEB7E00E94131E1EC0A091EE07B091A7
:10070A00EF075E973CF4A091EE07B091EF070E94C5
:10071A0061240CF005C0AEEEB7E00E94131E06C0BD
:10072A00E1E0F0E0E093EE07F093EF07E0E0E0931A
:10073A00EC07E093ED07A0912D07B0912E070E94D8
:10074A0061243CF0A0912F07B09130070E946124E8
:10075A000CF5A0912B07B0912C07A83CE0E0BE074E
:10076A002CF4ABE2B7E00E94131E13C0ADE2B7E06F
:10077A00ED91FD913197FE93EE93AFE2B7E0ED91E3
:10078A00FD913197FE93EE93E0E0E0932B07E0931F
:10079A002C070DC0E0E0E0932D07E0932E07E093CD
:1007AA002F07E0933007E0932B07E0932C07E9919A
:1007BA00EFBFF991E991B991A99109901895BA9366
:1007CA00AA930E941E1E0E94271E2CF40E941E1E1F
:1007DA000E942F1E0CF41BC00E94371E0E94271E67
:1007EA002CF40E94371E0E942F1E0CF410C00E9487
:1007FA00401EDF01E881F981EA17FB0740F40E94F5
:10080A00491EDF01E881F981EA17FB0708F00DC0EC
:10081A000E94401E662777270E94521E0E94491E88
:10082A00662777270E945B1E04C00E94641E0E94EE
:10083A006E1E66C2BA93AA93EE81FF810E94781E49
:10084A00EC81FD810E947D1EEA81E03011F4DF987F
:10085A0001C0DF9AE881E03011F4DD9801C0DD9A29
:10086A008FC00E94821EEEEFE2BFA0913107AF5FF8
:10087A00A0933107A434A0F0E0913507E07421F485
:10088A00E0913507E07209F406C00E94891EE093E0
:10089A003207F0933307E0E0E0933407E09335073B
:1008AA00A0E020FCA1E0E0E0CA99E1E0B0E0F0E0DD
:1008BA00E7FDFFEFEA17FB0759F1E1E02E26A091C9
:1008CA003107AB3028F4E0E0E0933407E0933507D2
:1008DA000E94891E309721F0A0913107AD32C0F0F5
:1008EA00E0913507E07441F40E94891EEE0FFF1F64
:1008FA00E0933407F093350720FC07C00E94891E55
:10090A00E160E0933407F0933507E0E0E0933107C4
:10091A00BEC2BA93AA931A930A93F8940091320723
:10092A0010913307E0E0E0933207E09333077894BD
:10093A00002E012A09F1D801EBE00E94DD23E170C3
:10094A00AE81BF81EC93D801E6E00E94DD23EF710E
:10095A00AC81BD81EC93E02FEF73AE2FF801E095E7
:10096A00F0950E94F1230E94EF23E074EA2BAA81FA
:10097A00BB81EC93F80102C0E0E0F0E01981088144
:10098A00289608950E94271DA0E0B5E00E948E1EB9
:10099A00A0913607A05D0E943C1DA0E20E943C1D6A
:1009AA00E09137070E94951EA0E20E943C1DE0914B
:1009BA0038070E94951E0895E6E3F7E0FA93EA9352
:1009CA00E7E3F7E0FA93EA93A8E3B7E0A2DF309708
:1009DA0079F0E0913807F0E0309751F4EBE1F0E07C
:1009EA00E0930D07F0930E07A4E6B0E00E94CE2232
:1009FA00A0913807A13021F4EDE0F0E00E94A01E9A
:100A0A00A0913807A23021F4EEE0F0E00E94A01E87
:100A1A00A0913807A33021F4EFE0F0E00E94A01E75
:100A2A00A0913807A43021F4E0E1F0E00E94A01E72
:100A3A00A0913807A53021F4E1E1F0E00E94A01E60
:100A4A00A0913807A63021F4E2E1F0E00E94A01E4E
:100A5A00A0913807A73021F4E3E1F0E00E94A01E3C
:100A6A00A0913807A83021F4E4E1F0E00E94A01E2A
:100A7A00A0913807A23121F4ECE0F0E00E94A01E18
:100A8A00A0913807A33121F4EBE0F0E00E94A01E08
:100A9A00A0913807A63121F4E9E0F0E00E94A01EF7
:100AAA00A0913807A73121F4EAE0F0E00E94A01EE5
:100ABA000895EA93FA93EFB7EA93979886149704FE
:100ACA0029F4E2E3F0E0E415F50539F44301E1E045
:100ADA00F0E02F0164BC979A05C0F20132962F010B
:100AEA00E0E0E4BDE991EFBFF991E99118952A9701
:100AFA000E94271DA5E0B5E00E948E1E7A926A9296
:100B0A00A5EEB6E00E94ED1AA5EEB6E00E94631DBE
:100B1A003EC2A0910F07B0911007589741F4ECED2F
:100B2A00F0E06E167F061CF4F30131963F01A091A6
:100B3A000F07B0911007599741F4E8E7F0E0E6157E
:100B4A00F7051CF4F30131973F010895A0910D07B1
:100B5A00B0910E07109719F4EBE1F0E005C0E091AF
:100B6A000D07F0910E073197E0930F07F0931007E6
:100B7A0008950E94A51E19F4E0E0F0E002C0E1E049
:100B8A00F0E0E0931107F09312070E94AB1E19F4EC
:100B9A00E0E0F0E002C0E1E0F0E0E0931307F09358
:100BAA0014070E94B11E19F4E0E0F0E002C0E1E08F
:100BBA00F0E0E0931507F09316070E94B71E19F4A8
:100BCA00E0E0F0E002C0E1E0F0E0E0931707F09324
:100BDA001807E0911107F0911207A8EEB3E00E94FE
:100BEA002D24BF01E0911307F09114070E94BD1E46
:100BFA00E0911507F09116070E94C41EA0911707ED
:100C0A00B0911807EA0FFB1FE0932107F093220720
:100C1A00B09903C0E1E0F0E002C0E0E0F0E0E09368
:100C2A001907F0931A07B29903C0E1E0F0E002C095
:100C3A00E0E0F0E0E0931B07F0931C07B49903C0CF
:100C4A00E1E0F0E002C0E0E0F0E0E0931D07F0939D
:100C5A001E07B69903C0E1E0F0E002C0E0E0F0E070
:100C6A00E0931F07F0932007E0911907F0911A0704
:100C7A00A8EEB3E00E942D24BF01E0911B07F0917A
:100C8A001C070E94BD1EE0911D07F0911E070E94DD
:100C9A00C41EA0911F07B0912007EA0FFB1FE09323
:100CAA002307F09324070895E0E3EA93A1E016D01E
:100CBA00E0E3EA93A8E012D0E6E0EA93A0E90ED0D6
:100CCA00E8E0EA93A0EC0AD0EAE1EA93A0E406D0CD
:100CDA00E3E3EA93A3E302D0A4E620C2AA930E9424
:100CEA008222A0EB0E94B622A9810E94B622A88184
:100CFA000E94B6220E949122AAE0B0E00E94CE226F
:100D0A00229608951A9310E00E948222A0EB0E9474
:100D1A00B622A6E30E94B6220E949122A1E0B0E088
:100D2A000E94CE220E948222A1EB0E94B62210E0EB
:100D3A001F3090F4E12FAAE8B7E0F0E00E94CB1E42
:100D4A00FF93EF93A1E00E949B22AF91BF91F0E045
:100D5A00ED93FC931F5FECCFA0E00E949B22A8EAD0
:100D6A00B7E0F0E0ED93FC930E9491221991089567
:100D7A001A930A9300E010E000E010E00430E0E08B
:100D8A001E070CF048C00E94D01E0E94D61EE073B7
:100D9A00F0700E94E623E093C307F093C407F801BA
:100DAA00AFEAB7E00E94CB1EBF010E94D01EDF014E
:100DBA00AA0FBB1FA457B84F0E94DE1E0E94D01E66
:100DCA000E94D61EE07CF0700E94EA23E093C307DB
:100DDA00F093C407F801A7EBB7E00E94CB1EBF014E
:100DEA000E94D01EDF01AA0FBB1FA257B84F0E9454
:100DFA00DE1EF801E154F84FBF010E94D01EDF0148
:100E0A00AA0FBB1FA057B84FEC91EF70DB01EC9310
:100E1A000F5F1F4FB3CF0991199108950E94821E47
:100E2A00E0918000E0938807E0918100E0938907D0
:100E3A000F9B0EC0E0918807F0918907E093820723
:100E4A00F0938307E0918A00EF7BE0938A001FC04A
:100E5A00E0918807F0918907E0938407F09385076A
:100E6A00E0918A00E064E0938A00A0918207B09141
:100E7A008307E0918407F0918507EA1BFB0B0E9428
:100E8A00EA23E0938607F0938707689422F8E991AA
:100E9A00EFBFF991E991B991A99118958A93EA93CB
:100EAA00EFB7C19A85E38A95F1F7C198EFBFE99147
:100EBA00899118950E94271D0E94A51E19F4A4E184
:100ECA00B5E002C0ACE1B5E00E94631D0E94B71E06
:100EDA0019F4A4E2B5E002C0AEE2B5E00E94631DD7
:100EEA000E94EA1E0E94AB1E19F4A8E3B5E002C0F4
:100EFA00A1E4B5E00E94631D0E94B11E19F4AAE4A0
:100F0A00B5E002C0A3E5B5E00E94631D08956197AC
:100F1A000E94EF1E39F4ACE5B5E00E94631DDF982C
:100F2A00DD9806C0ADE6B5E00E94631DDF9ADD9A42
:100F3A000E94EA1EAEE7B5E00E94FD1EA1E8B5E0F8
:100F4A000E940C1FCE9902C00E941B1F6196089531
:100F5A002A970E94EF1E39F4A5E8B5E00E94631DA6
:100F6A00DF98DD9A06C0A5E9B5E00E94631DDF9A05
:100F7A00DD980E94EA1EA4EAB5E00E94FD1EA7EAD7
:100F8A00B5E00E940C1FCE9902C00E941B1F2A9630
:100F9A0008950E94271DB09903C0ABEAB5E002C0CC
:100FAA00A3EBB5E00E94631DB69903C0ABEBB5E0B5
:100FBA0002C0A5ECB5E00E94631D0E94EA1EB29928
:100FCA0003C0AFECB5E002C0A8EDB5E00E94631D16
:100FDA00B49903C0A1EEB5E002C0AAEEB5E00E9442
:100FEA00631D08952A970E9471240E942B1F8F0166
:100FFA000E94301F9F010E94271DA3EFB5E00E94A7
:10100A00631D3A932A930E94351F0E948E1EA9EFF0
:10101A00B5E00E94631D1A930A930E94351F0E942D
:10102A00631D0E9478242E9608950E94712410E070
:10103A0069DE9EDE10E0143008F05FC0143058F507
:10104A000E943C1FEF3FA3E0FA0731F00E94471FBE
:10105A00EF3FA3E0FA0709F41DC00E943C1F0E945B
:10106A00521FA4E11A020A920E945A1F0E94471FA5
:10107A000E94611FA4E11A02F001E85FEA930E944C
:10108A005A1F0E94691FA4E11A02F001E05FEA9365
:10109A000E945A1F30C00E943C1FEF3FA3E0FA078C
:1010AA0031F00E94471FEF3FA3E0FA0709F423C07B
:1010BA000E943C1F0E94521FE12FE250A4E1EA0263
:1010CA000A920E94751F0E94471F0E94611FE12F0A
:1010DA00E250A4E1EA02F001E85FEA930E94751F78
:1010EA000E94691FE12FE250A4E1EA02F001E05FE9
:1010FA00EA930E94751F1F5F9ECF0E947C1FC39BAD
:10110A0002C0C39801C0C39A0E9478242496089505
:10111A0039DC08950E94271DEADCA8ECB0E00E94A1
:10112A00CE22089522FE29C00E94EA1EA0918607B7
:10113A00B0918707A137E7E1BE07B8F40E94271DDF
:10114A00A3E8B1E00E94721D0E94EA1E0E94801F5D
:10115A000E940723FA93EA93A1E7B7E00E94ED1AE7
:10116A00A1E7B7E00E94631D06C00E94271DA3E9FC
:10117A00B1E00E94721DE89422F808950E94911F1E
:10118A000E949E1F0E94652431F40E94A71F0E949C
:10119A00A71F0E94AC1F0E949E1F0E946A2434F45B
:1011AA000E94A71F0E94B41F0E94AC1F0E949E1F8C
:1011BA000E94652434F40E94B41F0E94A71F0E9453
:1011CA00AC1F08950E94911F0E949E1F0E946524D1
:1011DA0031F40E94A71F0E94A71F0E94B91F0E94F4
:1011EA009E1F0E946A2434F40E94A71F0E94B41F03
:1011FA000E94B91F0E949E1F0E94652434F40E9417
:10120A00B41F0E94A71F0E94B91F08950E94C11F00
:10121A00E4E6F0E004C00E94A71FE0E0F0E0FA93E1
:10122A00EA930E94AC1F08950E94091E0E94F61DAF
:10123A00E0E0E0932707E0932807E4E6F0E00E9465
:10124A007D1EDF98DD9A0E94C61FA0E0B6E00E94CC
:10125A00C91FA3E0B6E00E94D91F0E94D61D0E94B2
:10126A00E91F34F308950E94091E0E94F61DE4E660
:10127A00F0E00E94781EE0E0E0932907E0932A0755
:10128A00DF9ADD980E94C61FA7E0B6E00E94C91F38
:10129A00AAE0B6E00E94D91F0E94001E0E94E91F20
:1012AA0034F30895CC9B0AC0CE9B08C0B09B06C0FD
:1012BA00B69B04C0B29B02C0B49901C005C0E0E06D
:1012CA00E093F007E093F107CC9B0AC0CE9B08C0DD
:1012DA00B09B06C0B69B04C0B29B02C0B49B01C0BF
:1012EA0002C00E94F11FCC9B0AC0CE9B08C0B09BD3
:1012FA0006C0B69B04C0B29902C0B49901C002C02C
:10130A000E94F81FCC9B0AC0CE9B08C0B09B06C0A7
:10131A00B69904C0B29B02C0B49901C002C00E942F
:10132A00FF1FCC9B0AC0CE9B08C0B09906C0B69BD3
:10133A0004C0B29B02C0B49901C002C00E94062038
:10134A00CC9B0AC0CE9908C0B09B06C0B69B04C00D
:10135A00B29B02C0B49901C002C00E940D20CC9970
:10136A000AC0CE9B08C0B09B06C0B69B04C0B29B05
:10137A0002C0B49901C002C00E941420CC9B0AC0CA
:10138A00CE9B08C0B09B06C0B69B04C0B29902C0EF
:10139A00B49B01C002C00E941B20CC9B0AC0CE9BFA
:1013AA0008C0B09B06C0B69904C0B29902C0B499ED
:1013BA0001C002C00E942220CC9B0AC0CE9B08C05A
:1013CA00B09906C0B69904C0B29B02C0B49901C0D4
:1013DA0002C00E942920CC9B0AC0CE9908C0B099AD
:1013EA0006C0B69B04C0B29B02C0B49901C002C039
:1013FA000E943020CC990AC0CE9908C0B09B06C082
:10140A00B69B04C0B29B02C0B49901C002C00E943C
:10141A003720CC9B0AC0CE9B08C0B09B06C0B699A9
:10142A0004C0B29902C0B49B01C002C00E943E200F
:10143A00CC9B0AC0CE9B08C0B09906C0B69904C01E
:10144A00B29902C0B49901C002C00E944520CC9B47
:10145A000AC0CE9908C0B09906C0B69904C0B29B1A
:10146A0002C0B49901C002C00E944C20CC990AC0A3
:10147A00CE9908C0B09906C0B69B04C0B29B02C000
:10148A00B49901C002C00E945320CC9B0AC0CE9BD3
:10149A0008C0B09906C0B69904C0B29902C0B49BFC
:1014AA0001C002C00E945A20CC9B0AC0CE9908C033
:1014BA00B09906C0B69904C0B29902C0B49901C0E5
:1014CA0002C00E946120CC990AC0CE9908C0B09986
:1014DA0006C0B69904C0B29B02C0B49901C002C04A
:1014EA000E946820CC9B0AC0CE9908C0B09906C059
:1014FA00B69904C0B29902C0B49B01C002C00E944E
:10150A006F20CC990AC0CE9908C0B09906C0B69986
:10151A0004C0B29902C0B49901C002C00E947620E8
:10152A00CC990AC0CE9908C0B09906C0B69904C031
:10153A00B29902C0B49B01C002C00E947D20CC9B1C
:10154A000AC0CE9B08C0B09B06C0B69904C0B29B25
:10155A0002C0B49B01C002C00E948420CC9B0AC076
:10156A00CE9B08C0B09906C0B69B04C0B29902C00F
:10157A00B49901C002C00E948B20CC9B0AC0CE99AC
:10158A0008C0B09B06C0B69904C0B29B02C0B49909
:10159A0001C002C00E949220CC990AC0CE9B08C00A
:1015AA00B09906C0B69B04C0B29B02C0B49901C0F0
:1015BA0002C00E949920CC9B0AC0CE9B08C0B09959
:1015CA0006C0B69B04C0B29B02C0B49B01C002C055
:1015DA000E94A020CC9B0AC0CE9908C0B09B06C02E
:1015EA00B69B04C0B29902C0B49901C002C00E945D
:1015FA00A720CC990AC0CE9B08C0B09B06C0B6995A
:10160A0004C0B29B02C0B49901C002C00E94AE20BD
:10161A00CC9B0AC0CE9908C0B09B06C0B69B04C03A
:10162A00B29B02C0B49B01C002C00E94B520CC99F3
:10163A000AC0CE9B08C0B09B06C0B69B04C0B29934
:10164A0002C0B49901C002C00E94BC20CC990AC051
:10165A00CE9B08C0B09B06C0B69B04C0B29B02C01A
:10166A00B49B01C002C00E94C320CC990AC0CE9983
:10167A0008C0B09906C0B69904C0B29B02C0B49B18
:10168A0001C002C00E94CA20CC990AC0CE9908C0E3
:10169A00B09906C0B69B04C0B29902C0B49B01C0FF
:1016AA0002C00E94D120CC990AC0CE9908C0B09B32
:1016BA0006C0B69904C0B29902C0B49B01C002C068
:1016CA000E94D820CC990AC0CE9B08C0B09906C007
:1016DA00B69904C0B29902C0B49B01C002C00E946C
:1016EA00DF20CC990AC0CE9908C0B09906C0B69B33
:1016FA0004C0B29B02C0B49B01C002C00E94E62093
:10170A00CC990AC0CE9908C0B09B06C0B69B04C04B
:10171A00B29902C0B49B01C002C00E94ED20CC99CC
:10172A000AC0CE9B08C0B09B06C0B69904C0B29945
:10173A0002C0B49B01C002C00E94F420CC990AC026
:10174A00CE9B08C0B09906C0B69B04C0B29902C02D
:10175A00B49901C002C00E94FB20CC9B0AC0CE995A
:10176A0008C0B09B06C0B69904C0B29B02C0B49B25
:10177A0001C002C00E940221CC990AC0CE9B08C0B7
:10178A00B09B06C0B69904C0B29902C0B49901C010
:10179A0002C00E940921CC9B0AC0CE9908C0B09908
:1017AA0006C0B69B04C0B29B02C0B49B01C002C073
:1017BA000E941021CC990AC0CE9908C0B09B06C0DD
:1017CA00B69904C0B29B02C0B49B01C002C00E9479
:1017DA001721CC990AC0CE9908C0B09B06C0B69909
:1017EA0004C0B29902C0B49901C002C00E941E216D
:1017FA00CC990AC0CE9B08C0B09906C0B69904C05D
:10180A00B29B02C0B49B01C002C00E942521CC99A0
:10181A000AC0CE9B08C0B09906C0B69904C0B29956
:10182A0002C0B49901C002C00E942C21CC9B0AC0FC
:10183A00CE9908C0B09906C0B69904C0B29B02C03E
:10184A00B49B01C002C00E943321CC9B0AC0CE992E
:10185A0008C0B09906C0B69B04C0B29902C0B49B36
:10186A0001C002C00E943A21CC990AC0CE9908C090
:10187A00B09B06C0B69B04C0B29902C0B49901C01D
:10188A0002C00E944121CC9B0AC0CE9908C0B099DF
:10189A0006C0B69B04C0B29B02C0B49B01C002C082
:1018AA000E944821CC990AC0CE9908C0B09B06C0B4
:1018BA00B69B04C0B29902C0B49901C002C00E948A
:1018CA004F21CC990AC0CE9908C0B09B06C0B699E0
:1018DA0004C0B29B02C0B49901C002C00E94562142
:1018EA00CC990AC0CE9908C0B09906C0B69B04C06C
:1018FA00B29902C0B49901C002C00E945D21CC9B7A
:10190A000AC0CE9B08C0B09906C0B69904C0B29B63
:10191A0002C0B49B01C002C00E946421CC990AC0D3
:10192A00CE9B08C0B09B06C0B69B04C0B29902C049
:10193A00B49B01C002C00E946B21CC990AC0CE9B05
:10194A0008C0B09906C0B69B04C0B29902C0B49B45
:10195A0001C002C00E947221CC9B0AC0CE9B08C063
:10196A00B09906C0B69B04C0B29902C0B49B01C02C
:10197A0002C00E947921CC9B0AC0CE9908C0B09BB4
:10198A0006C0B69904C0B29902C0B49B01C002C095
:10199A000E948021CC9B0AC0CE9908C0B09B06C089
:1019AA00B69B04C0B29902C0B49B01C002C00E9497
:1019BA008721CC990AC0CE9B08C0B09906C0B699B7
:1019CA0004C0B29B02C0B49901C002C00E948E2119
:1019DA000E94801FDF01CB01E0E0F0E060EA71E4E1
:1019EA000E94B12310F40E9495210895CC9B0AC04D
:1019FA00CE9B08C0B09B06C0B69B04C0B29B02C077
:101A0A00B49B01C002C00E94F11FCC9B0AC0CE9BAE
:101A1A0008C0B09B06C0B69B04C0B29902C0B49974
:101A2A0001C002C00E94F81FCC9B0AC0CE9B08C00E
:101A3A00B09B06C0B69904C0B29B02C0B49901C05B
:101A4A0002C00E94FF1FCC9B0AC0CE9B08C0B0995F
:101A5A0006C0B69B04C0B29B02C0B49901C002C0C2
:101A6A000E940620CC9B0AC0CE9908C0B09B06C033
:101A7A00B69B04C0B29B02C0B49901C002C00E94C6
:101A8A000D20CC990AC0CE9B08C0B09B06C0B69B5D
:101A9A0004C0B29B02C0B49901C002C00E941420C3
:101AAA00CC9B0AC0CE9B08C0B09B06C0B69B04C0A4
:101ABA00B29902C0B49B01C002C00E941B20CC9BF9
:101ACA000AC0CE9B08C0B09B06C0B69904C0B299A2
:101ADA0002C0B49901C002C00E942220CC9B0AC055
:101AEA00CE9B08C0B09906C0B69904C0B29B02C08A
:101AFA00B49901C002C00E942920CC9B0AC0CE9989
:101B0A0008C0B09906C0B69B04C0B29B02C0B49983
:101B1A0001C002C00E943020CC990AC0CE9908C0E8
:101B2A00B09B06C0B69B04C0B29B02C0B49901C068
:101B3A0002C00E943720CC9B0AC0CE9B08C0B09B33
:101B4A0006C0B69904C0B29902C0B49B01C002C0D3
:101B5A000E943E20CC9B0AC0CE9B08C0B09906C00A
:101B6A00B69904C0B29902C0B49901C002C00E94D9
:101B7A004520CC9B0AC0CE9908C0B09906C0B69938
:101B8A0004C0B29B02C0B49901C002C00E944C209A
:101B9A00CC990AC0CE9908C0B09906C0B69B04C0B9
:101BAA00B29B02C0B49901C002C00E945320CC9BD0
:101BBA000AC0CE9B08C0B09906C0B69904C0B299B3
:101BCA0002C0B49B01C002C00E945A20CC9B0AC02A
:101BDA00CE9908C0B09906C0B69904C0B29902C09D
:101BEA00B49901C002C00E946120CC990AC0CE9962
:101BFA0008C0B09906C0B69904C0B29B02C0B49995
:101C0A0001C002C00E946820CC9B0AC0CE9908C0BD
:101C1A00B09906C0B69904C0B29902C0B49B01C07B
:101C2A0002C00E946F20CC990AC0CE9908C0B09910
:101C3A0006C0B69904C0B29902C0B49901C002C0E4
:101C4A000E947620CC990AC0CE9908C0B09906C0E5
:101C5A00B69904C0B29902C0B49B01C002C00E94E6
:101C6A007D20CC9B0AC0CE9B08C0B09B06C0B6990B
:101C7A0004C0B29B02C0B49B01C002C00E9484206F
:101C8A00CC9B0AC0CE9B08C0B09906C0B69B04C0C4
:101C9A00B29902C0B49901C002C00E948B20CC9BA9
:101CAA000AC0CE9908C0B09B06C0B69904C0B29BC0
:101CBA0002C0B49901C002C00E949220CC990AC005
:101CCA00CE9B08C0B09906C0B69B04C0B29B02C0A6
:101CDA00B49901C002C00E949920CC9B0AC0CE9B35
:101CEA0008C0B09906C0B69B04C0B29B02C0B49BA0
:101CFA0001C002C00E94A020CC9B0AC0CE9908C095
:101D0A00B09B06C0B69B04C0B29902C0B49901C088
:101D1A0002C00E94A720CC990AC0CE9B08C0B09BE3
:101D2A0006C0B69904C0B29B02C0B49901C002C0F1
:101D3A000E94AE20CC9B0AC0CE9908C0B09B06C0B8
:101D4A00B69B04C0B29B02C0B49B01C002C00E94F1
:101D5A00B520CC990AC0CE9B08C0B09B06C0B69BE2
:101D6A0004C0B29902C0B49901C002C00E94BC204A
:101D7A00CC990AC0CE9B08C0B09B06C0B69B04C0D3
:101D8A00B29B02C0B49B01C002C00E94C320CC997E
:101D9A000AC0CE9908C0B09906C0B69904C0B29BD1
:101DAA0002C0B49B01C002C00E94CA20CC990AC0DA
:101DBA00CE9908C0B09906C0B69B04C0B29902C0B9
:101DCA00B49B01C002C00E94D120CC990AC0CE990E
:101DDA0008C0B09B06C0B69904C0B29902C0B49BB1
:101DEA0001C002C00E94D820CC990AC0CE9B08C06C
:101DFA00B09906C0B69904C0B29902C0B49B01C09A
:101E0A0002C00E94DF20CC990AC0CE9908C0B099BE
:101E1A0006C0B69B04C0B29B02C0B49B01C002C0FC
:101E2A000E94E620CC990AC0CE9908C0B09B06C091
:101E3A00B69B04C0B29902C0B49B01C002C00E9402
:101E4A00ED20CC990AC0CE9B08C0B09B06C0B699BB
:101E5A0004C0B29902C0B49B01C002C00E94F4201F
:101E6A00CC990AC0CE9B08C0B09906C0B69B04C0E4
:101E7A00B29902C0B49901C002C00E94FB20CC9B57
:101E8A000AC0CE9908C0B09B06C0B69904C0B29BDE
:101E9A0002C0B49B01C002C00E940221CC990AC0B0
:101EAA00CE9B08C0B09B06C0B69904C0B29902C0C6
:101EBA00B49901C002C00E940921CC9B0AC0CE99E4
:101ECA0008C0B09906C0B69B04C0B29B02C0B49BBE
:101EDA0001C002C00E941021CC990AC0CE9908C044
:101EEA00B09B06C0B69904C0B29B02C0B49B01C0A5
:101EFA0002C00E941721CC990AC0CE9908C0B09B93
:101F0A0006C0B69904C0B29902C0B49901C002C011
:101F1A000E941E21CC990AC0CE9B08C0B09906C067
:101F2A00B69904C0B29B02C0B49B01C002C00E9411
:101F3A002521CC990AC0CE9B08C0B09906C0B69993
:101F4A0004C0B29902C0B49901C002C00E942C21F7
:101F5A00CC9B0AC0CE9908C0B09906C0B69904C0F5
:101F6A00B29B02C0B49B01C002C00E943321CC9B29
:101F7A000AC0CE9908C0B09906C0B69B04C0B299EF
:101F8A0002C0B49B01C002C00E943A21CC990AC087
:101F9A00CE9908C0B09B06C0B69B04C0B29902C0D5
:101FAA00B49901C002C00E944121CC9B0AC0CE99BB
:101FBA0008C0B09906C0B69B04C0B29B02C0B49BCD
:101FCA0001C002C00E944821CC990AC0CE9908C01B
:101FDA00B09B06C0B69B04C0B29902C0B49901C0B6
:101FEA0002C00E944F21CC990AC0CE9908C0B09B6A
:101FFA0006C0B69904C0B29B02C0B49901C002C01F
:10200A000E945621CC990AC0CE9908C0B09906C040
:10201A00B69B04C0B29902C0B49901C002C00E9422
:10202A005D21CC9B0AC0CE9B08C0B09906C0B69968
:10203A0004C0B29B02C0B49B01C002C00E946421CA
:10204A00CC990AC0CE9B08C0B09B06C0B69B04C000
:10205A00B29902C0B49B01C002C00E946B21CC9904
:10206A000AC0CE9B08C0B09906C0B69B04C0B299FC
:10207A0002C0B49B01C002C00E947221CC9B0AC05C
:10208A00CE9B08C0B09906C0B69B04C0B29902C0E4
:10209A00B49B01C002C00E947921CC9B0AC0CE9990
:1020AA0008C0B09B06C0B69904C0B29902C0B49BDE
:1020BA0001C002C00E948021CC9B0AC0CE9908C0F0
:1020CA00B09B06C0B69B04C0B29902C0B49B01C0C3
:1020DA0002C00E948721CC990AC0CE9B08C0B09941
:1020EA0006C0B69904C0B29B02C0B49901C002C02E
:1020FA000E948E210E94801FDF01CB01E0E0F0E008
:10210A0060EF71E40E94B12310F40E9495210E94AD
:10211A00A51E49F00E94AB1E31F00E94B11E19F0B3
:10212A000E94B71E09F404C0E1E4F0E00E949C2179
:10213A000E94A51E49F40E94AB1E31F40E94B11EF2
:10214A0019F40E94B71E09F004C0E2E4F0E00E940C
:10215A009C210E94A51E49F40E94AB1E31F00E94E8
:10216A00B11E19F00E94B71E09F404C0E3E4F0E0BE
:10217A000E949C210E94A51E49F00E94AB1E31F0CC
:10218A000E94B11E19F00E94B71E09F004C0E6E4CD
:10219A00F0E00E949C210E94A51E49F00E94AB1EFD
:1021AA0031F40E94B11E19F40E94B71E09F404C04A
:1021BA00EAE4F0E00E949C210E94A51E49F40E94D4
:1021CA00AB1E31F40E94B11E19F00E94B71E09F429
:1021DA0004C0E0E5F0E00E949C210E94B11E49F093
:1021EA000E94B71E31F40E94A51E19F00E94AB1E70
:1021FA0009F404C0E1E5F0E00E949C2108950E94E0
:10220A00271DE091F207F091F307E130A0E0FA0709
:10221A0039F40E94B41F0E94A1210E94B91FE5C28D
:10222A00E230A0E0FA0739F40E94A1210E94B41F0B
:10223A000E94B91FDAC2E330A0E0FA0739F40E941B
:10224A00A1210E94B41F0E94AC1FCFC2E430A0E0BB
:10225A00FA0739F40E94B41F0E94A1210E94AC1F00
:10226A00C4C2E530A0E0FA0739F40E94B41F0E9404
:10227A00A1210E94B91FB9C2E630A0E0FA0739F4D9
:10228A000E94A121E0E2F3E00E94A621AEC2E7305B
:10229A00A0E0FA0729F40E94A9210E94B91FA5C249
:1022AA00E830A0E0FA0729F40E94A71F0E94AE2195
:1022BA009CC2E930A0E0FA0739F40E94B41F0E94D8
:1022CA00B41F0E94AC1F91C2EA30A0E0FA0729F4B9
:1022DA000E94A71F0E94AE2188C2EB30A0E0FA0735
:1022EA0029F40E94A71F0E94AE217FC2EC30A0E011
:1022FA00FA0739F40E94A71FE2E3F0E00E94A62140
:10230A0074C2ED30A0E0FA0729F40E94A9210E94C4
:10231A00B91F6BC2EE30A0E0FA0739F40E94A71F7A
:10232A000E94B41F0E94B91F60C2EF30A0E0FA07F2
:10233A0039F40E94B41F0E94A71F0E94B91F55C2F8
:10234A00E031A0E0FA0729F40E94B1210E94B91FE6
:10235A004CC2E131A0E0FA0729F40E94B1210E949F
:10236A00B91F43C2E231A0E0FA0729F40E94B12161
:10237A000E94B91F3AC2E331A0E0FA0729F40E9489
:10238A00B6210E94B91F31C2E431A0E0FA0729F44C
:10239A000E94B6210E94B91F28C2E531A0E0FA07BF
:1023AA0029F40E94BB210E94C0211FC2E631A0E08D
:1023BA00FA0729F40E94A71F0E94AE2116C2E7312C
:1023CA00A0E0FA0729F40E94C3210E94B91F0DC296
:1023DA00E831A0E0FA0729F40E94A71F0E94AE2163
:1023EA0004C2E931A0E0FA0729F40E94C3210E943D
:1023FA00B91FFBC1EA31A0E0FA0729F40E94A71F1E
:10240A000E94AE21F2C1EB31A0E0FA0729F40E9442
:10241A00C3210E94B91FE9C1EC31A0E0FA0729F4EF
:10242A000E94A71F0E94AE21E0C1ED31A0E0FA0789
:10243A0029F40E94A71F0E94AE21D7C1EE31A0E065
:10244A00FA0729F40E94C3210E94B91FCEC1EF31B5
:10245A00A0E0FA0729F40E94C3210E94B91FC5C14E
:10246A00E032A0E0FA0729F40E94A71F0E94C021C7
:10247A00BCC1E132A0E0FA0729F40E94C8210E94F7
:10248A00B91FB3C1E232A0E0FA0729F40E94C321BE
:10249A000E94B91FAAC1E332A0E0FA0729F40E94F8
:1024AA00C8210E94B91FA1C1E432A0E0FA0729F4A9
:1024BA000E94A71F0E94AE2198C1E532A0E0FA0748
:1024CA0029F40E94C3210E94B91F8FC1E632A0E0FD
:1024DA00FA0729F40E94A71F0E94AE2186C1E7329B
:1024EA00A0E0FA0729F40E94C3210E94B91F7DC106
:1024FA00E832A0E0FA0729F40E94A71F0E94AE2141
:10250A0074C1E932A0E0FA0729F40E94C3210E94AB
:10251A00B91F6BC1EA32A0E0FA0729F40E94C3216D
:10252A000E94B91F62C1EB32A0E0FA0729F40E94A7
:10253A00A71F0E94AE2159C1EC32A0E0FA0739F474
:10254A00E1E4F0E00E94CD210E94B91F4EC1ED32B4
:10255A00A0E0FA0729F40E94B41F0E94D02145C1C5
:10256A00EE32A0E0FA0729F40E94B41F0E94D0219B
:10257A003CC1EF32A0E0FA0739F40E94BB210E9465
:10258A00B41F0E94B91F31C1E033A0E0FA0739F441
:10259A000E94BB210E94B41F0E94B91F26C1E133C9
:1025AA00A0E0FA0739F4EBE4F0E00E94CD210E94A2
:1025BA00B91F1BC1E233A0E0FA0729F40E94B41F35
:1025CA000E94AE2112C1E333A0E0FA0729F40E9467
:1025DA00A71F0E94D02109C1E433A0E0FA0729F419
:1025EA000E94A71F0E94AE2100C1E533A0E0FA07AE
:1025FA0039F4EBE4F0E00E94CD210E94B91FF5C046
:10260A00E633A0E0FA0739F40E94B41FE1E4F0E0EF
:10261A000E94A621EAC0E733A0E0FA0739F40E9433
:10262A00B41F0E94A71F0E94B91FDFC0E833A0E0B1
:10263A00FA0739F40E94B41F0E94A71F0E94B91F0B
:10264A00D4C0E933A0E0FA0739F40E94B41F0E940B
:10265A00A71F0E94B91FC9C0EA33A0E0FA0739F4DC
:10266A000E94A71F0E94B41F0E94B91FBEC0EB336D
:10267A00A0E0FA0729F40E94A71F0E94C021B5C052
:10268A00EC33A0E0FA0729F40E94B41F0E94AE219D
:10269A00ACC0E034A0E0FA0729F40E94C3210E94EA
:1026AA00B91FA3C0E134A0E0FA0759F40E94D3216C
:1026BA000E94D3210E94C11F0E94D821AEE0B6E039
:1026CA0092C0E234A0E0FA0749F4E091EE07F091F3
:1026DA00EF070E94DC21A2E1B6E085C0E334A0E066
:1026EA00FA0749F40E94C11F0E94E3210E94E821CF
:1026FA00AAE1B6E078C0E434A0E0FA0739F40E940F
:10270A00F121ADE1B6E00E94F6216FC0E534A0E008
:10271A00FA0739F4E4E1F0E00E94DC21A0E2B6E035
:10272A0062C0E634A0E0FA0759F40E94F9210E9437
:10273A00C11F0E94FE21A3E2B6E00E94F62155C005
:10274A00E734A0E0FA0749F4E8E2F0E00E94DC216D
:10275A00A6E2B6E00E94F62148C0E834A0E0FA07F3
:10276A0029F40E94F121A9E2B6E03DC0E934A0E0D3
:10277A00FA0739F40E94F121ACE2B6E00E94F62190
:10278A0034C0EA34A0E0FA0779F40E94D3210E9407
:10279A00D3210E94AC1FAFE2B6E00E94631D0E94E3
:1027AA007C1F0E94022221C0E035A0E0FA0779F4DA
:1027BA000E94F9210E94C11F0E94FE21A2E3B0E0FB
:1027CA000E94CE220E940222A2E3B6E00CC0E135AA
:1027DA00A0E0FA0751F40E94C11F0E94E3210E945F
:1027EA00E821A5E3B6E00E94631D0895E091F00791
:1027FA00F091F107309741F40E9407220E940722C4
:10280A000E94C11FA0E0F6C1E130A0E0FA0729F456
:10281A000E940C22EEE1F0E0E6C1E230A0E0FA0705
:10282A0029F40E940722E2E3F0E0DDC1E330A0E0F0
:10283A00FA0741F40E9407220E940C220E94C11F3B
:10284A00A0E0D8C1E430A0E0FA0741F40E940C22CB
:10285A000E9407220E94C11FA0E0CCC1E530A0E07F
:10286A00FA0749F40E94A71FE2E3F0E00E94A621BA
:10287A000E941122C2C1E630A0E0FA0739F40E9490
:10288A00A9210E94B91F0E941122B7C1E730A0E016
:10289A00FA0719F4E2E3F0E0A2C1E830A0E0FA078F
:1028AA0029F40E94A71FE6E4F0E09DC1E930A0E008
:1028BA00FA0741F40E94B41F0E94B41F0E94C11F6C
:1028CA00A0E098C1EA30A0E0FA0729F40E94A71F05
:1028DA00E6E4F0E088C1EB30A0E0FA0739F40E94A0
:1028EA00A71F0E94AE210E94112287C1EC30A0E0EE
:1028FA00FA0729F40E94A71FE2E3F0E074C1ED3061
:10290A00A0E0FA0719F4E2E3F0E069C1EE30A0E0D2
:10291A00FA0729F40E94A71FE0E5F0E064C1EF304E
:10292A00A0E0FA0719F4E0E5F0E059C1E031A0E0CF
:10293A00FA0719F4EAE5F0E052C1E131A0E0FA073A
:10294A0019F4EAE5F0E04BC1E231A0E0FA0719F424
:10295A00EAE5F0E044C1E331A0E0FA0719F40E9485
:10296A00152241C1E431A0E0FA0719F40E941522A8
:10297A003AC1E531A0E0FA0729F40E94BB21E5E556
:10298A00F0E031C1E631A0E0FA0729F40E94A71F5E
:10299A00E6E4F0E028C1E731A0E0FA0709F41DC136
:1029AA00E831A0E0FA0729F40E94A71FE6E4F0E064
:1029BA001AC1E931A0E0FA0709F40FC1EA31A0E02F
:1029CA00FA0729F40E94A71FE6E4F0E00CC1EB31F4
:1029DA00A0E0FA0709F401C1EC31A0E0FA0729F4F2
:1029EA000E94A71FE6E4F0E0FEC0ED31A0E0FA077E
:1029FA0029F40E94A71FE6E4F0E0F5C0EE31A0E05A
:102A0A00FA0709F4EAC0EF31A0E0FA0709F4E5C0D1
:102A1A00E032A0E0FA0729F40E94A71FE5E5F0E0FA
:102A2A00E2C0E132A0E0FA0719F4E5E5F0E0D7C028
:102A3A00E232A0E0FA0709F4D0C0E332A0E0FA07D4
:102A4A0019F4E5E5F0E0CBC0E432A0E0FA0729F496
:102A5A000E94A71FE6E4F0E0C6C0E532A0E0FA074C
:102A6A0009F4BBC0E632A0E0FA0729F40E94A71FC6
:102A7A00E6E4F0E0B8C0E732A0E0FA0709F4ADC036
:102A8A00E832A0E0FA0729F40E94A71FE6E4F0E082
:102A9A00AAC0E932A0E0FA0709F49FC0EA32A0E02E
:102AAA00FA0709F49AC0EB32A0E0FA0729F40E9467
:102ABA00A71FE6E4F0E097C0EC32A0E0FA0719F4A9
:102ACA00E1E4F0E08CC0ED32A0E0FA0729F40E94BC
:102ADA00B41FEAE5F0E087C0EE32A0E0FA0729F475
:102AEA000E94B41FEAE5F0E07EC0EF32A0E0FA07E8
:102AFA0029F40E94BB21E0E5F0E075C0E033A0E0D4
:102B0A00FA0729F40E94BB21E0E5F0E06CC0E1334A
:102B1A00A0E0FA0719F4EBE4F0E061C0E233A0E0C8
:102B2A00FA0729F40E94B41FE6E4F0E05CC0E3333C
:102B3A00A0E0FA0729F40E94A71FEAE5F0E053C0D3
:102B4A00E433A0E0FA0729F40E94A71FE6E4F0E0C4
:102B5A004AC0E533A0E0FA0719F4EBE4F0E03FC01D
:102B6A00E633A0E0FA0729F40E94B41FE1E4F0E09A
:102B7A003AC0E733A0E0FA0719F4E0E5F0E02FC025
:102B8A00E833A0E0FA0719F4E0E5F0E028C0E933F9
:102B9A00A0E0FA0719F4E0E5F0E021C0EA33A0E08A
:102BAA00FA0729F40E94A71FE0E5F0E01CC0EB3306
:102BBA00A0E0FA0729F40E94A71FE5E5F0E013C098
:102BCA00EC33A0E0FA0729F40E94B41FE6E4F0E02F
:102BDA000AC0E034A0E0FA0781F4E6E4F0E0FA93F0
:102BEA00EA93E4E6F0E0FA93EA93E1E0F0E0FA939C
:102BFA00EA93A1E0B0E00E941F040895E4E6F0E041
:102C0A000E94781EE4E6F0E00E947D1EDF9ADD98BD
:102C1A000E94C61FA8E3B6E00E94C91FABE3B6E054
:102C2A000E94D91F0E94001E0E941C222CF40E949E
:102C3A00D61D0E941C220CF001C0E0CF0895E4E0EA
:102C4A00F0E060E070E0E093DC07F093DD0760936A
:102C5A00DE077093DF07E5E0F0E060E070E0E09304
:102C6A00E007F093E1076093E2077093E3070E949D
:102C7A002422AFE3B6E00E94631DA7E4B6E00E94F7
:102C8A00631D0E949E1F0E94652431F40E94A121A7
:102C9A000E94A1210E94AC1F0E949E1F0E946A24CA
:102CAA0034F40E942B220E94A1210E94AC1F0E9490
:102CBA009E1F0E94652434F40E94A1210E942B22A7
:102CCA000E94AC1F0E94EA1EAAE4B6E00E94C91F35
:102CDA00ADE4B6E00E94D91F0E94D61DEDECF0E0EB
:102CEA0060E070E00E9410240E2E0E94D61DEFEFC5
:102CFA00FFEF6FEF7FEF0E941824E02111F60E9488
:102D0A00C11F0E94C11F0E94AC1F0E943022A1E570
:102D1A00B6E00E94631DA9E5B6E00E94631D0E9409
:102D2A000C220E940C220E94C11F0E94D8210E94DC
:102D3A00EA1EACE5B6E00E94C91FAFE5B6E00E9404
:102D4A00D91F0E943D223D960E94422244F30E94CE
:102D5A00C11F0E94C11F0E94AC1F0E943022A3E61D
:102D6A00B6E00E94631DABE6B6E00E94631D0E94B6
:102D7A009E1F0E94652431F40E94A1210E94A12174
:102D8A000E94AC1F0E949E1F0E946A2434F40E9473
:102D9A002B220E94A1210E94AC1F0E949E1F0E940A
:102DAA00652434F40E94A1210E942B220E94AC1FA8
:102DBA000E94EA1EAEE6B6E00E94C91FA1E7B6E08D
:102DCA000E94D91F0E94482294F20E94C11F0E94A9
:102DDA00C11F0E94AC1F0E943022A5E7B6E00E94E4
:102DEA00631DADE7B6E00E94631D0E940C220E949B
:102DFA000C220E94C11F0E94D8210E94EA1EA0E84C
:102E0A00B6E00E94C91FA3E8B6E00E94D91F0E943B
:102E1A003D227E960E94422244F30E94C11F0E94D4
:102E2A00C11F0E94AC1F0E943022A7E8B6E00E9490
:102E3A00631DAFE8B6E00E94631D0E949E1F0E94B8
:102E4A00652431F40E94A1210E94A1210E94AC1F95
:102E5A000E949E1F0E946A2434F40E942B220E9420
:102E6A00A1210E94AC1F0E949E1F0E94652434F477
:102E7A000E94A1210E942B220E94AC1F0E94EA1EDE
:102E8A00A2E9B6E00E94C91FA5E9B6E00E94D91FCF
:102E9A000E94482294F20E94C11F0E94C11F0E94F0
:102EAA00AC1F0E943022A9E9B6E00E94631DA1EA84
:102EBA00B6E00E94631D0E940C220E940C22E1E0EF
:102ECA00F0E0FA93EA930E94FE210E94EA1EA4EA25
:102EDA00B6E00E94C91FA7EAB6E00E94D91F0E9465
:102EEA003D223D970E94D61D0E94F8230E94652428
:102EFA0014F30E94C11F0E94C11F0E94AC1F0E94AE
:102F0A003022ABEAB6E00E94631DA3EBB6E00E9452
:102F1A00631D0E949E1F0E94652431F40E94A12114
:102F2A000E94A1210E94AC1F0E949E1F0E946A2437
:102F3A0034F40E942B220E94A1210E94AC1F0E94FD
:102F4A009E1F0E94652434F40E94A1210E942B2214
:102F5A000E94AC1F0E94EA1EA6EBB6E00E94C91F9F
:102F6A00A9EBB6E00E94D91F0E94482294F20E945F
:102F7A00C11F0E94C11F0E94AC1F0E94091E0E940D
:102F8A00F61DACEDB5E033C20E9457092FDC089557
:102F9A000E944C22309781F40E9451220E942B1FDA
:102FAA00AE17BF0718F40E94301F02C00E942B1FE1
:102FBA00E093F607F093F7070E94271DADEBB6E002
:102FCA000E948E1E0E9456220E945D22A1ECB6E04B
:102FDA000E9465220E9451220E946E220E2EA0910A
:102FEA00D307B091D4070E946E22E029F1F00E9423
:102FFA0051220E942B1FEA17FB0740F4E4E6F0E097
:10300A0060E070E00E94521E0E946E1E0E945122D1
:10301A000E942B1FAE17BF0740F40E94641EE4E60D
:10302A00F0E060E070E00E945B1E0E945622E09190
:10303A00E407F091E5070E94A6210E94641E0E94FF
:10304A006E1E08950E94271DA3ECB6E00E948E1EF4
:10305A000E9456220E945D22A8ECB6E00E946522D8
:10306A00A6E4B0E00E94E4030E945622E091E4073D
:10307A00F091E507FA93EA930E94AC1F08950E9423
:10308A00FB0CBDD808951A9310E00E9487060E948F
:10309A00BD060E94271DAAECB6E00E94631D10E03F
:1030AA00123008F03FC01230D8F50E943C1FEF3FA3
:1030BA00A3E0FA0731F00E94471FEF3FA3E0FA07A7
:1030CA0009F42EC00E943C1FE050F240EF3FA3E0FB
:1030DA00FA0738F4ECE3F0E0E0932F07F0933007B7
:1030EA0006C0ECE3F0E0E0932D07F0932E070E9470
:1030FA003C1FE050F240E093F806F093F906E091A5
:10310A004A07A7EBB7E0F0E0EE0FFF1FAE0FBF1FB5
:10311A000E945324E657F140E093FA06F093FB0627
:10312A001F5FBECF0E94801FDF01CB01E0E0F0E00D
:10313A0060E272E40E94B12309F008F40EC0E09143
:10314A002D07F0912E07FA93EA93E0912F07F09159
:10315A003007FA93EA930E94AC1F0E947C1FC39B1C
:10316A0002C0C39801C0C39A199108950E94271DED
:10317A00A1EDB6E00E94631D0895E0E0E093270701
:10318A00E0932807E0932907E0932A07E0910F07C5
:10319A00F0911007309749F40A2C0B2819F4E1E052
:1031AA00F0E05F010E945F0720C1E130A0E0FA076A
:1031BA0049F40A2C0B2819F4E1E0F0E05F010E94BF
:1031CA008C0713C1E230A0E0FA0749F40A2C0B2855
:1031DA0019F4E1E0F0E05F010E94AD0706C1E330B7
:1031EA00A0E0FA0749F40A2C0B2819F4E1E0F0E010
:1031FA005F010E94CE07F9C0E430A0E0FA0749F463
:10320A000A2C0B2819F4E1E0F0E05F010E94F707AD
:10321A00ECC0E530A0E0FA0749F40A2C0B2819F4AF
:10322A00E1E0F0E05F010E941A08DFC0E630A0E0AA
:10323A00FA0749F40A2C0B2819F4E1E0F0E05F01DF
:10324A000E948D08D2C0E730A0E0FA0749F40A2CA0
:10325A000B2819F4E1E0F0E05F010E948F08C5C075
:10326A00E830A0E0FA0749F40A2C0B2819F4E1E047
:10327A00F0E05F010E949708B8C0E930A0E0FA07C1
:10328A0049F40A2C0B2819F4E1E0F0E05F010E94EE
:10329A00C308ABC0EA30A0E0FA0749F40A2C0B28AD
:1032AA0019F4E1E0F0E05F010E94E7089EC0EB300C
:1032BA00A0E0FA0749F40A2C0B2819F4E1E0F0E03F
:1032CA005F010E940B0991C0EC30A0E0FA0749F4B3
:1032DA000A2C0B2819F4E1E0F0E05F010E941009C2
:1032EA0084C0E631A0E0FA0749F40A2C0B2819F445
:1032FA00E1E0F0E05F010E94380977C0E731A0E021
:10330A00FA0749F40A2C0B2819F4E1E0F0E05F010E
:10331A000E9419096AC0ED30A0E0FA0741F40A2CAC
:10332A000B2819F4E1E0F0E05F0168DC5EC0EE30E2
:10333A00A0E0FA0741F40A2C0B2819F4E1E0F0E0C6
:10334A005F017DDC52C0EF30A0E0FA0741F40A2C9D
:10335A000B2819F4E1E0F0E05F0116DE46C0E03127
:10336A00A0E0FA0741F40A2C0B2819F4E1E0F0E096
:10337A005F010EDE3AC0E131A0E0FA0741F40A2CFF
:10338A000B2819F4E1E0F0E05F015CDE2EC0E231C7
:10339A00A0E0FA0741F40A2C0B2819F4E1E0F0E066
:1033AA005F016DDE22C0E331A0E0FA0741F40A2C86
:1033BA000B2819F4E1E0F0E05F0165DE16C0E431A4
:1033CA00A0E0FA0741F40A2C0B2819F4E1E0F0E036
:1033DA005F01CCDE0AC00E94271DE091CD07F09163
:1033EA00CE07FA93EA930E945D22A2E3B0E00E941C
:1033FA00CE220895AA93E091E406E03019F4689485
:10340A0021F805C0E89421F8E0E00C94C81DE88191
:10341A00E03019F0E0E00C94C81DA091E306E2E167
:10342A000E94FD230C94C81DAA93E881E03009F09C
:10343A004AC0E0912107E0935F07E0912307E093F8
:10344A0060070E94301FE0936107F09362070E94B1
:10345A002B1FE0936307F0936407E091DC07F09178
:10346A00DD07E0936507F0936607E091E007F091C6
:10347A00E107E0936707F0936807E091F806F09197
:10348A00F906E0936907F0936A07E091FA06F0916A
:10349A00FB06E0936B07F0936C07E0913807E09323
:1034AA006D07E62DEA5AE0936E070E94801FAFE689
:1034BA00B7E00E940523EC93E0914B07E093700775
:1034CA00E2E10C94C81D21FE07C0E0915E07F0E01E
:1034DA00E0930D07F0930E07E0E00C94C81DE0E0BE
:1034EA00EA93E0E5EA93EDE4F7E0FA93EA93E2E19E
:1034FA00EA93EFE5F7E0FA93EA93EFEFF9E1FA934B
:10350A00EA93A9E1BAE10E941B1B08950E94E50211
:10351A000E947D220E945906E2DFA091CD07B09158
:10352A00CE07A53FE1E0BE0738F0E1E0F0E0E09326
:10353A00C507F093C60705C0E0E0E093C507E0932E
:10354A00C607A091D107B091D207A53FE1E0BE0717
:10355A0038F0E1E0F0E0E093C907F093CA0705C04C
:10356A00E0E0E093C907E093CA07A091D507B091BC
:10357A00D607A53FE1E0BE0738F0E1E0F0E0E093CE
:10358A00CB07F093CC0705C0E0E0E093CB07E093CC
:10359A00CC07A091D907B091DA07A53FE1E0BE07B1
:1035AA0038F0E1E0F0E0E093C707F093C80705C000
:1035BA00E0E0E093C707E093C8070E948E05DDDDCF
:1035CA000E94AB050E94BE050E94E104A6CFFFCF70
:1035DA00BA93AA93A991B991E991F99130962AF4EB
:1035EA00E095F09531966DE26D93E89480E197E26B
:1035FA000DD088EE93E00AD084E6992707D08AE0B6
:10360A0005D06E2F10D066276C9308956627E817A9
:10361A00F90720F06395E81BF90BC9F7662311F443
:10362A0016F008956894605D6D930895BA93AA930D
:10363A00689424F8E7E0E093E406EF81F885E093E4
:10364A000008F0930108EE81E0930308EC81FD8104
:10365A00E093FD07F093FE07EA81FB81E0930408FB
:10366A00F0930508E881F981E0930608F0930708CA
:10367A00919A909AEA85E03011F0E1E002C0E9857A
:10368A00EE0FE0937200E0917400E078E564E09355
:10369A0074002B9608950A921A92FA926A937A9370
:1036AA008A939A93AA93BA93EA93FA93EFB7EA930F
:1036BA000E946F241091E3060091E2063091FF0701
:1036CA002091E406E12FA0910008B0910108F0E0F2
:1036DA00EA0FFB1FAF01E0917100E87FE83011F4B7
:1036EA0020E002C0E03119F4E091FC0710C0E83193
:1036FA0011F0E83249F5031798F4E02F0F5FA09113
:10370A00FD07B091FE07F0E0AE0FBF1FEC91E0930A
:10371A007300E0917400EF70E068E093740013C0E6
:10372A00E09102081E1770F4E091FC07E160E09353
:10373A00FC07E89423F8E0917400EF70E06AE093E4
:10374A00740013C138C011C1E03531F4E09173003F
:10375A00DA01EC931F5F02C0E03489F4E0910208B9
:10376A00E1501E1728F0E0917400EF70E06804C081
:10377A00E0917400EF70E06CE0937400F6C0E835F5
:10378A0031F4E0917300DA01EC931F5F02C0E0327A
:10379A0009F402C0E03309F402C0E83469F42030C5
:1037AA0051F423FE03C0031728F005C0E091020874
:1037BA001E1708F424E0D1C0E83331F422E0E09186
:1037CA007400EF70E068CDC0E83611F0E83711F404
:1037DA0022E005C0E03611F0E037A9F420E010E05D
:1037EA00E89423F8E0910308E03031F421E0E09115
:1037FA007400EF70E06804C0E0917400EF70E06C50
:10380A00E0937400B2C0E03811F0E03941F523FECC
:10381A0002C021E0A2C0E0917300DA01EC931F5FBD
:10382A00E09103081E17C0F4E0910408F09105081E
:10383A00309711F426E091C0A0E0E0910408F091DD
:10384A0005080995E03039F0E0917400EF70E06CFA
:10385A00E09374008AC002C0689423F802C0E83872
:10386A0009F402C0E83939F4E0917400EF70E068B5
:10387A00E09374007AC0E03AB9F4E0917400EF7012
:10388A00E06CE0937400689424F8E0910408F091E5
:10389A000508309739F0A1E0E0910408F091050895
:1038AA00099501C026E061C0E03B11F422E002C0A4
:1038BA00E83AB9F4E0910608F0910708309759F010
:1038CA00A0E0E0910608F091070809953E2FE03044
:1038DA0011F020E002C026E040C000E0E89423F89E
:1038EA0002C0E83B01F523FE02C021E036C0E02F0A
:1038FA000F5FA091FD07B091FE07F0E0AE0FBF1F6A
:10390A00EC91E0937300031728F4E0917400EF70D0
:10391A00E06C06C0689423F8E0917400EF70E068E8
:10392A00E093740022C0E03C11F0E83C99F4E09185
:10393A007400EF70E06CE0937400E0910608F09177
:10394A000708309731F0A1E0E0910608F0910708E6
:10395A00099509C0E03049F423E0E0917400EF7062
:10396A00E06DE0937400689424F81093E3060093E2
:10397A00E2062093E4063093FF070E9476242696F7
:10398A00E991EFBFF991E991B991A9919991899139
:10399A0079916991F990199009901895FFE0FA9533
:1039AA00F1F70895A4B3AF70A4BBA99AA898F6DF5B
:1039BA00AA9AF4DFA3B3AA98F1DFAA9AEFDFAA982A
:1039CA00A7FDF5CF0895A07FAB2BA5BBAA9A0E94AD
:1039DA00D31CAA980E94D31C0895AA93A998A4B3A9
:1039EA00A76FA4BBB5B3BF70A881EDDFA881A2956C
:1039FA00EADFA99A0C94C81DAA9A0E94D31CE3B3C1
:103A0A00AA980E94D31CE07F08950E94D31CF4DF79
:103A1A00AE2FF2DFA998E295EA2B0895AA930E94A5
:103A2A00D71CE881F0E0E85FF74FE081A981AE0F8B
:103A3A000E94F21CE981E0930C08E881E0930D08EA
:103A4A00229608950E94D71CA2E00E94F21C0E94AE
:103A5A00D71CACE00E94F21C0E94D71CA1E00E9475
:103A6A00F21CE0E0E0930D08E0930C080895AA9395
:103A7A00EF93FF93A8816894AA3039F0E894E09113
:103A8A000E08A0910C08AE1758F0E0910D08EF5FF0
:103A9A00E0930D08E0E0EA93A0910D08BFDF56F02D
:103AAA00E0910C08EF5FE0930C087CDFA89AA881EC
:103ABA000E94F21CFF91EF910C94C81DBA93AA932D
:103ACA001A93A981BA81ED91A983BA831E2FE03096
:103ADA0019F0A12FCCDFF5CF10C0BA93AA931A938D
:103AEA00E981FA813196E983FA833197E4911E2FAD
:103AFA00E03019F0A12FBBDFF3CF18812396089588
:103B0A00AA27BB271197F1F70895AA93A998A4B3F6
:103B1A00A76FA4BBB5B3BF70A8810E94E81CA99A7D
:103B2A0032C0AA93AA98A898E881E0930E08E058B0
:103B3A00E0930A08E881E054E0930B080E9474229B
:103B4A000E9474220E947422DBDFA0E2DEDFD8DF4B
:103B5A00A8E20E947922A4E00E947922A5E80E94A4
:103B6A007922A4B3AF70A4BBA99A0E940A1DE530BA
:103B7A0011F0E0E008C00E94D71CA6E00E94F21CE7
:103B8A000E94271DE1E0219608950A926A937A938A
:103B9A008A939A93AA93BA93EA93FA93EFB7EA931A
:103BAA000895A091E007B091E1078091E207909112
:103BBA00E3070895E0EEF1EB6FEF7FEF0E94082430
:103BCA000E2E0895E0E2FEE460E070E00E94102408
:103BDA00E02108950E945724EF5FFF4F6F4F7F4FF8
:103BEA000895E0E0E093E007E093E107E093E2075D
:103BFA00E093E3070895A091DC07B091DD07809177
:103C0A00DE079091DF070895E0E0E093DC07E09398
:103C1A00DD07E093DE07E093DF070895ED91FD915C
:103C2A003196FE93EE930895A0912507B091260749
:103C3A000895A091E407B091E5078091E607909175
:103C4A00E7070895AF3FE0E0BE07E0E08E07E0E057
:103C5A009E070895A030E0E0BE07E0E08E07E0E0AE
:103C6A009E070895A091E807B091E9078091EA07B5
:103C7A009091EB070895A091CF07B091D007E5E0A6
:103C8A00F0E00E9432240895A091D307B091D4079E
:103C9A00E5E0F0E00E9432240895E093E407F0930F
:103CAA00E5076093E6077093E7070895E093E8074E
:103CBA00F093E9076093EA077093EB070895E0E051
:103CCA00E093E407E093E507E093E607E093E7076C
:103CDA000895E0E0E093E807E093E907E093EA0754
:103CEA00E093EB070895E0932707F09328070895D8
:103CFA00E0932907F0932A070895AA93BA93EA93BF
:103D0A00FA93EFB7EA930895E0913407F0913507F3
:103D1A0008950E94631DE0E0EA93A1E00C94131D4C
:103D2A00F0E0FA93EA93A9E3B7E00E94ED1AA9E357
:103D3A00B7E00C94631DE0930F07F0931007089502
:103D4A00E091C507F091C60730970895E091C90739
:103D5A00F091CA0730970895E091CB07F091CC070C
:103D6A0030970895E091C707F091C80730970895F2
:103D7A00A4E6B0E00E942D246E0F7F1F0895AAE0EA
:103D8A00B0E00E942D24E60FF71F0895EE0FFF1FE3
:103D9A00EA0FFB1F0895F801A3E0B0E00E942D246A
:103DAA000895DF01AA0FBB1FA057B84F0E945324E2
:103DBA0008950E945324A091C307B091C407EA0F43
:103DCA00FB1FDB01ED93FC930895E0E0EA93A1E089
:103DDA000C94131DE4E6F0E086DFE4E6F0E088DF09
:103DEA000E94271DE091F606F091F7063097089594
:103DFA000E94631DE091DC07F091DD07FA93EA93D4
:103E0A00DE0112960E94ED1ADE010C94631D0E94D7
:103E1A00631DE091E007F091E107FA93EA93DE016E
:103E2A0012960E94ED1ADE010C94631DAAEFB0E00F
:103E3A000E94CE22E091F606F091F7060E94202415
:103E4A00F0E0E093F606F093F7060895E091D307C1
:103E5A00F091D4070895E091CF07F091D007089523
:103E6A00DE0116960E94ED1ADE0114960895E12FDE
:103E7A00AFEAB7E0F0E0EE0FFF1FAE0FBF1F0E94E0
:103E8A0053240895E12FA7EBB7E0F0E0EE0FFF1FF0
:103E9A00AE0FBF1F0E9453240895E050F240FA93D8
:103EAA00EA93AAEAB7E00C94ED1AA0E00E94131D67
:103EBA00AAEAB7E00C94631DE657F140FA93EA9335
:103ECA00AAEAB7E00C94ED1AE12FF0E0E154F84FBA
:103EDA00E081F0E0FA93EA93AAEAB7E00C94ED1ACB
:103EEA00A1E00E94131DAAEAB7E00C94631DAEE19B
:103EFA00B0E00C94CE22E0918607F09187076627FE
:103F0A0077270E943E23DF01CB01EDECFCEC60E554
:103F1A0072E40E946C230895E2E0F0E060E070E051
:103F2A00E093DC07F093DD076093DE077093DF0709
:103F3A0058CEE091DC07F091DD076091DE077091C1
:103F4A00DF072FCEE4E6F0E0FA93EA930895E0E083
:103F5A00F0E0FA93EA93A0E0B0E00C941F04E0E5E5
:103F6A00F0E0FA93EA930895E1E0F0E0FA93EA9335
:103F7A00A1E0B0E00C941F04E0E0F0E0FA93EA93C9
:103F8A0008950E94271D21CF0E94631DE091DC073E
:103F9A00F091DD07FA93EA93ACEFB6E00E94ED1ACE
:103FAA00ACEFB6E00C94631D0E94631DE091E0073C
:103FBA00F091E107FA93EA93ACEFB6E00E94ED1AAA
:103FCA00ACEFB6E00C94631DA131E0E0BE07E0E07F
:103FDA008E07E0E09E070895E1E0F0E0E093F00745
:103FEA00F093F1070895E2E0F0E0E093F007F09330
:103FFA00F1070895E3E0F0E0E093F007F093F107AA
:10400A000895E4E0F0E0E093F007F093F1070895F3
:10401A00E5E0F0E0E093F007F093F1070895E6E0B9
:10402A00F0E0E093F007F093F1070895E7E0F0E09D
:10403A00E093F007F093F1070895E8E0F0E0E093E9
:10404A00F007F093F1070895E9E0F0E0E093F00754
:10405A00F093F1070895EAE0F0E0E093F007F093B7
:10406A00F1070895EBE0F0E0E093F007F093F10731
:10407A000895ECE0F0E0E093F007F093F10708957B
:10408A00EDE0F0E0E093F007F093F1070895EEE039
:10409A00F0E0E093F007F093F1070895EFE0F0E025
:1040AA00E093F007F093F1070895E0E1F0E0E09380
:1040BA00F007F093F1070895E1E1F0E0E093F007EB
:1040CA00F093F1070895E2E1F0E0E093F007F0934E
:1040DA00F1070895E3E1F0E0E093F007F093F107C8
:1040EA000895E4E1F0E0E093F007F093F107089512
:1040FA00E5E1F0E0E093F007F093F1070895E6E1D7
:10410A00F0E0E093F007F093F1070895E7E1F0E0BB
:10411A00E093F007F093F1070895E8E1F0E0E09307
:10412A00F007F093F1070895E9E1F0E0E093F00772
:10413A00F093F1070895EAE1F0E0E093F007F093D5
:10414A00F1070895EBE1F0E0E093F007F093F1074F
:10415A000895ECE1F0E0E093F007F093F107089599
:10416A00EDE1F0E0E093F007F093F1070895EEE156
:10417A00F0E0E093F007F093F1070895EFE1F0E043
:10418A00E093F007F093F1070895E0E2F0E0E0939E
:10419A00F007F093F1070895E1E2F0E0E093F00709
:1041AA00F093F1070895E2E2F0E0E093F007F0936C
:1041BA00F1070895E3E2F0E0E093F007F093F107E6
:1041CA000895E4E2F0E0E093F007F093F107089530
:1041DA00E5E2F0E0E093F007F093F1070895E6E2F4
:1041EA00F0E0E093F007F093F1070895E7E2F0E0DA
:1041FA00E093F007F093F1070895E8E2F0E0E09326
:10420A00F007F093F1070895E9E2F0E0E093F00790
:10421A00F093F1070895EAE2F0E0E093F007F093F3
:10422A00F1070895EBE2F0E0E093F007F093F1076D
:10423A000895ECE2F0E0E093F007F093F1070895B7
:10424A00EDE2F0E0E093F007F093F1070895EEE273
:10425A00F0E0E093F007F093F1070895EFE2F0E061
:10426A00E093F007F093F1070895E0E3F0E0E093BC
:10427A00F007F093F1070895E1E3F0E0E093F00727
:10428A00F093F1070895E2E3F0E0E093F007F0938A
:10429A00F1070895E3E3F0E0E093F007F093F10704
:1042AA000895E4E3F0E0E093F007F093F10708954E
:1042BA00E5E3F0E0E093F007F093F1070895E6E311
:1042CA00F0E0E093F007F093F1070895E7E3F0E0F8
:1042DA00E093F007F093F1070895E8E3F0E0E09344
:1042EA00F007F093F1070895E9E3F0E0E093F007AF
:1042FA00F093F1070895EAE3F0E0E093F007F09312
:10430A00F1070895EBE3F0E0E093F007F093F1078B
:10431A000895ECE3F0E0E093F007F093F1070895D5
:10432A00E0E4F0E0E093F007F093F1070895E093FA
:10433A00F207F093F3070895ECE3F0E0FA93EA93B7
:10434A000895FA93EA9310CEE2E3F0E0FA93EA933F
:10435A00F9CDE6E4F0E0F5CFEAE5F0E0FA93EA9386
:10436A00F1CDE6E4F0E0FA93EA93F9CDEAE5F0E07C
:10437A00FA93EA930895E5E5F0E0E3CFE6E4F0E0A6
:10438A00FA93EA93DFCDE5E5F0E0FA93EA93DACD22
:10439A00FA93EA93D7CDEAE5F0E0D3CFE3E2F0E08F
:1043AA00FA93EA930895A1E0B0E00C941F04FA93FB
:1043BA00EA93EEE1F0E0FA93EA93C9CDE8E2F0E09D
:1043CA00FA93EA93C4CDA6E4B0E00E94CE22EAE0D2
:1043DA00F0E0FA93EA93B5CFEEE1F0E0FA93EA93CC
:1043EA00EDCF0E94631DEFCFE8E2F0E0FA93EA9383
:1043FA00C3CDA0E0B0E00C941F04EAE0F0E0FA9329
:10440A00EA939FCFEEE1F0E0FA93EA930895E2E3AC
:10441A00F0E0FA93EA930895A8ECB0E00C94CE2267
:10442A00E6E4F0E0FA93EA93E0E5F0E00895A034D8
:10443A00E0E0BE07E0E08E07E0E09E0708950E94F4
:10444A00271DE0E0EA93A0E00C94131DE6E4F0E0F7
:10445A00FA93EA930895ACEDB5E00E94CE22E0917A
:10446A00E007F091E107E093F407F093F507E7CF4F
:10447A00E091F407F091F507089593DB0E94F82381
:10448A000E946A240895F4DFE353FF4FF6CFE091C8
:10449A00F607F091F7070895A091CF07B091D007DA
:1044AA000895E091E807F091E907FA93EA930895ED
:1044BA00ACEFB6E00E94ED1AACEFB6E00C94631DC7
:1044CA000E94631DE091E407F091E507FA93EA93ED
:1044DA00EFCFDDDFEC59FF4F0E94022408950E94BE
:1044EA00851DA0E30C948A1D0E94F21C0C94851D64
:1044FA00C398C598BB9ABD9815C0BD98BB98EE27BE
:10450A000000B59B0895B39B089504D0BD9A02D0CC
:10451A00BB9AE1E06BE107C0BD9ABB9A03D0BB9896
:10452A00F9DFBD9865E36A95F1F7089578E0BB98DD
:10453A00F1DFB39BFECFEEDF8894B5990894BB9A5E
:10454A00F1DFEE1F7A9599F77A2F772311F4BD9848
:10455A0001C0BD9ADFDFBB98E5DFBB9ADBDFBD9800
:10456A00D9CF78E0AA0F10F4BD9801C0BD9ADADF5E
:10457A00BB98D0DFB39BFECFCDDFBB9A7A9591F77C
:10458A00BD98C8DFBB98CEDFE1E0B599EE27BB9AAC
:10459A00C1CF109639F080EA9FE00197F1F7A8950C
:1045AA001197C9F70895552342F4503811F4E0FFE2
:1045BA0004C03196691F791F6BF050E8572711F430
:1045CA005F9373C05F3F31F0660F000C5795679594
:1045DA00752F08955F9300200AF073C06CC050E8ED
:1045EA00192E1522880F991F9527550F879550E880
:1045FA00072E0522660F771F7527550F67950895B1
:10460A00689401C0E8945F93F2DF703818F07F3F36
:10461A0008F44BC056E1571BAAF4519558300EF4D2
:10462A00593030F0EFEFFFEF6FEF7FE777F91AC0FD
:10463A0077275523B9F0EE0FFF1F661F771F5A958C
:10464A00D1F710C07727583028F0EF2FF62F672FB1
:10465A005850F9CF552331F076956795F795E79538
:10466A005A95D1F700200AF49BD05F910895689477
:10467A0001C0E894309760407040B1F0002426F001
:10468A00772312F400948CD0172E7EE1112032F099
:10469A007A95EE0FFF1F661F111CF9CFEF2FF62F29
:1046AA00612D5F938ADF5F910895EE27FF276627C2
:1046BA0077275F910895EFEFFFEF6FE77FEF5F9145
:1046CA000895EFEFFFEF6FE77FE75F9108955F933C
:1046DA0086DF703821F411200AF4EDCFF2CF90383A
:1046EA0009F4E3CF01240894970B1BF4D4F30020B8
:1046FA00F3CF792F1F932F933F934F9311241127B1
:10470A00222733274427552790E2AE17BF0786078B
:10471A00410730F0AE1BBF0B860B410B089401C05A
:10472A008894551F221F331F111CAA1FBB1F881FE5
:10473A00441F9A9551F7F901612D4F913F912F919D
:10474A001F91662332F0550FEE1FFF1F661F7A95E1
:10475A0043F229DF5F91089599239AF0772342F073
:10476A00971748F029F4AE17BF07860720F031F0F3
:10477A00989488940895989408940895189488941D
:10478A0008957723C2F7971798F3A9F7EA17FB0753
:10479A00680788F399F3ECCFF195E195F040089515
:1047AA00F09560957095E195FF4F6F4F7F4F089593
:1047BA00EE230E2EFD0121F0F695E7950A94E1F716
:1047CA000895EE0FFF1FEE0FFF1FEE0FFF1FEE0FF4
:1047DA00FF1F0895F695E795F695E795F695E795FF
:1047EA00F695E79508956F2F660F660B762F089555
:1047FA00AE17E1E008F0EE270895EA17FB07E1E0BB
:10480A0008F0EE270895AE17BF0786079707E1E07D
:10481A000CF4EE270895AE17BF0786079707E1E065
:10482A000CF0EE270895EA17FB0768077907E1E01D
:10483A000CF0EE270895EF2BE1E009F0E0E008958F
:10484A00FA9FF02DEB9FF00DEA9FE02DF10D0895F0
:10485A0017D0F6DF0EF4A0DF08950024112490E1AA
:10486A00AA0FBB1F001C111C0E1A1F0A18F40E0EE9
:10487A001F1E01C0A1609A9599F7FD01D001089504
:10488A00E894F7FF02C088DF6894B7FF06C0A095D6
:10489A00B095119600F8039400FA0895ED91FC91F1
:1048AA0011970895ED91FD916D917D9108957E93F3
:1048BA006E93FE93EE93089500240A160B0608954C
:1048CA00EA17FB07680779070895AE17BF07860737
:1048DA00970708955A934A933A932A931A930A93F5
:1048EA0008955D814C813B812A811981088108954F
:00000001FF
