:020000000C945E
:1000020078020C9400000C9400000C9400000C94F4
:1000120000000C94D6020C9400000C94E2020C94A2
:1000220000000C9400000C9450030C9400000C94FB
:10003200D5030C9400000C9400000C9400000C9466
:1000420095030C9400000C9400000C9400000C9496
:1000520000000C94A8020C9400000C9400000C9474
:1000620000000C94C4050C9404060C9400000C943B
:1000720000000C9400000C9400000C9400000C94FE
:1000820000000C943C0A0C9400001027E803640062
:100092000A00010000100001100001000B00000026
:1000A2000000000000005E01A00F0100AA00110084
:1000B2000A00504F534954494F4E2D534552564F03
:1000C2000044415441004F4B004275666665722000
:1000D2006F766572666C6F770041726269747261E5
:1000E20074696F6E206C6F73740042757320657251
:1000F200726F72004E41434B20726563656976658B
:1001020064004275732074696D656F757400466191
:10011200696C00556E6B6E6F776E206572726F72CE
:10012200004C4546543A2031004C4546543A203062
:10013200002052494748543A20310020524947484A
:10014200543A2030004D4C4546543A2031004D4C33
:100152004546543A2030004D52494748543A3100FE
:100162004D52494748543A30002020202020454E25
:10017200434F44455220203E3E003C3C2020204537
:100182004E434F44455220202020004C3A0020523A
:100192003A0020202020205245434854532020205A
:1001A200200020202020204C494E4B53202020208C
:1001B20000464C4546543A203100464C4546543A96
:1001C2002030004652494748543A31004652494786
:1001D20048543A30004C4546543A00524947485434
:1001E2003A004E6F204F626A65637421004F626A63
:1001F200656B7420676566756E64656E004B656934
:100202006E204F626A656B740020204C494E454453
:1002120045544543544F5220200020202020204D99
:100222004F544F52454E20202020002020202020D5
:100232004C454E4B554E4720202020002044495328
:1002420054414E5A2053454E534F52200020204CC9
:10025200494348542053454E534F522020002020FA
:100262002020205749492043414D202020002020B2
:100272002020495220544F57455220202020002050
:1002820020202020534552564F202020200020209D
:1002920020554C545241534348414C4C202000209D
:1002A2002020202020564F522020202020202000D5
:1002B2002020202020205A5552202020202020209B
:1002C200002020202020204C494E4B53202020206B
:1002D2002020002020202020524543485453202033
:1002E20020202000202020202039304C494E4B5322
:1002F2002020202020002020202039305245434851
:1003020054532020202000202020204452454855CC
:100312004E47202020200020202020316D316D20EA
:1003220020202000202020426C75654D6174696395
:1003320073002020202020526F62627900000100A9
:100342002D4E414E00494E460000070080C002007B
:1003520002009E0008000400A00001009907AC0002
:1003620001009B07AE000F000005B40005000F0559
:10037200C3000100A107B000080014052301080012
:100382001C052B010A00240533010A002E053D013C
:1003920009003805470109004105500109004A05D5
:1003A200590109005305620111005C056B0111003E
:1003B2006D057C0103007E058D010400810590011D
:1003C2001000850594010F009505A4010300A40502
:1003D2008D010400A70590010800AB052301080068
:1003E200B3052B010A00BB0533010A00C5053D0117
:1003F2000900CF05B3010900D805BC010900E105D8
:10040200C5010900EA05CE010600F305D701070080
:10041200F905DD01030000068D01040003069001C9
:10042200030007068D0104000A06900103000E0670
:100432008D01040011069001030015068D010400D0
:100442001806900103001C068D0104001F0690018E
:10045200030023068D0104002606900103002A06EC
:100462008D0104002D069001110031060B021100CE
:1004720042061C02110053062D02110064063E02C0
:10048200110075064F0210008606600211009606E2
:1004920070020F00A70681021100B6069002110039
:1004A200C706A1021100D806B2021200E906C30271
:1004B2001100FB06D50212000C07E60211001E070E
:1004C200F80210002F0709030D003F0719030E0061
:1004D2004C0726030B005A0734030100420840036D
:1004E200010067074C03020052084E030000F89413
:1004F200EE27ECBBF1E0F5BFE5BFE0936C008DE0C9
:10050200A2E0BB27ED938A95E9F780E090E1A0E0B5
:10051200B1E0ED930197E9F7E0E5F3E0859195917C
:10052200009761F0A591B59105901590BF01F0017A
:1005320005900D920197E1F7FB01F0CF8BBFEFEF32
:10054200EDBFE0E1EEBFC0E0D5E00C9494098A93E0
:10055200AA93BA93EA93FA93EFB7EA93E0917407F6
:10056200A8E6B7E0F0E0EE0FFF1FAE0FBF1FE4B149
:10057200F5B1ED93FC93A0917407AF5FA09374075C
:10058200A63018F0E0E0E0937407E0917407E05CB5
:10059200E7B985E38A95F1F7369AE991EFBFF991C8
:1005A200E991B991A991899118950E94B60C6E169C
:1005B2007F0624F4F30131963F0102C066247724BA
:1005C2000BC00E94B60C4E165F0624F4F20131965F
:1005D2002F0102C044245524E991EFBFF991E9911A
:1005E2001895EAE8EABBE2E0E7BBE1EAE1BBE0E258
:1005F200E2B9E0936100A0E10E94820CE0E4E7B975
:10060200EFECE6B9E0E0E0BDE0E8E8B9E0E0E09375
:100612006A00E1E1EABFE0E5E9BFE0E0E8BFE0BF90
:10062200E6E0E3BFE3E8E2BFE0E0E1BFEFBDEBE01D
:10063200EEBDE0E0EDBDECBDE7BDE6BDEBBDEABD64
:10064200E9BDE8BDE0937900E0937800E0938B0088
:10065200EBECE0938A00E0E0E0938900E09388000D
:10066200E0938100E0938000E1E6E0938700E8EA0E
:10067200E0938600E0E0E0938500E0938400E0935D
:100682008300E0938200E4E0E5BDE0E0E4BDE3BD89
:10069200E1E5E7BFE0E3E0937D00789408950E94EE
:1006A200BD0C9798E0919D07F0919E070E94C40CA3
:1006B200EA17FB0731F4A0919907B0919A071597B1
:1006C20099F4E0919B07F0919C07E0939D07F093CA
:1006D2009E07E1E0F0E0E0939907F0939A07E0913A
:1006E2009B07E4BD979A09C0A9E9B7E0ED91FD9196
:1006F2003196FE93EE93E0E0E4BD7EC22A970E941B
:10070200130CA0E0B5E00E94C90CE0919B07F091A8
:100712009C07FA93EA93A8E8B7E00E94D909A8E8EF
:10072200B7E00E944F0C42C30A92AA93BA93EA938B
:10073200FA93EFB7EA93EEEFE2BF9394E3E4E9159D
:1007420040F4D6FC02C0D5FC01C001C05601CC2445
:10075200DD24A0E020FCA1E0E0E0CA99E1E0B0E005
:10076200F0E0E7FDFFEFEA17FB07B1F0E1E02E262C
:10077200EBE09E1610F4CC24DD240C2C0D2819F08D
:10078200ECE2E91548F4D6FC02C0CC0CDD1C20FCDE
:1007920002C0E1E0CE2A9924E991EFBFF991E991F3
:1007A200B991A991099018951895BA93AA931A9399
:1007B2000A93F8948501AA24BB247894002E012A76
:1007C20009F1D801EBE00E945A0FE170AE81BF81BE
:1007D200EC93D801E6E00E945A0FEF71AC81BD8123
:1007E200EC93E02FEF73AE2FF801E095F0950E94A5
:1007F2006E0F0E946C0FE074EA2BAA81BB81EC930E
:10080200F80102C0E0E0F0E019810881289608951D
:100812000E94130CAFE0B5E00E94C90CA82DA05DA8
:100822000E94280CA0E20E94280CE09175070E9409
:10083200D00CA0E20E94280CE09176070E94D00C16
:100842000895A0919F07B091A007549769F40E9460
:10085200C40CAC3DE0E0BE073CF4ABE9B7E0ED917F
:10086200FD913196FE93EE93A0919F07B091A00760
:10087200559769F40E94C40CA937E0E0BE073CF02A
:10088200ABE9B7E0ED91FD913197FE93EE93E091E4
:100892009F07F091A007309719F4E1E1F0E005C05D
:1008A200E0919F07F091A0073197E093A107F093A1
:1008B200A2070895009907C0E1E0F0E0E093A307E2
:1008C200F093A40705C0E0E0E093A307E093A40738
:1008D200029907C0E1E0F0E0E093A507F093A607D4
:1008E20005C0E0E0E093A507E093A607049907C0DE
:1008F200E1E0F0E0E093A707F093A80705C0E0E08D
:10090200E093A707E093A807069907C0E1E0F0E0AB
:10091200E093A907F093AA0705C0E0E0E093A907D6
:10092200E093AA07E091A307F091A407A8EEB3E031
:100932000E948C0FBF01E091A507F091A6070E94CB
:10094200DB0CE091A707F091A8070E94E20CA091AE
:10095200A907B091AA07EA0FFB1FE093B307F09330
:10096200B407B09907C0E1E0F0E0E093AB07F09381
:10097200AC0705C0E0E0E093AB07E093AC07B299A7
:1009820007C0E1E0F0E0E093AD07F093AE0705C0E9
:10099200E0E0E093AD07E093AE07B49907C0E1E071
:1009A200F0E0E093AF07F093B00705C0E0E0E0931A
:1009B200AF07E093B007B69907C0E1E0F0E0E0933B
:1009C200B107F093B20705C0E0E0E093B107E0930E
:1009D200B207E091AB07F091AC07A8EEB3E00E943A
:1009E2008C0FBF01E091AD07F091AE070E94DB0CC6
:1009F200E091AF07F091B0070E94E20CA091B1071D
:100A0200B091B207EA0FFB1FE093B507F093B60768
:100A12000895E0E3EA93A1E017D0E0E3EA93A8E0C7
:100A220013D0E6E0EA93A0E90FD0E8E0EA93A0EC65
:100A32000BD0EAE1EA93A0E407D0E3E3EA93A3E36D
:100A420003D00E94E90C0895AA930E941F0EA0EB06
:100A52000E94530EA9810E94530EA8810E94530E38
:100A62000E942E0EAAE0B0E00E946B0E229608951C
:100A72001A9310E00E941F0EA0EB0E94530EA6E3F1
:100A82000E94530E0E942E0EA1E0B0E00E946B0E57
:100A92000E941F0EA1EB0E94530E10E01F3090F433
:100AA200E12FA7EBB7E0F0E00E94ED0CFF93EF938C
:100AB200A1E00E94380EAF91BF91F0E0ED93FC935C
:100AC2001F5FECCFA0E00E94380EA5EDB7E0F0E08A
:100AD200ED93FC930E942E0E31C21A930A9300E00A
:100AE20010E000E010E00430E0E01E070CF048C027
:100AF2000E94F20C0E94F80CE073F0700E94630FE7
:100B0200E093F007F093F107F801ACEDB7E00E9433
:100B1200ED0CBF010E94F20CDF01AA0FBB1FA7540C
:100B2200B84F0E94000D0E94F20C0E94F80CE07C6B
:100B3200F0700E94670FE093F007F093F107F8015D
:100B4200A4EEB7E00E94ED0CBF010E94F20CDF019F
:100B5200AA0FBB1FA554B84F0E94000DF801E45123
:100B6200F84FBF010E94F20CDF01AA0FBB1FA35472
:100B7200B84FEC91EF70DB01EC930F5F1F4FB3CFD7
:100B82000991199108950E94BD0CE0918000E093B3
:100B92000908E0918100E0930A080F9B0EC0E091E2
:100BA2000908F0910A08E0930308F0930408E09121
:100BB2008A00EF7BE0938A001FC0E0910908F09160
:100BC2000A08E0930508F0930608E0918A00E064C1
:100BD200E0938A00A0910308B0910408E09105080F
:100BE200F0910608EA1BFB0B0E94670FE0930708CF
:100BF200F0930808689425F8E991EFBFF991E9911B
:100C0200B991A99118958A93EA93EFB7C19A85E3AE
:100C12008A95F1F7C198EFBFE99189911895AA9346
:100C2200E0916707E03019F4689426F803C0E8946D
:100C320026F850C0E881E03009F04CC0A091660768
:100C4200EFE00E947A0F47C0AA93E881E030C9F52D
:100C5200E091B307E0933308E091B507E0933408DD
:100C6200E0916A07F0916B07E0933508F09336083C
:100C7200E0916E07F0916F07E0933708F093380820
:100C82004092390850923A0860923B0870923C08B0
:100C9200E0910F08E0933D08E0917607E0933E086B
:100CA200E0919B07E0933F080E940C0DA0E4B8E09E
:100CB2000E94A20EEC93E0912208E0934108EFE03B
:100CC2000AC026FE07C0E0913208F0E0E0939F07D9
:100CD200F093A007E0E0219608950E94130C00997A
:100CE20003C0A4E1B5E002C0ACE1B5E00E944F0C44
:100CF200069903C0A4E2B5E002C0AEE2B5E00E94EC
:100D02004F0C0E941D0D029903C0A8E3B5E002C07A
:100D1200A1E4B5E00E944F0C049903C0AAE4B5E037
:100D220002C0A3E5B5E00E944F0C089561970E94AE
:100D3200220D39F4ACE5B5E00E944F0CDF98DD9846
:100D420006C0ADE6B5E00E944F0CDF9ADD9A0E9424
:100D52001D0DAEE7B5E00E942C0DA1E8B5E00E94A2
:100D6200370DCE9902C00E94420D619608952A97CE
:100D72000E94220D39F4A5E8B5E00E944F0CDF98DD
:100D8200DD9A06C0A5E9B5E00E944F0CDF9ADD9816
:100D92000E941D0DA4EAB5E00E942C0DA7EAB5E061
:100DA2000E94370DCE9902C00E94420D2A960895E4
:100DB2000E94130CB09903C0ABEAB5E002C0A3EBEA
:100DC200B5E00E944F0CB69903C0ABEBB5E002C090
:100DD200A5ECB5E00E944F0C0E941D0DB29903C014
:100DE200AFECB5E002C0A8EDB5E00E944F0CB4999B
:100DF20003C0A1EEB5E002C0AAEEB5E00E944F0C1E
:100E020008952A970E94A50FE0916E07F0916F074F
:100E12008F01E0916A07F0916B079F010E94130C0A
:100E2200A3EFB5E00E944F0C3A932A930E94520D11
:100E32000E94C90CA9EFB5E00E944F0C1A930A93C5
:100E42000E94520D0E944F0C0E94AC0F2E960895E4
:100E52001A9310E00DDE41DE0E94130C10E01430F4
:100E620008F063C0123070F50E94590DEF3FA3E005
:100E7200FA0731F00E94640DEF3FA3E0FA0729F46C
:100E82000E946F0D0E94750D1CC00E94590D0E9498
:100E92007F0D0E946F0D0E94870D0E94640D0E94BB
:100EA2008B0DA4E11A02F001E85F0E94930D0E94EB
:100EB200980DA4E11A02F001E05F0E94930D0E94D6
:100EC200A40D31C00E94590DEF3FA3E0FA0731F0A3
:100ED2000E94640DEF3FA3E0FA0729F40E94AB0DD4
:100EE2000E94750D20C00E94590D0E947F0D0E9424
:100EF200AB0D0E94870D0E94640D0E948B0DE12FA5
:100F0200E250A4E1EA02F001E85F0E94B30D0E9400
:100F1200980DE12FE250A4E1EA02F001E05F0E94A5
:100F2200B30D0E94A40D1F5F9ACFAEE1B0E00E9404
:100F32006B0EC39B02C0C39801C0C39A1991089556
:100F420067DC0E94B80D49F0E0917607F0E0E130ED
:100F5200A0E0FA0711F40E94E90C08950E94130C14
:100F6200CDDBA8ECDCC125FE29C00E941D0DA0919D
:100F72000708B0910808A137E7E1BE07B8F40E945C
:100F8200130CAFEEB1E00E945E0C0E941D0D0E9498
:100F92000C0D0E94A40EFA93EA93A2EFB7E00E940E
:100FA200D909A2EFB7E00E944F0C06C00E94130CB1
:100FB200AFEFB1E00E945E0CE89425F80895D99A4B
:100FC20009C0D99ADB9ADF9ADD9A0895D99ADB98FB
:100FD20002C0D998DB9ADF98DD9808950E94C60D69
:100FE2000E94CB0DA0E0B6E00E94D20DA3E0B6E0D5
:100FF2000E94DE0DE1E1F0E06E167F068CF30895AB
:101002000E94C60D0E94EA0DA7E0B6E00E94D20D32
:10101200AAE0B6E00E94DE0DE1E1F0E04E165F06C6
:101022008CF308950E94C60DD99ADB9ADF9A0E942A
:10103200F10DAEE0B6E00E94D20DA1E1B6E00E9451
:10104200DE0DE0E4F0E04E165F061CF46E167F063D
:101052000CF001C0E9CF08950E94C60D0E94EA0D6E
:10106200A5E1B6E00E94D20DA8E1B6E00E94DE0D35
:10107200E1E1F0E04E165F068CF30E94F50DD99A7D
:10108200DB9ADF980E94F10DACE1B6E00E94D20D2E
:10109200AFE1B6E00E94DE0DE4E6F0E04E165F0638
:1010A2001CF46E167F060CF001C0E9CF0E94F50D0C
:1010B2000E94CB0DA3E2B6E00E94D20DA6E2B6E0FA
:1010C2000E94DE0DE1E1F0E06E167F068CF30E94D5
:1010D200F50DD99ADB9ADF980E94F10DAAE2B6E0EB
:1010E2000E94D20DADE2B6E00E94DE0DE4E6F0E031
:1010F2004E165F061CF46E167F060CF001C0E9CF97
:101102000895D998DB98E091A107F091A207309752
:1011120059F40E94FC0D31F40E94130CA1E3B6E0D5
:101122000E94020EDADDFAC0E130A0E0FA0759F4BB
:101132000E94FC0D31F40E94130CA2E4B6E00E945E
:10114200020EF4DDEBC0E230A0E0FA0759F40E948F
:10115200FC0D31F40E94130CA3E5B6E00E94020ECE
:1011620006DEDCC0E330A0E0FA0759F40E94FC0D71
:1011720031F40E94130CA4E6B6E00E94020E18DEBF
:10118200CDC0E430A0E0FA0759F40E94FC0D31F41E
:101192000E94130CA5E7B6E00E94020E32DEBEC02A
:1011A200E530A0E0FA0759F40E94FC0D31F40E94E8
:1011B200130CA6E8B6E00E94020E4ADEAFC0E6308B
:1011C200A0E0FA0759F40E94FC0D31F40E94130CBE
:1011D200A6E9B6E00E94020EB3DEA0C0E730A0E0AE
:1011E200FA0759F40E94FC0D31F40E94130CA7EA8D
:1011F200B6E00E94020EB2DE91C0E830A0E0FA072B
:1012020059F40E94FC0D31F40E94130CA6EBB6E0D7
:101212000E94020EA8DE82C0E930A0E0FA0759F46B
:101222000E94FC0D31F40E94130CA7ECB6E00E9460
:10123200020EC5DE73C0EA30A0E0FA0759F40E943C
:10124200FC0D31F40E94130CA8EDB6E00E94020ED0
:10125200B8DE64C0EB30A0E0FA0759F40E94FC0D3E
:1012620031F40E94130CA9EEB6E00E94020EAEDE2B
:1012720055C0EC30A0E0FA0759F40E94FC0D31F49D
:101282000E94130CABEFB6E00E94020EA2DE46C033
:10129200ED30A0E0FA0759F40E94FC0D31F40E94EF
:1012A200130CACE0B7E00E94020EAADE37C0EE30AB
:1012B200A0E0FA0759F40E94FC0D31F40E94130CCD
:1012C200AEE1B7E00E94020E89DE28C0EF30A0E056
:1012D200FA0759F40E94FC0D31F40E94130CAFE29C
:1012E200B7E00E94020E9EDE19C0E031A0E0FA07CC
:1012F20059F40E94FC0D31F40E94130CAFE3B7E0E5
:101302000E94020EA9DE0AC00E94130CACE4B7E0F0
:101312000E94C90CAAE5B7E00E944F0CA2E3B0E01C
:101322000E946B0E08955DD90E941A0E72DBE0E0F6
:10133200EA93E0E5EA93E4E2F8E0FA93EA93EFE075
:10134200EA93E3E3F8E0FA93EA93E0E1F6E0FA9352
:10135200EA93A5E2B6E00E94070AD3DE72DACE99DA
:1013620006C0E0E1F0E0E093A107F093A2070E943B
:10137200B80DD9F0E0917607F0E0309719F4E1E189
:10138200F0E00DC0E130A0E0FA0719F4EFE0F0E080
:1013920006C0E230A0E0FA0741F4E0E1F0E0E093B9
:1013A200A107F093A2070E94E90C84DAD6CFFFCFFF
:1013B200BA93AA93A991B991E991F99130962AF435
:1013C200E095F09531966DE26D93E89480E197E2B5
:1013D2000DD088EE93E00AD084E6992707D08AE000
:1013E20005D06E2F10D066276C9308956627E817F4
:1013F200F90720F06395E81BF90BC9F7662311F48E
:1014020016F008956894605D6D930895BA93AA9357
:10141200689430F8E7E0E0936707EF81F885E0939E
:101422004A08F0934B08EE81E0934D08EC81FD8170
:10143200E0934708F0934808EA81FB81E0934E0865
:10144200F0934F08E881F981E0935008F093510836
:10145200919A909AEA85E03011F0E1E002C0E985C4
:10146200EE0FE0937200E0917400E078E564E0939F
:1014720074002B9608950A921A92FA926A937A93BA
:101482008A939A93AA93BA93EA93FA93EFB7EA9359
:101492000E94A30F109166070091650730914908D9
:1014A20020916707E12FA0914A08B0914B08F0E024
:1014B200EA0FFB1FAF01E0917100E87FE83011F401
:1014C20020E002C0E03119F4E091460810C0E83192
:1014D20011F0E83249F5031798F4E02F0F5FA0915D
:1014E2004708B0914808F0E0AE0FBF1FEC91E093BF
:1014F2007300E0917400EF70E068E093740013C031
:10150200E0914C081E1770F4E0914608E160E09308
:101512004608E89427F8E0917400EF70E06AE093DF
:10152200740013C138C011C1E03531F4E091730089
:10153200DA01EC931F5F02C0E03489F4E0914C08B9
:10154200E1501E1728F0E0917400EF70E06804C0CB
:10155200E0917400EF70E06CE0937400F6C0E8353F
:1015620031F4E0917300DA01EC931F5F02C0E032C4
:1015720009F402C0E03309F402C0E83469F420300F
:1015820051F427FE03C0031728F005C0E0914C0870
:101592001E1708F424E0D1C0E83331F422E0E091D0
:1015A2007400EF70E068CDC0E83611F0E83711F44E
:1015B20022E005C0E03611F0E037A9F420E010E0A7
:1015C200E89427F8E0914D08E03031F421E0E09111
:1015D2007400EF70E06804C0E0917400EF70E06C9A
:1015E200E0937400B2C0E03811F0E03941F527FE13
:1015F20002C021E0A2C0E0917300DA01EC931F5F08
:10160200E0914D081E17C0F4E0914E08F0914F088A
:10161200309711F426E091C0A0E0E0914E08F091DD
:101622004F080995E03039F0E0917400EF70E06CFA
:10163200E09374008AC002C0689427F802C0E838B8
:1016420009F402C0E83939F4E0917400EF70E068FF
:10165200E09374007AC0E03AB9F4E0917400EF705C
:10166200E06CE0937400689430F8E0914E08F091D9
:101672004F08309739F0A1E0E0914E08F0914F0801
:10168200099501C026E061C0E03B11F422E002C0EE
:10169200E83AB9F4E0915008F0915108309759F0C6
:1016A200A0E0E0915008F091510809953E2FE030FA
:1016B20011F020E002C026E040C000E0E89427F8E4
:1016C20002C0E83B01F527FE02C021E036C0E02F50
:1016D2000F5FA0914708B0914808F0E0AE0FBF1F1E
:1016E200EC91E0937300031728F4E0917400EF701B
:1016F200E06C06C0689427F8E0917400EF70E0682F
:10170200E093740022C0E03C11F0E83C99F4E091CF
:101712007400EF70E06CE0937400E0915008F09177
:101722005108309731F0A1E0E0915008F091510852
:10173200099509C0E03049F423E0E0917400EF70AC
:10174200E06DE0937400689430F81093660700939C
:10175200650720936707309349080E94AA0F2696CF
:10176200E991EFBFF991E991B991A9919991899183
:1017720079916991F990199009901895FFE0FA957D
:10178200F1F70895A4B3AF70A4BBA99AA898F6DFA5
:10179200AA9AF4DFA3B3AA98F1DFAA9AEFDFAA9874
:1017A200A7FDF5CF0895A07FAB2BA5BBAA9A0E94F7
:1017B200BF0BAA980E94BF0B0895AA93A998A4B33D
:1017C200A76FA4BBB5B3BF70A881EDDFA881A295B6
:1017D200EADFA99A0C94B40CAA9A0E94BF0BE3B355
:1017E200AA980E94BF0BE07F08950E94BF0BF4DF0E
:1017F200AE2FF2DFA998E295EA2B0895AA930E94F0
:10180200C30BE881F0E0EE5AF74FE081A981AE0FF9
:101812000E94DE0BE981E0935608E881E0935708C5
:10182200229608950E94C30BA2E00E94DE0B0E9442
:10183200C30BACE00E94DE0B0E94C30BA1E00E942E
:10184200DE0BE0E0E0935708E09356080895AA9370
:10185200EF93FF93A8816894AA3039F0E894E0915D
:101862005808A0915608AE1758F0E0915708EF5F5C
:10187200E0935708E0E0EA93A0915708BFDF56F0E3
:10188200E0915608EF5FE09356087CDFA89AA881A2
:101892000E94DE0BFF91EF910C94B40CBA93AA93C1
:1018A2001A93A981BA81ED91A983BA831E2FE030E0
:1018B20019F0A12FCCDFF5CF10C0BA93AA931A93D7
:1018C200E981FA813196E983FA833197E4911E2FF7
:1018D200E03019F0A12FBBDFF3CF188123960895D2
:1018E200AA27BB271197F1F70895AA93A998A4B341
:1018F200A76FA4BBB5B3BF70A8810E94D40BA99AED
:1019020032C0AA93AA98A898E881E0935808E058B0
:10191200E0935408E881E054E09355080E94110EC8
:101922000E94110E0E94110EDBDFA0E2DEDFD8DF83
:10193200A8E20E94160EA4E00E94160EA5E80E94DC
:10194200160EA4B3AF70A4BBA99A0E94F60BE530A1
:1019520011F0E0E008C00E94C30BA6E00E94DE0B7B
:101962000E94130CE1E021960895EA93FA93EFB7EF
:10197200EA93E0E2FEE40895AA93BA93EA93FA9313
:10198200EFB7EA930895A0919B07B0919C07089541
:101992000E944F0CE0E0EA93A1E00C94FF0BF0E010
:1019A200FA93EA93A7E7B7E00E94D909A7E7B7E05D
:1019B2000C944F0CA4E6B0E00E948C0F6E0F7F1FB8
:1019C2000895AAE0B0E00E948C0FE60FF71F089579
:1019D200A4E6B0E00C946B0EEE0FFF1FEA0FFB1FA4
:1019E2000895F801A3E0B0E00E948C0F0895DF0192
:1019F200AA0FBB1FA354B84F0E949F0F08950E94C5
:101A02009F0FA091F007B091F107EA0FFB1FDB01D6
:101A1200ED93FC930895E0910708F091080866277A
:101A220077270E94DB0EDF01CB01EDECFCEC60E5D9
:101A320072E40E94090F0895E0E0EA93A1E00C9499
:101A4200FF0BD99ADB9A0E94130CE0910D08F091DA
:101A52000E08309708950E944F0C5A924A92DE0166
:101A620012960E94D909DE010C944F0C0E944F0C71
:101A72007A926A92DE0112960E94D909DE010C94D2
:101A82004F0CAAEFB0E00E946B0EE0910D08F091AE
:101A92000E080E947F0FF0E0E0930D08F0930E080D
:101AA2000895DE0116960E94D909DE011496089562
:101AB200E12FACEDB7E0F0E0EE0FFF1FAE0FBF1F5E
:101AC2000E949F0F0895E12FA4EEB7E0F0E0EE0F21
:101AD200FF1FAE0FBF1F0E949F0F0895A4E11A02BD
:101AE2000A92A0E00C94FF0BA4EEB1E00E945E0CFF
:101AF200E0E0E0930F08E09310080895E050F24010
:101B0200FA93EA93A7EDB7E00C94D909A7EDB7E0F1
:101B12000C944F0CE657F140FA93EA93A7EDB7E025
:101B22000C94D909EA93A0E00E94FF0BEFCFE12FBA
:101B3200F0E0E451F84FE081F0E0FA93EA93A7ED88
:101B4200B7E00C94D909E1E0F0E0E0930F08F093DC
:101B520010080895E12FE250A4E1EA020A92A1E0FE
:101B62000C94FF0BEA93A1E00E94FF0BCFCFE8E0B9
:101B7200F0E0FA93EA93E5E7F7E0FA93EA93A6E74F
:101B8200B7E00E94D6033097089544245524662472
:101B920077240895D99ADB98DF98DD9A0E94130C76
:101BA2004BCF0E944F0C5A924A92A1E1B8E00E9498
:101BB200D909A1E1B8E00C944F0C0E944F0C7A9223
:101BC2006A92A1E1B8E00E94D909A1E1B8E00C94BF
:101BD2004F0CD998DB9ADF9ADD980E94130C2CCF18
:101BE200DD980E94130C28CFD998DB98A8EEB3E0B9
:101BF2000E946B0ECACFE0910B08F0910C0830974F
:101C020008950E944F0CA8EEB3E00E946B0E0E9452
:101C1200130CE1E0F0E0E0930B08F0930C08089558
:101C22000E94710CA0E30C94760C0E94DE0B0C94C3
:101C3200710CC398C598BB9ABD9815C0BD98BB9846
:101C4200EE270000B59B0895B39B089504D0BD9A7A
:101C520002D0BB9AE1E06BE107C0BD9ABB9A03D008
:101C6200BB98F9DFBD9865E36A95F1F7089578E0CE
:101C7200BB98F1DFB39BFECFEEDF8894B599089451
:101C8200BB9AF1DFEE1F7A9599F77A2F772311F439
:101C9200BD9801C0BD9ADFDFBB98E5DFBB9ADBDFF1
:101CA200BD98D9CF78E0AA0F10F4BD9801C0BD9AB3
:101CB200DADFBB98D0DFB39BFECFCDDFBB9A7A953C
:101CC20091F7BD98C8DFBB98CEDFE1E0B599EE276A
:101CD200BB9AC1CF109639F080EA9FE00197F1F7E5
:101CE200A8951197C9F70895552342F4503811F475
:101CF200E0FF04C03196691F791F6BF050E8572747
:101D020011F45F9373C05F3F31F0660F000C57957B
:101D12006795752F08955F9300200AF073C06CC019
:101D220050E8192E1522880F991F9527550F879570
:101D320050E8072E0522660F771F7527550F679506
:101D42000895689401C0E8945F93F2DF703818F048
:101D52007F3F08F44BC056E1571BAAF45195583007
:101D62000EF4593030F0EFEFFFEF6FEF7FE777F9C6
:101D72001AC077275523B9F0EE0FFF1F661F771F92
:101D82005A95D1F710C07727583028F0EF2FF62F49
:101D9200672F5850F9CF552331F076956795F7950F
:101DA200E7955A95D1F700200AF47BD05F91089508
:101DB200689401C0E894309760407040B1F000240C
:101DC20026F0772312F400946CD0172E7EE11120B6
:101DD20032F07A95EE0FFF1F661F111CF9CFEF2F1D
:101DE200F62F612D5F938ADF5F910895EE27FF271B
:101DF200662777275F910895EFEFFFEF6FE77FEF99
:101E02005F910895EFEFFFEF6FE77FE75F9108952E
:101E12005F9386DF703821F411200AF4EDCFF2CF00
:101E2200903809F4E3CF01240894970B1BF4D4F300
:101E32000020F3CF792F1F932F933F934F931124B9
:101E42001127222733274427552790E2AE17BF07D1
:101E52008607410730F0AE1BBF0B860B410B08947F
:101E620001C08894551F221F331F111CAA1FBB1FBC
:101E7200881F441F9A9551F7F901612D4F913F91A7
:101E82002F911F91662332F0550FEE1FFF1F661F21
:101E92007A9543F229DF5F910895F195E195F0403B
:101EA2000895F09560957095E195FF4F6F4F7F4FC4
:101EB2000895EE230E2EFD0121F0F695E7950A9482
:101EC200E1F70895EE0FFF1FEE0FFF1FEE0FFF1F4A
:101ED200EE0FFF1F0895F695E795F695E795F695AF
:101EE200E795F695E79508956F2F660F660B762FA7
:101EF2000895AE17E1E008F0EE270895EF2BE1E038
:101F020009F0E0E00895FA9FF02DEB9FF00DEA9FB3
:101F1200E02DF10D089504D0F6DF0EF4BEDF089532
:101F2200E894F7FF02C0B9DF6894B7FF06C0A09536
:101F3200B095119600F8039400FA0895ED91FC9182
:101F4200119708955A934A933A932A931A930A93AC
:101F520008955D814C813B812A8119810881089510
:00000001FF
