:0E0000000C9486020C9400000C9400000C94EA
:10000E0000000C9400000C94E4020C9400000C947C
:10001E00F4020C9400000C9400000C943B040C941D
:10002E0000000C9400000C9400000C944D100C94E5
:10003E0000000C9464030C9400000C9400000C94CB
:10004E0000000C9400000C94B6020C9400000C946A
:10005E0000000C9400000C94E7050C9427060C94F9
:10006E0000000C9400000C9400000C9400000C9402
:10007E0000000C9400000C94F4100C940000102757
:10008E00E80364000A0001000010000110000100E6
:10009E0001000100AA0000000000000013000A0089
:1000AE004441544100504F534954494F4E2D5345EE
:1000BE0052564F004C4546543A2031004C4546545A
:1000CE003A2030002052494748543A2031002052FD
:1000DE00494748543A2030004D4C4546543A203159
:1000EE00004D4C4546543A2030004D524947485435
:1000FE003A31004D52494748543A300020202020D2
:10010E0020454E434F44455220203E3E003C3C206D
:10011E002020454E434F44455220202020004C3A8B
:10012E000020523A002020202020524543485453AC
:10013E00202020200020202020204C494E4B5320F0
:10014E0020202000464C4546543A203100464C456E
:10015E0046543A2030004652494748543A310046F8
:10016E0052494748543A30004C4546543A00524999
:10017E004748543A004E6F204F626A6563742100FF
:10018E004F626A656B7420676566756E64656E0096
:10019E004B65696E204F626A656B740020204C4976
:1001AE004E454445544543544F52202000202020B4
:1001BE002020454E47494E4520202020002020205B
:1001CE0020205354454552494E47202020200020E0
:1001DE0044495354414E434553454E534F522000CC
:1001EE0020204C494748542053454E534F5220200F
:1001FE000020202020205749492043414D20202017
:10020E000020202020495220544F574552202020B4
:10021E0020002020202020534552564F2020202001
:10022E0000202020554C545241534F4E494320201C
:10023E00002020202020464F522020202020202049
:10024E00002020202020204241434B20202020202F
:10025E002020002020202020204C45465420202005
:10026E0020202000202020202052494748542020C2
:10027E002020200020202020203930B04C4546542C
:10028E00202020202000202020203930B052494745
:10029E0048542020202000202020205350494E205A
:1002AE0020202000202020203173742053544154EC
:1002BE0045202020200020202020326E6420535420
:1002CE00415445202020200020202020337264201D
:1002DE0053544154452020202000202020426C758C
:1002EE00654D6174696373002020202020526F6277
:1002FE006279004F4B00427566666572206F7665B7
:10030E0072666C6F77004172626974726174696FA4
:10031E006E206C6F737400427573206572726F720B
:10032E00004E41434B2072656365697665640042F9
:10033E0075732074696D656F7574004661696C0024
:10034E00556E6B6E6F776E206572726F7200010064
:10035E002D4E414E00494E460000070080C0010060
:10036E0002009E000A000400A0000100B307AA00CC
:10037E0005000005AE000F000505B30008001405CA
:10038E00C20008001C05CA000A002405D2000A009B
:10039E002E05DC0009003805E60009004105EF00D6
:1003AE0009004A05F80009005305010111005C051A
:1003BE000A0111006D051B0103007E052C010400CE
:1003CE0081052F011000850533010F0095054301AE
:1003DE000300A4052C010400A7052F010800AB059E
:1003EE00C2000800B305CA000A00BB05D2000A000D
:1003FE00C505DC000900CF0552010900D8055B01D7
:10040E000900E10564010900EA056D010600F30526
:10041E0076010700F9057C01030000062C0104009B
:10042E0003062F01030007062C0104000A062F0104
:10043E0003000E062C01040011062F010300150601
:10044E002C01040018062F0103001C062C010400C9
:10045E001F062F01030023062C01040026062F0180
:10046E0003002A062C0104002D062F01110031066F
:10047E00AA0110004206BB0112005206CB01110068
:10048E006406DD0111007506EE0110008606FF01FF
:10049E00110096060F020F00A70620021000B606E6
:1004AE002F021000C6063F021200D6064F021100A0
:1004BE00E80661021000F9067202120009078202B4
:1004CE0011001B0794020D002C07A502120039071C
:1004DE00B20212004B07C40212005D07D6020E00D4
:1004EE006F07E8020B007D07F602010075085C033A
:1004FE0001008A076803020085086A030000F89469
:10050E00EE27ECBBF1E0F5BFE5BFE0936C008DE0AC
:10051E00A2E0BB27ED938A95E9F780E090E1A0E099
:10052E00B1E0ED930197E9F7ECE6F3E08591959153
:10053E00009761F0A591B59105901590BF01F0015E
:10054E0005900D920197E1F7FB01F0CF8BBFEFEF16
:10055E00EDBFE0E1EEBFC0E0D5E00C947F108A93D2
:10056E00AA93BA93EA93FA93EFB7EA93E0916808E5
:10057E00ACE5B8E0F0E0EE0FFF1FAE0FBF1FE4B129
:10058E00F5B1ED93FC93A0916808AF5FA093680856
:10059E00A63018F0E0E0E0936808E0916808E05CAF
:1005AE00E7B985E38A95F1F7369AE991EFBFF991AC
:1005BE00E991B991A991899118950E946E130E94A3
:1005CE007513A032EEE4BE072CF4ABE6B8E00E9441
:1005DE007A1302C00E9480132CC30E946E130E94D5
:1005EE008613A032EEE4BE072CF4A9E6B8E00E9412
:1005FE007A1302C00E948B131CC3EAE8EABBE2E046
:10060E00E7BBE1EAE1BBE4E5E2B9E0E2E0936100D9
:10061E00A0E10E943A13E0E4E7B9EFECE6B9E0E0BE
:10062E00E0BDE0E8E8B9E0E0E0936A00E1E1EABFAE
:10063E00E0E5E9BFE0E0E8BFE0BFE6E0E3BFE3E806
:10064E00E2BFE0E0E1BFE1E0EFBDEAE0EEBDE0E0F9
:10065E00EDBDECBDE7BDE6BDEBBDEABDE9BDE8BD58
:10066E00E0937900E0937800E4E0E5BDE0E0E4BDDE
:10067E00E3BDE0938B00EBECE0938A00E0E0E093C7
:10068E008900E0938800E0938100E0938000E1E62A
:10069E00E0938700E8EAE0938600E0E0E0938500CF
:1006AE00E0938400E0938300E0938200E5E4E7BFEB
:1006BE00E0E3E0937D00789408950E946E13EEEFD0
:1006CE00E2BFA091CF07AF5FA093CF07A434A0F0F5
:1006DE00E091D307E07421F4E091D307E07209F4BE
:1006EE0006C00E949113E093D007F093D107E0E08B
:1006FE00E093D207E093D307A0E020FCA1E0E0E076
:10070E00CA99E1E0B0E0F0E0E7FDFFEFEA17FB0782
:10071E0059F1E1E02E26A091CF07AB3028F4E0E0AE
:10072E00E093D207E093D3070E949113309721F004
:10073E00A091CF07AD32C0F0E091D307E07441F441
:10074E000E949113EE0FFF1FE093D207F093D30791
:10075E0020FC07C00E949113E160E093D207F09352
:10076E00D307E0E0E093CF0764C2BA93AA931A933B
:10077E000A93F8940091D0071091D107E0E0E0932E
:10078E00D007E093D1077894002E012A19F1D801F1
:10079E00EBE00E948816E170AE81BF81EC93D80128
:1007AE00E6E00E948816EF71AC81BD81EC93E02FDC
:1007BE00EF73AE2FF801E095F0950E949C160E9403
:1007CE009A16E074EA2BAA81BB81EC93F801198189
:1007DE000881FFC3E0E0F0E019810881FAC30E94AE
:1007EE00CB12A0E0B5E00E949613A091D407A05DB5
:1007FE000E94E012A0E20E94E012E091D5070E9452
:10080E009D13A0E20E94E012E091D6070E949D1374
:10081E000895E4EDF7E0FA93EA93E5EDF7E0FA9345
:10082E00EA93A6EDB7E0A1DF3097E9F0E091D607A5
:10083E00F0E0309719F4E3E1F0E00DC0E130A0E014
:10084E00FA0719F4EFE0F0E006C0E230A0E0FA0794
:10085E0051F4E0E1F0E0E093B307F093B407A4E6BF
:10086E00B0E00E9479150895EA93FA93EFB7EA93F0
:10087E0097988614970429F4E5E0F0E0E415F50561
:10088E0039F44301E1E0F0E02F0164BC979A05C012
:10089E00F20131962F01E0E0E4BDE991EFBFF9914D
:1008AE00E99118952A970E94CB12A5E0B5E00E9417
:1008BE009613F301EA5AF040FA93EA93ABE8B7E0E5
:1008CE000E949110ABE8B7E00E9407132EC20E945F
:1008DE00A813549741F4ECEDF0E06E167F061CF46D
:1008EE00F30135963F010E94A813559741F4E8E7AE
:1008FE00F0E0E615F7051CF4F30135973F010E9471
:10090E00A813109719F4E3E1F0E005C0E091B107E8
:10091E00F091B2073197E093B307F093B4070895BF
:10092E00009903C0E1E0F0E002C0E0E0F0E0E09307
:10093E00B507F093B607029903C0E1E0F0E002C0FC
:10094E00E0E0F0E0E093B707F093B807049903C036
:10095E00E1E0F0E002C0E0E0F0E0E093B907F093F0
:10096E00BA07069903C0E1E0F0E002C0E0E0F0E073
:10097E00E093BB07F093BC07E091B507F091B60783
:10098E00A8EEB3E00E94BA16BF01E091B707F0914E
:10099E00B8070E94AD13E091B907F091BA070E9413
:1009AE00B413A091BB07B091BC07EA0FFB1FE093F5
:1009BE00C507F093C607B09903C0E1E0F0E002C0AE
:1009CE00E0E0F0E0E093BD07F093BE07B29903C0FC
:1009DE00E1E0F0E002C0E0E0F0E0E093BF07F0936A
:1009EE00C007B49903C0E1E0F0E002C0E0E0F0E03F
:1009FE00E093C107F093C207B69903C0E1E0F0E0BF
:100A0E0002C0E0E0F0E0E093C307F093C407E0918A
:100A1E00BD07F091BE07A8EEB3E00E94BA16BF0163
:100A2E00E091BF07F091C0070E94AD13E091C1079E
:100A3E00F091C2070E94B413A091C307B091C407EE
:100A4E00EA0FFB1FE093C707F093C8070895E0E392
:100A5E00EA93A1E016D0E0E3EA93A8E012D0E6E034
:100A6E00EA93A0E90ED0E8E0EA93A0EC0AD0EAE11E
:100A7E00EA93A0E406D0E3E3EA93A3E302D0A4E66C
:100A8E0024C2AA930E942D15A0EB0E946115A98184
:100A9E000E946115A8810E9461150E943C15AAE072
:100AAE00B0E00E947915229608951A9310E00E94E4
:100ABE002D15A0EB0E946115A6E30E9461150E9400
:100ACE003C15A1E0B0E00E9479150E942D15A1EB16
:100ADE000E94611510E01F3090F4E12FA1E2B8E002
:100AEE00F0E00E94BB13FF93EF93A1E00E94461526
:100AFE00AF91BF91F0E0ED93FC931F5FECCFA0E0C0
:100B0E000E944615AFE3B8E0F0E0ED93FC930E942F
:100B1E003C15D3C11A930A9300E010E000E010E0F8
:100B2E000430E0E01E070CF048C00E94C0130E9483
:100B3E00C613E073F0700E949116E0935A08F0937A
:100B4E005B08F801A6E4B8E00E94BB13BF010E9447
:100B5E00C013DF01AA0FBB1FAD5DB74F0E94CE13AE
:100B6E000E94C0130E94C613E07CF0700E9495167E
:100B7E00E0935A08F0935B08F801AEE4B8E00E94E7
:100B8E00BB13BF010E94C013DF01AA0FBB1FAB5DD9
:100B9E00B74F0E94CE13F801EA5AF74FBF010E94D9
:100BAE00C013DF01AA0FBB1FA95DB74FEC91EF7009
:100BBE00DB01EC930F5F1F4FB3CF0991199108958D
:100BCE000E946E13E0918000E0931F08E091810077
:100BDE00E09320080F9B0EC0E0911F08F0912008B3
:100BEE00E0931908F0931A08E0918A00EF7BE093E6
:100BFE008A001FC0E0911F08F0912008E0931B08A7
:100C0E00F0931C08E0918A00E064E0938A00A091C2
:100C1E001908B0911A08E0911B08F0911C08EA1B04
:100C2E00FB0B0E949516E0931D08F0931E08689426
:100C3E0022F8E991EFBFF991E991B991A99118952F
:100C4E008A93EA93EFB7C19A85E38A95F1F7C19833
:100C5E00EFBFE991899118950E94CB12009903C0BC
:100C6E00A4E1B5E002C0ACE1B5E00E94071306991D
:100C7E0003C0A4E2B5E002C0AEE2B5E00E940713E5
:100C8E000E94DA13029903C0A8E3B5E002C0A1E402
:100C9E00B5E00E940713049903C0AAE4B5E002C0B0
:100CAE00A3E5B5E00E940713089561970E94DF1334
:100CBE0039F4ACE5B5E00E940713DF98DD9806C065
:100CCE00ADE6B5E00E940713DF9ADD9A0E94DA13B3
:100CDE00AEE7B5E00E94F113A1E8B5E00E94001462
:100CEE00CE9902C00E940F14619608952A970E9411
:100CFE00DF1339F4A5E8B5E00E940713DF98DD9AFB
:100D0E0006C0A5E9B5E00E940713DF9ADD980E94A0
:100D1E00DA13A4EAB5E00E94F113A7EAB5E00E9447
:100D2E000014CE9902C00E940F142A9608950E94B4
:100D3E00CB12B09903C0ABEAB5E002C0A3EBB5E0AD
:100D4E000E940713B69903C0ABEBB5E002C0A5EC49
:100D5E00B5E00E9407130E94DA13B29903C0AFECFC
:100D6E00B5E002C0A8EDB5E00E940713B49903C028
:100D7E00A1EEB5E002C0AAEEB5E00E9407130895F9
:100D8E002A970E94D316E0916208F09163088F01B2
:100D9E00E0915E08F0915F089F010E94CB12A3EFD5
:100DAE00B5E00E9407133A932A930E941F140E94E3
:100DBE009613A9EFB5E00E9407131A930A930E94A7
:100DCE001F140E9407130E94DA162E9608951A9386
:100DDE0010E06BDE9FDE0E94CB1210E0143008F0A4
:100DEE0063C0123070F50E942614EF3FA3E0FA079D
:100DFE0031F00E943114EF3FA3E0FA0729F40E946C
:100E0E003C140E9442141CC00E9426140E944C14D2
:100E1E000E943C140E9454140E9431140E945814D3
:100E2E00A4E11A02F001E85F0E9460140E946514AA
:100E3E00A4E11A02F001E05F0E9460140E94711496
:100E4E0031C00E942614EF3FA3E0FA0731F00E9452
:100E5E003114EF3FA3E0FA0729F40E9478140E94A0
:100E6E00421420C00E9426140E944C140E94781432
:100E7E000E9454140E9431140E945814E12FE25023
:100E8E00A4E1EA02F001E85F0E9480140E9465145A
:100E9E00E12FE250A4E1EA02F001E05F0E9480142B
:100EAE000E9471141F5F9ACFAEE1B0E00E947915D7
:100EBE00C39B02C0C39801C0C39A199108958FDCD9
:100ECE0008950E94CB12EEDCA8ECB0E00E947915DA
:100EDE00089522FE29C00E94DA13A0911D08B09138
:100EEE001E08A137E7E1BE07B8F40E94CB12AEE8A8
:100EFE00B1E00E9416130E94DA130E9485140E941C
:100F0E00B215FA93EA93A8E0B8E00E949110A8E017
:100F1E00B8E00E94071306C00E94CB12AEE9B1E002
:100F2E000E941613E89422F808950E9496140AC09F
:100F3E000E949614DF9ADD9A08950E94A11402C0B1
:100F4E000E94AD14DF98DD9808950E948B130E94C5
:100F5E0080130E94A1140E94B914A0E0B6E00E9472
:100F6E00BE14A3E0B6E00E94CE140E9475135197F2
:100F7E0084F308950E948B130E9480130E94AD1477
:100F8E000E94DE14A7E0B6E00E94BE14AAE0B6E00E
:100F9E000E94CE140E948613519784F30895BA933B
:100FAE00AA93EE81FF81E093CB07F093CC07EC81FF
:100FBE00FD81E093CD07F093CE07EA81E03011F486
:100FCE00DF9801C0DF9AE881E03011F4DD9801C0AE
:100FDE00DD9A28960895CC9B0AC0CE9B08C0B09B84
:100FEE0006C0B69B04C0B29B02C0B49901C005C036
:100FFE00E0E0E0936D08E0936E08CC9B0AC0CE9BB8
:10100E0008C0B09B06C0B69B04C0B29B02C0B49B86
:10101E0001C004C0E1E0F0E00E94E314CC9B0AC0E2
:10102E00CE9B08C0B09B06C0B69B04C0B29902C04E
:10103E00B49901C004C0E2E0F0E00E94E314CC9B3E
:10104E000AC0CE9B08C0B09B06C0B69904C0B29B26
:10105E0002C0B49901C004C0E3E0F0E00E94E314C2
:10106E00CC9B0AC0CE9B08C0B09906C0B69B04C0EC
:10107E00B29B02C0B49901C004C0E4E0F0E00E944B
:10108E00E314CC9B0AC0CE9908C0B09B06C0B69B99
:10109E0004C0B29B02C0B49901C004C0E5E0F0E008
:1010AE000E94E314CC990AC0CE9B08C0B09B06C028
:1010BE00B69B04C0B29B02C0B49901C004C0E6E066
:1010CE00F0E00E94E314CC9B0AC0CE9B08C0B09BFC
:1010DE0006C0B69B04C0B29902C0B49B01C004C046
:1010EE00E7E0F0E00E94E314CC9B0AC0CE9B08C060
:1010FE00B09B06C0B69904C0B29902C0B49901C0A3
:10110E0004C0E8E0F0E00E94E314CC9B0AC0CE9B42
:10111E0008C0B09906C0B69904C0B29B02C0B4997B
:10112E0001C004C0E9E0F0E00E94E314CC9B0AC0C9
:10113E00CE9908C0B09906C0B69B04C0B29B02C03F
:10114E00B49901C004C0EAE0F0E00E94E314CC9927
:10115E000AC0CE9908C0B09B06C0B69B04C0B29B15
:10116E0002C0B49901C004C0EBE0F0E00E94E314A9
:10117E00CC9B0AC0CE9B08C0B09B06C0B69904C0DB
:10118E00B29902C0B49B01C004C0ECE0F0E00E9432
:10119E00E314CC9B0AC0CE9B08C0B09906C0B6998A
:1011AE0004C0B29902C0B49901C004C0EDE0F0E0F1
:1011BE000E94E314CC9B0AC0CE9908C0B09906C019
:1011CE00B69904C0B29B02C0B49901C004C0EEE04F
:1011DE00F0E00E94E314CC990AC0CE9908C0B099F1
:1011EE0006C0B69B04C0B29B02C0B49901C004C035
:1011FE00EFE0F0E00E94E314CC9B0AC0CE9B08C047
:10120E00B09906C0B69904C0B29902C0B49B01C091
:10121E0004C0E0E1F0E00E94E314CC9B0AC0CE993A
:10122E0008C0B09906C0B69904C0B29902C0B4996C
:10123E0001C004C0E1E1F0E00E94E314CC990AC0C1
:10124E00CE9908C0B09906C0B69904C0B29B02C030
:10125E00B49901C004C0E2E1F0E00E94E314CC9B1B
:10126E000AC0CE9908C0B09906C0B69904C0B2990A
:10127E0002C0B49B01C004C0E3E1F0E00E94E3149D
:10128E00CC990AC0CE9908C0B09906C0B69904C0D0
:10129E00B29902C0B49901C004C0E4E1F0E00E942A
:1012AE00E314CC990AC0CE9908C0B09906C0B6997D
:1012BE0004C0B29902C0B49B01C004C0E5E1F0E0E5
:1012CE000E94E314CC9B0AC0CE9B08C0B09B06C004
:1012DE00B69904C0B29B02C0B49B01C004C0E6E143
:1012EE00F0E00E94E314CC9B0AC0CE9B08C0B099DC
:1012FE0006C0B69B04C0B29902C0B49901C004C026
:10130E00E7E1F0E00E94E314CC9B0AC0CE9908C03E
:10131E00B09B06C0B69904C0B29B02C0B49901C07E
:10132E0004C0E8E1F0E00E94E314CC990AC0CE9B21
:10133E0008C0B09906C0B69B04C0B29B02C0B49957
:10134E0001C004C0E9E1F0E00E94E314CC9B0AC0A6
:10135E00CE9B08C0B09906C0B69B04C0B29B02C01B
:10136E00B49B01C004C0EAE1F0E00E94E314CC9B00
:10137E000AC0CE9908C0B09B06C0B69B04C0B299F5
:10138E0002C0B49901C004C0EBE1F0E00E94E31486
:10139E00CC990AC0CE9B08C0B09B06C0B69904C0BB
:1013AE00B29B02C0B49901C004C0ECE1F0E00E940F
:1013BE00E314CC9B0AC0CE9908C0B09B06C0B69B66
:1013CE0004C0B29B02C0B49B01C004C0EDE1F0E0CA
:1013DE000E94E314CC990AC0CE9B08C0B09B06C0F5
:1013EE00B69B04C0B29902C0B49901C004C0EEE12C
:1013FE00F0E00E94E314CC990AC0CE9B08C0B09BCB
:10140E0006C0B69B04C0B29B02C0B49B01C004C010
:10141E00EFE1F0E00E94E314CC990AC0CE9908C027
:10142E00B09906C0B69904C0B29B02C0B49B01C06D
:10143E0004C0E0E2F0E00E94E314CC990AC0CE9919
:10144E0008C0B09906C0B69B04C0B29902C0B49B46
:10145E0001C004C0E1E2F0E00E94E314CC990AC09E
:10146E00CE9908C0B09B06C0B69904C0B29902C00E
:10147E00B49B01C004C0E2E2F0E00E94E314CC99F8
:10148E000AC0CE9B08C0B09906C0B69904C0B299E6
:10149E0002C0B49B01C004C0E3E2F0E00E94E3147A
:1014AE00CC990AC0CE9908C0B09906C0B69B04C0AC
:1014BE00B29B02C0B49B01C004C0E4E2F0E00E9403
:1014CE00E314CC990AC0CE9908C0B09B06C0B69B57
:1014DE0004C0B29902C0B49B01C004C0E5E2F0E0C2
:1014EE000E94E314CC990AC0CE9B08C0B09B06C0E4
:1014FE00B69904C0B29902C0B49B01C004C0E6E222
:10150E00F0E00E94E314CC990AC0CE9B08C0B099BB
:10151E0006C0B69B04C0B29902C0B49901C004C003
:10152E00E7E2F0E00E94E314CC9B0AC0CE9908C01B
:10153E00B09B06C0B69904C0B29B02C0B49B01C05A
:10154E0004C0E8E2F0E00E94E314CC990AC0CE9BFE
:10155E0008C0B09B06C0B69904C0B29902C0B49937
:10156E0001C004C0E9E2F0E00E94E314CC9B0AC083
:10157E00CE9908C0B09906C0B69B04C0B29B02C0FB
:10158E00B49B01C004C0EAE2F0E00E94E314CC99DF
:10159E000AC0CE9908C0B09B06C0B69904C0B29BD3
:1015AE0002C0B49B01C004C0EBE2F0E00E94E31461
:1015BE00CC990AC0CE9908C0B09B06C0B69904C09B
:1015CE00B29902C0B49901C004C0ECE2F0E00E94EE
:1015DE00E314CC990AC0CE9B08C0B09906C0B69948
:1015EE0004C0B29B02C0B49B01C004C0EDE2F0E0A7
:1015FE000E94E314CC990AC0CE9B08C0B09906C0D5
:10160E00B69904C0B29902C0B49901C004C0EEE20A
:10161E00F0E00E94E314CC9B0AC0CE9908C0B099AA
:10162E0006C0B69904C0B29B02C0B49B01C004C0F0
:10163E00EFE2F0E00E94E314CC9B0AC0CE9908C002
:10164E00B09906C0B69B04C0B29902C0B49B01C04B
:10165E0004C0E0E3F0E00E94E314CC990AC0CE99F6
:10166E0008C0B09B06C0B69B04C0B29902C0B49924
:10167E0001C004C0E1E3F0E00E94E314CC9B0AC079
:10168E00CE9908C0B09906C0B69B04C0B29B02C0EA
:10169E00B49B01C004C0E2E3F0E00E94E314CC99D5
:1016AE000AC0CE9908C0B09B06C0B69B04C0B299C2
:1016BE0002C0B49901C004C0E3E3F0E00E94E31459
:1016CE00CC990AC0CE9908C0B09B06C0B69904C08A
:1016DE00B29B02C0B49901C004C0E4E3F0E00E94E2
:1016EE00E314CC990AC0CE9908C0B09906C0B69B37
:1016FE0004C0B29902C0B49901C004C0E5E3F0E0A1
:10170E000E94E314CC9B0AC0CE9B08C0B09906C0C1
:10171E00B69904C0B29B02C0B49B01C004C0E6E3FC
:10172E00F0E00E94E314CC990AC0CE9B08C0B09B97
:10173E0006C0B69B04C0B29902C0B49B01C004C0DF
:10174E00E7E3F0E00E94E314CC990AC0CE9B08C0F8
:10175E00B09906C0B69B04C0B29902C0B49B01C03A
:10176E0004C0E8E3F0E00E94E314CC9B0AC0CE9BD9
:10177E0008C0B09906C0B69B04C0B29902C0B49B13
:10178E0001C004C0E9E3F0E00E94E314CC9B0AC060
:10179E00CE9908C0B09B06C0B69904C0B29902C0DB
:1017AE00B49B01C004C0EAE3F0E00E94E314CC9BBA
:1017BE000AC0CE9908C0B09B06C0B69B04C0B299B1
:1017CE0002C0B49B01C004C0EBE3F0E00E94E3143E
:1017DE00CC990AC0CE9B08C0B09906C0B69904C079
:1017EE00B29B02C0B49901C004C0ECE3F0E00E94C9
:1017FE00E3140E948514DF01CB01E0E0F0E060E22B
:10180E0071E40E945C1620F4E0E4F0E00E94E31420
:10181E000895E0916D08F0916E08309739F40E94AA
:10182E00E8140E94E8140E94ED14E7C1E130A0E034
:10183E00FA0729F40E94E814E6E4F0E0D7C1E2309A
:10184E00A0E0FA0709F4CCC1E330A0E0FA0739F4BE
:10185E000E94F3140E94E8140E94ED14CEC1E430ED
:10186E00A0E0FA0739F40E94E8140E94F3140E94D3
:10187E00ED14C3C1E530A0E0FA0729F40E94E81484
:10188E00E6E4F0E0B3C1E630A0E0FA0709F4A8C13F
:10189E00E730A0E0FA0719F4E2E3F0E0A3C1E83084
:1018AE00A0E0FA0729F40E94E814E6E4F0E09EC1F5
:1018BE00E930A0E0FA0739F40E94F8140E94F814F7
:1018CE000E94ED149AC1EA30A0E0FA0729F40E94B2
:1018DE00E814E6E4F0E08AC1EB30A0E0FA0729F460
:1018EE000E94E814E6E4F0E081C1EC30A0E0FA07D3
:1018FE0029F40E94E814E2E3F0E078C1ED30A0E0B4
:10190E00FA0719F4E2E3F0E06DC1EE30A0E0FA0759
:10191E0029F40E94E814E0E5F0E068C1EF30A0E0A1
:10192E00FA0719F4E0E5F0E05DC1E031A0E0FA0756
:10193E0019F4EAE5F0E056C1E131A0E0FA0719F436
:10194E00EAE5F0E04FC1E231A0E0FA0719F4EAE56A
:10195E00F0E048C1E331A0E0FA0729F40E94F31445
:10196E00E0E5F0E043C1E431A0E0FA0729F40E947B
:10197E00F314E0E5F0E03AC1E531A0E0FA0729F40E
:10198E000E94FD14E5E5F0E031C1E631A0E0FA0772
:10199E0029F40E94E814E6E4F0E028C1E731A0E063
:1019AE00FA0709F41DC1E831A0E0FA0729F40E94F4
:1019BE00E814E6E4F0E01AC1E931A0E0FA0709F410
:1019CE000FC1EA31A0E0FA0729F40E94E814E6E418
:1019DE00F0E00CC1EB31A0E0FA0709F401C1EC31E3
:1019EE00A0E0FA0729F40E94E814E6E4F0E0FEC055
:1019FE00ED31A0E0FA0729F40E94E814E6E4F0E0E5
:101A0E00F5C0EE31A0E0FA0709F4EAC0EF31A0E02C
:101A1E00FA0709F4E5C0E032A0E0FA0729F40E94C3
:101A2E00E814E5E5F0E0E2C0E132A0E0FA0719F4CF
:101A3E00E5E5F0E0D7C0E232A0E0FA0709F4D0C045
:101A4E00E332A0E0FA0719F4E5E5F0E0CBC0E432AA
:101A5E00A0E0FA0729F40E94E814E6E4F0E0C6C01C
:101A6E00E532A0E0FA0709F4BBC0E632A0E0FA07BF
:101A7E0029F40E94E814E6E4F0E0B8C0E732A0E0F2
:101A8E00FA0709F4ADC0E832A0E0FA0729F40E9483
:101A9E00E814E6E4F0E0AAC0E932A0E0FA0709F49F
:101AAE009FC0EA32A0E0FA0709F49AC0EB32A0E038
:101ABE00FA0729F40E94E814E6E4F0E097C0EC324D
:101ACE00A0E0FA0719F4E1E4F0E08CC0ED32A0E0FA
:101ADE00FA0729F40E94F814EAE5F0E087C0EE3226
:101AEE00A0E0FA0729F40E94F814EAE5F0E07EC0BF
:101AFE00EF32A0E0FA0729F40E94FD14E0E5F0E0D1
:101B0E0075C0E033A0E0FA0729F40E94FD14E0E569
:101B1E00F0E06CC0E133A0E0FA0719F4EBE4F0E07A
:101B2E0061C0E233A0E0FA0729F40E94F814E6E45B
:101B3E00F0E05CC0E333A0E0FA0729F40E94E81459
:101B4E00EAE5F0E053C0E433A0E0FA0729F40E947E
:101B5E00E814E6E4F0E04AC0E533A0E0FA0719F431
:101B6E00EBE4F0E03FC0E633A0E0FA0729F40E9470
:101B7E00F814E1E4F0E03AC0E733A0E0FA0719F414
:101B8E00E0E5F0E02FC0E833A0E0FA0719F4E0E555
:101B9E00F0E028C0E933A0E0FA0719F4E0E5F0E040
:101BAE0021C0EA33A0E0FA0729F40E94E814E0E528
:101BBE00F0E01CC0EB33A0E0FA0729F40E94E81411
:101BCE00E5E5F0E013C0EC33A0E0FA0729F40E943B
:101BDE00F814E6E4F0E00AC0E034A0E0FA0779F485
:101BEE00E6E4F0E0FA93EA93E4E6F0E0FA93EA939F
:101BFE00E1E0F0E0FA93EA93A1E0B0E0D0D90895E5
:101C0E000E948B130E9480130E9496140E94DE1471
:101C1E00AEE0B6E00E94BE14A1E1B6E00E94CE1482
:101C2E000E948613A034E0E0BE0734F40E947513C0
:101C3E00A034E0E0BE070CF001C0E6CF08950E948C
:101C4E008B130E9480130E94A1140E94DE14A5E142
:101C5E00B6E00E94BE14A8E1B6E00E94CE140E9427
:101C6E008613519784F30E9402150E9480130E94DE
:101C7E0096140E940915ACE1B6E00E94BE14AFE1C5
:101C8E00B6E00E94CE140E948613A436E0E0BE0792
:101C9E0034F40E947513A436E0E0BE070CF001C0C8
:101CAE00E6CF0E9402150E9480130E94AD140E947E
:101CBE00B914A3E2B6E00E94BE14A6E2B6E00E94FA
:101CCE00CE140E947513519784F30E9402150E9440
:101CDE0080130E9496140E940915AAE2B6E00E9493
:101CEE00BE14ADE2B6E00E94CE140E948613A43656
:101CFE00E0E0BE0734F40E947513A436E0E0BE07A0
:101D0E000CF001C0E6CF089566D983DD0895E0E0BA
:101D1E00E093CB07E093CC07E093CD07E093CE079B
:101D2E00E091B307F091B407309761F40C2C0D28B5
:101D3E0031F40E94CB12A1E3B6E00E940E150E9470
:101D4E0033061DC1E130A0E0FA0761F40C2C0D281A
:101D5E0031F40E94CB12A2E4B6E00E940E150E944E
:101D6E005C060DC1E230A0E0FA0761F40C2C0D28E0
:101D7E0031F40E94CB12A2E5B6E00E940E150E942D
:101D8E007D06FDC0E330A0E0FA0761F40C2C0D28AF
:101D9E0031F40E94CB12A4E6B6E00E940E150E940A
:101DAE009E06EDC0E430A0E0FA0761F40C2C0D287D
:101DBE0031F40E94CB12A5E7B6E00E940E150E94E8
:101DCE00C706DDC0E530A0E0FA0761F40C2C0D2843
:101DDE0031F40E94CB12A6E8B6E00E940E150E94C6
:101DEE00EE06CDC0E630A0E0FA0759F40C2C0D2813
:101DFE0031F40E94CB12A6E9B6E00E940E155FD810
:101E0E00BEC0E730A0E0FA0759F40C2C0D2831F4CF
:101E1E000E94CB12A7EAB6E00E940E1552D8AFC0B0
:101E2E00E830A0E0FA0759F40C2C0D2831F40E948A
:101E3E00CB12A6EBB6E00E940E154BD8A0C0E9302F
:101E4E00A0E0FA0759F40C2C0D2831F40E94CB12A5
:101E5E00A6ECB6E00E940E1568D891C0EA30A0E05C
:101E6E00FA0759F40C2C0D2831F40E94CB12A6ED72
:101E7E00B6E00E940E155CD882C0EB30A0E0FA07E7
:101E8E0059F40C2C0D2831F40E94CB12A8EEB6E0BA
:101E9E000E940E1552D873C0EC30A0E0FA0759F428
:101EAE000C2C0D2831F40E94CB12A9EFB6E00E9443
:101EBE000E1546D864C0ED30A0E0FA0759F40C2C8C
:101ECE000D2831F40E94CB12A9E0B7E00E940E1546
:101EDE0051D855C0EE30A0E0FA0759F40C2C0D285D
:101EEE0031F40E94CB12ABE1B7E00E940E152DD853
:101EFE0046C0EF30A0E0FA0759F40C2C0D2831F44F
:101F0E000E94CB12ACE2B7E00E940E1579DE37C00C
:101F1E00E031A0E0FA0759F40C2C0D2831F40E94A0
:101F2E00CB12A9E3B7E00E940E1589DE28C0E1317D
:101F3E00A0E0FA0759F40C2C0D2831F40E94CB12B4
:101F4E00ABE4B7E00E940E15DFDE19C0E231A0E06F
:101F5E00FA0759F40C2C0D2831F40E94CB12ADE582
:101F6E00B7E00E940E15D0DE0AC00E94CB12AFE67B
:101F7E00B7E00E949613ADE7B7E00E940713A2E305
:101F8E00B0E00E9479150895AA93E0918A07E03097
:101F9E0019F4689421F805C0E89421F8E0E00C9457
:101FAE006C13E881E03019F0E0E00C946C13A09112
:101FBE008907EFE00E94A8160C946C13AA93E8818F
:101FCE00E03009F040C0E091C507E093F907E091D9
:101FDE00C707E093FA07E0915E08F0915F08E0937F
:101FEE00FB07F093FC07E0916208F0916308E09321
:101FFE00FD07F093FE07E0916908F0916A08E093FF
:10200E00FF07F0930008E0916B08F0916C08E093E5
:10201E000108F0930208E0919E07E0930308E09117
:10202E00D607E0930408609205080E948514A6E086
:10203E00B8E00E94B015EC93E091E807E093070832
:10204E00EFE00C946C1321FE07C0E091F807F0E06E
:10205E00E093B107F093B207E0E00C946C13E0E06C
:10206E00EA93E0E5EA93EAEEF7E0FA93EA93EFE01B
:10207E00EA93E9EFF7E0FA93EA93EBECFFE0FA93D9
:10208E00EA93A5EEBFE00E94BF1008950E946E1362
:10209E00ECE9ECBDA9ECB7E00E947A130E941A1588
:1020AE00A030E1E0BE072CF0E0E0E093C907E0933A
:1020BE00CA07E091CB07F091CC070E941A15AE1714
:1020CE00BF0714F0DB9801C0DB9AE091CD07F091C9
:1020DE00CE070E941A15AE17BF0714F0D99801C08B
:1020EE00D99AE991EFBFF991E991B991A991189512
:1020FE000E9404030E9428150E942E05B0DF0E9444
:10210E00F20705DE0E946E040E9410040E949704DE
:10211E00F6CFFFCFBA93AA93A991B991E991F9910C
:10212E0030962AF4E095F09531966DE26D93E89431
:10213E0080E197E20DD088EE93E00AD084E69927ED
:10214E0007D08AE005D06E2F10D066276C930895C5
:10215E006627E817F90720F06395E81BF90BC9F716
:10216E00662311F416F008956894605D6D930895DA
:10217E00BA93AA93689424F8E7E0E0938A07EF8174
:10218E00F885E0937D08F0937E08EE81E093800859
:10219E00EC81FD81E0937A08F0937B08EA81FB8164
:1021AE00E0938108F0938208E881F981E093830837
:1021BE00F0938408919A909AEA85E03011F0E1E06C
:1021CE0002C0E985EE0FE0937200E0917400E078B2
:1021DE00E564E09374002B9608950A921A92FA928F
:1021EE006A937A938A939A93AA93BA93EA93FA93F9
:1021FE00EFB7EA930E94D1161091890700918807D4
:10220E0030917C0820918A07E12FA0917D08B09132
:10221E007E08F0E0EA0FFB1FAF01E0917100E87F4E
:10222E00E83011F420E002C0E03119F4E0917908B1
:10223E0010C0E83111F0E83249F5031798F4E02F99
:10224E000F5FA0917A08B0917B08F0E0AE0FBF1F30
:10225E00EC91E0937300E0917400EF70E068E0930E
:10226E00740013C0E0917F081E1770F4E091790896
:10227E00E160E0937908E89423F8E0917400EF7040
:10228E00E06AE093740013C138C011C1E03531F437
:10229E00E0917300DA01EC931F5F02C0E03489F421
:1022AE00E0917F08E1501E1728F0E0917400EF7066
:1022BE00E06804C0E0917400EF70E06CE09374008D
:1022CE00F6C0E83531F4E0917300DA01EC931F5F4C
:1022DE0002C0E03209F402C0E03309F402C0E8346F
:1022EE0069F4203051F423FE03C0031728F005C013
:1022FE00E0917F081E1708F424E0D1C0E83331F4D2
:10230E0022E0E0917400EF70E068CDC0E83611F085
:10231E00E83711F422E005C0E03611F0E037A9F4F9
:10232E0020E010E0E89423F8E0918008E03031F4EA
:10233E0021E0E0917400EF70E06804C0E091740059
:10234E00EF70E06CE0937400B2C0E03811F0E03949
:10235E0041F523FE02C021E0A2C0E0917300DA0134
:10236E00EC931F5FE09180081E17C0F4E091810886
:10237E00F0918208309711F426E091C0A0E0E09130
:10238E008108F09182080995E03039F0E0917400EF
:10239E00EF70E06CE09374008AC002C0689423F87A
:1023AE0002C0E83809F402C0E83939F4E09174004B
:1023BE00EF70E068E09374007AC0E03AB9F4E0910F
:1023CE007400EF70E06CE0937400689424F8E09170
:1023DE008108F0918208309739F0A1E0E0918108F0
:1023EE00F0918208099501C026E061C0E03B11F42E
:1023FE0022E002C0E83AB9F4E0918308F091840833
:10240E00309759F0A0E0E0918308F0918408099587
:10241E003E2FE03011F020E002C026E040C000E088
:10242E00E89423F802C0E83B01F523FE02C021E048
:10243E0036C0E02F0F5FA0917A08B0917B08F0E0D4
:10244E00AE0FBF1FEC91E0937300031728F4E091D9
:10245E007400EF70E06C06C0689423F8E09174008D
:10246E00EF70E068E093740022C0E03C11F0E83CAD
:10247E0099F4E0917400EF70E06CE0937400E091D9
:10248E008308F0918408309731F0A1E0E091830841
:10249E00F0918408099509C0E03049F423E0E091F9
:1024AE007400EF70E06DE0937400689424F810935C
:1024BE0089070093880720938A0730937C080E942F
:1024CE00D8162696E991EFBFF991E991B991A991A4
:1024DE009991899179916991F9901990099018952E
:1024EE00FFE0FA95F1F70895A4B3AF70A4BBA99AD3
:1024FE00A898F6DFAA9AF4DFA3B3AA98F1DFAA9AF6
:10250E00EFDFAA98A7FDF5CF0895A07FAB2BA5BB53
:10251E00AA9A0E947712AA980E9477120895AA93F7
:10252E00A998A4B3A76FA4BBB5B3BF70A881EDDF04
:10253E00A881A295EADFA99A0C946C13AA9A0E941C
:10254E007712E3B3AA980E947712E07F08950E9453
:10255E007712F4DFAE2FF2DFA998E295EA2B0895F9
:10256E00AA930E947B12E881F0E0EB57F74FE081CF
:10257E00A981AE0F0E949612E981E0938908E88145
:10258E00E0938A08229608950E947B12A2E00E9490
:10259E0096120E947B12ACE00E9496120E947B1251
:1025AE00A1E00E949612E0E0E0938A08E093890889
:1025BE000895AA93EF93FF93A8816894AA3039F0F7
:1025CE00E894E0918B08A0918908AE1758F0E0913D
:1025DE008A08EF5FE0938A08E0E0EA93A0918A0808
:1025EE00BFDF56F0E0918908EF5FE09389087CDF4A
:1025FE00A89AA8810E949612FF91EF910C946C13E9
:10260E00BA93AA931A93A981BA81ED91A983BA8339
:10261E001E2FE03019F0A12FCCDFF5CF10C0BA93EA
:10262E00AA931A93E981FA813196E983FA83319755
:10263E00E4911E2FE03019F0A12FBBDFF3CF1881EC
:10264E0023960895AA27BB271197F1F70895AA9309
:10265E00A998A4B3A76FA4BBB5B3BF70A8810E94FD
:10266E008C12A99A32C0AA93AA98A898E881E093EE
:10267E008B08E058E0938708E881E054E0938808DF
:10268E000E941F150E941F150E941F15DBDFA0E27E
:10269E00DEDFD8DFA8E20E942415A4E00E942415F4
:1026AE00A5E80E942415A4B3AF70A4BBA99A0E94FA
:1026BE00AE12E53011F0E0E008C00E947B12A6E0F9
:1026CE000E9496120E94CB12E1E021960895AA93E1
:1026DE00BA93EA93FA93EFB7EA930895A0916B0831
:1026EE00B0916C080895ED91FD913196FE93EE93A5
:1026FE000895E0E0E0936B08E0936C080895A091D4
:10270E006908B0916A080895E0E0E0936908E093E3
:10271E006A080895E091D207F091D30708950E94B8
:10272E000713E0E0EA93A1E00C94B712F0E0FA93FD
:10273E00EA93A7EDB7E00E949110A7EDB7E00C94D5
:10274E000713A091B107B091B2070895A4E6B0E0C7
:10275E000E94BA166E0F7F1F0895AAE0B0E00E9485
:10276E00BA16E60FF71F0895EE0FFF1FEA0FFB1FB5
:10277E000895F801A3E0B0E00E94BA160895DF01B3
:10278E00AA0FBB1FA95DB74F0E94CD1608950E94D8
:10279E00CD16A0915A08B0915B08EA0FFB1FDB0122
:1027AE00ED93FC930895E0E0EA93A1E00C94B71248
:1027BE00E4E6F0E0E093CB07F093CC07E093CD078F
:1027CE00F093CE070E94CB12E0919C07F0919D07EB
:1027DE00309708950E940713E0916908F0916A08F6
:1027EE00FA93EA93DE0112960E949110DE010C9488
:1027FE0007130E940713E0916B08F0916C08FA938F
:10280E00EA93DE0112960E949110DE010C940713DA
:10281E00AAEFB0E00E947915E0919C07F0919D0718
:10282E000E94AD16F0E0E0939C07F0939D0708958B
:10283E00DE0116960E949110DE0114960895E12F86
:10284E00A6E4B8E0F0E0EE0FFF1FAE0FBF1F0E9430
:10285E00CD160895E12FAEE4B8E0F0E0EE0FFF1FC5
:10286E00AE0FBF1F0E94CD160895A4E11A020A9260
:10287E00A0E00C94B712A3E8B1E00E941613E0E0BA
:10288E00E0939E07E0939F070895E050F240FA937D
:10289E00EA93A1E4B8E00C949110A1E4B8E00C9492
:1028AE000713E657F140FA93EA93A1E4B8E00C94CB
:1028BE009110EA93A0E00E94B712EFCFE12FF0E063
:1028CE00EA5AF74FE081F0E0FA93EA93A1E4B8E018
:1028DE000C949110E1E0F0E0E0939E07F0939F07D7
:1028EE000895E12FE250A4E1EA020A92A1E00C94CD
:1028FE00B712EA93A1E00E94B712CFCFE0911D0864
:10290E00F0911E08662777270E94E915DF01CB019B
:10291E00EDECFCEC60E572E40E9417160895E4E617
:10292E00F0E0E093CB07F093CC07E093CD07F09364
:10293E00CE070895E0E0E093CB07E093CC07E4E602
:10294E00F0E0E093CD07F093CE070895E4E6F0E0D3
:10295E00E093CB07F093CC07E0E0E093CD07E09354
:10296E00CE070895DF98DD9A0E94CB121CCF0E94ED
:10297E000713E0916908F0916A08FA93EA93A0EAC6
:10298E00B7E00E949110A0EAB7E00C9407130E94E2
:10299E000713E0916B08F0916C08FA93EA93A0EAA2
:1029AE00B7E00E949110A0EAB7E00C940713DF9AEB
:1029BE00DD980E94CB12F7CEE0936D08F0936E086F
:1029CE000895E4E6F0E0FA93EA930895E0E0F0E08B
:1029DE00FA93EA93A0E00895E6E4F0E0FA93EA931E
:1029EE000895E0E5F0E0FA93EA930895EAE5F0E061
:1029FE00FA93EA930895D998DB98A8EEB3E00E9473
:102A0E00791582CEDF98DD980E94CB12CCCE0E9433
:102A1E000713A8EEB3E00E9479150E94CB12E1E0F5
:102A2E00F0E06F010895A091C907B091CA0708950B
:102A3E000E942913A0E30C942E130E9496120C945C
:102A4E002913C398C598BB9ABD9815C0BD98BB985D
:102A5E00EE270000B59B0895B39B089504D0BD9A50
:102A6E0002D0BB9AE1E06BE107C0BD9ABB9A03D0DE
:102A7E00BB98F9DFBD9865E36A95F1F7089578E0A4
:102A8E00BB98F1DFB39BFECFEEDF8894B599089427
:102A9E00BB9AF1DFEE1F7A9599F77A2F772311F40F
:102AAE00BD9801C0BD9ADFDFBB98E5DFBB9ADBDFC7
:102ABE00BD98D9CF78E0AA0F10F4BD9801C0BD9A89
:102ACE00DADFBB98D0DFB39BFECFCDDFBB9A7A9512
:102ADE0091F7BD98C8DFBB98CEDFE1E0B599EE2740
:102AEE00BB9AC1CF109639F080EA9FE00197F1F7BB
:102AFE00A8951197C9F70895552342F4503811F44B
:102B0E00E0FF04C03196691F791F6BF050E857271C
:102B1E0011F45F9373C05F3F31F0660F000C579551
:102B2E006795752F08955F9300200AF073C06CC0EF
:102B3E0050E8192E1522880F991F9527550F879546
:102B4E0050E8072E0522660F771F7527550F6795DC
:102B5E000895689401C0E8945F93F2DF703818F01E
:102B6E007F3F08F44BC056E1571BAAF451955830DD
:102B7E000EF4593030F0EFEFFFEF6FEF7FE777F99C
:102B8E001AC077275523B9F0EE0FFF1F661F771F68
:102B9E005A95D1F710C07727583028F0EF2FF62F1F
:102BAE00672F5850F9CF552331F076956795F795E5
:102BBE00E7955A95D1F700200AF49BD05F910895BE
:102BCE00689401C0E894309760407040B1F00024E2
:102BDE0026F0772312F400948CD0172E7EE111206C
:102BEE0032F07A95EE0FFF1F661F111CF9CFEF2FF3
:102BFE00F62F612D5F938ADF5F910895EE27FF27F1
:102C0E00662777275F910895EFEFFFEF6FE77FEF6E
:102C1E005F910895EFEFFFEF6FE77FE75F91089504
:102C2E005F9386DF703821F411200AF4EDCFF2CFD6
:102C3E00903809F4E3CF01240894970B1BF4D4F3D6
:102C4E000020F3CF792F1F932F933F934F9311248F
:102C5E001127222733274427552790E2AE17BF07A7
:102C6E008607410730F0AE1BBF0B860B410B089455
:102C7E0001C08894551F221F331F111CAA1FBB1F92
:102C8E00881F441F9A9551F7F901612D4F913F917D
:102C9E002F911F91662332F0550FEE1FFF1F661FF7
:102CAE007A9543F229DF5F91089599239AF077235D
:102CBE0042F0971748F029F4AE17BF07860720F0A9
:102CCE0031F09894889408959894089408951894DF
:102CDE00889408957723C2F7971798F3A9F7EA1700
:102CEE00FB07680788F399F3ECCFF195E195F04077
:102CFE000895F09560957095E195FF4F6F4F7F4F5A
:102D0E000895EE230E2EFD0121F0F695E7950A9417
:102D1E00E1F70895EE0FFF1FEE0FFF1FEE0FFF1FDF
:102D2E00EE0FFF1F0895F695E795F695E795F69544
:102D3E00E795F695E79508956F2F660F660B762F3C
:102D4E000895AE17E1E008F0EE270895EF2BE1E0CD
:102D5E0009F0E0E00895FA9FF02DEB9FF00DEA9F49
:102D6E00E02DF10D089504D0F6DF0EF4BEDF0895C8
:102D7E00E894F7FF02C0B9DF6894B7FF06C0A095CC
:102D8E00B095119600F8039400FA0895ED91FC9118
:102D9E00119708955A934A933A932A931A930A9342
:102DAE0008955D814C813B812A81198108810895A6
:00000001FF
