:0E0000000C9481020C9400000C9400000C94EF
:10000E0000000C9400000C94DF020C9400000C9481
:10001E00EF020C9400000C9400000C9436040C9427
:10002E0000000C9400000C9400000C943E100C94F4
:10003E0000000C945F030C9400000C9400000C94D0
:10004E0000000C9400000C94B1020C9400000C946F
:10005E0000000C9400000C94E2050C9422060C9403
:10006E0000000C9400000C9400000C9400000C9402
:10007E0000000C9400000C94E5100C940000102766
:10008E00E80364000A0001000010000110000100E6
:10009E0001000100AA0000000000000013000A0089
:1000AE004441544100504F534954494F4E2D5345EE
:1000BE0052564F004C4546543A2031004C4546545A
:1000CE003A2030002052494748543A2031002052FD
:1000DE00494748543A2030004D4C4546543A203159
:1000EE00004D4C4546543A2030004D524947485435
:1000FE003A31004D52494748543A300020202020D2
:10010E0020454E434F44455220203E3E003C3C206D
:10011E002020454E434F44455220202020004C3A8B
:10012E000020523A002020202020524543485453AC
:10013E00202020200020202020204C494E4B5320F0
:10014E0020202000464C4546543A203100464C456E
:10015E0046543A2030004652494748543A310046F8
:10016E0052494748543A30004C4546543A00524999
:10017E004748543A004F626A656B7420676566752E
:10018E006E64656E004B65696E204F626A656B74B6
:10019E000020204C494E454445544543544F52206F
:1001AE0020002020202020454E47494E452020206B
:1001BE00200020202020205354454552494E4720F0
:1001CE00202020002044495354414E434553454E70
:1001DE00534F52200020204C494748542053454E3F
:1001EE00534F5220200020202020205749492043E1
:1001FE00414D2020200020202020495220544F57CE
:10020E0045522020202000202020202053455256E9
:10021E004F2020202000202020554C545241534F77
:10022E004E49432020002020202020464F522020DF
:10023E002020202020002020202020204241434B3F
:10024E0020202020202020002020202020204C456F
:10025E0046542020202020200020202020205249FB
:10026E0047485420202020200020202020203930F4
:10027E00B04C45465420202020200020202020393C
:10028E0030B0524947485420202020002020202002
:10029E005350494E202020200020202020317374FE
:1002AE00205354415445202020200020202020326D
:1002BE006E642053544154452020202000202020DD
:1002CE0020337264205354415445202020200020B6
:1002DE002020426C75654D61746963730020202087
:1002EE002020526F626279004F4B00427566666540
:1002FE0072206F766572666C6F77004172626974F8
:10030E00726174696F6E206C6F7374004275732026
:10031E006572726F72004E41434B20726563656960
:10032E00766564004275732074696D656F7574002F
:10033E004661696C00556E6B6E6F776E20657272DA
:10034E006F72000001002D4E414E00494E460000D6
:10035E00070080C0010002009E000A000400A000F9
:10036E000100B307AA0005000005AE000F00050549
:10037E00B30008001405C20008001C05CA000A00DC
:10038E002405D2000A002E05DC0009003805E6001F
:10039E0009004105EF0009004A05F8000900530560
:1003AE00010111005C050A0111006D051B0103001E
:1003BE007E052C01040081052F01100085053301F7
:1003CE000F00950543010300A4052C010400A705A9
:1003DE002F010800AB05C2000800B305CA000A00D1
:1003EE00BB05D2000A00C505DC000900CF0552018D
:1003FE000900D8055B010900E10564010900EA0561
:10040E006D010600F30576010700F9057C01030076
:10041E0000062C01040003062F01030007062C0121
:10042E0004000A062F0103000E062C01040011061B
:10043E002F01030015062C01040018062F010300DE
:10044E001C062C0104001F062F01030023062C019D
:10045E00040026062F0103002A062C0104002D0697
:10046E002F01110031069F0110004206B00112004B
:10047E005206C00111006406D20111007506E30197
:10048E0010008606F4011100960604020F00A7065E
:10049E0015021000B60624021000C6063402120021
:1004AE00D60644021100E80656021000F90667024D
:1004BE0012000907770211001B0789020D002C0795
:1004CE009A0212003907A70212004B07B902120056
:1004DE005D07CB020E006F07DD020B007D07EB02FE
:1004EE0001007508520301008A075E0302008508A9
:1004FE0060030000F894EE27ECBBF1E0F5BFE5BF1A
:10050E00E0936C008DE0A2E0BB27ED938A95E9F7AE
:10051E0080E090E1A0E0B1E0ED930197E9F7E2E62B
:10052E00F3E085919591009761F0A591B5910590B5
:10053E001590BF01F00105900D920197E1F7FB01B7
:10054E00F0CF8BBFEFEFEDBFE0E1EEBFC0E0D5E047
:10055E000C9470108A93AA93BA93EA93FA93EFB716
:10056E00EA93E0916808ACE5B8E0F0E0EE0FFF1F0B
:10057E00AE0FBF1FE4B1F5B1ED93FC93A0916808E7
:10058E00AF5FA0936808A63018F0E0E0E09368082B
:10059E00E0916808E05CE7B985E38A95F1F7369A51
:1005AE00E991EFBFF991E991B991A99189911895C6
:1005BE000E945F130E946613A032EEE4BE072CF475
:1005CE00ABE6B8E00E946B1302C00E9471132CC3FD
:1005DE000E945F130E947713A032EEE4BE072CF444
:1005EE00A9E6B8E00E946B1302C00E947C131CC3E4
:1005FE00EAE8EABBE2E0E7BBE1EAE1BBE4E0E2B94C
:10060E00E0E2E0936100A0E10E942B13E0E4E7B981
:10061E00EFECE6B9E0E0E0BDE0E8E8B9E0E0E09359
:10062E006A00E1E1EABFE0E5E9BFE0E0E8BFE0BF74
:10063E00E6E0E3BFE3E8E2BFE0E0E1BFE1E0EFBD0B
:10064E00EAE0EEBDE0E0EDBDECBDE7BDE6BDEBBD25
:10065E00EABDE9BDE8BDE0937900E0937800E4E0FF
:10066E00E5BDE0E0E4BDE3BDE0938B00EBECE09391
:10067E008A00E0E0E0938900E0938800E093810037
:10068E00E0938000E1E6E0938700E8EAE0938600DD
:10069E00E0E0E0938500E0938400E0938300E09334
:1006AE008200E5E4E7BFE0E3E0937D0078940895EF
:1006BE000E945F13EEEFE2BFA091CF07AF5FA09352
:1006CE00CF07A434A0F0E091D307E07421F4E091B9
:1006DE00D307E07209F406C00E948213E093D0079C
:1006EE00F093D107E0E0E093D207E093D307A0E0C8
:1006FE0020FCA1E0E0E0CA99E1E0B0E0F0E0E7FD27
:10070E00FFEFEA17FB0759F1E1E02E26A091CF0784
:10071E00AB3028F4E0E0E093D207E093D3070E94D9
:10072E008213309721F0A091CF07AD32C0F0E09147
:10073E00D307E07441F40E948213EE0FFF1FE09383
:10074E00D207F093D30720FC07C00E948213E1600A
:10075E00E093D207F093D307E0E0E093CF0764C2B3
:10076E00BA93AA931A930A93F8940091D007109112
:10077E00D107E0E0E093D007E093D1077894002E04
:10078E00012A19F1D801EBE00E946816E170AE81E2
:10079E00BF81EC93D801E6E00E946816EF71AC8140
:1007AE00BD81EC93E02FEF73AE2FF801E095F0953D
:1007BE000E947C160E947A16E074EA2BAA81BB81F5
:1007CE00EC93F80119810881F5C3E0E0F0E019819E
:1007DE000881F0C30E94BC12A0E0B5E00E9487130E
:1007EE00A091D407A05D0E94D112A0E20E94D11266
:1007FE00E091D5070E948E13A0E20E94D112E091E3
:10080E00D6070E948E130895E4EDF7E0FA93EA936B
:10081E00E5EDF7E0FA93EA93A6EDB7E0A1DF3097A6
:10082E00E9F0E091D607F0E0309719F4E3E1F0E05B
:10083E000DC0E130A0E0FA0719F4EFE0F0E006C0D9
:10084E00E230A0E0FA0751F4E0E1F0E0E093B30704
:10085E00F093B407A4E6B0E00E9459150895EA9308
:10086E00FA93EFB7EA9397988614970429F4E5E084
:10087E00F0E0E415F50539F44301E1E0F0E02F0175
:10088E0064BC979A05C0F20131962F01E0E0E4BDF9
:10089E00E991EFBFF991E99118952A970E94BC1240
:1008AE00A5E0B5E00E948713F301EA5AF040FA93EF
:1008BE00EA93ABE8B7E00E948210ABE8B7E00E9483
:1008CE00F8122EC20E949913549741F4ECEDF0E009
:1008DE006E167F061CF4F30135963F010E949913A4
:1008EE00559741F4E8E7F0E0E615F7051CF4F3013F
:1008FE0035973F010E949913109719F4E3E1F0E048
:10090E0005C0E091B107F091B2073197E093B307BC
:10091E00F093B4070895009903C0E1E0F0E002C03F
:10092E00E0E0F0E0E093B507F093B607029903C05C
:10093E00E1E0F0E002C0E0E0F0E0E093B707F09312
:10094E00B807049903C0E1E0F0E002C0E0E0F0E097
:10095E00E093B907F093BA07069903C0E1E0F0E01F
:10096E0002C0E0E0F0E0E093BB07F093BC07E0913B
:10097E00B507F091B607A8EEB3E00E949A16BF0134
:10098E00E091B707F091B8070E949E13E091B90766
:10099E00F091BA070E94A513A091BB07B091BC07B6
:1009AE00EA0FFB1FE093C507F093C607B09903C08B
:1009BE00E1E0F0E002C0E0E0F0E0E093BD07F0938C
:1009CE00BE07B29903C0E1E0F0E002C0E0E0F0E063
:1009DE00E093BF07F093C007B49903C0E1E0F0E0E5
:1009EE0002C0E0E0F0E0E093C107F093C207B699D1
:1009FE0003C0E1E0F0E002C0E0E0F0E0E093C30706
:100A0E00F093C407E091BD07F091BE07A8EEB3E0E6
:100A1E000E949A16BF01E091BF07F091C0070E9495
:100A2E009E13E091C107F091C2070E94A513A091F9
:100A3E00C307B091C407EA0FFB1FE093C707F093FB
:100A4E00C8070895E0E3EA93A1E016D0E0E3EA9345
:100A5E00A8E012D0E6E0EA93A0E90ED0E8E0EA932F
:100A6E00A0EC0AD0EAE1EA93A0E406D0E3E3EA932D
:100A7E00A3E302D0A4E61AC2AA930E940D15A0EB1E
:100A8E000E944115A9810E944115A8810E9441151D
:100A9E000E941C15AAE0B0E00E94591522960895F6
:100AAE001A9310E00E940D15A0EB0E944115A6E3CB
:100ABE000E9441150E941C15A1E0B0E00E9459153C
:100ACE000E940D15A1EB0E94411510E01F3090F40D
:100ADE00E12FA1E2B8E0F0E00E94AC13FF93EF9398
:100AEE00A1E00E942615AF91BF91F0E0ED93FC932B
:100AFE001F5FECCFA0E00E942615AFE3B8E0F0E058
:100B0E00ED93FC930E941C15C9C11A930A9300E041
:100B1E0010E000E010E00430E0E01E070CF048C0EA
:100B2E000E94B1130E94B713E073F0700E94711609
:100B3E00E0935A08F0935B08F801A6E4B8E00E942F
:100B4E00AC13BF010E94B113DF01AA0FBB1FAD5D35
:100B5E00B74F0E94BF130E94B1130E94B713E07CDF
:100B6E00F0700E947516E0935A08F0935B08F80136
:100B7E00AEE4B8E00E94AC13BF010E94B113DF01D6
:100B8E00AA0FBB1FAB5DB74F0E94BF13F801EA5A05
:100B9E00F74FBF010E94B113DF01AA0FBB1FA95D62
:100BAE00B74FEC91EF70DB01EC930F5F1F4FB3CF9C
:100BBE000991199108950E945F13E0918000E093CE
:100BCE001F08E0918100E09320080F9B0EC0E0917A
:100BDE001F08F0912008E0931908F0931A08E0918D
:100BEE008A00EF7BE0938A001FC0E0911F08F0910E
:100BFE002008E0931B08F0931C08E0918A00E06443
:100C0E00E0938A00A0911908B0911A08E0911B0890
:100C1E00F0911C08EA1BFB0B0E947516E0931D0851
:100C2E00F0931E08689422F8E991EFBFF991E991CB
:100C3E00B991A99118958A93EA93EFB7C19A85E372
:100C4E008A95F1F7C198EFBFE991899118950E94A5
:100C5E00BC12009903C0A4E1B5E002C0ACE1B5E05E
:100C6E000E94F812069903C0A4E2B5E002C0AEE2FB
:100C7E00B5E00E94F8120E94CB13029903C0A8E3BC
:100C8E00B5E002C0A1E4B5E00E94F812049903C0D9
:100C9E00AAE4B5E002C0A3E5B5E00E94F8120895FB
:100CAE0061970E94D01339F4ACE5B5E00E94F812BA
:100CBE00DF98DD9806C0ADE6B5E00E94F812DF9A27
:100CCE00DD9A0E94CB13AEE7B5E00E94E213A1E8D5
:100CDE00B5E00E94F113CE9902C00E9400146196F5
:100CEE0008952A970E94D01339F4A5E8B5E00E9422
:100CFE00F812DF98DD9A06C0A5E9B5E00E94F81259
:100D0E00DF9ADD980E94CB13A4EAB5E00E94E213AD
:100D1E00A7EAB5E00E94F113CE9902C00E9400141A
:100D2E002A9608950E94BC12B09903C0ABEAB5E0B2
:100D3E0002C0A3EBB5E00E94F812B69903C0ABEB6C
:100D4E00B5E002C0A5ECB5E00E94F8120E94CB13EC
:100D5E00B29903C0AFECB5E002C0A8EDB5E00E94B9
:100D6E00F812B49903C0A1EEB5E002C0AAEEB5E048
:100D7E000E94F81208952A970E94B316E091620815
:100D8E00F09163088F01E0915E08F0915F089F017A
:100D9E000E94BC12A3EFB5E00E94F8123A932A9378
:100DAE000E9410140E948713A9EFB5E00E94F8125A
:100DBE001A930A930E9410140E94F8120E94BA16F7
:100DCE002E9608951A9310E06BDE9FDE10E014301D
:100DDE0008F05BC0123050F50E941714EF3FA3E0ED
:100DEE00FA0731F00E942214EF3FA3E0FA0719F43C
:100DFE000E942D141AC00E9417140E9433140E94D0
:100E0E002D140E943B140E9422140E943F14A4E150
:100E1E001A02F001E85F0E9447140E944C14A4E1EC
:100E2E001A02F001E05F0E9447142DC00E941714B1
:100E3E00EF3FA3E0FA0731F00E942214EF3FA3E048
:100E4E00FA0719F40E9458141EC00E9417140E942B
:100E5E0033140E9458140E943B140E9422140E94C4
:100E6E003F14E12FE250A4E1EA02F001E85F0E9494
:100E7E0060140E944C14E12FE250A4E1EA02F0014A
:100E8E00E05F0E9460141F5FA2CFAEE1B0E00E944F
:100E9E005915C39B02C0C39801C0C39A19910895F6
:100EAE0099DC08950E94BC12F8DCA8ECB0E00E9418
:100EBE005915089522FE29C00E94CB13A0911D083A
:100ECE00B0911E08A137E7E1BE07B8F40E94BC122C
:100EDE00A3E8B1E00E9407130E94CB130E94651491
:100EEE000E949215FA93EA93A8E0B8E00E9482104D
:100EFE00A8E0B8E00E94F81206C00E94BC12A3E956
:100F0E00B1E00E940713E89422F808950E94761427
:100F1E000AC00E947614DF9ADD9A08950E94811409
:100F2E0002C00E948D14DF98DD9808950E947C13F4
:100F3E000E9471130E9481140E949914A0E0B6E0E1
:100F4E000E949E14A3E0B6E00E94AE140E946613A7
:100F5E00519784F308950E947C130E9471130E948E
:100F6E008D140E94BE14A7E0B6E00E949E14AAE063
:100F7E00B6E00E94AE140E947713519784F3089541
:100F8E00BA93AA93EE81FF81E093CB07F093CC073F
:100F9E00EC81FD81E093CD07F093CE07EA81E0303E
:100FAE0011F4DF9801C0DF9AE881E03011F4DD988A
:100FBE0001C0DD9A28960895CC9B0AC0CE9B08C02E
:100FCE00B09B06C0B69B04C0B29B02C0B49901C0D0
:100FDE0005C0E0E0E0936D08E0936E08CC9B0AC07C
:100FEE00CE9B08C0B09B06C0B69B04C0B29B02C08D
:100FFE00B49B01C004C0E1E0F0E00E94C314CC9B9E
:10100E000AC0CE9B08C0B09B06C0B69B04C0B29966
:10101E0002C0B49901C004C0E2E0F0E00E94C31423
:10102E00CC9B0AC0CE9B08C0B09B06C0B69904C02C
:10103E00B29B02C0B49901C004C0E3E0F0E00E948C
:10104E00C314CC9B0AC0CE9B08C0B09906C0B69BF9
:10105E0004C0B29B02C0B49901C004C0E4E0F0E049
:10106E000E94C314CC9B0AC0CE9908C0B09B06C088
:10107E00B69B04C0B29B02C0B49901C004C0E5E0A7
:10108E00F0E00E94C314CC990AC0CE9B08C0B09B5E
:10109E0006C0B69B04C0B29B02C0B49901C004C086
:1010AE00E6E0F0E00E94C314CC9B0AC0CE9B08C0C1
:1010BE00B09B06C0B69B04C0B29902C0B49B01C0DF
:1010CE0004C0E7E0F0E00E94C314CC9B0AC0CE9BA4
:1010DE0008C0B09B06C0B69904C0B29902C0B499BC
:1010EE0001C004C0E8E0F0E00E94C314CC9B0AC02B
:1010FE00CE9B08C0B09906C0B69904C0B29B02C080
:10110E00B49901C004C0E9E0F0E00E94C314CC9B86
:10111E000AC0CE9908C0B09906C0B69B04C0B29B57
:10112E0002C0B49901C004C0EAE0F0E00E94C3140A
:10113E00CC990AC0CE9908C0B09B06C0B69B04C01D
:10114E00B29B02C0B49901C004C0EBE0F0E00E9473
:10115E00C314CC9B0AC0CE9B08C0B09B06C0B699E8
:10116E0004C0B29902C0B49B01C004C0ECE0F0E030
:10117E000E94C314CC9B0AC0CE9B08C0B09906C077
:10118E00B69904C0B29902C0B49901C004C0EDE092
:10119E00F0E00E94C314CC9B0AC0CE9908C0B0994F
:1011AE0006C0B69904C0B29B02C0B49901C004C077
:1011BE00EEE0F0E00E94C314CC990AC0CE9908C0AC
:1011CE00B09906C0B69B04C0B29B02C0B49901C0D0
:1011DE0004C0EFE0F0E00E94C314CC9B0AC0CE9B8B
:1011EE0008C0B09906C0B69904C0B29902C0B49BAB
:1011FE0001C004C0E0E1F0E00E94C314CC9B0AC021
:10120E00CE9908C0B09906C0B69904C0B29902C072
:10121E00B49901C004C0E1E1F0E00E94C314CC997E
:10122E000AC0CE9908C0B09906C0B69904C0B29B48
:10123E0002C0B49901C004C0E2E1F0E00E94C31400
:10124E00CC9B0AC0CE9908C0B09906C0B69904C00E
:10125E00B29902C0B49B01C004C0E3E1F0E00E9469
:10126E00C314CC990AC0CE9908C0B09906C0B699DD
:10127E0004C0B29902C0B49901C004C0E4E1F0E028
:10128E000E94C314CC990AC0CE9908C0B09906C06A
:10129E00B69904C0B29902C0B49B01C004C0E5E186
:1012AE00F0E00E94C314CC9B0AC0CE9B08C0B09B3A
:1012BE0006C0B69904C0B29B02C0B49B01C004C064
:1012CE00E6E1F0E00E94C314CC9B0AC0CE9B08C09E
:1012DE00B09906C0B69B04C0B29902C0B49901C0C1
:1012EE0004C0E7E1F0E00E94C314CC9B0AC0CE9983
:1012FE0008C0B09B06C0B69904C0B29B02C0B49998
:10130E0001C004C0E8E1F0E00E94C314CC990AC009
:10131E00CE9B08C0B09906C0B69B04C0B29B02C05B
:10132E00B49901C004C0E9E1F0E00E94C314CC9B63
:10133E000AC0CE9B08C0B09906C0B69B04C0B29B33
:10134E0002C0B49B01C004C0EAE1F0E00E94C314E5
:10135E00CC9B0AC0CE9908C0B09B06C0B69B04C0F9
:10136E00B29902C0B49901C004C0EBE1F0E00E9452
:10137E00C314CC990AC0CE9B08C0B09B06C0B699C8
:10138E0004C0B29B02C0B49901C004C0ECE1F0E00D
:10139E000E94C314CC9B0AC0CE9908C0B09B06C055
:1013AE00B69B04C0B29B02C0B49B01C004C0EDE169
:1013BE00F0E00E94C314CC990AC0CE9B08C0B09B2B
:1013CE0006C0B69B04C0B29902C0B49901C004C055
:1013DE00EEE1F0E00E94C314CC990AC0CE9B08C087
:1013EE00B09B06C0B69B04C0B29B02C0B49B01C0AA
:1013FE0004C0EFE1F0E00E94C314CC990AC0CE996C
:10140E0008C0B09906C0B69904C0B29B02C0B49B86
:10141E0001C004C0E0E2F0E00E94C314CC990AC0FF
:10142E00CE9908C0B09906C0B69B04C0B29902C04E
:10143E00B49B01C004C0E1E2F0E00E94C314CC9959
:10144E000AC0CE9908C0B09B06C0B69904C0B29926
:10145E0002C0B49B01C004C0E2E2F0E00E94C314DB
:10146E00CC990AC0CE9B08C0B09906C0B69904C0EC
:10147E00B29902C0B49B01C004C0E3E2F0E00E9446
:10148E00C314CC990AC0CE9908C0B09906C0B69BB9
:10149E0004C0B29B02C0B49B01C004C0E4E2F0E001
:1014AE000E94C314CC990AC0CE9908C0B09B06C046
:1014BE00B69B04C0B29902C0B49B01C004C0E5E261
:1014CE00F0E00E94C314CC990AC0CE9B08C0B09B1A
:1014DE0006C0B69904C0B29902C0B49B01C004C044
:1014EE00E6E2F0E00E94C314CC990AC0CE9B08C07D
:1014FE00B09906C0B69B04C0B29902C0B49901C09F
:10150E0004C0E7E2F0E00E94C314CC9B0AC0CE995F
:10151E0008C0B09B06C0B69904C0B29B02C0B49B73
:10152E0001C004C0E8E2F0E00E94C314CC990AC0E6
:10153E00CE9B08C0B09B06C0B69904C0B29902C03B
:10154E00B49901C004C0E9E2F0E00E94C314CC9B40
:10155E000AC0CE9908C0B09906C0B69B04C0B29B13
:10156E0002C0B49B01C004C0EAE2F0E00E94C314C2
:10157E00CC990AC0CE9908C0B09B06C0B69904C0DB
:10158E00B29B02C0B49B01C004C0EBE2F0E00E942B
:10159E00C314CC990AC0CE9908C0B09B06C0B699A8
:1015AE0004C0B29902C0B49901C004C0ECE2F0E0EC
:1015BE000E94C314CC990AC0CE9B08C0B09906C035
:1015CE00B69904C0B29B02C0B49B01C004C0EDE248
:1015DE00F0E00E94C314CC990AC0CE9B08C0B0990B
:1015EE0006C0B69904C0B29902C0B49901C004C035
:1015FE00EEE2F0E00E94C314CC9B0AC0CE9908C064
:10160E00B09906C0B69904C0B29B02C0B49B01C08B
:10161E0004C0EFE2F0E00E94C314CC9B0AC0CE9946
:10162E0008C0B09906C0B69B04C0B29902C0B49B64
:10163E0001C004C0E0E3F0E00E94C314CC990AC0DC
:10164E00CE9908C0B09B06C0B69B04C0B29902C02A
:10165E00B49901C004C0E1E3F0E00E94C314CC9B36
:10166E000AC0CE9908C0B09906C0B69B04C0B29B02
:10167E0002C0B49B01C004C0E2E3F0E00E94C314B8
:10168E00CC990AC0CE9908C0B09B06C0B69B04C0C8
:10169E00B29902C0B49901C004C0E3E3F0E00E9425
:1016AE00C314CC990AC0CE9908C0B09B06C0B69997
:1016BE0004C0B29B02C0B49901C004C0E4E3F0E0E0
:1016CE000E94C314CC990AC0CE9908C0B09906C026
:1016DE00B69B04C0B29902C0B49901C004C0E5E340
:1016EE00F0E00E94C314CC9B0AC0CE9B08C0B099F8
:1016FE0006C0B69904C0B29B02C0B49B01C004C020
:10170E00E6E3F0E00E94C314CC990AC0CE9B08C059
:10171E00B09B06C0B69B04C0B29902C0B49B01C078
:10172E0004C0E7E3F0E00E94C314CC990AC0CE9B3C
:10173E0008C0B09906C0B69B04C0B29902C0B49B53
:10174E0001C004C0E8E3F0E00E94C314CC9B0AC0C1
:10175E00CE9B08C0B09906C0B69B04C0B29902C019
:10176E00B49B01C004C0E9E3F0E00E94C314CC9B1B
:10177E000AC0CE9908C0B09B06C0B69904C0B299F3
:10178E0002C0B49B01C004C0EAE3F0E00E94C3149F
:10179E00CC9B0AC0CE9908C0B09B06C0B69B04C0B5
:1017AE00B29902C0B49B01C004C0EBE3F0E00E940A
:1017BE00C314CC990AC0CE9B08C0B09906C0B69986
:1017CE0004C0B29B02C0B49901C004C0ECE3F0E0C7
:1017DE000E94C3140E946514DF01CB01E0E0F0E02B
:1017EE0060E271E40E943C1620F4E0E4F0E00E9416
:1017FE00C3140895E0916D08F0916E08309739F496
:10180E000E94C8140E94C8140E94CD14E7C1E13092
:10181E00A0E0FA0729F40E94C814E6E4F0E0D7C16C
:10182E00E230A0E0FA0709F4CCC1E330A0E0FA07F9
:10183E0039F40E94D3140E94C8140E94CD14CEC154
:10184E00E430A0E0FA0739F40E94C8140E94D314C1
:10185E000E94CD14C3C1E530A0E0FA0729F40E941E
:10186E00C814E6E4F0E0B3C1E630A0E0FA0709F4EC
:10187E00A8C1E730A0E0FA0719F4E2E3F0E0A3C153
:10188E00E830A0E0FA0729F40E94C814E6E4F0E07C
:10189E009EC1E930A0E0FA0739F40E94D8140E94E4
:1018AE00D8140E94CD149AC1EA30A0E0FA0729F4A8
:1018BE000E94C814E6E4F0E08AC1EB30A0E0FA071B
:1018CE0029F40E94C814E6E4F0E081C1EC30A0E0F7
:1018DE00FA0729F40E94C814E2E3F0E078C1ED3073
:1018EE00A0E0FA0719F4E2E3F0E06DC1EE30A0E0FB
:1018FE00FA0729F40E94C814E0E5F0E068C1EF3061
:10190E00A0E0FA0719F4E0E5F0E05DC1E031A0E0F7
:10191E00FA0719F4EAE5F0E056C1E131A0E0FA0762
:10192E0019F4EAE5F0E04FC1E231A0E0FA0719F44C
:10193E00EAE5F0E048C1E331A0E0FA0729F40E949D
:10194E00D314E0E5F0E043C1E431A0E0FA0729F456
:10195E000E94D314E0E5F0E03AC1E531A0E0FA07C9
:10196E0029F40E94DD14E5E5F0E031C1E631A0E096
:10197E00FA0729F40E94C814E6E4F0E028C1E73122
:10198E00A0E0FA0709F41DC1E831A0E0FA0729F436
:10199E000E94C814E6E4F0E01AC1E931A0E0FA07AB
:1019AE0009F40FC1EA31A0E0FA0729F40E94C81425
:1019BE00E6E4F0E00CC1EB31A0E0FA0709F401C156
:1019CE00EC31A0E0FA0729F40E94C814E6E4F0E036
:1019DE00FEC0ED31A0E0FA0729F40E94C814E6E437
:1019EE00F0E0F5C0EE31A0E0FA0709F4EAC0EF31FD
:1019FE00A0E0FA0709F4E5C0E032A0E0FA0729F406
:101A0E000E94C814E5E5F0E0E2C0E132A0E0FA077A
:101A1E0019F4E5E5F0E0D7C0E232A0E0FA0709F4E8
:101A2E00D0C0E332A0E0FA0719F4E5E5F0E0CBC050
:101A3E00E432A0E0FA0729F40E94C814E6E4F0E0CC
:101A4E00C6C0E532A0E0FA0709F4BBC0E632A0E05A
:101A5E00FA0729F40E94C814E6E4F0E0B8C0E732B1
:101A6E00A0E0FA0709F4ADC0E832A0E0FA0729F4C5
:101A7E000E94C814E6E4F0E0AAC0E932A0E0FA073A
:101A8E0009F49FC0EA32A0E0FA0709F49AC0EB32DB
:101A9E00A0E0FA0729F40E94C814E6E4F0E097C02B
:101AAE00EC32A0E0FA0719F4E1E4F0E08CC0ED327C
:101ABE00A0E0FA0729F40E94D814EAE5F0E087C006
:101ACE00EE32A0E0FA0729F40E94D814EAE5F0E01D
:101ADE007EC0EF32A0E0FA0729F40E94DD14E0E5A3
:101AEE00F0E075C0E033A0E0FA0729F40E94DD149F
:101AFE00E0E5F0E06CC0E133A0E0FA0719F4EBE4A6
:101B0E00F0E061C0E233A0E0FA0729F40E94D81495
:101B1E00E6E4F0E05CC0E333A0E0FA0729F40E94AB
:101B2E00C814EAE5F0E053C0E433A0E0FA0729F464
:101B3E000E94C814E6E4F0E04AC0E533A0E0FA07DC
:101B4E0019F4EBE4F0E03FC0E633A0E0FA0729F425
:101B5E000E94D814E1E4F0E03AC0E733A0E0FA07BF
:101B6E0019F4E0E5F0E02FC0E833A0E0FA0719F42D
:101B7E00E0E5F0E028C0E933A0E0FA0719F4E0E56B
:101B8E00F0E021C0EA33A0E0FA0729F40E94C8145D
:101B9E00E0E5F0E01CC0EB33A0E0FA0729F40E9468
:101BAE00C814E5E5F0E013C0EC33A0E0FA0729F421
:101BBE000E94D814E6E4F0E00AC0E034A0E0FA0790
:101BCE0079F4E6E4F0E0FA93EA93E4E6F0E0FA93CF
:101BDE00EA93E1E0F0E0FA93EA93A1E0B0E0D0D925
:101BEE0008950E947C130E9471130E9476140E9425
:101BFE00BE14AEE0B6E00E949E14A1E1B6E00E94D3
:101C0E00AE140E947713A034E0E0BE0734F40E94B5
:101C1E006613A034E0E0BE070CF001C0E6CF0895D5
:101C2E000E947C130E9471130E9481140E94BE14A4
:101C3E00A5E1B6E00E949E14A8E1B6E00E94AE14A3
:101C4E000E947713519784F30E94E2140E9471133D
:101C5E000E9476140E94E914ACE1B6E00E949E1434
:101C6E00AFE1B6E00E94AE140E947713A436E0E016
:101C7E00BE0734F40E946613A436E0E0BE070CF0F3
:101C8E0001C0E6CF0E94E2140E9471130E948D14CF
:101C9E000E949914A3E2B6E00E949E14A6E2B6E05A
:101CAE000E94AE140E946613519784F30E94E214B0
:101CBE000E9471130E9476140E94E914AAE2B6E003
:101CCE000E949E14ADE2B6E00E94AE140E947713FD
:101CDE00A436E0E0BE0734F40E946613A436E0E0BA
:101CEE00BE070CF001C0E6CF089566D983DD0895D6
:101CFE00E0E0E093CB07E093CC07E093CD07E093D1
:101D0E00CE07E091B307F091B407309761F40C2C35
:101D1E000D2831F40E94BC12A1E3B6E00E94EE142D
:101D2E000E942E061DC1E130A0E0FA0761F40C2CD2
:101D3E000D2831F40E94BC12A2E4B6E00E94EE140B
:101D4E000E9457060DC1E230A0E0FA0761F40C2C98
:101D5E000D2831F40E94BC12A2E5B6E00E94EE14EA
:101D6E000E947806FDC0E330A0E0FA0761F40C2C67
:101D7E000D2831F40E94BC12A4E6B6E00E94EE14C7
:101D8E000E949906EDC0E430A0E0FA0761F40C2C35
:101D9E000D2831F40E94BC12A5E7B6E00E94EE14A5
:101DAE000E94C206DDC0E530A0E0FA0761F40C2CFB
:101DBE000D2831F40E94BC12A6E8B6E00E94EE1483
:101DCE000E94E906CDC0E630A0E0FA0759F40C2CCB
:101DDE000D2831F40E94BC12A6E9B6E00E94EE1462
:101DEE005FD8BEC0E730A0E0FA0759F40C2C0D28DE
:101DFE0031F40E94BC12A7EAB6E00E94EE1452D84B
:101E0E00AFC0E830A0E0FA0759F40C2C0D2831F4DD
:101E1E000E94BC12A6EBB6E00E94EE144BD8A0C0F6
:101E2E00E930A0E0FA0759F40C2C0D2831F40E9489
:101E3E00BC12A6ECB6E00E94EE1468D891C0EA304F
:101E4E00A0E0FA0759F40C2C0D2831F40E94BC12B4
:101E5E00A6EDB6E00E94EE145CD882C0EB30A0E096
:101E6E00FA0759F40C2C0D2831F40E94BC12A8EE7E
:101E7E00B6E00E94EE1452D873C0EC30A0E0FA0720
:101E8E0059F40C2C0D2831F40E94BC12A9EFB6E0C7
:101E9E000E94EE1446D864C0ED30A0E0FA0759F463
:101EAE000C2C0D2831F40E94BC12A9E0B7E00E9460
:101EBE00EE1451D855C0EE30A0E0FA0759F40C2CB0
:101ECE000D2831F40E94BC12ABE1B7E00E94EE1473
:101EDE002DD846C0EF30A0E0FA0759F40C2C0D288F
:101EEE0031F40E94BC12ACE2B7E00E94EE1479DE2F
:101EFE0037C0E031A0E0FA0759F40C2C0D2831F46C
:101F0E000E94BC12A9E3B7E00E94EE1489DE28C03D
:101F1E00E131A0E0FA0759F40C2C0D2831F40E949F
:101F2E00BC12ABE4B7E00E94EE14DFDE19C0E23162
:101F3E00A0E0FA0759F40C2C0D2831F40E94BC12C3
:101F4E00ADE5B7E00E94EE14D0DE0AC00E94BC12CE
:101F5E00AFE6B7E00E948713ADE7B7E00E94F81234
:101F6E00A2E3B0E00E9459150895AA93E0918A0762
:101F7E00E03019F4689421F805C0E89421F8E0E007
:101F8E000C945D13E881E03019F0E0E00C945D13E1
:101F9E00A0918907EFE00E9488160C945D13AA9316
:101FAE00E881E03009F040C0E091C507E093F90701
:101FBE00E091C707E093FA07E0915E08F0915F08A1
:101FCE00E093FB07F093FC07E0916208F091630841
:101FDE00E093FD07F093FE07E0916908F0916A081F
:101FEE00E093FF07F0930008E0916B08F0916C0806
:101FFE00E0930108F0930208E0919E07E093030836
:10200E00E091D607E0930408609205080E946514DB
:10201E00A6E0B8E00E949015EC93E091E807E093FB
:10202E000708EFE00C945D1321FE07C0E091F8075E
:10203E00F0E0E093B107F093B207E0E00C945D138B
:10204E00E0E0EA93E0E5EA93EAEEF7E0FA93EA934A
:10205E00EFE0EA93E9EFF7E0FA93EA93ECEBFFE0B7
:10206E00FA93EA93A6EDBFE00E94B01008950E9485
:10207E005F13ECE9ECBDA9ECB7E00E946B130E9474
:10208E00FA14A030E1E0BE072CF0E0E0E093C907BF
:10209E00E093CA07E091CB07F091CC070E94FA14A7
:1020AE00AE17BF0714F0DB9801C0DB9AE091CD07A5
:1020BE00F091CE070E94FA14AE17BF0714F0D9980C
:1020CE0001C0D99AE991EFBFF991E991B991A9911E
:1020DE0018950E94FF020E9408150E942905B0DF84
:1020EE000E94E30705DE0E9469040E940B040E9411
:1020FE009204F6CFFFCFBA93AA93A991B991E99121
:10210E00F99130962AF4E095F09531966DE26D9343
:10211E00E89480E197E20DD088EE93E00AD084E651
:10212E00992707D08AE005D06E2F10D066276C93C2
:10213E0008956627E817F90720F06395E81BF90B59
:10214E00C9F7662311F416F008956894605D6D93D7
:10215E000895BA93AA93689424F8E7E0E0938A0767
:10216E00EF81F885E0937D08F0937E08EE81E09391
:10217E008008EC81FD81E0937A08F0937B08EA8178
:10218E00FB81E0938108F0938208E881F981E09366
:10219E008308F0938408919A909AEA85E03011F0C2
:1021AE00E1E002C0E985EE0FE0937200E091740069
:1021BE00E078E564E09374002B9608950A921A92E3
:1021CE00FA926A937A938A939A93AA93BA93EA931A
:1021DE00FA93EFB7EA930E94B11610918907009116
:1021EE00880730917C0820918A07E12FA0917D0805
:1021FE00B0917E08F0E0EA0FFB1FAF01E091710095
:10220E00E87FE83011F420E002C0E03119F4E091EB
:10221E00790810C0E83111F0E83249F5031798F447
:10222E00E02F0F5FA0917A08B0917B08F0E0AE0F1F
:10223E00BF1FEC91E0937300E0917400EF70E068C3
:10224E00E093740013C0E0917F081E1770F4E091C4
:10225E007908E160E0937908E89423F8E09174003E
:10226E00EF70E06AE093740013C138C011C1E0351D
:10227E0031F4E0917300DA01EC931F5F02C0E03499
:10228E0089F4E0917F08E1501E1728F0E091740068
:10229E00EF70E06804C0E0917400EF70E06CE093C2
:1022AE007400F6C0E83531F4E0917300DA01EC9376
:1022BE001F5F02C0E03209F402C0E03309F402C02D
:1022CE00E83469F4203051F423FE03C0031728F0DC
:1022DE0005C0E0917F081E1708F424E0D1C0E83352
:1022EE0031F422E0E0917400EF70E068CDC0E83682
:1022FE0011F0E83711F422E005C0E03611F0E037B6
:10230E00A9F420E010E0E89423F8E0918008E03092
:10231E0031F421E0E0917400EF70E06804C0E091C8
:10232E007400EF70E06CE0937400B2C0E03811F00E
:10233E00E03941F523FE02C021E0A2C0E091730016
:10234E00DA01EC931F5FE09180081E17C0F4E09154
:10235E008108F0918208309711F426E091C0A0E038
:10236E00E0918108F09182080995E03039F0E09112
:10237E007400EF70E06CE09374008AC002C0689441
:10238E0023F802C0E83809F402C0E83939F4E091C4
:10239E007400EF70E068E09374007AC0E03AB9F42C
:1023AE00E0917400EF70E06CE0937400689424F890
:1023BE00E0918108F0918208309739F0A1E0E09128
:1023CE008108F0918208099501C026E061C0E03BCA
:1023DE0011F422E002C0E83AB9F4E0918308F091DA
:1023EE008408309759F0A0E0E0918308F0918408BA
:1023FE0009953E2FE03011F020E002C026E040C0EB
:10240E0000E0E89423F802C0E83B01F523FE02C089
:10241E0021E036C0E02F0F5FA0917A08B0917B08C3
:10242E00F0E0AE0FBF1FEC91E0937300031728F49A
:10243E00E0917400EF70E06C06C0689423F8E091B0
:10244E007400EF70E068E093740022C0E03C11F07D
:10245E00E83C99F4E0917400EF70E06CE093740046
:10246E00E0918308F0918408309731F0A1E0E0917B
:10247E008308F0918408099509C0E03049F423E0FF
:10248E00E0917400EF70E06DE0937400689424F8AE
:10249E00109389070093880720938A0730937C084E
:1024AE000E94B8162696E991EFBFF991E991B9917C
:1024BE00A9919991899179916991F99019900990C1
:1024CE001895FFE0FA95F1F70895A4B3AF70A4BB89
:1024DE00A99AA898F6DFAA9AF4DFA3B3AA98F1DF17
:1024EE00AA9AEFDFAA98A7FDF5CF0895A07FAB2B90
:1024FE00A5BBAA9A0E946812AA980E946812089513
:10250E00AA93A998A4B3A76FA4BBB5B3BF70A881B3
:10251E00EDDFA881A295EADFA99A0C945D13AA9A21
:10252E000E946812E3B3AA980E946812E07F089591
:10253E000E946812F4DFAE2FF2DFA998E295EA2B23
:10254E000895AA930E946C12E881F0E0EB57F74FC2
:10255E00E081A981AE0F0E948712E981E09389087C
:10256E00E881E0938A08229608950E946C12A2E0F8
:10257E000E9487120E946C12ACE00E9487120E9489
:10258E006C12A1E00E948712E0E0E0938A08E093CB
:10259E0089080895AA93EF93FF93A8816894AA30AF
:1025AE0039F0E894E0918B08A0918908AE1758F0A5
:1025BE00E0918A08EF5FE0938A08E0E0EA93A09149
:1025CE008A08BFDF56F0E0918908EF5FE093890833
:1025DE007CDFA89AA8810E948712FF91EF910C943C
:1025EE005D13BA93AA931A93A981BA81ED91A98327
:1025FE00BA831E2FE03019F0A12FCCDFF5CF10C01B
:10260E00BA93AA931A93E981FA813196E983FA83F0
:10261E003197E4911E2FE03019F0A12FBBDFF3CFDD
:10262E00188123960895AA27BB271197F1F70895CD
:10263E00AA93A998A4B3A76FA4BBB5B3BF70A88182
:10264E000E947D12A99A32C0AA93AA98A898E881EE
:10265E00E0938B08E058E0938708E881E054E0931C
:10266E0088080E94FF140E94FF140E94FF14DBDFF3
:10267E00A0E2DEDFD8DFA8E20E940415A4E00E94EB
:10268E000415A5E80E940415A4B3AF70A4BBA99AC3
:10269E000E949F12E53011F0E0E008C00E946C121B
:1026AE00A6E00E9487120E94BC12E1E021960895D6
:1026BE00AA93BA93EA93FA93EFB7EA930895A09187
:1026CE006B08B0916C080895ED91FD913196FE93D3
:1026DE00EE930895E0E0E0936B08E0936C080895A4
:1026EE00A0916908B0916A080895E0E0E093690846
:1026FE00E0936A080895E091D207F091D307089508
:10270E000E94F812E0E0EA93A1E00C94A812F0E027
:10271E00FA93EA93A7EDB7E00E948210A7EDB7E017
:10272E000C94F812A091B107B091B2070895A4E6E7
:10273E00B0E00E949A166E0F7F1F0895AAE0B0E0D7
:10274E000E949A16E60FF71F0895EE0FFF1FEA0F6D
:10275E00FB1F0895F801A3E0B0E00E949A160895B9
:10276E00DF01AA0FBB1FA95DB74F0E94AD160895DA
:10277E000E94AD16A0915A08B0915B08EA0FFB1F9C
:10278E00DB01ED93FC930895E0E0EA93A1E00C9455
:10279E00A812E4E6F0E0E093CB07F093CC07E093C9
:1027AE00CD07F093CE070E94BC12E0919C07F091EA
:1027BE009D07309708950E94F812E0916908F091F4
:1027CE006A08FA93EA93DE0112960E948210DE01E5
:1027DE000C94F8120E94F812E0916B08F0916C08BC
:1027EE00FA93EA93DE0112960E948210DE010C9497
:1027FE00F812AAEFB0E00E945915E0919C07F091F3
:10280E009D070E948D16F0E0E0939C07F0939D07C4
:10281E000895DE0116960E948210DE011496089528
:10282E00E12FA6E4B8E0F0E0EE0FFF1FAE0FBF1FE2
:10283E000E94AD160895E12FAEE4B8E0F0E0EE0F81
:10284E00FF1FAE0FBF1F0E94AD160895A4E11A021E
:10285E000A92A0E00C94A812E050F240FA93EA9388
:10286E00A1E4B8E00C948210A1E4B8E00C94F81244
:10287E00E657F140FA93EA93A1E4B8E00C94821083
:10288E00EA93A0E00E94A812EFCFE12FF0E0EA5AFF
:10289E00F74FE081F0E0FA93EA93A1E4B8E00C94EC
:1028AE008210E12FE250A4E1EA020A92A1E00C9418
:1028BE00A812EA93A1E00E94A812D6CFE0911D08BB
:1028CE00F0911E08662777270E94C915DF01CB01FC
:1028DE00EDECFCEC60E572E40E94F7150895E4E679
:1028EE00F0E0E093CB07F093CC07E093CD07F093A5
:1028FE00CE070895E0E0E093CB07E093CC07E4E643
:10290E00F0E0E093CD07F093CE070895E4E6F0E013
:10291E00E093CB07F093CC07E0E0E093CD07E09394
:10292E00CE070895DF98DD9A0E94BC122DCF0E942B
:10293E00F812E0916908F0916A08FA93EA93A0EA16
:10294E00B7E00E948210A0EAB7E00C94F8120E9441
:10295E00F812E0916B08F0916C08FA93EA93A0EAF2
:10296E00B7E00E948210A0EAB7E00C94F812DF9A4A
:10297E00DD980E94BC1208CFE0936D08F0936E08AC
:10298E000895E4E6F0E0FA93EA930895E0E0F0E0CB
:10299E00FA93EA93A0E00895E6E4F0E0FA93EA935E
:1029AE000895E0E5F0E0FA93EA930895EAE5F0E0A1
:1029BE00FA93EA930895D998DB98A8EEB3E00E94B3
:1029CE00591593CEDF98DD980E94BC12DDCE0E9481
:1029DE00F812A8EEB3E00E9459150E94BC12E1E075
:1029EE00F0E06F010895A091C907B091CA0708954C
:1029FE000E941A13A0E30C941F130E9487120C94CA
:102A0E001A13C398C598BB9ABD9815C0BD98BB98AC
:102A1E00EE270000B59B0895B39B089504D0BD9A90
:102A2E0002D0BB9AE1E06BE107C0BD9ABB9A03D01E
:102A3E00BB98F9DFBD9865E36A95F1F7089578E0E4
:102A4E00BB98F1DFB39BFECFEEDF8894B599089467
:102A5E00BB9AF1DFEE1F7A9599F77A2F772311F44F
:102A6E00BD9801C0BD9ADFDFBB98E5DFBB9ADBDF07
:102A7E00BD98D9CF78E0AA0F10F4BD9801C0BD9AC9
:102A8E00DADFBB98D0DFB39BFECFCDDFBB9A7A9552
:102A9E0091F7BD98C8DFBB98CEDFE1E0B599EE2780
:102AAE00BB9AC1CF109639F080EA9FE00197F1F7FB
:102ABE00A8951197C9F70895552342F4503811F48B
:102ACE00E0FF04C03196691F791F6BF050E857275D
:102ADE0011F45F9373C05F3F31F0660F000C579592
:102AEE006795752F08955F9300200AF073C06CC030
:102AFE0050E8192E1522880F991F9527550F879587
:102B0E0050E8072E0522660F771F7527550F67951C
:102B1E000895689401C0E8945F93F2DF703818F05E
:102B2E007F3F08F44BC056E1571BAAF4519558301D
:102B3E000EF4593030F0EFEFFFEF6FEF7FE777F9DC
:102B4E001AC077275523B9F0EE0FFF1F661F771FA8
:102B5E005A95D1F710C07727583028F0EF2FF62F5F
:102B6E00672F5850F9CF552331F076956795F79525
:102B7E00E7955A95D1F700200AF49BD05F910895FE
:102B8E00689401C0E894309760407040B1F0002422
:102B9E0026F0772312F400948CD0172E7EE11120AC
:102BAE0032F07A95EE0FFF1F661F111CF9CFEF2F33
:102BBE00F62F612D5F938ADF5F910895EE27FF2731
:102BCE00662777275F910895EFEFFFEF6FE77FEFAF
:102BDE005F910895EFEFFFEF6FE77FE75F91089545
:102BEE005F9386DF703821F411200AF4EDCFF2CF17
:102BFE00903809F4E3CF01240894970B1BF4D4F317
:102C0E000020F3CF792F1F932F933F934F931124CF
:102C1E001127222733274427552790E2AE17BF07E7
:102C2E008607410730F0AE1BBF0B860B410B089495
:102C3E0001C08894551F221F331F111CAA1FBB1FD2
:102C4E00881F441F9A9551F7F901612D4F913F91BD
:102C5E002F911F91662332F0550FEE1FFF1F661F37
:102C6E007A9543F229DF5F91089599239AF077239D
:102C7E0042F0971748F029F4AE17BF07860720F0E9
:102C8E0031F098948894089598940894089518941F
:102C9E00889408957723C2F7971798F3A9F7EA1740
:102CAE00FB07680788F399F3ECCFF195E195F040B7
:102CBE000895F09560957095E195FF4F6F4F7F4F9A
:102CCE000895EE230E2EFD0121F0F695E7950A9458
:102CDE00E1F70895EE0FFF1FEE0FFF1FEE0FFF1F20
:102CEE00EE0FFF1F0895F695E795F695E795F69585
:102CFE00E795F695E79508956F2F660F660B762F7D
:102D0E000895AE17E1E008F0EE270895EF2BE1E00D
:102D1E0009F0E0E00895FA9FF02DEB9FF00DEA9F89
:102D2E00E02DF10D089504D0F6DF0EF4BEDF089508
:102D3E00E894F7FF02C0B9DF6894B7FF06C0A0950C
:102D4E00B095119600F8039400FA0895ED91FC9158
:102D5E00119708955A934A933A932A931A930A9382
:102D6E0008955D814C813B812A81198108810895E6
:00000001FF
