:080000000C9446020C94000070
:100008000C9400000C9400000C9400000C94A402C2
:100018000C9400000C94C3020C9400000C94000093
:100028000C942D050C9400000C9400000C94000016
:100038000C944D030C9400000C9403040C940000E1
:100048000C9400000C9400000C9400000C947602B0
:100058000C9400000C9400000C9400000C94F3061F
:100068000C9433070C9400000C9400000C940000CE
:100078000C9400000C9400000C9400000C94451B98
:100088000C9400001027E80364000A000100001027
:1000980000011000010001000100320050006E0054
:1000A8008C00AA00B300BC00C500CE001B000A00EB
:1000B8004441544100504F534954494F4E2D5345E4
:1000C80052564F004C4546543A2031004C45465450
:1000D8003A2030002052494748543A2031002052F3
:1000E800494748543A2030004D4C4546543A20314F
:1000F800004D4C4546543A2030004D52494748542B
:100108003A31004D52494748543A300020202020C7
:1001180020454E434F44455220203E3E003C3C2063
:100128002020454E434F44455220202020004C3A81
:100138000020523A002020202020524543485453A2
:10014800202020200020202020204C494E4B5320E6
:1001580020202000464C4546543A203100464C4564
:1001680046543A2030004652494748543A310046EE
:1001780052494748543A30004C4546543A0052498F
:100188004748543A004F626A656B74206765667524
:100198006E64656E004B65696E204F626A656B74AC
:1001A80000616C6C006E6F7468696E6700363700AA
:1001B80036380036390037300037310037320037EB
:1001C80033003735003830003831004C2073746103
:1001D80074650020320020330020340020350020D0
:1001E8003600203700627567006D6F746800464FEF
:1001F8004C4C4F5700534D41525450484F4E452098
:10020800204F4E4C59004F4B004275666665722070
:100218006F766572666C6F7700417262697472619D
:1002280074696F6E206C6F73740042757320657209
:10023800726F72004E41434B207265636569766543
:1002480064004275732074696D656F75740046614A
:10025800696C00556E6B6E6F776E206572726F7287
:10026800000001002D4E414E00494E460000070097
:1002780080C0010002009E000A000400A0000100E6
:10028800F606AA0001001507B40001005007B600E1
:1002980005000005B8000F000505BD00080014059D
:1002A800CC0008001C05D4000A002405DC000A0064
:1002B8002E05E60009003805F00009004105F9009F
:1002C80009004A050201090053050B0111005C05EC
:1002D800140111006D05250103007E053601040097
:1002E80081053901100085053D010F0095054D0177
:1002F8000300A40536010400A70539010800AB0571
:10030800CC000800B305D4000A00BB05DC000A00D5
:10031800C505E6000900CF055C010900D80565019F
:100328000900E1056E010900EA0577010600F305F9
:1003380080010700F9058601030000063601040064
:100348000306390103000706360104000A063901CD
:1003580004000E06A90108001206AD0103001A06E2
:10036800B50103001D06B80103002006BB01030008
:100378002306BE0103002606C10103002906C401A5
:1003880003002C06C70103002F06CA01030032062A
:10039800CD0103003506D0010300380636010400FC
:1003A8003B06390108003F06D30103004706D10088
:1003B80003004A06360104004D06390108005106BB
:1003C800D30103005906DB0103005C063601040073
:1003D8005F06390108006306D30103006B06DE01DE
:1003E80003006E063601040071063901080075061F
:1003F800D30103007D06E1010300800636010400F5
:100408008306390108008706D30103008F06E4013B
:100418000300920636010400950639010800990682
:10042800D3010300A106E7010300A4063601040076
:10043800A70639010800AB06D3010300B306EA0199
:100448000300B60636010400B90639010400BD06EA
:10045800ED010200C10634010500C306F1010200E6
:10046800C80634010700CA06F6011100D106FD01CD
:100478000100FE076A020100E406760202000E0887
:1004880078020000F894EE27ECBBF1E0F5BFE5BF79
:10049800E0936C008DE0A2E0BB27ED938A95E9F725
:1004A80080E090E1A0E0B1E0ED930197E9F7EAE799
:1004B800F2E085919591009761F0A591B59105902D
:1004C8001590BF01F00105900D920197E1F7FB012E
:1004D800F0CF8BBFEFEFEDBFE0E1EEBFC0E0D5E0BE
:1004E8000C94801A8A93AA93BA93EA93FA93EFB773
:1004F800EA93E091E107A3EDB7E0F0E0EE0FFF1F0C
:10050800AE0FBF1FE4B1F5B1ED93FC93A091E107E5
:10051800AF5FA093E107A73018F0E0E0E093E107B0
:10052800E091E107E05CE7B985E38A95F1F7369A4F
:10053800E991EFBFF991E991B991A991899118953C
:100548000E94BF1D0E94CB1D0E94D41D0E94CB1D7E
:100558000E94DC1D89F0DF9B08C0A6EEB7E00E9470
:10056800262431976040704004C0A6EEB7E00E9490
:10057800E41D0E942B2402C00E94EB1D1EC00E9495
:10058800BF1D0E94F51D0E94D41D0E94F51D0E94EA
:10059800DC1D89F0DD9B08C0A2EEB7E00E9426248E
:1005A80031976040704004C0A2EEB7E00E94E41D9D
:1005B8000E942B2402C00E94FE1DE991EFBFF99111
:1005C800E991B991A9919991899179916991099044
:1005D8001895EAE8EABBE2E0E7BBE1EAE1BBE4E060
:1005E800E2B9E0E2E0936100A0E10E948B1DE0E443
:1005F800E7B9EFECE6B9E0E0E0BDE0E8E8B9E0E053
:10060800E0936A00E1E1EABFE0E5E9BFE0E0E8BFC6
:10061800E0BFE6E0E3BFE3E8E2BFE0E0E1BFE1E03E
:10062800EFBDEAE0EEBDE0E0EDBDECBDE7BDE6BD47
:10063800EBBDEABDE9BDE8BDE0937900E093780041
:10064800E4E0E5BDE0E0E4BDE3BDE0938B00EBEC66
:10065800E0938A00E0E0E0938900E0938800E0936B
:100668008100E0938000E1E6E0938700E8EAE09308
:100678008600E0E0E0938500E0938400E093830047
:10068800E0938200E5E4E7BFE0E3E0937D0078943F
:1006980008950A92AA93BA93EA93FA93EFB7EA9362
:1006A800ECE9ECBDABE2B7E00E94081E0E940E1E0A
:1006B800A536E0E0BE072CF0E0E0E0932B07E093DE
:1006C8002C07E0912D07F0912E070E940E1EAE1701
:1006D800BF0714F0DB9801C0DB9AE0912F07F09177
:1006E80030070E940E1EAE17BF0714F0D99801C03C
:1006F800D99AA091F207B091F307A83BEBE0BE07A7
:100708002CF4A2EFB7E00E94081E1EC0A091F407C7
:10071800B091F5075E973CF4A091F407B091F50706
:100728000E9430240CF005C0A4EFB7E00E94081E18
:1007380006C0E1E0F0E0E093F407F093F507E0E0AD
:10074800E093F207E093F307A0913307B0913407E1
:100758000E9430243CF0A0913507B09136070E94E2
:1007680030240CF5A0913107B0913207A83CE0E0A5
:10077800BE072CF4A1E3B7E00E94081E13C0A3E350
:10078800B7E0ED91FD913197FE93EE93A5E3B7E0C5
:10079800ED91FD913197FE93EE93E0E0E093310700
:1007A800E09332070DC0E0E0E0933307E0933407AD
:1007B800E0933507E0933607E0933107E09332077B
:1007C800E991EFBFF991E991B991A991099018952B
:1007D800BA93AA93EE81FF810E94131EEC81FD81DA
:1007E8000E94181EEA81E03011F4DF9801C0DF9AF8
:1007F800E881E03011F4DD9801C0DD9A8FC00E94D5
:100808001D1EEEEFE2BFA0913707AF5FA093370739
:10081800A434A0F0E0913B07E07421F4E0913B0799
:10082800E07209F406C00E94241EE0933807F09392
:100838003907E0E0E0933A07E0933B07A0E020FCAB
:10084800A1E0E0E0CA99E1E0B0E0F0E0E7FDFFEF09
:10085800EA17FB0759F1E1E02E26A0913707AB30E4
:1008680028F4E0E0E0933A07E0933B070E94241E57
:10087800309721F0A0913707AD32C0F0E0913B07E7
:10088800E07441F40E94241EEE0FFF1FE0933A0724
:10089800F0933B0720FC07C00E94241EE160E09310
:1008A8003A07F0933B07E0E0E0933707D1C2BA93E9
:1008B800AA931A930A93F89400913807109139076C
:1008C800E0E0E0933807E09339077894002E012A96
:1008D80009F1D801EBE00E94BF23E170AE81BF812E
:1008E800EC93D801E6E00E94BF23EF71AC81BD8193
:1008F800EC93E02FEF73AE2FF801E095F0950E948E
:10090800D3230E94D123E074EA2BAA81BB81EC9304
:10091800F80102C0E0E0F0E0198108812896089506
:100928000E941C1DA0E0B5E00E94291EA0913C0772
:10093800A05D0E94311DA0E20E94311DE0913D079B
:100948000E94301E0E94581DA0E20E94311DE091B5
:100958003E070E94301EB2C0ECE3F7E0FA93EA9338
:10096800EDE3F7E0FA93EA93AEE3B7E0A0DF309760
:1009780079F0E0913E07F0E0309751F4EBE1F0E0D8
:10098800E0931307F0931407A4E6B0E00E94B022A6
:10099800A0913E07A13021F4EDE0F0E00E943A1E5C
:1009A800A0913E07A23021F4EEE0F0E00E943A1E4A
:1009B800A0913E07A33021F4EFE0F0E00E943A1E38
:1009C800A0913E07A43021F4E0E1F0E00E943A1E35
:1009D800A0913E07A53021F4E1E1F0E00E943A1E23
:1009E800A0913E07A63021F4E2E1F0E00E943A1E11
:1009F800A0913E07A73021F4E3E1F0E00E943A1EFF
:100A0800A0913E07A83021F4E4E1F0E00E943A1EEC
:100A1800A0913E07A23121F4ECE0F0E00E943A1EDA
:100A2800A0913E07A33121F4EBE0F0E00E943A1ECA
:100A3800A0913E07A63121F4E9E0F0E00E943A1EB9
:100A4800A0913E07A73121F4EAE0F0E00E943A1EA7
:100A580008950E941D1E9798E091F806F091F906F6
:100A68000E943F1EEA17FB0729F4E2E3F0E0E415D1
:100A7800F50571F40E94441EE093F806F093F90618
:100A8800E1E0F0E02F01E091F606E4BD979A05C099
:100A9800F20132962F01E0E0E4BDDAC10E941C1D8C
:100AA800A5E0B5E00E94291E0E94441EFA93EA932D
:100AB800A5EEB6E00E94E21AA5EEB6E00E94581D27
:100AC8000895A0911507B0911607589769F40E94E8
:100AD8003F1EAC3DE0E0BE073CF40E94441E319648
:100AE800E093F606F093F706A0911507B091160764
:100AF800599769F40E943F1EA937E0E0BE073CF011
:100B08000E94441E3197E093F606F093F706089585
:100B1800A0911307B0911407109719F4EBE1F0E0D6
:100B280005C0E0911307F09114073197E09315077A
:100B3800F093160708950E94491E19F4E0E0F0E0CA
:100B480002C0E1E0F0E0E0931707F09318070E9475
:100B58004F1E19F4E0E0F0E002C0E1E0F0E0E093BD
:100B68001907F0931A070E94551E19F4E0E0F0E007
:100B780002C0E1E0F0E0E0931B07F0931C070E943D
:100B88005B1E19F4E0E0F0E002C0E1E0F0E0E09381
:100B98001D07F0931E07E0911707F0911807A8EEBC
:100BA800B3E00E940F24BF01E0911907F0911A07E2
:100BB8000E94611EE0911B07F0911C070E94681EAD
:100BC800A0911D07B0911E07EA0FFB1FE0932707AE
:100BD800F0932807B09903C0E1E0F0E002C0E0E03C
:100BE800F0E0E0931F07F0932007B29903C0E1E01B
:100BF800F0E002C0E0E0F0E0E0932107F093220784
:100C0800B49903C0E1E0F0E002C0E0E0F0E0E09376
:100C18002307F0932407B69903C0E1E0F0E002C08F
:100C2800E0E0F0E0E0932507F0932607E0911F0746
:100C3800F0912007A8EEB3E00E940F24BF01E091D5
:100C48002107F09122070E94611EE0912307F0918D
:100C580024070E94681EA0912507B0912607EA0F75
:100C6800FB1FE0932907F0932A070895E0E3EA932E
:100C7800A1E016D0E0E3EA93A8E012D0E6E0EA9318
:100C8800A0E90ED0E8E0EA93A0EC0AD0EAE1EA9302
:100C9800A0E406D0E3E3EA93A3E302D0A4E61AC2F1
:100CA800AA930E946422A0EB0E949822A9810E9424
:100CB8009822A8810E9498220E947322AAE0B0E09C
:100CC8000E94B022229608951A9310E00E9464228E
:100CD800A0EB0E949822A6E30E9498220E94732209
:100CE800A1E0B0E00E94B0220E946422A1EB0E9421
:100CF800982210E01F3090F4E12FA0E9B7E0F0E06F
:100D08000E946F1EFF93EF93A1E00E947D22AF9196
:100D1800BF91F0E0ED93FC931F5FECCFA0E00E9441
:100D28007D22AEEAB7E0F0E0ED93FC930E947322D7
:100D3800C9C11A930A9300E010E000E010E0043003
:100D4800E0E01E070CF048C00E94741E0E947A1E44
:100D5800E073F0700E94C823E093C907F093CA07B4
:100D6800F801A5EBB7E00E946F1EBF010E94741E38
:100D7800DF01AA0FBB1FAE56B84F0E94821E0E9409
:100D8800741E0E947A1EE07CF0700E94CC23E093CF
:100D9800C907F093CA07F801ADEBB7E00E946F1ED0
:100DA800BF010E94741EDF01AA0FBB1FAC56B84FCB
:100DB8000E94821EF801EB53F84FBF010E94741E77
:100DC800DF01AA0FBB1FAA56B84FEC91EF70DB01E9
:100DD800EC930F5F1F4FB3CF0991199108950E94AB
:100DE8001D1EE0918000E0938E07E0918100E09362
:100DF8008F070F9B0EC0E0918E07F0918F07E0934D
:100E08008807F0938907E0918A00EF7BE0938A00D6
:100E18001FC0E0918E07F0918F07E0938A07F09347
:100E28008B07E0918A00E064E0938A00A09188072C
:100E3800B0918907E0918A07F0918B07EA1BFB0BB9
:100E48000E94CC23E0938C07F0938D07689422F8D6
:100E5800E991EFBFF991E991B991A99118958A9310
:100E6800EA93EFB7C19A85E38A95F1F7C198EFBF86
:100E7800E991899118950E941C1D0E94491E19F438
:100E8800A4E1B5E002C0ACE1B5E00E94581D0E94A3
:100E98005B1E19F4A4E2B5E002C0AEE2B5E00E9420
:100EA800581D0E948E1E0E944F1E19F4A8E3B5E03B
:100EB80002C0A1E4B5E00E94581D0E94551E19F415
:100EC800AAE4B5E002C0A3E5B5E00E94581D089564
:100ED80061970E94931E39F4ACE5B5E00E94581D55
:100EE800DF98DD9806C0ADE6B5E00E94581DDF9A90
:100EF800DD9A0E948E1EAEE7B5E00E94A11EA1E811
:100F0800B5E00E94B01ECE9902C00E94BF1E619635
:100F180008952A970E94931E39F4A5E8B5E00E9427
:100F2800581DDF98DD9A06C0A5E9B5E00E94581D56
:100F3800DF9ADD980E948E1EA4EAB5E00E94A11EE9
:100F4800A7EAB5E00E94B01ECE9902C00E94BF1E5B
:100F58002A9608950E941C1DB09903C0ABEAB5E01B
:100F680002C0A3EBB5E00E94581DB69903C0ABEBD5
:100F7800B5E002C0A5ECB5E00E94581D0E948E1E87
:100F8800B29903C0AFECB5E002C0A8EDB5E00E948D
:100F9800581DB49903C0A1EEB5E002C0AAEEB5E0B1
:100FA8000E94581D08952A970E9440240E94CF1E2F
:100FB8008F010E94D41E9F010E941C1DA3EFB5E063
:100FC8000E94581D3A932A930E94D91E0E94291EF6
:100FD800A9EFB5E00E94581D1A930A930E94D91EE2
:100FE8000E94581D0E9447242E9608950E94E01ED4
:100FF80010E0143008F05FC0143058F50E94E61E67
:10100800EF3FA3E0FA0731F00E94F11EEF3FA3E0A3
:10101800FA0709F41DC00E94E61E0E94FC1EA4E106
:101028001A020A920E94041F0E94F11E0E940B1FBE
:10103800A4E11A02F001E85FEA930E94041F0E94EB
:10104800131FA4E11A02F001E05FEA930E94041F53
:1010580030C00E94E61EEF3FA3E0FA0731F00E947D
:10106800F11EEF3FA3E0FA0709F423C00E94E61E31
:101078000E94FC1EE12FE250A4E1EA020A920E94BB
:101088001F1F0E94F11E0E940B1FE12FE250A4E1D6
:10109800EA02F001E85FEA930E941F1F0E94131FF3
:1010A800E12FE250A4E1EA02F001E05FEA930E9436
:1010B8001F1F1F5F9ECF0E94261FC39B02C0C3989D
:1010C80001C0C39A199108952BDC08950E941C1D34
:1010D800E5DCA8ECB0E00E94B022089522FE29C009
:1010E8000E948E1EA0918C07B0918D07A137E7E171
:1010F800BE07B8F40E941C1DADE8B1E00E94671D50
:101108000E948E1E0E942A1F0E94E922FA93EA93E7
:10111800A7E7B7E00E94E21AA7E7B7E00E94581DC8
:1011280006C00E941C1DADE9B1E00E94671DE8944D
:1011380022F808950E943B1F0E94481F0E943424F1
:1011480031F40E94511F0E94511F0E94561F0E9495
:10115800481F0E94392434F40E94511F0E945E1FC8
:101168000E94561F0E94481F0E94342434F40E9493
:101178005E1F0E94511F0E94561F08950E943B1F28
:101188000E94481F0E94342431F40E94511F0E947B
:10119800511F0E94631F0E94481F0E94392434F483
:1011A8000E94511F0E945E1F0E94631F0E94481FD9
:1011B8000E94342434F40E945E1F0E94511F0E9432
:1011C800631F08950E946B1FE4E6F0E004C00E94CC
:1011D800511FE0E0F0E0FA93EA930E94561F089549
:1011E8000E94FE1D0E94EB1DE0E0E0932D07E093B6
:1011F8002E07E4E6F0E00E94181EDF98DD9A0E94B0
:10120800701FA0E0B6E00E94731FA3E0B6E00E9442
:10121800831F0E94CB1D0E94931F34F308950E94E0
:10122800FE1D0E94EB1DE4E6F0E00E94131EE0E0C4
:10123800E0932F07E0933007DF9ADD980E94701F34
:10124800A7E0B6E00E94731FAAE0B6E00E94831FE1
:101258000E94F51D0E94931F34F30895CC9B0AC089
:10126800CE9B08C0B09B06C0B69B04C0B29B02C010
:10127800B49901C005C0E0E0E093F607E093F707F2
:10128800CC9B0AC0CE9B08C0B09B06C0B69B04C0CE
:10129800B29B02C0B49B01C002C00E949B1FCC9BA2
:1012A8000AC0CE9B08C0B09B06C0B69B04C0B299CA
:1012B80002C0B49901C002C00E94A21FCC9B0AC000
:1012C800CE9B08C0B09B06C0B69904C0B29B02C0B2
:1012D800B49901C002C00E94A91FCC9B0AC0CE9B32
:1012E80008C0B09906C0B69B04C0B29B02C0B499AE
:1012F80001C002C00E94B01FCC9B0AC0CE9908C092
:10130800B09B06C0B69B04C0B29B02C0B49901C092
:1013180002C00E94B71FCC990AC0CE9B08C0B09BE0
:1013280006C0B69B04C0B29B02C0B49901C002C0FB
:101338000E94BE1FCC9B0AC0CE9B08C0B09B06C0B3
:10134800B69B04C0B29902C0B49B01C002C00E94FF
:10135800C51FCC9B0AC0CE9B08C0B09B06C0B699DF
:1013680004C0B29902C0B49901C002C00E94CC1F47
:10137800CC9B0AC0CE9B08C0B09906C0B69904C0E1
:10138800B29B02C0B49901C002C00E94D31FCC9B7B
:101398000AC0CE9908C0B09906C0B69B04C0B29BDB
:1013A80002C0B49901C002C00E94DA1FCC990AC0D9
:1013B800CE9908C0B09B06C0B69B04C0B29B02C0C1
:1013C800B49901C002C00E94E11FCC9B0AC0CE9B09
:1013D80008C0B09B06C0B69904C0B29902C0B49BBD
:1013E80001C002C00E94E81FCC9B0AC0CE9B08C067
:1013F800B09906C0B69904C0B29902C0B49901C0A8
:1014080002C00E94EF1FCC9B0AC0CE9908C0B099B9
:1014180006C0B69904C0B29B02C0B49901C002C00C
:101428000E94F61FCC990AC0CE9908C0B09906C090
:10143800B69B04C0B29B02C0B49901C002C00E940E
:10144800FD1FCC9B0AC0CE9B08C0B09906C0B699B8
:1014580004C0B29902C0B49B01C002C00E9404201B
:10146800CC9B0AC0CE9908C0B09906C0B69904C0F2
:10147800B29902C0B49901C002C00E940B20CC9955
:101488000AC0CE9908C0B09906C0B69904C0B29BEC
:1014980002C0B49901C002C00E941220CC9B0AC0AD
:1014A800CE9908C0B09906C0B69904C0B29902C0D6
:1014B800B49B01C002C00E941920CC990AC0CE99E1
:1014C80008C0B09906C0B69904C0B29902C0B499D0
:1014D80001C002C00E942020CC990AC0CE9908C041
:1014E800B09906C0B69904C0B29902C0B49B01C0B5
:1014F80002C00E942720CC9B0AC0CE9B08C0B09B8C
:1015080006C0B69904C0B29B02C0B49B01C002C019
:101518000E942E20CC9B0AC0CE9B08C0B09906C062
:10152800B69B04C0B29902C0B49901C002C00E941F
:101538003520CC9B0AC0CE9908C0B09B06C0B6998E
:1015480004C0B29B02C0B49901C002C00E943C20F2
:10155800CC990AC0CE9B08C0B09906C0B69B04C0FF
:10156800B29B02C0B49901C002C00E944320CC9B28
:101578000AC0CE9B08C0B09906C0B69B04C0B29BF7
:1015880002C0B49B01C002C00E944A20CC9B0AC082
:10159800CE9908C0B09B06C0B69B04C0B29902C0E1
:1015A800B49901C002C00E945120CC990AC0CE9BB8
:1015B80008C0B09B06C0B69904C0B29B02C0B499DB
:1015C80001C002C00E945820CC9B0AC0CE9908C016
:1015D800B09B06C0B69B04C0B29B02C0B49B01C0BE
:1015E80002C00E945F20CC990AC0CE9B08C0B09B65
:1015F80006C0B69B04C0B29902C0B49901C002C02B
:101608000E946620CC990AC0CE9B08C0B09B06C039
:10161800B69B04C0B29B02C0B49B01C002C00E942A
:101628006D20CC990AC0CE9908C0B09906C0B69969
:1016380004C0B29B02C0B49B01C002C00E947420C7
:10164800CC990AC0CE9908C0B09906C0B69B04C010
:10165800B29902C0B49B01C002C00E947B20CC9901
:101668000AC0CE9908C0B09B06C0B69904C0B2990A
:1016780002C0B49B01C002C00E948220CC990AC05B
:10168800CE9B08C0B09906C0B69904C0B29902C0F2
:10169800B49B01C002C00E948920CC990AC0CE998F
:1016A80008C0B09906C0B69B04C0B29B02C0B49BE8
:1016B80001C002C00E949020CC990AC0CE9908C0EF
:1016C800B09B06C0B69B04C0B29902C0B49B01C0CF
:1016D80002C00E949720CC990AC0CE9B08C0B09B3C
:1016E80006C0B69904C0B29902C0B49B01C002C03A
:1016F8000E949E20CC990AC0CE9B08C0B09906C013
:10170800B69B04C0B29902C0B49901C002C00E943D
:10171800A520CC9B0AC0CE9908C0B09B06C0B6993C
:1017280004C0B29B02C0B49B01C002C00E94AC209E
:10173800CC990AC0CE9B08C0B09B06C0B69904C01D
:10174800B29902C0B49901C002C00E94B320CC9BD8
:101758000AC0CE9908C0B09906C0B69B04C0B29B17
:1017680002C0B49B01C002C00E94BA20CC990AC032
:10177800CE9908C0B09B06C0B69904C0B29B02C0FF
:10178800B49B01C002C00E94C120CC990AC0CE9966
:1017980008C0B09B06C0B69904C0B29902C0B499FB
:1017A80001C002C00E94C820CC990AC0CE9B08C0C4
:1017B800B09906C0B69904C0B29B02C0B49B01C0E0
:1017C80002C00E94CF20CC990AC0CE9B08C0B09915
:1017D80006C0B69904C0B29902C0B49901C002C04B
:1017E8000E94D620CC9B0AC0CE9908C0B09906C0EA
:1017F800B69904C0B29B02C0B49B01C002C00E944B
:10180800DD20CC9B0AC0CE9908C0B09906C0B69B13
:1018180004C0B29902C0B49B01C002C00E94E42077
:10182800CC990AC0CE9908C0B09B06C0B69B04C02C
:10183800B29902C0B49901C002C00E94EB20CC9BAF
:101848000AC0CE9908C0B09906C0B69B04C0B29B26
:1018580002C0B49B01C002C00E94F220CC990AC009
:10186800CE9908C0B09B06C0B69B04C0B29902C00E
:10187800B49901C002C00E94F920CC990AC0CE993F
:1018880008C0B09B06C0B69904C0B29B02C0B49908
:1018980001C002C00E940021CC990AC0CE9908C09C
:1018A800B09906C0B69B04C0B29902C0B49901C0F1
:1018B80002C00E940721CC9B0AC0CE9B08C0B099E9
:1018C80006C0B69904C0B29B02C0B49B01C002C056
:1018D8000E940E21CC990AC0CE9B08C0B09B06C0BE
:1018E800B69B04C0B29902C0B49B01C002C00E945A
:1018F8001521CC990AC0CE9B08C0B09906C0B69BEA
:1019080004C0B29902C0B49B01C002C00E941C214D
:10191800CC9B0AC0CE9B08C0B09906C0B69B04C039
:10192800B29902C0B49B01C002C00E942321CC9B83
:101938000AC0CE9908C0B09B06C0B69904C0B29937
:1019480002C0B49B01C002C00E942A21CC9B0AC0DD
:10195800CE9908C0B09B06C0B69B04C0B29902C01D
:10196800B49B01C002C00E943121CC990AC0CE9B11
:1019780008C0B09906C0B69904C0B29B02C0B49919
:1019880001C002C00E9438210E942A1FDF01CB013A
:10199800E0E0F0E060EA71E40E94932310F40E9412
:1019A8003F210895CC9B0AC0CE9B08C0B09B06C0BF
:1019B800B69B04C0B29B02C0B49B01C002C00E9487
:1019C8009B1FCC9B0AC0CE9B08C0B09B06C0B69B91
:1019D80004C0B29902C0B49901C002C00E94A21FFB
:1019E800CC9B0AC0CE9B08C0B09B06C0B69904C069
:1019F800B29B02C0B49901C002C00E94A91FCC9B2F
:101A08000AC0CE9B08C0B09906C0B69B04C0B29B62
:101A180002C0B49901C002C00E94B01FCC9B0AC08A
:101A2800CE9908C0B09B06C0B69B04C0B29B02C04A
:101A3800B49901C002C00E94B71FCC990AC0CE9BBE
:101A480008C0B09B06C0B69B04C0B29B02C0B49944
:101A580001C002C00E94BE1FCC9B0AC0CE9B08C01A
:101A6800B09B06C0B69B04C0B29902C0B49B01C02B
:101A780002C00E94C51FCC9B0AC0CE9B08C0B09B69
:101A880006C0B69904C0B29902C0B49901C002C098
:101A98000E94CC1FCC9B0AC0CE9B08C0B09906C040
:101AA800B69904C0B29B02C0B49901C002C00E949A
:101AB800D31FCC9B0AC0CE9908C0B09906C0B69B6C
:101AC80004C0B29B02C0B49901C002C00E94DA1FD0
:101AD800CC990AC0CE9908C0B09B06C0B69B04C07A
:101AE800B29B02C0B49901C002C00E94E11FCC9B06
:101AF8000AC0CE9B08C0B09B06C0B69904C0B29974
:101B080002C0B49B01C002C00E94E81FCC9B0AC05F
:101B1800CE9B08C0B09906C0B69904C0B29902C05D
:101B2800B49901C002C00E94EF1FCC9B0AC0CE9995
:101B380008C0B09906C0B69904C0B29B02C0B49957
:101B480001C002C00E94F61FCC990AC0CE9908C0F5
:101B5800B09906C0B69B04C0B29B02C0B49901C03C
:101B680002C00E94FD1FCC9B0AC0CE9B08C0B09942
:101B780006C0B69904C0B29902C0B49B01C002C0A5
:101B88000E940420CC9B0AC0CE9908C0B09906C018
:101B9800B69904C0B29902C0B49901C002C00E94AB
:101BA8000B20CC990AC0CE9908C0B09906C0B69946
:101BB80004C0B29B02C0B49901C002C00E941220A6
:101BC800CC9B0AC0CE9908C0B09906C0B69904C08B
:101BD800B29902C0B49B01C002C00E941920CC99DE
:101BE8000AC0CE9908C0B09906C0B69904C0B29987
:101BF80002C0B49901C002C00E942020CC990AC03A
:101C0800CE9908C0B09906C0B69904C0B29902C06E
:101C1800B49B01C002C00E942720CC9B0AC0CE9B67
:101C280008C0B09B06C0B69904C0B29B02C0B49B62
:101C380001C002C00E942E20CC9B0AC0CE9B08C0C7
:101C4800B09906C0B69B04C0B29902C0B49901C04D
:101C580002C00E943520CC9B0AC0CE9908C0B09B18
:101C680006C0B69904C0B29B02C0B49901C002C0B4
:101C78000E943C20CC990AC0CE9B08C0B09906C0EF
:101C8800B69B04C0B29B02C0B49901C002C00E94B6
:101C98004320CC9B0AC0CE9B08C0B09906C0B69B17
:101CA80004C0B29B02C0B49B01C002C00E944A207B
:101CB800CC9B0AC0CE9908C0B09B06C0B69B04C096
:101CC800B29902C0B49901C002C00E945120CC99B7
:101CD8000AC0CE9B08C0B09B06C0B69904C0B29B90
:101CE80002C0B49901C002C00E945820CC9B0AC00F
:101CF800CE9908C0B09B06C0B69B04C0B29B02C078
:101D0800B49B01C002C00E945F20CC990AC0CE9B40
:101D180008C0B09B06C0B69B04C0B29902C0B49973
:101D280001C002C00E946620CC990AC0CE9B08C0A0
:101D3800B09B06C0B69B04C0B29B02C0B49B01C056
:101D480002C00E946D20CC990AC0CE9908C0B099F3
:101D580006C0B69904C0B29B02C0B49B01C002C0C1
:101D68000E947420CC990AC0CE9908C0B09906C0C8
:101D7800B69B04C0B29902C0B49B01C002C00E94C5
:101D88007B20CC990AC0CE9908C0B09B06C0B699F2
:101D980004C0B29902C0B49B01C002C00E94822054
:101DA800CC990AC0CE9B08C0B09906C0B69904C0A9
:101DB800B29902C0B49B01C002C00E948920CC998C
:101DC8000AC0CE9908C0B09906C0B69B04C0B29BA1
:101DD80002C0B49B01C002C00E949020CC990AC0E6
:101DE800CE9908C0B09B06C0B69B04C0B29902C089
:101DF800B49B01C002C00E949720CC990AC0CE9B18
:101E080008C0B09B06C0B69904C0B29902C0B49B82
:101E180001C002C00E949E20CC990AC0CE9B08C077
:101E2800B09906C0B69B04C0B29902C0B49901C06B
:101E380002C00E94A520CC9B0AC0CE9908C0B09BC6
:101E480006C0B69904C0B29B02C0B49B01C002C0D0
:101E58000E94AC20CC990AC0CE9B08C0B09B06C09B
:101E6800B69904C0B29902C0B49901C002C00E94D8
:101E7800B320CC9B0AC0CE9908C0B09906C0B69BC7
:101E880004C0B29B02C0B49B01C002C00E94BA2029
:101E9800CC990AC0CE9908C0B09B06C0B69904C0B8
:101EA800B29B02C0B49B01C002C00E94C120CC9961
:101EB8000AC0CE9908C0B09B06C0B69904C0B299B2
:101EC80002C0B49901C002C00E94C820CC990AC0BF
:101ED800CE9B08C0B09906C0B69904C0B29B02C098
:101EE800B49B01C002C00E94CF20CC990AC0CE9BEF
:101EF80008C0B09906C0B69904C0B29902C0B49996
:101F080001C002C00E94D620CC9B0AC0CE9908C04E
:101F1800B09906C0B69904C0B29B02C0B49B01C078
:101F280002C00E94DD20CC9B0AC0CE9908C0B0999F
:101F380006C0B69B04C0B29902C0B49B01C002C0DF
:101F48000E94E420CC990AC0CE9908C0B09B06C074
:101F5800B69B04C0B29902C0B49901C002C00E94E5
:101F6800EB20CC9B0AC0CE9908C0B09906C0B69B9E
:101F780004C0B29B02C0B49B01C002C00E94F22000
:101F8800CC990AC0CE9908C0B09B06C0B69B04C0C5
:101F9800B29902C0B49901C002C00E94F920CC993C
:101FA8000AC0CE9908C0B09B06C0B69904C0B29BBF
:101FB80002C0B49901C002C00E940021CC990AC095
:101FC800CE9908C0B09906C0B69B04C0B29902C0A9
:101FD800B49901C002C00E940721CC9B0AC0CE9BC5
:101FE80008C0B09906C0B69904C0B29B02C0B49BA1
:101FF80001C002C00E940E21CC990AC0CE9B08C025
:10200800B09B06C0B69B04C0B29902C0B49B01C085
:1020180002C00E941521CC990AC0CE9B08C0B09975
:1020280006C0B69B04C0B29902C0B49B01C002C0EE
:102038000E941C21CC9B0AC0CE9B08C0B09906C048
:10204800B69B04C0B29902C0B49B01C002C00E94F2
:102058002321CC9B0AC0CE9908C0B09B06C0B69974
:1020680004C0B29902C0B49B01C002C00E942A21D8
:10207800CC9B0AC0CE9908C0B09B06C0B69B04C0D2
:10208800B29902C0B49B01C002C00E943121CC9910
:102098000AC0CE9B08C0B09906C0B69904C0B29BCE
:1020A80002C0B49901C002C00E9438210E942A1FB0
:1020B800DF01CB01E0E0F0E060EF71E40E949323E0
:1020C80010F40E943F210E94491E49F00E944F1EB1
:1020D80031F00E94551E19F00E945B1E09F404C0DD
:1020E800E1E4F0E00E9446210E94491E49F40E9462
:1020F8004F1E31F40E94551E19F40E945B1E09F010
:1021080004C0E2E4F0E00E9446210E94491E49F41E
:102118000E944F1E31F00E94551E19F00E945B1E4E
:1021280009F404C0E3E4F0E00E9446210E94491E3D
:1021380049F00E944F1E31F00E94551E19F00E946E
:102148005B1E09F004C0E6E4F0E00E9446210E940C
:10215800491E49F00E944F1E31F40E94551E19F481
:102168000E945B1E09F404C0EAE4F0E00E944621E4
:102178000E94491E49F40E944F1E31F40E94551EC8
:1021880019F00E945B1E09F404C0E0E5F0E00E942B
:1021980046210E94551E49F00E945B1E31F40E94A0
:1021A800491E19F00E944F1E09F404C0E1E5F0E051
:1021B8000E94462108950E941C1DE091F807F091A5
:1021C800F907E130A0E0FA0739F40E945E1F0E9487
:1021D8004B210E94631FE5C2E230A0E0FA0739F400
:1021E8000E944B210E945E1F0E94631FDAC2E330E7
:1021F800A0E0FA0739F40E944B210E945E1F0E945A
:10220800561FCFC2E430A0E0FA0739F40E945E1FDF
:102218000E944B210E94561FC4C2E530A0E0FA0775
:1022280039F40E945E1F0E944B210E94631FB9C2AD
:10223800E630A0E0FA0739F40E944B21E0E2F3E02F
:102248000E945021AEC2E730A0E0FA0729F40E94AC
:1022580053210E94631FA5C2E830A0E0FA0729F4C1
:102268000E94511F0E9458219CC2E930A0E0FA0741
:1022780039F40E945E1F0E945E1F0E94561F91C281
:10228800EA30A0E0FA0729F40E94511F0E94582161
:1022980088C2EB30A0E0FA0729F40E94511F0E947F
:1022A80058217FC2EC30A0E0FA0739F40E94511F90
:1022B800E2E3F0E00E94502174C2ED30A0E0FA079A
:1022C80029F40E9453210E94631F6BC2EE30A0E0E4
:1022D800FA0739F40E94511F0E945E1F0E94631F73
:1022E80060C2EF30A0E0FA0739F40E945E1F0E9436
:1022F800511F0E94631F55C2E031A0E0FA0729F47C
:102308000E945B210E94631F4CC2E131A0E0FA07E2
:1023180029F40E945B210E94631F43C2E231A0E0BE
:10232800FA0729F40E945B210E94631F3AC2E33135
:10233800A0E0FA0729F40E9460210E94631F31C2BD
:10234800E431A0E0FA0729F40E9460210E94631F8B
:1023580028C2E531A0E0FA0729F40E9465210E940D
:102368006A211FC2E631A0E0FA0729F40E94511F32
:102378000E94582116C2E731A0E0FA0729F40E940A
:102388006D210E94631F0DC2E831A0E0FA0729F40D
:102398000E94511F0E94582104C2E931A0E0FA07A7
:1023A80029F40E946D210E94631FFBC1EA31A0E05D
:1023B800FA0729F40E94511F0E945821F2C1EB31FB
:1023C800A0E0FA0729F40E946D210E94631FE9C169
:1023D800EC31A0E0FA0729F40E94511F0E9458210D
:1023E800E0C1ED31A0E0FA0729F40E94511F0E94D4
:1023F8005821D7C1EE31A0E0FA0729F40E946D21D7
:102408000E94631FCEC1EF31A0E0FA0729F40E94B1
:102418006D210E94631FC5C1E032A0E0FA0729F4CC
:102428000E94511F0E946A21BCC1E132A0E0FA0754
:1024380029F40E9472210E94631FB3C1E232A0E016
:10244800FA0729F40E946D210E94631FAAC1E33292
:10245800A0E0FA0729F40E9472210E94631FA1C11B
:10246800E432A0E0FA0729F40E94511F0E94582183
:1024780098C1E532A0E0FA0729F40E946D210E9474
:10248800631F8FC1E632A0E0FA0729F40E94511FAA
:102498000E94582186C1E732A0E0FA0729F40E9479
:1024A8006D210E94631F7DC1E832A0E0FA0729F47C
:1024B8000E94511F0E94582174C1E932A0E0FA0716
:1024C80029F40E946D210E94631F6BC1EA32A0E0CB
:1024D800FA0729F40E946D210E94631F62C1EB3242
:1024E800A0E0FA0729F40E94511F0E94582159C1FF
:1024F800EC32A0E0FA0739F4E1E4F0E00E94772139
:102508000E94631F4EC1ED32A0E0FA0729F40E9431
:102518005E1F0E947A2145C1EE32A0E0FA0729F435
:102528000E945E1F0E947A213CC1EF32A0E0FA07A8
:1025380039F40E9465210E945E1F0E94631F31C109
:10254800E033A0E0FA0739F40E9465210E945E1F7B
:102558000E94631F26C1E133A0E0FA0739F4EBE4D7
:10256800F0E00E9477210E94631F1BC1E233A0E0C4
:10257800FA0729F40E945E1F0E94582112C1E33312
:10258800A0E0FA0729F40E94511F0E947A2109C18C
:10259800E433A0E0FA0729F40E94511F0E94582151
:1025A80000C1E533A0E0FA0739F4EBE4F0E00E945B
:1025B80077210E94631FF5C0E633A0E0FA0739F4DB
:1025C8000E945E1FE1E4F0E00E945021EAC0E73378
:1025D800A0E0FA0739F40E945E1F0E94511F0E9472
:1025E800631FDFC0E833A0E0FA0739F40E945E1FDA
:1025F8000E94511F0E94631FD4C0E933A0E0FA076C
:1026080039F40E945E1F0E94511F0E94631FC9C0B7
:10261800EA33A0E0FA0739F40E94511F0E945E1FB6
:102628000E94631FBEC0EB33A0E0FA0729F40E94A2
:10263800511F0E946A21B5C0EC33A0E0FA0729F4C3
:102648000E945E1F0E945821ACC0E034A0E0FA0747
:1026580029F40E946D210E94631FA3C0E134A0E009
:10266800FA0759F40E947D210E947D210E946B1F68
:102678000E948221AEE0B6E092C0E234A0E0FA0700
:1026880049F4E091F407F091F5070E948621A2E150
:10269800B6E085C0E334A0E0FA0749F40E946B1F56
:1026A8000E948D210E949221AAE1B6E078C0E4340C
:1026B800A0E0FA0739F40E949B21ADE1B6E00E9440
:1026C800A0216FC0E534A0E0FA0739F4E4E1F0E0B6
:1026D8000E948621A0E2B6E062C0E634A0E0FA07D4
:1026E80059F40E94A3210E946B1F0E94A821A3E213
:1026F800B6E00E94A02155C0E734A0E0FA0749F4EB
:10270800E8E2F0E00E948621A6E2B6E00E94A0215D
:1027180048C0E834A0E0FA0729F40E949B21A9E206
:10272800B6E03DC0E934A0E0FA0739F40E949B21E5
:10273800ACE2B6E00E94A02134C0EA34A0E0FA0777
:1027480079F40E947D210E947D210E94561FAFE2EC
:10275800B6E00E94581D0E94261F0E94AC2121C08D
:10276800E035A0E0FA0779F40E94A3210E946B1FCC
:102778000E94A821A2E3B0E00E94B0220E94AC21EE
:10278800A2E3B6E00CC0E135A0E0FA0751F40E94DC
:102798006B1F0E948D210E949221A5E3B6E00E9442
:1027A800581D0895E091F607F091F707309741F426
:1027B8000E94B1210E94B1210E946B1FA0E0F6C1C6
:1027C800E130A0E0FA0729F40E94B621EEE1F0E03A
:1027D800E6C1E230A0E0FA0729F40E94B121E2E361
:1027E800F0E0DDC1E330A0E0FA0741F40E94B12136
:1027F8000E94B6210E946B1FA0E0D8C1E430A0E07F
:10280800FA0741F40E94B6210E94B1210E946B1F71
:10281800A0E0CCC1E530A0E0FA0749F40E94511FBE
:10282800E2E3F0E00E9450210E94BB21C2C1E630E1
:10283800A0E0FA0739F40E9453210E94631F0E9406
:10284800BB21B7C1E730A0E0FA0719F4E2E3F0E0F2
:10285800A2C1E830A0E0FA0729F40E94511FE6E47B
:10286800F0E09DC1E930A0E0FA0741F40E945E1F44
:102878000E945E1F0E946B1FA0E098C1EA30A0E092
:10288800FA0729F40E94511FE6E4F0E088C1EB3012
:10289800A0E0FA0739F40E94511F0E9458210E94B3
:1028A800BB2187C1EC30A0E0FA0729F40E94511F30
:1028B800E2E3F0E074C1ED30A0E0FA0719F4E2E3D6
:1028C800F0E069C1EE30A0E0FA0729F40E94511F38
:1028D800E0E5F0E064C1EF30A0E0FA0719F4E0E5C4
:1028E800F0E059C1E031A0E0FA0719F4EAE5F0E0B8
:1028F80052C1E131A0E0FA0719F4EAE5F0E04BC172
:10290800E231A0E0FA0719F4EAE5F0E044C1E33166
:10291800A0E0FA0719F40E94BF2141C1E431A0E008
:10292800FA0719F40E94BF213AC1E531A0E0FA077D
:1029380029F40E946521E5E5F0E031C1E631A0E027
:10294800FA0729F40E94511FE6E4F0E028C1E731B4
:10295800A0E0FA0709F41DC1E831A0E0FA0729F45C
:102968000E94511FE6E4F0E01AC1E931A0E0FA073D
:1029780009F40FC1EA31A0E0FA0729F40E94511FB7
:10298800E6E4F0E00CC1EB31A0E0FA0709F401C17C
:10299800EC31A0E0FA0729F40E94511FE6E4F0E0C8
:1029A800FEC0ED31A0E0FA0729F40E94511FE6E4C9
:1029B800F0E0F5C0EE31A0E0FA0709F4EAC0EF3123
:1029C800A0E0FA0709F4E5C0E032A0E0FA0729F42C
:1029D8000E94511FE5E5F0E0E2C0E132A0E0FA070D
:1029E80019F4E5E5F0E0D7C0E232A0E0FA0709F40F
:1029F800D0C0E332A0E0FA0719F4E5E5F0E0CBC077
:102A0800E432A0E0FA0729F40E94511FE6E4F0E05E
:102A1800C6C0E532A0E0FA0709F4BBC0E632A0E080
:102A2800FA0729F40E94511FE6E4F0E0B8C0E73243
:102A3800A0E0FA0709F4ADC0E832A0E0FA0729F4EB
:102A48000E94511FE6E4F0E0AAC0E932A0E0FA07CC
:102A580009F49FC0EA32A0E0FA0709F49AC0EB3201
:102A6800A0E0FA0729F40E94511FE6E4F0E097C0BD
:102A7800EC32A0E0FA0719F4E1E4F0E08CC0ED32A2
:102A8800A0E0FA0729F40E945E1FEAE5F0E087C09B
:102A9800EE32A0E0FA0729F40E945E1FEAE5F0E0B2
:102AA8007EC0EF32A0E0FA0729F40E946521E0E534
:102AB800F0E075C0E033A0E0FA0729F40E94652130
:102AC800E0E5F0E06CC0E133A0E0FA0719F4EBE4CC
:102AD800F0E061C0E233A0E0FA0729F40E945E1F2B
:102AE800E6E4F0E05CC0E333A0E0FA0729F40E94D2
:102AF800511FEAE5F0E053C0E433A0E0FA0729F4F7
:102B08000E94511FE6E4F0E04AC0E533A0E0FA076E
:102B180019F4EBE4F0E03FC0E633A0E0FA0729F44B
:102B28000E945E1FE1E4F0E03AC0E733A0E0FA0754
:102B380019F4E0E5F0E02FC0E833A0E0FA0719F453
:102B4800E0E5F0E028C0E933A0E0FA0719F4E0E591
:102B5800F0E021C0EA33A0E0FA0729F40E94511FEF
:102B6800E0E5F0E01CC0EB33A0E0FA0729F40E948E
:102B7800511FE5E5F0E013C0EC33A0E0FA0729F4B3
:102B88000E945E1FE6E4F0E00AC0E034A0E0FA0725
:102B980081F4E6E4F0E0FA93EA93E4E6F0E0FA93ED
:102BA800EA93E1E0F0E0FA93EA93A1E0B0E00E9452
:102BB800EC030895E4E6F0E00E94131EE4E6F0E07A
:102BC8000E94181EDF9ADD980E94701FA8E3B6E0E5
:102BD8000E94731FABE3B6E00E94831F0E94F51D9D
:102BE8000E94C6212CF40E94CB1D0E94C6210CF025
:102BF80001C0E0CF0895E4E0F0E060E070E0E09329
:102C0800E207F093E3076093E4077093E507E5E0D4
:102C1800F0E060E070E0E093E607F093E707609388
:102C2800E8077093E9070E94CE21AFE3B6E00E945F
:102C3800581DA7E4B6E00E94581D0E94481F0E9434
:102C4800342431F40E944B210E944B210E94561FCC
:102C58000E94481F0E94392434F40E94D5210E9402
:102C68004B210E94561F0E94481F0E94342434F4AE
:102C78000E944B210E94D5210E94561F0E948E1E41
:102C8800AAE4B6E00E94731FADE4B6E00E94831F79
:102C98000E94CB1DEDECF0E060E070E00E94F223B2
:102CA8000E2E0E94CB1DEFEFFFEF6FEF7FEF0E941C
:102CB800FA23E02111F60E946B1F0E946B1F0E94ED
:102CC800561F0E94DA21A1E5B6E00E94581DA9E529
:102CD800B6E00E94581D0E94B6210E94B6210E94AB
:102CE8006B1F0E9482210E948E1EACE5B6E00E94F6
:102CF800731FAFE5B6E00E94831F0E94E7213D964F
:102D08000E94EC2144F30E946B1F0E946B1F0E94DB
:102D1800561F0E94DA21A3E6B6E00E94581DABE6D2
:102D2800B6E00E94581D0E94481F0E94342431F4C6
:102D38000E944B210E944B210E94561F0E94481F4F
:102D48000E94392434F40E94D5210E944B210E940C
:102D5800561F0E94481F0E94342434F40E944B21BD
:102D68000E94D5210E94561F0E948E1EAEE6B6E034
:102D78000E94731FA1E7B6E00E94831F0E94F22100
:102D880094F20E946B1F0E946B1F0E94561F0E94A4
:102D9800DA21A5E7B6E00E94581DADE7B6E00E942B
:102DA800581D0E94B6210E94B6210E946B1F0E94E6
:102DB80082210E948E1EA0E8B6E00E94731FA3E83D
:102DC800B6E00E94831F0E94E7217E960E94EC21B4
:102DD80044F30E946B1F0E946B1F0E94561F0E94A3
:102DE800DA21A7E8B6E00E94581DAFE8B6E00E94D5
:102DF800581D0E94481F0E94342431F40E944B2120
:102E08000E944B210E94561F0E94481F0E9439248D
:102E180034F40E94D5210E944B210E94561F0E9423
:102E2800481F0E94342434F40E944B210E94D5216B
:102E38000E94561F0E948E1EA2E9B6E00E94731FD0
:102E4800A5E9B6E00E94831F0E94F22194F20E9435
:102E58006B1F0E946B1F0E94561F0E94DA21A9E96E
:102E6800B6E00E94581DA1EAB6E00E94581D0E94D3
:102E7800B6210E94B621E1E0F0E0FA93EA930E94BD
:102E8800A8210E948E1EA4EAB6E00E94731FA7EA3A
:102E9800B6E00E94831F0E94E7213D970E94CB1D48
:102EA8000E94DA230E94342414F30E946B1F0E94AC
:102EB8006B1F0E94561F0E94DA21ABEAB6E00E94FF
:102EC800581DA3EBB6E00E94581D0E94481F0E949F
:102ED800342431F40E944B210E944B210E94561F3A
:102EE8000E94481F0E94392434F40E94D5210E9470
:102EF8004B210E94561F0E94481F0E94342434F41C
:102F08000E944B210E94D5210E94561F0E948E1EAE
:102F1800A6EBB6E00E94731FA9EBB6E00E94831FE0
:102F28000E94F22194F20E946B1F0E946B1F0E9464
:102F3800561F0E94FE1D0E94EB1DACEDB5E04CC271
:102F48000E9432092FDC08950E94F621309781F4FF
:102F58000E94FB210E94CF1EAE17BF0718F40E94E3
:102F6800D41E02C00E94CF1EE093FC07F093FD0719
:102F78000E941C1DADEBB6E00E94291E0E94002293
:102F88000E940722A1ECB6E00E940F220E94FB21BA
:102F98000E9418220E941E22E029E1F00E94FB21D3
:102FA8000E94CF1EEA17FB0730F4E4E6F0E060E089
:102FB80070E00E9424220E94FB210E94CF1EAE17BF
:102FC800BF0740F40E943622E4E6F0E060E070E0DB
:102FD8000E9440220E940022E091EA07F091EB074C
:102FE8000E9450210E943622E0E0E093EE07E09331
:102FF800EF07E093F007E093F10708950E94F621A8
:10300800309781F40E94FB210E94CF1EAE17BF07A4
:1030180018F40E94D41E02C00E94CF1EE093FC0741
:10302800F093FD070E941C1DA3ECB6E00E94291E28
:103038000E9400220E940722A8ECB6E00E940F22FC
:103048000E94FB210E9418220E941E22E029E1F022
:103058000E94FB210E94CF1EEA17FB0730F4E2E32F
:10306800F0E060E070E00E9424220E94FB210E94B0
:10307800CF1EAE17BF0740F40E943622E2E3F0E00D
:1030880060E070E00E9440220E940022E091EA077E
:10309800F091EB07FA93EA930E94561F08950E9455
:1030A800D60C89D808950E94E01E0E941C1DAAEC27
:1030B800B6E00E94581D10E0123008F03FC01230F0
:1030C800D8F50E94E61EEF3FA3E0FA0731F00E9410
:1030D800F11EEF3FA3E0FA0709F42EC00E94E61E96
:1030E800E050F240EF3FA3E0FA0738F4ECE3F0E0F9
:1030F800E0933507F093360706C0ECE3F0E0E09381
:103108003307F09334070E94E61EE050F240E09344
:10311800FE06F093FF06E0915007ADEBB7E0F0E054
:10312800EE0FFF1FAE0FBF1F0E942224E657F1408B
:10313800E0930007F09301071F5FBECF0E942A1F8C
:10314800DF01CB01E0E0F0E060E272E40E9493234B
:1031580009F008F40EC0E0913307F0913407FA93B0
:10316800EA93E0913507F0913607FA93EA930E94C3
:10317800561F0E94261FC39B02C0C39801C0C39A52
:10318800199108950E941C1DA1EDB6E00E94581DDA
:103198000895E0E0E0932D07E0932E07E0932F07D2
:1031A800E0933007E0911507F0911607309741F446
:1031B8000E94492211F40E944F220E943F070AC12F
:1031C800E130A0E0FA0741F40E94492211F40E947C
:1031D8004F220E946C07FEC0E230A0E0FA0741F4DB
:1031E8000E94492211F40E944F220E948D07F2C0CA
:1031F800E330A0E0FA0741F40E94492211F40E944A
:103208004F220E94AE07E6C0E430A0E0FA0741F47E
:103218000E94492211F40E944F220E94D707DAC067
:10322800E530A0E0FA0741F40E94492211F40E9417
:103238004F220E94FA07CEC0E630A0E0FA0741F418
:103248000E94492211F40E944F220E946808C2C0BD
:10325800E730A0E0FA0741F40E94492211F40E94E5
:103268004F220E946A08B6C0E830A0E0FA0741F48D
:103278000E94492211F40E944F220E947208AAC09B
:10328800E930A0E0FA0741F40E94492211F40E94B3
:103298004F220E949E089EC0EA30A0E0FA0741F43F
:1032A8000E94492211F40E944F220E94C20892C033
:1032B800EB30A0E0FA0741F40E94492211F40E9481
:1032C8004F220E94E60886C0EC30A0E0FA0741F4DD
:1032D8000E94492211F40E944F220E94EB087AC0F2
:1032E800E631A0E0FA0741F40E94492211F40E9455
:1032F8004F220E9413096EC0E731A0E0FA0741F49B
:103308000E94492211F40E944F220E94F40862C0D0
:10331800ED30A0E0FA0739F40E94492211F40E9426
:103328004F2248DC57C0EE30A0E0FA0739F40E947B
:10333800492211F40E944F225EDC4CC0EF30A0E01D
:10334800FA0739F40E94492211F40E944F22F8DD4D
:1033580041C0E031A0E0FA0739F40E94492211F493
:103368000E944F22F1DD36C0E131A0E0FA0739F4BE
:103378000E94492211F40E944F2240DE2BC0E23104
:10338800A0E0FA0739F40E94492211F40E944F2262
:1033980086DE20C0E331A0E0FA0739F40E94492212
:1033A80011F40E944F227FDE15C0E431A0E0FA0735
:1033B80039F40E94492211F40E944F22E3DE0AC028
:1033C8000E941C1DE091D307F091D407FA93EA9369
:1033D8000E940722A2E3B0E00E94B0220895AA93B7
:1033E800E091E406E03019F4689421F805C0E89407
:1033F80021F8E0E00C94BD1DE881E03019F0E0E030
:103408000C94BD1DA091E306E2E10E94DF230C9419
:10341800BD1DAA93E881E03009F04BC0E091270771
:10342800E0936507E0912907E09366070E94D41EA0
:10343800E0936707F09368070E94CF1EE09369073F
:10344800F0936A07E091E207F091E307E0936B07D6
:10345800F0936C07E091E607F091E707E0936D07BA
:10346800F0936E07E091FE06F091FF06E0936F0778
:10347800F0937007E0910007F0910107E09371075E
:10348800F0937207E0913E07E0937307E091F60628
:10349800EA5AE09374070E942A1FA5E7B7E00E9442
:1034A800E722EC93E0915107E0937607E2E10C9470
:1034B800BD1D21FE07C0E0916407F0E0E09313070B
:1034C800F0931407E0E00C94BD1DE0E0EA93E0E51A
:1034D800EA93E3E5F7E0FA93EA93E2E1EA93E5E6B3
:1034E800F7E0FA93EA93E3EFF9E1FA93EA93ADE0B0
:1034F800BAE10E94101B08950E94ED020E945F220B
:103508000E943A06E2DFA091D307B091D407A53F05
:10351800E1E0BE0738F0E1E0F0E0E093CB07F0939C
:10352800CC0705C0E0E0E093CB07E093CC07A0917F
:10353800D707B091D807A53FE1E0BE0738F0E1E032
:10354800F0E0E093CF07F093D00705C0E0E0E09308
:10355800CF07E093D007A091DB07B091DC07A53F28
:10356800E1E0BE0738F0E1E0F0E0E093D107F09346
:10357800D20705C0E0E0E093D107E093D207A0911D
:10358800DF07B091E007A53FE1E0BE0738F0E1E0D2
:10359800F0E0E093CD07F093CE0705C0E0E0E093BC
:1035A800CD07E093CE070E946505F3DD0E948C05E8
:1035B8000E949F050E94B004A6CFFFCFBA93AA939A
:1035C800A991B991E991F99130962AF4E095F0958D
:1035D80031966DE26D93E89480E197E20DD088EE24
:1035E80093E00AD084E6992707D08AE005D06E2FA9
:1035F80010D066276C9308956627E817F90720F01E
:103608006395E81BF90BC9F7662311F416F00895C2
:103618006894605D6D930895BA93AA93689424F8AA
:10362800E7E0E093E406EF81F885E0930608F0937D
:103638000708EE81E0930908EC81FD81E093030817
:10364800F0930408EA81FB81E0930A08F0930B08E1
:10365800E881F981E0930C08F0930D08919A909A0B
:10366800EA85E03011F0E1E002C0E985EE0FE09371
:103678007200E0917400E078E564E09374002B96A2
:1036880008950A921A92FA926A937A938A939A936D
:10369800AA93BA93EA93FA93EFB7EA930E943E2467
:1036A8001091E3060091E206309105082091E406A6
:1036B800E12FA0910608B0910708F0E0EA0FFB1F80
:1036C800AF01E0917100E87FE83011F420E002C01A
:1036D800E03119F4E091020810C0E83111F0E83245
:1036E80049F5031798F4E02F0F5FA0910308B091F4
:1036F8000408F0E0AE0FBF1FEC91E0937300E09177
:103708007400EF70E068E093740013C0E09108085B
:103718001E1770F4E0910208E160E0930208E89453
:1037280023F8E0917400EF70E06AE093740013C12D
:1037380038C011C1E03531F4E0917300DA01EC933F
:103748001F5F02C0E03489F4E0910808E1501E17B9
:1037580028F0E0917400EF70E06804C0E091740014
:10376800EF70E06CE0937400F6C0E83531F4E09156
:103778007300DA01EC931F5F02C0E03209F402C063
:10378800E03309F402C0E83469F4203051F423FE30
:1037980003C0031728F005C0E09108081E1708F4B5
:1037A80024E0D1C0E83331F422E0E0917400EF70F6
:1037B800E068CDC0E83611F0E83711F422E005C022
:1037C800E03611F0E037A9F420E010E0E89423F89F
:1037D800E0910908E03031F421E0E0917400EF70E5
:1037E800E06804C0E0917400EF70E06CE09374004E
:1037F800B2C0E03811F0E03941F523FE02C021E003
:10380800A2C0E0917300DA01EC931F5FE091090810
:103818001E17C0F4E0910A08F0910B08309711F4D4
:1038280026E091C0A0E0E0910A08F0910B08099504
:10383800E03039F0E0917400EF70E06CE0937400D0
:103848008AC002C0689423F802C0E83809F402C0AC
:10385800E83939F4E0917400EF70E068E09374009F
:103868007AC0E03AB9F4E0917400EF70E06CE0934C
:103878007400689424F8E0910A08F0910B083097D6
:1038880039F0A1E0E0910A08F0910B08099501C010
:1038980026E061C0E03B11F422E002C0E83AB9F446
:1038A800E0910C08F0910D08309759F0A0E0E091F4
:1038B8000C08F0910D0809953E2FE03011F020E03A
:1038C80002C026E040C000E0E89423F802C0E83BCC
:1038D80001F523FE02C021E036C0E02F0F5FA09162
:1038E8000308B0910408F0E0AE0FBF1FEC91E0931D
:1038F8007300031728F4E0917400EF70E06C06C0C1
:10390800689423F8E0917400EF70E068E093740025
:1039180022C0E03C11F0E83C99F4E0917400EF70AB
:10392800E06CE0937400E0910C08F0910D0830977A
:1039380031F0A1E0E0910C08F0910D08099509C05B
:10394800E03049F423E0E0917400EF70E06DE0931B
:103958007400689424F81093E3060093E206209319
:10396800E406309305080E9445242696E991EFBFA6
:10397800F991E991B991A99199918991799169916F
:10398800F990199009901895FFE0FA95F1F70895C4
:10399800A4B3AF70A4BBA99AA898F6DFAA9AF4DFDB
:1039A800A3B3AA98F1DFAA9AEFDFAA98A7FDF5CFEB
:1039B8000895A07FAB2BA5BBAA9A0E94C81CAA9801
:1039C8000E94C81C0895AA93A998A4B3A76FA4BB82
:1039D800B5B3BF70A881EDDFA881A295EADFA99AE7
:1039E8000C94BD1DAA9A0E94C81CE3B3AA980E9411
:1039F800C81CE07F08950E94C81CF4DFAE2FF2DFD8
:103A0800A998E295EA2B0895AA930E94CC1CE88114
:103A1800F0E0E25FF74FE081A981AE0F0E94E71C5A
:103A2800E981E0931208E881E0931308229608954B
:103A38000E94CC1CA2E00E94E71C0E94CC1CACE0B7
:103A48000E94E71C0E94CC1CA1E00E94E71CE0E059
:103A5800E0931308E09312080895AA93EF93FF9355
:103A6800A8816894AA3039F0E894E0911408A091EC
:103A78001208AE1758F0E0911308EF5FE0931308AF
:103A8800E0E0EA93A0911308BFDF56F0E091120836
:103A9800EF5FE09312087CDFA89AA8810E94E71CD8
:103AA800FF91EF910C94BD1DBA93AA931A93A98123
:103AB800BA81ED91A983BA831E2FE03019F0A12FA6
:103AC800CCDFF5CF10C0BA93AA931A93E981FA8193
:103AD8003196E983FA833197E4911E2FE03019F08B
:103AE800A12FBBDFF3CF188123960895AA27BB2700
:103AF8001197F1F70895AA93A998A4B3A76FA4BB47
:103B0800B5B3BF70A8810E94DD1CA99A32C0AA93E0
:103B1800AA98A898E881E0931408E058E093100860
:103B2800E881E054E09311080E9456220E94562230
:103B38000E945622DBDFA0E2DEDFD8DFA8E20E9487
:103B48005B22A4E00E945B22A5E80E945B22A4B34A
:103B5800AF70A4BBA99A0E94FF1CE53011F0E0E009
:103B680008C00E94CC1CA6E00E94E71C0E941C1DF5
:103B7800E1E0219608950A926A937A938A939A9338
:103B8800AA93BA93EA93FA93EFB7EA930895A091A8
:103B9800E607B091E7078091E8079091E907089553
:103BA800E0EEF1EB6FEF7FEF0E94EA230E2E08950F
:103BB800E0E2FEE460E070E00E94F223E021089574
:103BC8000E942624EF5FFF4F6F4F7F4F0895E0E07C
:103BD800E093E607E093E707E093E807E093E90757
:103BE8000895A091E207B091E3078091E4079091CE
:103BF800E5070895E0E0E093E207E093E307E09348
:103C0800E407E093E5070895ED91FD913196FE9361
:103C1800EE930895A0912B07B0912C070895E09397
:103C28002D07F0932E070895E0932F07F0933007A0
:103C38000895AA93BA93EA93FA93EFB7EA9308958B
:103C4800E0913A07F0913B0708950E94581DE0E083
:103C5800EA93A1E00C94081DF0E0FA93EA93AFE32D
:103C6800B7E00E94E21AAFE3B7E00895E0931507C2
:103C7800F09316070895A091F606B091F7060895F7
:103C8800E091F606F091F7060895E091CB07F091E0
:103C9800CC0730970895E091CF07F091D00730977F
:103CA8000895E091D107F091D20730970895E091F7
:103CB800CD07F091CE0730970895A4E6B0E00E94B2
:103CC8000F246E0F7F1F0895AAE0B0E00E940F2412
:103CD800E60FF71F0895EE0FFF1FEA0FFB1F089569
:103CE800F801A3E0B0E00E940F240895DF01AA0FB5
:103CF800BB1FAA56B84F0E94222408950E9422246E
:103D0800A091C907B091CA07EA0FFB1FDB01ED9329
:103D1800FC930895E0E0EA93A1E00C94081DE4E622
:103D2800F0E07DDFE4E6F0E07FDF0E941C1DE0911B
:103D3800FC06F091FD06309708950E94581DE09109
:103D4800E207F091E307FA93EA93DE0112960E94E4
:103D5800E21ADE010C94581D0E94581DE091E607F6
:103D6800F091E707FA93EA93DE0112960E94E21AAD
:103D7800DE010C94581DAAEFB0E00E94B022E09139
:103D8800FC06F091FD060E940224F0E0E093FC0698
:103D9800F093FD060895E091D907F091DA070895A8
:103DA800E091D507F091D6070895DE0116960E9496
:103DB800E21ADE01149608951A9310E00E9468062C
:103DC8000C949D06E12FA5EBB7E0F0E0EE0FFF1F86
:103DD800AE0FBF1F0E9422240895E12FADEBB7E07C
:103DE800F0E0EE0FFF1FAE0FBF1F0E9422240895C0
:103DF800E050F240FA93EA93A0EBB7E00C94E21A91
:103E0800A0E00E94081DA0EBB7E00C94581DE657EF
:103E1800F140FA93EA93A0EBB7E00C94E21AE12F91
:103E2800F0E0EB53F84FE081F0E0FA93EA93A0EB6F
:103E3800B7E00C94E21AA1E00E94081DA0EBB7E0DD
:103E48000C94581DAEE1B0E00C94B022E0918C07C0
:103E5800F0918D07662777270E942023DF01CB0189
:103E6800EDECFCEC60E572E40E944E230895E2E07C
:103E7800F0E060E070E0E093E207F093E30760931E
:103E8800E4077093E507A3CEE091E207F091E3071A
:103E98006091E4077091E5077ACEE4E6F0E0FA93E2
:103EA800EA930895E0E0F0E0FA93EA93A0E0B0E046
:103EB8000C94EC03E0E5F0E0FA93EA930895E1E06E
:103EC800F0E0FA93EA93A1E0B0E00C94EC03E0E0B0
:103ED800F0E0FA93EA9308950E941C1D1BCF0E94FC
:103EE800581DE091E207F091E307FA93EA93A2E004
:103EF800B7E00E94E21AA2E0B7E00C94581D0E94B5
:103F0800581DE091E607F091E707FA93EA93A2E0DB
:103F1800B7E00E94E21AA2E0B7E00C94581DA13164
:103F2800E0E0BE07E0E08E07E0E09E070895E1E0EC
:103F3800F0E0E093F607F093F7070895E2E0F0E089
:103F4800E093F607F093F7070895E3E0F0E0E093D5
:103F5800F607F093F7070895E4E0F0E0E093F6073A
:103F6800F093F7070895E5E0F0E0E093F607F093A3
:103F7800F7070895E6E0F0E0E093F607F093F70717
:103F88000895E7E0F0E0E093F607F093F707089567
:103F9800E8E0F0E0E093F607F093F7070895E9E02A
:103FA800F0E0E093F607F093F7070895EAE0F0E011
:103FB800E093F607F093F7070895EBE0F0E0E0935D
:103FC800F607F093F7070895ECE0F0E0E093F607C2
:103FD800F093F7070895EDE0F0E0E093F607F0932B
:103FE800F7070895EEE0F0E0E093F607F093F7079F
:103FF8000895EFE0F0E0E093F607F093F7070895EF
:10400800E0E1F0E0E093F607F093F7070895E1E1C7
:10401800F0E0E093F607F093F7070895E2E1F0E0A7
:10402800E093F607F093F7070895E3E1F0E0E093F3
:10403800F607F093F7070895E4E1F0E0E093F60758
:10404800F093F7070895E5E1F0E0E093F607F093C1
:10405800F7070895E6E1F0E0E093F607F093F70735
:104068000895E7E1F0E0E093F607F093F707089585
:10407800E8E1F0E0E093F607F093F7070895E9E147
:10408800F0E0E093F607F093F7070895EAE1F0E02F
:10409800E093F607F093F7070895EBE1F0E0E0937B
:1040A800F607F093F7070895ECE1F0E0E093F607E0
:1040B800F093F7070895EDE1F0E0E093F607F09349
:1040C800F7070895EEE1F0E0E093F607F093F707BD
:1040D8000895EFE1F0E0E093F607F093F70708950D
:1040E800E0E2F0E0E093F607F093F7070895E1E2E5
:1040F800F0E0E093F607F093F7070895E2E2F0E0C6
:10410800E093F607F093F7070895E3E2F0E0E09311
:10411800F607F093F7070895E4E2F0E0E093F60776
:10412800F093F7070895E5E2F0E0E093F607F093DF
:10413800F7070895E6E2F0E0E093F607F093F70753
:104148000895E7E2F0E0E093F607F093F7070895A3
:10415800E8E2F0E0E093F607F093F7070895E9E264
:10416800F0E0E093F607F093F7070895EAE2F0E04D
:10417800E093F607F093F7070895EBE2F0E0E09399
:10418800F607F093F7070895ECE2F0E0E093F607FE
:10419800F093F7070895EDE2F0E0E093F607F09367
:1041A800F7070895EEE2F0E0E093F607F093F707DB
:1041B8000895EFE2F0E0E093F607F093F70708952B
:1041C800E0E3F0E0E093F607F093F7070895E1E302
:1041D800F0E0E093F607F093F7070895E2E3F0E0E4
:1041E800E093F607F093F7070895E3E3F0E0E09330
:1041F800F607F093F7070895E4E3F0E0E093F60795
:10420800F093F7070895E5E3F0E0E093F607F093FD
:10421800F7070895E6E3F0E0E093F607F093F70771
:104228000895E7E3F0E0E093F607F093F7070895C1
:10423800E8E3F0E0E093F607F093F7070895E9E381
:10424800F0E0E093F607F093F7070895EAE3F0E06B
:10425800E093F607F093F7070895EBE3F0E0E093B7
:10426800F607F093F7070895ECE3F0E0E093F6071C
:10427800F093F7070895E0E4F0E0E093F607F09391
:10428800F7070895E093F807F093F9070895ECE32A
:10429800F0E0FA93EA930895FA93EA9310CEE2E3F2
:1042A800F0E0FA93EA93F9CDE6E4F0E0F5CFEAE539
:1042B800F0E0FA93EA93F1CDE6E4F0E0FA93EA93BA
:1042C800F9CDEAE5F0E0FA93EA930895E5E5F0E040
:1042D800E3CFE6E4F0E0FA93EA93DFCDE5E5F0E03A
:1042E800FA93EA93DACDFA93EA93D7CDEAE5F0E0C8
:1042F800D3CFE3E2F0E0FA93EA930895A1E0B0E0C7
:104308000C94EC03FA93EA93EEE1F0E0FA93EA9363
:10431800C9CDE8E2F0E0FA93EA93C4CDA6E4B0E0B0
:104328000E94B022EAE0F0E0FA93EA93B5CFEEE11A
:10433800F0E0FA93EA93EDCF0E94581DEFCFE8E240
:10434800F0E0FA93EA93C3CDA0E0B0E00C94EC035C
:10435800EAE0F0E0FA93EA939FCFEEE1F0E0FA9317
:10436800EA930895E2E3F0E0FA93EA930895A8EC5B
:10437800B0E00C94B022E6E4F0E0FA93EA93E0E5CA
:10438800F0E00895A034E0E0BE07E0E08E07E0E04A
:104398009E0708950E941C1DE0E0EA93A0E00C949B
:1043A800081DE6E4F0E0FA93EA930895ACEDB5E071
:1043B8000E94B022E091E607F091E707E093FA0740
:1043C800F093FB07E7CFE091FA07F091FB07089518
:1043D800DEDB0E94DA230E9439240895F4DFE353D8
:1043E800FF4FF6CFE091FC07F091FD070895A091EB
:1043F800D507B091D6070895E091EE07F091EF0741
:10440800FA93EA930895A2E0B7E00E94E21AA2E0C4
:10441800B7E00C94581D0E94581DE091EA07F091EE
:10442800EB07FA93EA93EFCFDDDFEC59FF4F0E94D9
:10443800E42308950E2EA091D907B091DA07F4CF9E
:10444800E093EA07F093EB076093EC077093ED07AE
:10445800E0E0E093EE07E093EF07E093F007E093E6
:10446800F1070895E0E0E093EA07E093EB07E093B3
:10447800EC07E093ED070895E093EE07F093EF075C
:104488006093F0077093F1070895E091FA06F091B0
:10449800FB0630970895E1E0F0E0E093FA06F09328
:1044A800FB0608950E947A1DA0E30C947F1D0E94CC
:1044B800E71C0C947A1DC398C598BB9ABD9815C083
:1044C800BD98BB98EE270000B59B0895B39B08954F
:1044D80004D0BD9A02D0BB9AE1E06BE107C0BD9A57
:1044E800BB9A03D0BB98F9DFBD9865E36A95F1F7ED
:1044F800089578E0BB98F1DFB39BFECFEEDF889498
:10450800B5990894BB9AF1DFEE1F7A9599F77A2F3F
:10451800772311F4BD9801C0BD9ADFDFBB98E5DFB2
:10452800BB9ADBDFBD98D9CF78E0AA0F10F4BD980D
:1045380001C0BD9ADADFBB98D0DFB39BFECFCDDFD9
:10454800BB9A7A9591F7BD98C8DFBB98CEDFE1E0BA
:10455800B599EE27BB9AC1CF109639F080EA9FE053
:104568000197F1F7A8951197C9F70895552342F4D3
:10457800503811F4E0FF04C03196691F791F6BF0C1
:1045880050E8572711F45F9373C05F3F31F0660F0F
:10459800000C57956795752F08955F9300200AF0D2
:1045A80073C06CC050E8192E1522880F991F9527E3
:1045B800550F879550E8072E0522660F771F752738
:1045C800550F67950895689401C0E8945F93F2DFEA
:1045D800703818F07F3F08F44BC056E1571BAAF417
:1045E800519558300EF4593030F0EFEFFFEF6FEF80
:1045F8007FE777F91AC077275523B9F0EE0FFF1F29
:10460800661F771F5A95D1F710C07727583028F0C2
:10461800EF2FF62F672F5850F9CF552331F07695A5
:104628006795F795E7955A95D1F700200AF49BD03E
:104638005F910895689401C0E89430976040704095
:10464800B1F0002426F0772312F400948CD0172EB2
:104658007EE1112032F07A95EE0FFF1F661F111CC4
:10466800F9CFEF2FF62F612D5F938ADF5F910895C1
:10467800EE27FF27662777275F910895EFEFFFEF73
:104688006FE77FEF5F910895EFEFFFEF6FE77FE749
:104698005F9108955F9386DF703821F411200AF442
:1046A800EDCFF2CF903809F4E3CF01240894970BAB
:1046B8001BF4D4F30020F3CF792F1F932F933F934C
:1046C8004F9311241127222733274427552790E297
:1046D800AE17BF078607410730F0AE1BBF0B860B2E
:1046E800410B089401C08894551F221F331F111CC9
:1046F800AA1FBB1F881F441F9A9551F7F901612D06
:104708004F913F912F911F91662332F0550FEE1F65
:10471800FF1F661F7A9543F229DF5F910895992359
:104728009AF0772342F0971748F029F4AE17BF079D
:10473800860720F031F09894889408959894089406
:1047480008951894889408957723C2F7971798F3D3
:10475800A9F7EA17FB07680788F399F3ECCFF195F7
:10476800E195F0400895F09560957095E195FF4FBB
:104778006F4F7F4F0895EE230E2EFD0121F0F69521
:10478800E7950A94E1F70895EE0FFF1FEE0FFF1F5C
:10479800EE0FFF1FEE0FFF1F0895F695E795F695AC
:1047A800E795F695E795F695E79508956F2F660FC7
:1047B800660B762F0895AE17E1E008F0EE2708950E
:1047C800EA17FB07E1E008F0EE270895AE17BF07E8
:1047D80086079707E1E00CF4EE270895AE17BF07A8
:1047E80086079707E1E00CF0EE270895EA17FB0724
:1047F80068077907E1E00CF0EE270895EF2BE1E078
:1048080009F0E0E00895FA9FF02DEB9FF00DEA9F84
:10481800E02DF10D089504D0F6DF0EF4A0DF089521
:10482800E894F7FF02C09BDF6894B7FF06C0A09525
:10483800B095119600F8039400FA0895ED91FC9153
:1048480011970895ED91FD916D917D9108957E9355
:104858006E93FE93EE93089500240A160B060895AE
:10486800EA17FB07680779070895AE17BF07860799
:10487800970708955A934A933A932A931A930A9357
:1048880008955D814C813B812A81198108810895B1
:00000001FF
