:020000000C945E
:1000020081020C9400000C9400000C9400000C94EB
:1000120000000C94DF020C9400000C94EF020C948C
:1000220000000C9400000C9478040C9400000C94D2
:1000320000000C9400000C945F030C9400000C94DC
:10004200A2030C9400000C9400000C9400000C9489
:1000520000000C94B1020C9400000C9400000C946B
:1000620000000C9425060C9465060C9400000C9478
:1000720000000C9400000C9400000C9400000C94FE
:1000820000000C94E3100C9400001027E8036400B5
:100092000A0001000010000110000100010001002F
:1000A200AA0000000000000013000A00444154416D
:1000B20000504F534954494F4E2D534552564F000D
:1000C2004C4546543A2031004C4546543A203000C3
:1000D2002052494748543A20310020524947485457
:1000E2003A2030004D4C4546543A2031004D4C45A3
:1000F20046543A2030004D52494748543A31004D57
:1001020052494748543A30002020202020454E438F
:100112004F44455220203E3E003C3C202020454E8C
:10012200434F44455220202020004C3A0020523AAE
:1001320000202020202052454348545320202020D4
:100142000020202020204C494E4B5320202020000C
:10015200464C4546543A203100464C4546543A20D6
:1001620030004652494748543A31004652494748BE
:10017200543A30004C4546543A0052494748543AA2
:10018200004F626A656B7420676566756E64656EA2
:10019200004B65696E204F626A656B740020204CCB
:1001A200494E454445544543544F52202000202097
:1001B200202020454E47494E452020202000202067
:1001C2002020205354454552494E472020202000EC
:1001D2002044495354414E434553454E534F5220B8
:1001E2000020204C494748542053454E534F52203B
:1001F200200020202020205749492043414D202023
:10020200200020202020495220544F5745522020C0
:100212002020002020202020534552564F2020200D
:100222002000202020554C545241534F4E49432028
:1002320020002020202020464F5220202020202055
:1002420020002020202020204241434B202020203B
:10025200202020002020202020204C454654202011
:1002620020202020002020202020524947485420CE
:10027200202020200020202020203930B04C45466C
:1002820054202020202000202020203930B0524944
:100292004748542020202000202020205350494E3F
:1002A200202020200020202020317374205354412C
:1002B2005445202020200020202020326E6420532C
:1002C20054415445202020200020202020337264F5
:1002D2002053544154452020202000202020426CED
:1002E20075654D6174696373002020202020526F70
:1002F200626279004F4B00427566666572206F76C6
:100302006572666C6F7700417262697472617469BA
:100312006F6E206C6F737400427573206572726F1A
:1003220072004E41434B20726563656976656400D5
:100332004275732074696D656F7574004661696CEE
:1003420000556E6B6E6F776E206572726F72000071
:1003520001002D4E414E00494E460000070080C06C
:10036200010002009E000A000400A0000100B30781
:10037200AA0005000005AE000F000505B300080045
:100382001405C20008001C05CA000A002405D20098
:100392000A002E05DC0009003805E60009004105C7
:1003A200EF0009004A05F800090053050101110098
:1003B2005C050A0111006D051B0103007E052C017D
:1003C200040081052F011000850533010F009505FA
:1003D20043010300A4052C010400A7052F01080016
:1003E200AB05C2000800B305CA000A00BB05D20073
:1003F2000A00C505DC000900CF0552010900D80535
:100402005B010900E10564010900EA056D010600CE
:10041200F30576010700F9057C01030000062C01B3
:10042200040003062F01030007062C0104000A063C
:100432002F0103000E062C01040011062F010300F8
:1004420015062C01040018062F0103001C062C01BE
:1004520004001F062F01030023062C0104002606B8
:100462002F0103002A062C0104002D062F01110082
:1004720031069F0110004206B00112005206C0016F
:1004820011006406D20111007506E3011000860610
:10049200F4011100960604020F00A70615021000CF
:1004A200B60624021000C60634021200D606440222
:1004B2001100E80656021000F90667021200090749
:1004C200770211001B0789020D002C079A02120005
:1004D2003907A70212004B07B90212005D07CB02CF
:1004E2000E006F07DD020B007D07EB0201007508AD
:1004F200520301008A075E030200850860030000C0
:10050200F894EE27ECBBF1E0F5BFE5BFE0936C0099
:100512008DE0A2E0BB27ED938A95E9F780E090E1B8
:10052200A0E0B1E0ED930197E9F7E2E6F3E085910F
:100532009591009761F0A591B59105901590BF0135
:10054200F00105900D920197E1F7FB01F0CF8BBF0F
:10055200EFEFEDBFE0E1EEBFC0E0D5E00C946E102E
:100562008A93AA93BA93EA93FA93EFB7EA93E09144
:100572006808ACE5B8E0F0E0EE0FFF1FAE0FBF1F5A
:10058200E4B1F5B1ED93FC93A0916808AF5FA0933D
:100592006808A63018F0E0E0E0936808E091680887
:1005A200E05CE7B985E38A95F1F7369AE991EFBF06
:1005B200F991E991B991A991899118950E945D13D8
:1005C2000E946413A032EEE4BE072CF4ABE6B8E05E
:1005D2000E94691302C00E946F136FC30E945D13D1
:1005E2000E947513A032EEE4BE072CF4A9E6B8E02F
:1005F2000E94691302C00E947A135FC3EAE8EABB51
:10060200E2E0E7BBE1EAE1BBE4E0E2B9E0E2E09389
:100612006100A0E10E942913E0E4E7B9EFECE6B93A
:10062200E0E0E0BDE0E8E8B9E0E0E0936A00E1E1A3
:10063200EABFE0E5E9BFE0E0E8BFE0BFE6E0E3BF34
:10064200E3E8E2BFE0E0E1BFE1E0EFBDEAE0EEBDFA
:10065200E0E0EDBDECBDE7BDE6BDEBBDEABDE9BD49
:10066200E8BDE0937900E0937800E4E0E5BDE0E0E6
:10067200E4BDE3BDE0938B00EBECE0938A00E0E0A5
:10068200E0938900E0938800E0938100E09380008A
:10069200E1E6E0938700E8EAE0938600E0E0E09399
:1006A2008500E0938400E0938300E0938200E5E418
:1006B200E7BFE0E3E0937D00789408950E945D1324
:1006C200ECE9ECBDA9ECB7E00E9469130E9480132B
:1006D200A030E1E0BE072CF0E0E0E093C907E09330
:1006E200CA07E091CB07F091CC070E948013AE17A6
:1006F200BF0714F0DB9801C0DB9AE091CD07F091BF
:10070200CE070E948013AE17BF0714F0D99801C01C
:10071200D99AD3C2BA93AA93EE81FF810E9485131C
:10072200EC81FD810E948A13EA81E03011F4DF98A6
:1007320001C0DF9AE881E03011F4DD9801C0DD9A52
:100742008FC00E945D13EEEFE2BFA091CF07AF5FB3
:10075200A093CF07A434A0F0E091D307E07421F472
:10076200E091D307E07209F406C00E948F13E09370
:10077200D007F093D107E0E0E093D207E093D307EC
:10078200A0E020FCA1E0E0E0CA99E1E0B0E0F0E006
:10079200E7FDFFEFEA17FB0759F1E1E02E26A091F2
:1007A200CF07AB3028F4E0E0E093D207E093D30721
:1007B2000E948F13309721F0A091CF07AD32C0F085
:1007C200E091D307E07441F40E948F13EE0FFF1FF4
:1007D200E093D207F093D30720FC07C00E948F1347
:1007E200E160E093D207F093D307E0E0E093CF0714
:1007F20064C2BA93AA931A930A93F8940091D00709
:100802001091D107E0E0E093D007E093D10778940C
:10081200002E012A09F1D801EBE00E945216E17084
:10082200AE81BF81EC93D801E6E00E945216EF71CF
:10083200AC81BD81EC93E02FEF73AE2FF801E09510
:10084200F0950E9466160E946416E074EA2BAA8153
:10085200BB81EC93F80102C0E0E0F0E0198108816D
:10086200289608950E94BA12A0E0B5E00E9494135F
:10087200A091D407A05D0E94CF12A0E20E94CF12E5
:10088200E091D5070E949B13A0E20E94CF12E09153
:10089200D6070E949B130895E4EDF7E0FA93EA93DA
:1008A200E5EDF7E0FA93EA93A6EDB7E0A2DF309721
:1008B200E9F0E091D607F0E0309719F4E3E1F0E0D7
:1008C2000DC0E130A0E0FA0719F4EFE0F0E006C055
:1008D200E230A0E0FA0751F4E0E1F0E0E093B30780
:1008E200F093B407A4E6B0E00E9443150895EA939A
:1008F200FA93EFB7EA9397988614970429F4E5E000
:10090200F0E0E415F50539F44301E1E0F0E02F01F0
:1009120064BC979A05C0F20131962F01E0E0E4BD74
:10092200E991EFBFF991E99118952A970E94BA12BD
:10093200A5E0B5E00E949413F301EA5AF040FA935D
:10094200EA93ABE8B7E00E948010ABE8B7E00E9400
:10095200F6122FC20E94A613549741F4ECEDF0E078
:100962006E167F061CF4F30131963F010E94A61316
:10097200559741F4E8E7F0E0E615F7051CF4F301BA
:1009820031973F010E94A613109719F4E3E1F0E0BA
:1009920005C0E091B107F091B2073197E093B30738
:1009A200F093B4070895009903C0E1E0F0E002C0BB
:1009B200E0E0F0E0E093B507F093B607029903C0D8
:1009C200E1E0F0E002C0E0E0F0E0E093B707F0938E
:1009D200B807049903C0E1E0F0E002C0E0E0F0E013
:1009E200E093B907F093BA07069903C0E1E0F0E09B
:1009F20002C0E0E0F0E0E093BB07F093BC07E091B7
:100A0200B507F091B607A8EEB3E00E948416BF01C5
:100A1200E091B707F091B8070E94AB13E091B907D4
:100A2200F091BA070E94B213A091BB07B091BC0724
:100A3200EA0FFB1FE093C507F093C607B09903C006
:100A4200E1E0F0E002C0E0E0F0E0E093BD07F09307
:100A5200BE07B29903C0E1E0F0E002C0E0E0F0E0DE
:100A6200E093BF07F093C007B49903C0E1E0F0E060
:100A720002C0E0E0F0E0E093C107F093C207B6994C
:100A820003C0E1E0F0E002C0E0E0F0E0E093C30781
:100A9200F093C407E091BD07F091BE07A8EEB3E062
:100AA2000E948416BF01E091BF07F091C0070E9427
:100AB200AB13E091C107F091C2070E94B213A0915B
:100AC200C307B091C407EA0FFB1FE093C707F09377
:100AD200C8070895E0E3EA93A1E016D0E0E3EA93C1
:100AE200A8E012D0E6E0EA93A0E90ED0E8E0EA93AB
:100AF200A0EC0AD0EAE1EA93A0E406D0E3E3EA93A9
:100B0200A3E302D0A4E622C2AA930E94F714A0EBA8
:100B12000E942B15A9810E942B15A8810E942B15DA
:100B22000E940615AAE0B0E00E944315229608959D
:100B32001A9310E00E94F714A0EB0E942B15A6E373
:100B42000E942B150E940615A1E0B0E00E944315F9
:100B52000E94F714A1EB0E942B1510E01F3090F4B5
:100B6200E12FA1E2B8E0F0E00E94B913FF93EF9306
:100B7200A1E00E941015AF91BF91F0E0ED93FC93BC
:100B82001F5FECCFA0E00E941015AFE3B8E0F0E0E9
:100B9200ED93FC930E940615199108951A930A93F6
:100BA20000E010E000E010E00430E0E01E070CF08E
:100BB20048C00E94BE130E94C413E073F0700E94EA
:100BC2005B16E0935A08F0935B08F801A6E4B8E0DC
:100BD2000E94B913BF010E94BE13DF01AA0FBB1FFF
:100BE200AD5DB74F0E94CC130E94BE130E94C41386
:100BF200E07CF0700E945F16E0935A08F0935B0865
:100C0200F801AEE4B8E00E94B913BF010E94BE131E
:100C1200DF01AA0FBB1FAB5DB74F0E94CC13F801D7
:100C2200EA5AF74FBF010E94BE13DF01AA0FBB1F92
:100C3200A95DB74FEC91EF70DB01EC930F5F1F4F93
:100C4200B3CF0991199108950E945D13E09180003C
:100C5200E0931F08E0918100E09320080F9B0EC0F3
:100C6200E0911F08F0912008E0931908F0931A0808
:100C7200E0918A00EF7BE0938A001FC0E0911F0899
:100C8200F0912008E0931B08F0931C08E0918A0081
:100C9200E064E0938A00A0911908B0911A08E091EB
:100CA2001B08F0911C08EA1BFB0B0E945F16E093E5
:100CB2001D08F0931E08689422F8E991EFBFF9919C
:100CC200E991B991A99118958A93EA93EFB7C19ADC
:100CD20085E38A95F1F7C198EFBFE991899118955B
:100CE2000E94BA12009903C0A4E1B5E002C0ACE1CF
:100CF200B5E00E94F612069903C0A4E2B5E002C074
:100D0200AEE2B5E00E94F6120E94D813029903C027
:100D1200A8E3B5E002C0A1E4B5E00E94F61204998E
:100D220003C0AAE4B5E002C0A3E5B5E00E94F61252
:100D3200089561970E94DD1339F4ACE5B5E00E9495
:100D4200F612DF98DD9806C0ADE6B5E00E94F61215
:100D5200DF9ADD9A0E94D813AEE7B5E00E94EB134A
:100D6200A1E8B5E00E94FA13CE9902C00E940914CC
:100D7200619608952A970E94DD1339F4A5E8B5E03B
:100D82000E94F612DF98DD9A06C0A5E9B5E00E943E
:100D9200F612DF9ADD980E94D813A4EAB5E00E9409
:100DA200EB13A7EAB5E00E94FA13CE9902C00E94A3
:100DB20009142A9608950E94BA12B09903C0ABEAA8
:100DC200B5E002C0A3EBB5E00E94F612B69903C0EB
:100DD200ABEBB5E002C0A5ECB5E00E94F6120E94B2
:100DE200D813B29903C0AFECB5E002C0A8EDB5E0EC
:100DF2000E94F612B49903C0A1EEB5E002C0AAEEB9
:100E0200B5E00E94F61208952A970E949D16E0917D
:100E12006208F09163088F01E0915E08F0915F082B
:100E22009F010E94BA12A3EFB5E00E94F6123A9314
:100E32002A930E9419140E949413A9EFB5E00E940C
:100E4200F6121A930A930E9419140E94F6120E9433
:100E5200A4162E9608950E949D1610E069DE9EDE6D
:100E620010E0143008F05FC0143058F50E942014CE
:100E7200EF3FA3E0FA0731F00E942B14EF3FA3E00B
:100E8200FA0709F41DC00E9420140E943614A4E13E
:100E92001A020A920E943E140E942B140E944514C8
:100EA200A4E11A02F001E85FEA930E943E140E9454
:100EB2004D14A4E11A02F001E05FEA930E943E148D
:100EC20030C00E942014EF3FA3E0FA0731F00E94E5
:100ED2002B14EF3FA3E0FA0709F423C00E94201469
:100EE2000E943614E12FE250A4E1EA020A920E9423
:100EF20059140E942B140E944514E12FE250A4E1E0
:100F0200EA02F001E85FEA930E9459140E944D142C
:100F1200E12FE250A4E1EA02F001E05FEA930E94CD
:100F220059141F5F9ECFAEE1B0E00E944315C39BF0
:100F320002C0C39801C0C39A0E94A41624960895C1
:100F420091DC08950E94BA12F0DCA8ECB0E00E9495
:100F52004315089522FE29C00E94D813A0911D08AE
:100F6200B0911E08A137E7E1BE07B8F40E94BA1299
:100F7200A3E8B1E00E9405130E94D8130E946014F6
:100F82000E947C15FA93EA93A8E0B8E00E948010D0
:100F9200A8E0B8E00E94F61206C00E94BA12A3E9C5
:100FA200B1E00E940513E89422F808950E9471149A
:100FB2000AC00E947114DF9ADD9A08950E94771484
:100FC20002C00E947F14DF98DD9808950E947A1370
:100FD2000E946F130E9477140E948814A0E0B6E06A
:100FE2000E948D14A3E0B6E00E949D140E94641337
:100FF200519784F308950E947A130E946F130E94FE
:101002007F140E94AD14A7E0B6E00E948D14AAE0FE
:10101200B6E00E949D140E947513519784F30895BF
:10102200CC9B0AC0CE9B08C0B09B06C0B69B04C036
:10103200B29B02C0B49901C005C0E0E0E0936D0824
:10104200E0936E08CC9B0AC0CE9B08C0B09B06C042
:10105200B69B04C0B29B02C0B49B01C004C0E1E0D5
:10106200F0E00E94B214CC9B0AC0CE9B08C0B09B99
:1010720006C0B69B04C0B29902C0B49901C004C0B4
:10108200E2E0F0E00E94B214CC9B0AC0CE9B08C002
:10109200B09B06C0B69904C0B29B02C0B49901C00D
:1010A20004C0E3E0F0E00E94B214CC9B0AC0CE9BE5
:1010B20008C0B09906C0B69B04C0B29B02C0B499E6
:1010C20001C004C0E4E0F0E00E94B214CC9B0AC06C
:1010D200CE9908C0B09B06C0B69B04C0B29B02C0AA
:1010E200B49901C004C0E5E0F0E00E94B214CC99CA
:1010F2000AC0CE9B08C0B09B06C0B69B04C0B29B80
:1011020002C0B49901C004C0E6E0F0E00E94B2144B
:10111200CC9B0AC0CE9B08C0B09B06C0B69B04C045
:10112200B29902C0B49B01C004C0E7E0F0E00E94A3
:10113200B214CC9B0AC0CE9B08C0B09B06C0B69925
:1011420004C0B29902C0B49901C004C0E8E0F0E062
:101152000E94B214CC9B0AC0CE9B08C0B09906C0B4
:10116200B69904C0B29B02C0B49901C004C0E9E0C0
:10117200F0E00E94B214CC9B0AC0CE9908C0B0998C
:1011820006C0B69B04C0B29B02C0B49901C004C0A1
:10119200EAE0F0E00E94B214CC990AC0CE9908C0ED
:1011A200B09B06C0B69B04C0B29B02C0B49901C0FA
:1011B20004C0EBE0F0E00E94B214CC9B0AC0CE9BCC
:1011C20008C0B09B06C0B69904C0B29902C0B49BD5
:1011D20001C004C0ECE0F0E00E94B214CC9B0AC053
:1011E200CE9B08C0B09906C0B69904C0B29902C09D
:1011F200B49901C004C0EDE0F0E00E94B214CC9BAF
:101202000AC0CE9908C0B09906C0B69904C0B29B74
:1012120002C0B49901C004C0EEE0F0E00E94B21432
:10122200CC990AC0CE9908C0B09906C0B69B04C03A
:10123200B29B02C0B49901C004C0EFE0F0E00E948A
:10124200B214CC9B0AC0CE9B08C0B09906C0B69916
:1012520004C0B29902C0B49B01C004C0E0E1F0E056
:101262000E94B214CC9B0AC0CE9908C0B09906C0A5
:10127200B69904C0B29902C0B49901C004C0E1E1B8
:10128200F0E00E94B214CC990AC0CE9908C0B0997D
:1012920006C0B69904C0B29B02C0B49901C004C092
:1012A200E2E1F0E00E94B214CC9B0AC0CE9908C0E1
:1012B200B09906C0B69904C0B29902C0B49B01C0ED
:1012C20004C0E3E1F0E00E94B214CC990AC0CE99C6
:1012D20008C0B09906C0B69904C0B29902C0B499C8
:1012E20001C004C0E4E1F0E00E94B214CC990AC04B
:1012F200CE9908C0B09906C0B69904C0B29902C08E
:10130200B49B01C004C0E5E1F0E00E94B214CC9BA2
:101312000AC0CE9B08C0B09B06C0B69904C0B29B5F
:1013220002C0B49B01C004C0E6E1F0E00E94B21426
:10133200CC9B0AC0CE9B08C0B09906C0B69B04C025
:10134200B29902C0B49901C004C0E7E1F0E00E9482
:10135200B214CC9B0AC0CE9908C0B09B06C0B69905
:1013620004C0B29B02C0B49901C004C0E8E1F0E03D
:101372000E94B214CC990AC0CE9B08C0B09906C094
:10138200B69B04C0B29B02C0B49901C004C0E9E19B
:10139200F0E00E94B214CC9B0AC0CE9B08C0B09968
:1013A20006C0B69B04C0B29B02C0B49B01C004C07D
:1013B200EAE1F0E00E94B214CC9B0AC0CE9908C0C8
:1013C200B09B06C0B69B04C0B29902C0B49901C0DA
:1013D20004C0EBE1F0E00E94B214CC990AC0CE9BAB
:1013E20008C0B09B06C0B69904C0B29B02C0B499B3
:1013F20001C004C0ECE1F0E00E94B214CC9B0AC030
:10140200CE9908C0B09B06C0B69B04C0B29B02C076
:10141200B49B01C004C0EDE1F0E00E94B214CC998B
:101422000AC0CE9B08C0B09B06C0B69B04C0B2994E
:1014320002C0B49901C004C0EEE1F0E00E94B2140F
:10144200CC990AC0CE9B08C0B09B06C0B69B04C014
:10145200B29B02C0B49B01C004C0EFE1F0E00E9465
:10146200B214CC990AC0CE9908C0B09906C0B699F8
:1014720004C0B29B02C0B49B01C004C0E0E2F0E031
:101482000E94B214CC990AC0CE9908C0B09906C085
:10149200B69B04C0B29902C0B49B01C004C0E1E291
:1014A200F0E00E94B214CC990AC0CE9908C0B09B59
:1014B20006C0B69904C0B29902C0B49B01C004C070
:1014C200E2E2F0E00E94B214CC990AC0CE9B08C0BE
:1014D200B09906C0B69904C0B29902C0B49B01C0CB
:1014E20004C0E3E2F0E00E94B214CC990AC0CE99A3
:1014F20008C0B09906C0B69B04C0B29B02C0B49BA0
:1015020001C004C0E4E2F0E00E94B214CC990AC027
:10151200CE9908C0B09B06C0B69B04C0B29902C067
:10152200B49B01C004C0E5E2F0E00E94B214CC9981
:101532000AC0CE9B08C0B09B06C0B69904C0B2993F
:1015420002C0B49B01C004C0E6E2F0E00E94B21403
:10155200CC990AC0CE9B08C0B09906C0B69B04C005
:10156200B29902C0B49901C004C0E7E2F0E00E945F
:10157200B214CC9B0AC0CE9908C0B09B06C0B699E3
:1015820004C0B29B02C0B49B01C004C0E8E2F0E018
:101592000E94B214CC990AC0CE9B08C0B09B06C070
:1015A200B69904C0B29902C0B49901C004C0E9E27C
:1015B200F0E00E94B214CC9B0AC0CE9908C0B09948
:1015C20006C0B69B04C0B29B02C0B49B01C004C05B
:1015D200EAE2F0E00E94B214CC990AC0CE9908C0A7
:1015E200B09B06C0B69904C0B29B02C0B49B01C0B6
:1015F20004C0EBE2F0E00E94B214CC990AC0CE998A
:1016020008C0B09B06C0B69904C0B29902C0B49992
:1016120001C004C0ECE2F0E00E94B214CC990AC00E
:10162200CE9B08C0B09906C0B69904C0B29B02C056
:10163200B49B01C004C0EDE2F0E00E94B214CC9968
:101642000AC0CE9B08C0B09906C0B69904C0B29930
:1016520002C0B49901C004C0EEE2F0E00E94B214EC
:10166200CC9B0AC0CE9908C0B09906C0B69904C0F6
:10167200B29B02C0B49B01C004C0EFE2F0E00E9442
:10168200B214CC9B0AC0CE9908C0B09906C0B69BD2
:1016920004C0B29902C0B49B01C004C0E0E3F0E010
:1016A2000E94B214CC990AC0CE9908C0B09B06C061
:1016B200B69B04C0B29902C0B49901C004C0E1E370
:1016C200F0E00E94B214CC9B0AC0CE9908C0B09937
:1016D20006C0B69B04C0B29B02C0B49B01C004C04A
:1016E200E2E3F0E00E94B214CC990AC0CE9908C09D
:1016F200B09B06C0B69B04C0B29902C0B49901C0A7
:1017020004C0E3E3F0E00E94B214CC990AC0CE997F
:1017120008C0B09B06C0B69904C0B29B02C0B4997F
:1017220001C004C0E4E3F0E00E94B214CC990AC004
:10173200CE9908C0B09906C0B69B04C0B29902C047
:10174200B49901C004C0E5E3F0E00E94B214CC9B5E
:101752000AC0CE9B08C0B09906C0B69904C0B29B1D
:1017620002C0B49B01C004C0E6E3F0E00E94B214E0
:10177200CC990AC0CE9B08C0B09B06C0B69B04C0E1
:10178200B29902C0B49B01C004C0E7E3F0E00E943A
:10179200B214CC990AC0CE9B08C0B09906C0B69BC1
:1017A20004C0B29902C0B49B01C004C0E8E3F0E0F7
:1017B2000E94B214CC9B0AC0CE9B08C0B09906C04E
:1017C200B69B04C0B29902C0B49B01C004C0E9E355
:1017D200F0E00E94B214CC9B0AC0CE9908C0B09B24
:1017E20006C0B69904C0B29902C0B49B01C004C03D
:1017F200EAE3F0E00E94B214CC9B0AC0CE9908C082
:10180200B09B06C0B69B04C0B29902C0B49B01C093
:1018120004C0EBE3F0E00E94B214CC990AC0CE9B64
:1018220008C0B09906C0B69904C0B29B02C0B49970
:1018320001C004C0ECE3F0E00E94B2140E94601404
:10184200DF01CB01E0E0F0E060E271E40E942616E5
:1018520020F4E0E4F0E00E94B2140895E0916D08F3
:10186200F0916E08309739F40E94B7140E94B714B1
:101872000E94BC14E7C1E130A0E0FA0729F40E94FB
:10188200B714E6E4F0E0D7C1E230A0E0FA0709F4C9
:10189200CCC1E330A0E0FA0739F40E94C2140E94DE
:1018A200B7140E94BC14CEC1E430A0E0FA0739F4A8
:1018B2000E94B7140E94C2140E94BC14C3C1E53036
:1018C200A0E0FA0729F40E94B714E6E4F0E0B3C1FD
:1018D200E630A0E0FA0709F4A8C1E730A0E0FA0771
:1018E20019F4E2E3F0E0A3C1E830A0E0FA0729F43A
:1018F2000E94B714E6E4F0E09EC1E930A0E0FA07E6
:1019020039F40E94C7140E94C7140E94BC149AC1E1
:10191200EA30A0E0FA0729F40E94B714E6E4F0E006
:101922008AC1EB30A0E0FA0729F40E94B714E6E47A
:10193200F0E081C1EC30A0E0FA0729F40E94B7146C
:10194200E2E3F0E078C1ED30A0E0FA0719F4E2E357
:10195200F0E06DC1EE30A0E0FA0729F40E94B7145E
:10196200E0E5F0E068C1EF30A0E0FA0719F4E0E545
:10197200F0E05DC1E031A0E0FA0719F4EAE5F0E039
:1019820056C1E131A0E0FA0719F4EAE5F0E04FC1EF
:10199200E231A0E0FA0719F4EAE5F0E048C1E331E8
:1019A200A0E0FA0729F40E94C214E0E5F0E043C186
:1019B200E431A0E0FA0729F40E94C214E0E5F0E065
:1019C2003AC1E531A0E0FA0729F40E94CC14E5E51A
:1019D200F0E031C1E631A0E0FA0729F40E94B71421
:1019E200E6E4F0E028C1E731A0E0FA0709F41DC1FE
:1019F200E831A0E0FA0729F40E94B714E6E4F0E027
:101A02001AC1E931A0E0FA0709F40FC1EA31A0E0F6
:101A1200FA0729F40E94B714E6E4F0E00CC1EB31B6
:101A2200A0E0FA0709F401C1EC31A0E0FA0729F4B9
:101A32000E94B714E6E4F0E0FEC0ED31A0E0FA0740
:101A420029F40E94B714E6E4F0E0F5C0EE31A0E01C
:101A5200FA0709F4EAC0EF31A0E0FA0709F4E5C099
:101A6200E032A0E0FA0729F40E94B714E5E5F0E0BD
:101A7200E2C0E132A0E0FA0719F4E5E5F0E0D7C0F0
:101A8200E232A0E0FA0709F4D0C0E332A0E0FA079C
:101A920019F4E5E5F0E0CBC0E432A0E0FA0729F45E
:101AA2000E94B714E6E4F0E0C6C0E532A0E0FA070F
:101AB20009F4BBC0E632A0E0FA0729F40E94B71489
:101AC200E6E4F0E0B8C0E732A0E0FA0709F4ADC0FE
:101AD200E832A0E0FA0729F40E94B714E6E4F0E045
:101AE200AAC0E932A0E0FA0709F49FC0EA32A0E0F6
:101AF200FA0709F49AC0EB32A0E0FA0729F40E942F
:101B0200B714E6E4F0E097C0EC32A0E0FA0719F46B
:101B1200E1E4F0E08CC0ED32A0E0FA0729F40E9483
:101B2200C714EAE5F0E087C0EE32A0E0FA0729F434
:101B32000E94C714EAE5F0E07EC0EF32A0E0FA07A7
:101B420029F40E94CC14E0E5F0E075C0E033A0E097
:101B5200FA0729F40E94CC14E0E5F0E06CC0E1330E
:101B6200A0E0FA0719F4EBE4F0E061C0E233A0E090
:101B7200FA0729F40E94C714E6E4F0E05CC0E333FC
:101B8200A0E0FA0729F40E94B714EAE5F0E053C096
:101B9200E433A0E0FA0729F40E94B714E6E4F0E087
:101BA2004AC0E533A0E0FA0719F4EBE4F0E03FC0E5
:101BB200E633A0E0FA0729F40E94C714E1E4F0E05A
:101BC2003AC0E733A0E0FA0719F4E0E5F0E02FC0ED
:101BD200E833A0E0FA0719F4E0E5F0E028C0E933C1
:101BE200A0E0FA0719F4E0E5F0E021C0EA33A0E052
:101BF200FA0729F40E94B714E0E5F0E01CC0EB33C9
:101C0200A0E0FA0729F40E94B714E5E5F0E013C05A
:101C1200EC33A0E0FA0729F40E94C714E6E4F0E0EE
:101C22000AC0E034A0E0FA0781F4E6E4F0E0FA93B7
:101C3200EA93E4E6F0E0FA93EA93E1E0F0E0FA9363
:101C4200EA93A1E0B0E00E948B0308950E947A1308
:101C52000E946F130E9471140E94AD14AEE0B6E0B0
:101C62000E948D14A1E1B6E00E949D140E9475139A
:101C7200A034E0E0BE0734F40E946413A034E0E034
:101C8200BE070CF001C0E6CF08950E947A130E94AD
:101C92006F130E9477140E94AD14A5E1B6E00E9472
:101CA2008D14A8E1B6E00E949D140E94751351970D
:101CB20084F30E94D1140E946F130E9471140E9437
:101CC200D814ACE1B6E00E948D14AFE1B6E00E94F8
:101CD2009D140E947513A436E0E0BE0734F40E94FE
:101CE2006413A436E0E0BE070CF001C0E6CF0E9408
:101CF200D1140E946F130E947F140E948814A3E2E1
:101D0200B6E00E948D14A6E2B6E00E949D140E94E5
:101D12006413519784F30E94D1140E946F130E949E
:101D220071140E94D814AAE2B6E00E948D14ADE2AA
:101D3200B6E00E949D140E947513A436E0E0BE072F
:101D420034F40E946413A436E0E0BE070CF001C034
:101D5200E6CF089565D982DD0895E0E0E093CB07F0
:101D6200E093CC07E093CD07E093CE07E091B30771
:101D7200F091B407309761F40C2C0D2831F40E94D5
:101D8200BA12A1E3B6E00E94DD140E9471061CC1E2
:101D9200E130A0E0FA0761F40C2C0D2831F40E9426
:101DA200BA12A2E4B6E00E94DD140E949A060CC1A7
:101DB200E230A0E0FA0761F40C2C0D2831F40E9405
:101DC200BA12A2E5B6E00E94DD140E94BB06FCC076
:101DD200E330A0E0FA0761F40C2C0D2831F40E94E4
:101DE200BA12A4E6B6E00E94DD140E94DC06ECC042
:101DF200E430A0E0FA0761F40C2C0D2831F40E94C3
:101E0200BA12A5E7B6E00E94DD140E940507DCC005
:101E1200E530A0E0FA0759F40C2C0D2831F40E94A9
:101E2200BA12A6E8B6E00E94DD1415D8CDC0E6309D
:101E3200A0E0FA0759F40C2C0D2831F40E94BA12D2
:101E4200A6E9B6E00E94DD147BD8BEC0E730A0E070
:101E5200FA0759F40C2C0D2831F40E94BA12A7EAA1
:101E6200B6E00E94DD146ED8AFC0E830A0E0FA07F9
:101E720059F40C2C0D2831F40E94BA12A6EBB6E0EC
:101E82000E94DD1467D8A0C0E930A0E0FA0759F437
:101E92000C2C0D2831F40E94BA12A6ECB6E00E9476
:101EA200DD1484D891C0EA30A0E0FA0759F40C2C72
:101EB2000D2831F40E94BA12A6EDB6E00E94DD149C
:101EC20078D882C0EB30A0E0FA0759F40C2C0D2828
:101ED20031F40E94BA12A8EEB6E00E94DD146ED868
:101EE20073C0EC30A0E0FA0759F40C2C0D2831F441
:101EF2000E94BA12A9EFB6E00E94DD1462D864C053
:101F0200ED30A0E0FA0759F40C2C0D2831F40E94B0
:101F1200BA12A9E0B7E00E94DD146DD855C0EE30C8
:101F2200A0E0FA0759F40C2C0D2831F40E94BA12E1
:101F3200ABE1B7E00E94DD1449D846C0EF30A0E023
:101F4200FA0759F40C2C0D2831F40E94BA12ACE2B3
:101F5200B7E00E94DD147ADE37C0E031A0E0FA0774
:101F620059F40C2C0D2831F40E94BA12A9E3B7E0FF
:101F72000E94DD148ADE28C0E131A0E0FA0759F49C
:101F82000C2C0D2831F40E94BA12ABE4B7E00E9487
:101F9200DD14E0DE19C0E231A0E0FA0759F40C2C9E
:101FA2000D2831F40E94BA12ADE5B7E00E94DD14AB
:101FB200D1DE0AC00E94BA12AFE6B7E00E949413C3
:101FC200ADE7B7E00E94F612A2E3B0E00E9443152B
:101FD2000895AA93E0918A07E03019F4689421F8F1
:101FE20005C0E89421F8E0E00C945B13E881E0304E
:101FF20019F0E0E00C945B13A0918907EFE00E94D6
:1020020072160C945B13AA93E881E03009F042C087
:10201200E091C507E093F907E091C707E093FA075B
:10202200E0915E08F0915F08E093FB07F093FC07F4
:10203200E0916208F0916308E093FD07F093FE07D8
:10204200E0916908F0916A08E093FF07F0930008B5
:10205200E0916B08F0916C08E0930108F09302089C
:10206200E0919E07E0930308E091D607E09304080D
:10207200E62DEA5AE09305080E946014A6E0B8E053
:102082000E947A15EC93E091E807E0930708EFE0ED
:102092000C945B1321FE07C0E091F807F0E0E09397
:1020A200B107F093B207E0E00C945B13E0E0EA932F
:1020B200E0E5EA93EAEEF7E0FA93EA93EFE0EA93D7
:1020C200E9EFF7E0FA93EA93EAEEFFE0FA93EA9394
:1020D200A4E0B0E10E94AE1008950E94FF020E94A7
:1020E200F2140E946B05E2DF0E94110836DE0E94A4
:1020F200AB040E944D040E94D404F6CFFFCFBA93E2
:10210200AA93A991B991E991F99130962AF4E095AF
:10211200F09531966DE26D93E89480E197E20DD0EF
:1021220088EE93E00AD084E6992707D08AE005D0AA
:102132006E2F10D066276C9308956627E817F9076B
:1021420020F06395E81BF90BC9F7662311F416F02A
:1021520008956894605D6D930895BA93AA93689404
:1021620024F8E7E0E0938A07EF81F885E0937D08A1
:10217200F0937E08EE81E0938008EC81FD81E0938C
:102182007A08F0937B08EA81FB81E0938108F0935F
:102192008208E881F981E0938308F0938408919A98
:1021A200909AEA85E03011F0E1E002C0E985EE0F95
:1021B200E0937200E0917400E078E564E0937400CB
:1021C2002B9608950A921A92FA926A937A938A93B4
:1021D2009A93AA93BA93EA93FA93EFB7EA930E9477
:1021E2009B16109189070091880730917C082091F5
:1021F2008A07E12FA0917D08B0917E08F0E0EA0FF6
:10220200FB1FAF01E0917100E87FE83011F420E09C
:1022120002C0E03119F4E091790810C0E83111F000
:10222200E83249F5031798F4E02F0F5FA0917A087E
:10223200B0917B08F0E0AE0FBF1FEC91E09373000A
:10224200E0917400EF70E068E093740013C0E091D5
:102252007F081E1770F4E0917908E160E093790835
:10226200E89423F8E0917400EF70E06AE093740060
:1022720013C138C011C1E03531F4E0917300DA01C5
:10228200EC931F5F02C0E03489F4E0917F08E150D3
:102292001E1728F0E0917400EF70E06804C0E0912E
:1022A2007400EF70E06CE0937400F6C0E83531F42E
:1022B200E0917300DA01EC931F5F02C0E03209F48F
:1022C20002C0E03309F402C0E83469F4203051F46A
:1022D20023FE03C0031728F005C0E0917F081E17F4
:1022E20008F424E0D1C0E83331F422E0E091740034
:1022F200EF70E068CDC0E83611F0E83711F422E063
:1023020005C0E03611F0E037A9F420E010E0E894CF
:1023120023F8E0918008E03031F421E0E09174008C
:10232200EF70E06804C0E0917400EF70E06CE0933D
:102332007400B2C0E03811F0E03941F523FE02C06A
:1023420021E0A2C0E0917300DA01EC931F5FE091FB
:1023520080081E17C0F4E0918108F091820830973E
:1023620011F426E091C0A0E0E0918108F09182088A
:102372000995E03039F0E0917400EF70E06CE09381
:1023820074008AC002C0689423F802C0E83809F4D5
:1023920002C0E83939F4E0917400EF70E068E0932C
:1023A20074007AC0E03AB9F4E0917400EF70E06C26
:1023B200E0937400689424F8E0918108F091820817
:1023C200309739F0A1E0E0918108F09182080995F7
:1023D20001C026E061C0E03B11F422E002C0E83A0D
:1023E200B9F4E0918308F0918408309759F0A0E0A5
:1023F200E0918308F091840809953E2FE03011F0B6
:1024020020E002C026E040C000E0E89423F802C0C9
:10241200E83B01F523FE02C021E036C0E02F0F5F4A
:10242200A0917A08B0917B08F0E0AE0FBF1FEC914B
:10243200E0937300031728F4E0917400EF70E06CEE
:1024420006C0689423F8E0917400EF70E068E093AE
:10245200740022C0E03C11F0E83C99F4E091740071
:10246200EF70E06CE0937400E0918308F0918408CF
:10247200309731F0A1E0E0918308F091840809954A
:1024820009C0E03049F423E0E0917400EF70E06DA0
:10249200E0937400689424F81093890700938807E6
:1024A20020938A0730937C080E94A2162696E9910F
:1024B200EFBFF991E991B991A99199918991799196
:1024C2006991F990199009901895FFE0FA95F1F742
:1024D2000895A4B3AF70A4BBA99AA898F6DFAA9AEC
:1024E200F4DFA3B3AA98F1DFAA9AEFDFAA98A7FDB7
:1024F200F5CF0895A07FAB2BA5BBAA9A0E946612C6
:10250200AA980E9466120895AA93A998A4B3A76FE5
:10251200A4BBB5B3BF70A881EDDFA881A295EADFA5
:10252200A99A0C945B13AA9A0E946612E3B3AA9822
:102532000E946612E07F08950E946612F4DFAE2FB9
:10254200F2DFA998E295EA2B0895AA930E946A12F3
:10255200E881F0E0EB57F74FE081A981AE0F0E94CE
:102562008512E981E0938908E881E0938A0822963E
:1025720008950E946A12A2E00E9485120E946A12C5
:10258200ACE00E9485120E946A12A1E00E948512AC
:10259200E0E0E0938A08E09389080895AA93EF9314
:1025A200FF93A8816894AA3039F0E894E0918B08EF
:1025B200A0918908AE1758F0E0918A08EF5FE09386
:1025C2008A08E0E0EA93A0918A08BFDF56F0E09122
:1025D2008908EF5FE09389087CDFA89AA8810E94AE
:1025E2008512FF91EF910C945B13BA93AA931A93FD
:1025F200A981BA81ED91A983BA831E2FE03019F027
:10260200A12FCCDFF5CF10C0BA93AA931A93E98118
:10261200FA813196E983FA833197E4911E2FE030F3
:1026220019F0A12FBBDFF3CF188123960895AA27B3
:10263200BB271197F1F70895AA93A998A4B3A76F9E
:10264200A4BBB5B3BF70A8810E947B12A99A32C005
:10265200AA93AA98A898E881E0938B08E058E0939F
:102662008708E881E054E09388080E94E9140E94F8
:10267200E9140E94E914DBDFA0E2DEDFD8DFA8E282
:102682000E94EE14A4E00E94EE14A5E80E94EE144B
:10269200A4B3AF70A4BBA99A0E949D12E53011F0B9
:1026A200E0E008C00E946A12A6E00E9485120E9421
:1026B200BA12E1E021960895AA93BA93EA93FA93A3
:1026C200EFB7EA930895A0916B08B0916C08089552
:1026D200ED91FD913196FE93EE930895E0E0E09343
:1026E2006B08E0936C080895A0916908B0916A089C
:1026F2000895E0E0E0936908E0936A080895A091E4
:10270200C907B091CA070895E093CB07F093CC07AD
:102712000895E093CD07F093CE070895E091D20794
:10272200F091D30708950E94F612E0E0EA93A1E047
:102732000C94A612F0E0FA93EA93A7EDB7E00E9498
:102742008010A7EDB7E00C94F612A091B107B091FA
:10275200B2070895A4E6B0E00E9484166E0F7F1FB0
:102762000895AAE0B0E00E948416E60FF71F0895CC
:10277200EE0FFF1FEA0FFB1F0895F801A3E0B0E080
:102782000E9484160895DF01AA0FBB1FA95DB74FEF
:102792000E94971608950E949716A0915A08B09128
:1027A2005B08EA0FFB1FDB01ED93FC930895E0E069
:1027B200EA93A1E00C94A612E4E6F0E0A5DFE4E6D9
:1027C200F0E0A7DF0E94BA12E0919C07F0919D070A
:1027D200309708950E94F612E0916908F0916A0814
:1027E200FA93EA93DE0112960E948010DE010C94A5
:1027F200F6120E94F612E0916B08F0916C08FA93BF
:10280200EA93DE0112960E948010DE010C94F61209
:10281200AAEFB0E00E944315E0919C07F0919D075A
:102822000E947716F0E0E0939C07F0939D070895CD
:10283200DE0116960E948010DE0114960895E12FA3
:10284200A6E4B8E0F0E0EE0FFF1FAE0FBF1F0E943C
:1028520097160895E12FAEE4B8E0F0E0EE0FFF1F07
:10286200AE0FBF1F0E9497160895E050F240FA93F0
:10287200EA93A1E4B8E00C948010A0E00E94A612B2
:10288200A1E4B8E00C94F612E657F140FA93EA9309
:10289200A1E4B8E00C948010E12FF0E0EA5AF74F7F
:1028A200E081F0E0FA93EA93A1E4B8E00C9480109E
:1028B200A1E00E94A612A1E4B8E00C94F612E09105
:1028C2001D08F0911E08662777270E94B315DF01C5
:1028D200CB01EDECFCEC60E572E40E94E115089599
:1028E200E4E6F0E011DFE4E6F0E013CFE0E0E093AD
:1028F200CB07E093CC07E4E6F0E00BCFE4E6F0E0B0
:1029020003DFE0E0E093CD07E093CE070895DF9880
:10291200DD9A0E94BA124BCF0E94F612E09169082A
:10292200F0916A08FA93EA93A0EAB7E00E94801055
:10293200A0EAB7E00C94F6120E94F612E0916B083E
:10294200F0916C08FA93EA93A0EAB7E00E94801033
:10295200A0EAB7E00C94F612DF9ADD980E94BA1250
:1029620026CFE0936D08F0936E080895E4E6F0E058
:10297200FA93EA930895E0E0F0E0FA93EA93A0E094
:102982000895E6E4F0E0FA93EA930895E0E5F0E0D2
:10299200FA93EA930895EAE5F0E0FA93EA93089548
:1029A200D998DB98A8EEB3E00E944315A2CEDF9837
:1029B200DD980E94BA12FBCE0E94F612A8EEB3E096
:1029C2000E9443150E94BA12E1E0F0E06F010895FF
:1029D2000E941813A0E30C941D130E9485120C94FC
:1029E2001813C398C598BB9ABD9815C0BD98BB98DB
:1029F200EE270000B59B0895B39B089504D0BD9ABD
:102A020002D0BB9AE1E06BE107C0BD9ABB9A03D04A
:102A1200BB98F9DFBD9865E36A95F1F7089578E010
:102A2200BB98F1DFB39BFECFEEDF8894B599089493
:102A3200BB9AF1DFEE1F7A9599F77A2F772311F47B
:102A4200BD9801C0BD9ADFDFBB98E5DFBB9ADBDF33
:102A5200BD98D9CF78E0AA0F10F4BD9801C0BD9AF5
:102A6200DADFBB98D0DFB39BFECFCDDFBB9A7A957E
:102A720091F7BD98C8DFBB98CEDFE1E0B599EE27AC
:102A8200BB9AC1CF109639F080EA9FE00197F1F727
:102A9200A8951197C9F70895552342F4503811F4B7
:102AA200E0FF04C03196691F791F6BF050E8572789
:102AB20011F45F9373C05F3F31F0660F000C5795BE
:102AC2006795752F08955F9300200AF073C06CC05C
:102AD20050E8192E1522880F991F9527550F8795B3
:102AE20050E8072E0522660F771F7527550F679549
:102AF2000895689401C0E8945F93F2DF703818F08B
:102B02007F3F08F44BC056E1571BAAF45195583049
:102B12000EF4593030F0EFEFFFEF6FEF7FE777F908
:102B22001AC077275523B9F0EE0FFF1F661F771FD4
:102B32005A95D1F710C07727583028F0EF2FF62F8B
:102B4200672F5850F9CF552331F076956795F79551
:102B5200E7955A95D1F700200AF49BD05F9108952A
:102B6200689401C0E894309760407040B1F000244E
:102B720026F0772312F400948CD0172E7EE11120D8
:102B820032F07A95EE0FFF1F661F111CF9CFEF2F5F
:102B9200F62F612D5F938ADF5F910895EE27FF275D
:102BA200662777275F910895EFEFFFEF6FE77FEFDB
:102BB2005F910895EFEFFFEF6FE77FE75F91089571
:102BC2005F9386DF703821F411200AF4EDCFF2CF43
:102BD200903809F4E3CF01240894970B1BF4D4F343
:102BE2000020F3CF792F1F932F933F934F931124FC
:102BF2001127222733274427552790E2AE17BF0714
:102C02008607410730F0AE1BBF0B860B410B0894C1
:102C120001C08894551F221F331F111CAA1FBB1FFE
:102C2200881F441F9A9551F7F901612D4F913F91E9
:102C32002F911F91662332F0550FEE1FFF1F661F63
:102C42007A9543F229DF5F91089599239AF07723C9
:102C520042F0971748F029F4AE17BF07860720F015
:102C620031F098948894089598940894089518944B
:102C7200889408957723C2F7971798F3A9F7EA176C
:102C8200FB07680788F399F3ECCFF195E195F040E3
:102C92000895F09560957095E195FF4F6F4F7F4FC6
:102CA2000895EE230E2EFD0121F0F695E7950A9484
:102CB200E1F70895EE0FFF1FEE0FFF1FEE0FFF1F4C
:102CC200EE0FFF1F0895F695E795F695E795F695B1
:102CD200E795F695E79508956F2F660F660B762FA9
:102CE2000895AE17E1E008F0EE270895EF2BE1E03A
:102CF20009F0E0E00895FA9FF02DEB9FF00DEA9FB6
:102D0200E02DF10D089504D0F6DF0EF4BEDF089534
:102D1200E894F7FF02C0B9DF6894B7FF06C0A09538
:102D2200B095119600F8039400FA0895ED91FC9184
:102D3200119708955A934A933A932A931A930A93AE
:102D420008955D814C813B812A8119810881089512
:00000001FF
