:040000000C948602D4
:100004000C9400000C9400000C9400000C9400006C
:100014000C94E4020C9400000C94F4020C94000080
:100024000C9400000C9439040C9400000C9400000F
:100034000C9400000C949D0A0C9400000C9463032F
:100044000C9400000C9400000C9400000C9400002C
:100054000C94B6020C9400000C9400000C94000064
:100064000C94E5050C9425060C9400000C940000F7
:100074000C9400000C9400000C9400000C940000FC
:100084000C943E0B0C9400001027E80364000A0053
:100094000100001000011000010001000100AA008D
:1000A40000000000000013000A00444154410050C5
:1000B4004F534954494F4E2D534552564F004C45CA
:1000C40046543A2031004C4546543A2030002052E0
:1000D400494748543A2031002052494748543A206D
:1000E40030004D4C4546543A2031004D4C45465461
:1000F4003A2030004D52494748543A31004D524954
:100104004748543A30002020202020454E434F4495
:10011400455220203E3E003C3C202020454E434F8B
:1001240044455220202020004C3A0020523A00201E
:1001340020202020524543485453202020200020D2
:10014400202020204C494E4B532020202000464C98
:100154004546543A203100464C4546543A20300036
:100164004652494748543A31004652494748543A5E
:1001740030004C4546543A0052494748543A004EE0
:100184006F204F626A65637421004F626A656B7405
:1001940020676566756E64656E004B65696E204FF9
:1001A400626A656B740020204C494E4544455445B1
:1001B40043544F522020002020202020454E474900
:1001C4004E45202020200020202020205354454547
:1001D40052494E4720202020002044495354414E88
:1001E400434553454E534F52200020204C49474825
:1001F400542053454E534F522020002020202020CD
:100204005749492043414D202020002020202049E7
:100214005220544F574552202020200020202020D7
:1002240020534552564F2020202000202020554C9A
:10023400545241534F4E4943202000202020202077
:10024400464F522020202020202000202020202043
:10025400204241434B202020202020200020202029
:100264002020204C454654202020202020002020FF
:1002740020202052494748542020202020002020BC
:100284002020203930B04C45465420202020200026
:10029400202020203930B0524947485420202020C3
:1002A40000202020205350494E20202020002020D0
:1002B40020203173742053544154452020202000C1
:1002C40020202020326E64205354415445202020A5
:1002D40020002020202033726420535441544520B0
:1002E40020202000202020426C75654D61746963D4
:1002F40073002020202020526F626279004F4B004F
:10030400427566666572206F766572666C6F7700FB
:100314004172626974726174696F6E206C6F737478
:1003240000427573206572726F72004E41434B2018
:100334007265636569766564004275732074696DDE
:10034400656F7574004661696C00556E6B6E6F77EE
:100354006E206572726F720001002D4E414E00498D
:100364004E460000070080C0010002009E000A0003
:100374000400A0000100B307AA0005000005AE00B8
:100384000F000505B30008001405C20008001C0591
:10039400CA000A002405D2000A002E05DC00090068
:1003A4003805E60009004105EF0009004A05F80098
:1003B40009005305010111005C050A0111006D05D6
:1003C4001B0103007E052C01040081052F01100090
:1003D400850533010F00950543010300A4052C0195
:1003E4000400A7052F010800AB05C2000800B305EF
:1003F400CA000A00BB05D2000A00C505DC000900DA
:10040400CF0552010900D8055B010900E10564012B
:100414000900EA056D010600F30576010700F905F8
:100424007C01030000062C01040003062F010300D5
:1004340007062C0104000A062F0103000E062C01F6
:10044400040011062F01030015062C0104001806F0
:100454002F0103001C062C0104001F062F010300BA
:1004640023062C01040026062F0103002A062C0172
:1004740004002D062F0111003106AA0110004206C6
:10048400BB0112005206CB0111006406DD0111000C
:100494007506EE0110008606FF01110096060F0294
:1004A4000F00A70620021000B6062F021000C60691
:1004B4003F021200D6064F021100E8066102100046
:1004C400F906720212000907820211001B07940246
:1004D4000D002C07A50212003907B20212004B07C7
:1004E400C40212005D07D6020E006F07E8020B007B
:1004F4007D07F60201006F085C0301008A076803A8
:1005040002007F086A030000F894EE27ECBBF1E0D8
:10051400F5BFE5BFE0936C008DE0A2E0BB27ED934F
:100524008A95E9F780E090E1A0E0B1E0ED930197CE
:10053400E9F7ECE6F3E085919591009761F0A591D8
:10054400B59105901590BF01F00105900D920197AA
:10055400E1F7FB01F0CF8BBFEFEFEDBFE0E1EEBFC2
:10056400C0E0D5E00C94CF0A8A93AA93BA93EA9395
:10057400FA93EFB7EA93E0916808ACE5B8E0F0E0ED
:10058400EE0FFF1FAE0FBF1FE4B1F5B1ED93FC9367
:10059400A0916808AF5FA0936808A63018F0E0E067
:1005A400E0936808E0916808E05CE7B985E38A9520
:1005B400F1F7369AE991EFBFF991E991B991A991CF
:1005C400899118950E94B80D0E94BF0DA032EEE4E7
:1005D400BE072CF4ABE6B8E00E94C40D02C00E9432
:1005E400CA0D2AC30E94B80D0E94D00DA032EEE4B9
:1005F400BE072CF4A9E6B8E00E94C40D02C00E9414
:10060400D50D1AC3EAE8EABBE2E0E7BBE1EAE1BBE5
:10061400E0E2E2B9E0936100A0E10E94840DE0E42D
:10062400E7B9EFECE6B9E0E0E0BDE0E8E8B9E0E026
:10063400E0936A00E1E1EABFE0E5E9BFE0E0E8BF9A
:10064400E0BFE6E0E3BFE3E8E2BFE0E0E1BFE1E012
:10065400EFBDEAE0EEBDE0E0EDBDECBDE7BDE6BD1B
:10066400EBBDEABDE9BDE8BDE0937900E093780015
:10067400E4E0E5BDE0E0E4BDE3BDE0938B00EBEC3A
:10068400E0938A00E0E0E0938900E0938800E0933F
:100694008100E0938000E1E6E0938700E8EAE093DC
:1006A4008600E0E0E0938500E0938400E09383001B
:1006B400E0938200E5E4E7BFE0E3E0937D00789413
:1006C40008950E94B80DEEEFE2BFA091CF07AF5F8F
:1006D400A093CF07A434A0F0E091D307E07421F4F1
:1006E400E091D307E07209F406C00E94DB0DE093A9
:1006F400D007F093D107E0E0E093D207E093D3076B
:10070400A0E020FCA1E0E0E0CA99E1E0B0E0F0E084
:10071400E7FDFFEFEA17FB0759F1E1E02E26A09170
:10072400CF07AB3028F4E0E0E093D207E093D3079F
:100734000E94DB0D309721F0A091CF07AD32C0F0BD
:10074400E091D307E07441F40E94DB0DEE0FFF1F2C
:10075400E093D207F093D30720FC07C00E94DB0D7F
:10076400E160E093D207F093D307E0E0E093CF0792
:1007740063C2BA93AA931A930A93F8940091D00788
:100784001091D107E0E0E093D007E093D10778948B
:10079400002E012A09F1D801EBE00E94A310E170B8
:1007A400AE81BF81EC93D801E6E00E94A310EF7103
:1007B400AC81BD81EC93E02FEF73AE2FF801E0958F
:1007C400F0950E94B7100E94B510E074EA2BAA813C
:1007D400BB81EC93F80102C0E0E0F0E019810881EC
:1007E400289608950E94150DA0E0B5E00E94E00D42
:1007F400A091D407A05D0E942A0DA0E20E942A0DB8
:10080400E091D5070E94E70DA0E20E942A0DE09135
:10081400D6070E94E70D0895E4EDF7E0FA93EA9312
:10082400E5EDF7E0FA93EA93A6EDB7E0A2DF30979F
:10083400E9F0E091D607F0E0309719F4E3E1F0E055
:100844000DC0E130A0E0FA0719F4EFE0F0E006C0D3
:10085400E230A0E0FA0751F4E0E1F0E0E093B307FE
:10086400F093B407A4E6B0E00E94B40F0895EA93AD
:10087400FA93EFB7EA9397988614970429F4E5E07E
:10088400F0E0E415F50539F44301E1E0F0E02F016F
:1008940064BC979A05C0F20131962F01E0E0E4BDF3
:1008A400E991EFBFF991E99118952A970E94150DE6
:1008B400A5E0B5E00E94E00D7A926A92ABE8B7E059
:1008C4000E94DB0AABE8B7E00E94510D31C20E94DE
:1008D400F20D549741F4ECEDF0E06E167F061CF433
:1008E400F30135963F010E94F20D559741F4E8E774
:1008F400F0E0E615F7051CF4F30135973F010E947B
:10090400F20D109719F4E3E1F0E005C0E091B107AE
:10091400F091B2073197E093B307F093B4070895C9
:10092400009903C0E1E0F0E002C0E0E0F0E0E09311
:10093400B507F093B607029903C0E1E0F0E002C006
:10094400E0E0F0E0E093B707F093B807049903C040
:10095400E1E0F0E002C0E0E0F0E0E093B907F093FA
:10096400BA07069903C0E1E0F0E002C0E0E0F0E07D
:10097400E093BB07F093BC07E091B507F091B6078D
:10098400A8EEB3E00E94D510BF01E091B707F09143
:10099400B8070E94F70DE091B907F091BA070E94D9
:1009A400FE0DA091BB07B091BC07EA0FFB1FE093BB
:1009B400C507F093C607B09903C0E1E0F0E002C0B8
:1009C400E0E0F0E0E093BD07F093BE07B29903C006
:1009D400E1E0F0E002C0E0E0F0E0E093BF07F09374
:1009E400C007B49903C0E1E0F0E002C0E0E0F0E049
:1009F400E093C107F093C207B69903C0E1E0F0E0C9
:100A040002C0E0E0F0E0E093C307F093C407E09194
:100A1400BD07F091BE07A8EEB3E00E94D510BF0158
:100A2400E091BF07F091C0070E94F70DE091C10764
:100A3400F091C2070E94FE0DA091C307B091C407B4
:100A4400EA0FFB1FE093C707F093C8070895E0E39C
:100A5400EA93A1E019D0E0E3EA93A8E015D0E6E038
:100A6400EA93A0E911D0E8E0EA93A0EC0DD0EAE122
:100A7400EA93A0E409D0E3E3EA93A3E305D0A4E670
:100A8400B0E00E94B40F0895AA930E94680FA0EBEF
:100A94000E949C0FA9810E949C0FA8810E949C0F18
:100AA4000E94770FAAE0B0E00E94B40F2296089546
:100AB4001A9310E00E94680FA0EB0E949C0FA6E31B
:100AC4000E949C0F0E94770FA1E0B0E00E94B40F37
:100AD4000E94680FA1EB0E949C0F10E01F3090F45D
:100AE400E12FA1E2B8E0F0E00E94050EFF93EF933E
:100AF400A1E00E94810FAF91BF91F0E0ED93FC93D0
:100B04001F5FECCFA0E00E94810FAFE3B8E0F0E0FC
:100B1400ED93FC930E94770FD3C11A930A9300E0DC
:100B240010E000E010E00430E0E01E070CF048C0E4
:100B34000E940A0E0E94100EE073F0700E94AC1026
:100B4400E0935A08F0935B08F801A6E4B8E00E9429
:100B5400050EBF010E940A0EDF01AA0FBB1FAD5D87
:100B6400B74F0E94180E0E940A0E0E94100EE07CDD
:100B7400F0700E94B010E0935A08F0935B08F801FB
:100B8400AEE4B8E00E94050EBF010E940A0EDF0128
:100B9400AA0FBB1FAB5DB74F0E94180EF801EA5AAB
:100BA400F74FBF010E940A0EDF01AA0FBB1FA95D08
:100BB400B74FEC91EF70DB01EC930F5F1F4FB3CF96
:100BC4000991199108950E94B80DE0918000E09375
:100BD4001F08E0918100E09320080F9B0EC0E09174
:100BE4001F08F0912008E0931908F0931A08E09187
:100BF4008A00EF7BE0938A001FC0E0911F08F09108
:100C04002008E0931B08F0931C08E0918A00E0643C
:100C1400E0938A00A0911908B0911A08E0911B088A
:100C2400F0911C08EA1BFB0B0E94B010E0931D0816
:100C3400F0931E08689422F8E991EFBFF991E991C5
:100C4400B991A99118958A93EA93EFB7C19A85E36C
:100C54008A95F1F7C198EFBFE991899118950E949F
:100C6400150D009903C0A4E1B5E002C0ACE1B5E004
:100C74000E94510D069903C0A4E2B5E002C0AEE2A1
:100C8400B5E00E94510D0E94240E029903C0A8E30E
:100C9400B5E002C0A1E4B5E00E94510D049903C07F
:100CA400AAE4B5E002C0A3E5B5E00E94510D0895A1
:100CB40061970E94290E39F4ACE5B5E00E94510D0C
:100CC400DF98DD9806C0ADE6B5E00E94510DDF9ACD
:100CD400DD9A0E94240EAEE7B5E00E943B0EA1E827
:100CE400B5E00E944A0ECE9902C00E94590E619648
:100CF40008952A970E94290E39F4A5E8B5E00E94C8
:100D0400510DDF98DD9A06C0A5E9B5E00E94510DAA
:100D1400DF9ADD980E94240EA4EAB5E00E943B0EFF
:100D2400A7EAB5E00E944A0ECE9902C00E94590E6D
:100D34002A9608950E94150DB09903C0ABEAB5E058
:100D440002C0A3EBB5E00E94510DB69903C0ABEB12
:100D5400B5E002C0A5ECB5E00E94510D0E94240E3E
:100D6400B29903C0AFECB5E002C0A8EDB5E00E94B3
:100D7400510DB49903C0A1EEB5E002C0AAEEB5E0EE
:100D84000E94510D08952A970E94EE10E091620886
:100D9400F09163088F01E0915E08F0915F089F0174
:100DA4000E94150DA3EFB5E00E94510D3A932A93CA
:100DB4000E94690E0E94E00DA9EFB5E00E94510D5A
:100DC4001A930A930E94690E0E94510D0E94F51015
:100DD4002E9608951A9310E06BDE9FDE0E94150D87
:100DE40010E0143008F063C0123070F50E94700EE9
:100DF400EF3FA3E0FA0731F00E947B0EEF3FA3E040
:100E0400FA0729F40E94860E0E948C0E1CC00E94D0
:100E1400700E0E94960E0E94860E0E949E0E0E94E4
:100E24007B0E0E94A20EA4E11A02F001E85F0E9468
:100E3400AA0E0E94AF0EA4E11A02F001E05F0E9424
:100E4400AA0E0E94BB0E31C00E94700EEF3FA3E0B9
:100E5400FA0731F00E947B0EEF3FA3E0FA0729F472
:100E64000E94C20E0E948C0E20C00E94700E0E942E
:100E7400960E0E94C20E0E949E0E0E947B0E0E943D
:100E8400A20EE12FE250A4E1EA02F001E85F0E9421
:100E9400CA0E0E94AF0EE12FE250A4E1EA02F00173
:100EA400E05F0E94CA0E0E94BB0E1F5F9ACFAEE1A4
:100EB400B0E00E94B40FC39B02C0C39801C0C39AA0
:100EC400199108958FDC08950E94150DEEDCA8ECAD
:100ED400ACC222FE29C00E94240EA0911D08B0912C
:100EE4001E08A137E7E1BE07B8F40E94150DAEE86D
:100EF400B1E00E94600D0E94240E0E94CF0E0E9459
:100F0400ED0FFA93EA93A8E0B8E00E94DB0AA8E0A8
:100F1400B8E00E94510D06C00E94150DAEE9B1E083
:100F24000E94600DE89422F808950E94E00E0AC021
:100F34000E94E00EDF9ADD9A08950E94EB0E02C033
:100F44000E94F70EDF98DD9808950E94D50D0E9447
:100F5400CA0D0E94EB0E0E94030FA0E0B6E00E94AF
:100F6400080FA3E0B6E00E94180F0E94BF0D51972E
:100F740084F308950E94D50D0E94CA0D0E94F70EB5
:100F84000E94280FA7E0B6E00E94080FAAE0B6E08E
:100F94000E94180F0E94D00D519784F308950E9467
:100FA400D50D0E94CA0D0E94E00E0E94280FAEE0EB
:100FB400B6E00E94080FA1E1B6E00E94180F0E945B
:100FC400D00DA034E0E0BE0734F40E94BF0DA0347D
:100FD400E0E0BE070CF001C0E6CF08950E94D50DF5
:100FE4000E94CA0D0E94EB0E0E94280FA5E1B6E0F4
:100FF4000E94080FA8E1B6E00E94180F0E94D00DCD
:10100400519784F30E942D0F0E94CA0D0E94E00E96
:101014000E94340FACE1B6E00E94080FAFE1B6E0E5
:101024000E94180F0E94D00DA436E0E0BE0734F4ED
:101034000E94BF0DA436E0E0BE070CF001C0E6CF6D
:101044000E942D0F0E94CA0D0E94F70E0E94030FEA
:10105400A3E2B6E00E94080FA6E2B6E00E94180FD1
:101064000E94BF0D519784F30E942D0F0E94CA0D58
:101074000E94E00E0E94340FAAE2B6E00E94080F1C
:10108400ADE2B6E00E94180F0E94D00DA436E0E055
:10109400BE0734F40E94BF0DA436E0E0BE070CF096
:1010A40001C0E6CF0895BA93AA93EE81FF81E0933D
:1010B400CB07F093CC07EC81FD81E093CD07F0934F
:1010C400CE07EA81E03011F4DF9801C0DF9AE881AD
:1010D400E03011F4DD9801C0DD9A28960895E0917E
:1010E4006D08F0916E08309729F40E94390FE4E6F8
:1010F400F0E05EC0E130A0E0FA0739F40E94390F55
:101104000E943E0F0E94430F5AC0E230A0E0FA074B
:1011140039F40E943E0F0E94390F0E94430F4FC0C2
:10112400E330A0E0FA0729F40E943E0FE4E6F0E081
:101134003FC0E430A0E0FA0729F40E94390FE6E446
:10114400F0E036C0E530A0E0FA0739F40E94390F28
:101154000E943E0F0E94430F32C0E630A0E0FA071F
:1011640039F40E943E0F0E94390F0E94430F27C09A
:10117400E730A0E0FA0749F4E2E3F0E0FA93EA93F7
:101184000E94390F0E94430F1AC0E830A0E0FA070A
:1011940039F40E94390F0E943E0F0E94430F0FC082
:1011A400E930A0E0FA0769F4E0E5F0E0FA93EA93A5
:1011B400FA93EA93E0E0F0E0FA93EA93A0E0B0E077
:1011C40072DF0895E0E0E093CB07E093CC07E0936F
:1011D400CD07E093CE07E091B307F091B4073097C1
:1011E40059F40C2C0D2831F40E94150DA1E3B6E03E
:1011F4000E94490F34DD18C1E130A0E0FA0759F428
:101204000C2C0D2831F40E94150DA2E4B6E00E94C6
:10121400490F4EDD09C1E230A0E0FA0759F40C2C65
:101224000D2831F40E94150DA2E5B6E00E94490F85
:1012340060DDFAC0E330A0E0FA0759F40C2C0D2865
:1012440031F40E94150DA4E6B6E00E94490F72DD48
:10125400EBC0E430A0E0FA0759F40C2C0D2831F46B
:101264000E94150DA5E7B6E00E94490F8CDDDCC095
:10127400E530A0E0FA0759F40C2C0D2831F40E9453
:10128400150DA6E8B6E00E94490FA4DDCDC0E630F6
:10129400A0E0FA0759F40C2C0D2831F40E94150D26
:1012A400A6E9B6E00E94490F0DDEBEC0E730A0E01B
:1012B400FA0759F40C2C0D2831F40E94150DA7EAF5
:1012C400B6E00E94490F00DEAFC0E830A0E0FA07A4
:1012D40059F40C2C0D2831F40E94150DA6EBB6E040
:1012E4000E94490FF6DDA0C0E930A0E0FA0759F4E6
:1012F4000C2C0D2831F40E94150DA6ECB6E00E94CA
:10130400490F13DE91C0EA30A0E0FA0759F40C2C1F
:101314000D2831F40E94150DA6EDB6E00E94490F88
:1013240007DE82C0EB30A0E0FA0759F40C2C0D283C
:1013340031F40E94150DA8EEB6E00E94490FFDDDC0
:1013440073C0EC30A0E0FA0759F40C2C0D2831F4EA
:101354000E94150DA9EFB6E00E94490FF1DD64C0AB
:10136400ED30A0E0FA0759F40C2C0D2831F40E945A
:10137400150DA9E0B7E00E94490FFCDD55C0EE3021
:10138400A0E0FA0759F40C2C0D2831F40E94150D35
:10139400ABE1B7E00E94490FD8DD46C0EF30A0E0D2
:1013A400FA0759F40C2C0D2831F40E94150DACE207
:1013B400B7E00E94490FF3DD37C0E031A0E0FA073F
:1013C40059F40C2C0D2831F40E94150DA9E3B7E053
:1013D4000E94490F03DE28C0E131A0E0FA0759F466
:1013E4000C2C0D2831F40E94150DABE4B7E00E94DB
:1013F400490F75DE19C0E231A0E0FA0759F40C2C4C
:101404000D2831F40E94150DADE5B7E00E94490F97
:1014140066DE0AC00E94150DAFE6B7E00E94E00D3B
:10142400ADE7B7E00E94510DA2E3B0E00E94B40F13
:101434000895AA93E0918A07E03019F4689421F89A
:1014440005C0E89421F8E0E00C94B60DE881E030A2
:1014540019F0E0E00C94B60DA0918907EFE00E942A
:10146400C3100C94B60DAA93E881E03009F040C093
:10147400E091C507E093F907E091C707E093FA0705
:10148400E0915E08F0915F08E093FB07F093FC079E
:10149400E0916208F0916308E093FD07F093FE0782
:1014A400E0916908F0916A08E093FF07F09300085F
:1014B400E0916B08F0916C08E0930108F093020846
:1014C400E0919E07E0930308E091D607E0930408B7
:1014D400609205080E94CF0EA6E0B8E00E94EB0FD0
:1014E400EC93E091E807E0930708EFE00C94B60D65
:1014F40021FE07C0E091F807F0E0E093B107F09314
:10150400B207E0E00C94B60DE0E0EA93E0E5EA937C
:10151400EAEEF7E0FA93EA93EFE0EA93E9EFF7E013
:10152400FA93EA93EBE1FAE0FA93EA93A5E3BAE0DB
:101534000E94090B08950E94B80DECE9ECBDA9ECDA
:10154400B7E00E94C40D0E94550FA030E1E0BE0731
:101554002CF0E0E0E093C907E093CA07E091CB07E1
:10156400F091CC070E94550FAE17BF0714F0DB981B
:1015740001C0DB9AE091CD07F091CE070E94550F90
:10158400AE17BF0714F0D99801C0D99AE991EFBFFB
:10159400F991E991B991A99118950E9404030E94C7
:1015A400630F55DAB1DF0EDE92D936D9B9D9FBCF44
:1015B400FFCFBA93AA93A991B991E991F991309681
:1015C4002AF4E095F09531966DE26D93E89480E10C
:1015D40097E20DD088EE93E00AD084E6992707D0ED
:1015E4008AE005D06E2F10D066276C930895662785
:1015F400E817F90720F06395E81BF90BC9F7662390
:1016040011F416F008956894605D6D930895BA938B
:10161400AA93689424F8E7E0E0938A07EF81F885B9
:10162400E0937708F0937808EE81E0937A08EC81F0
:10163400FD81E0937408F0937508EA81FB81E093DF
:101644007B08F0937C08E881F981E0937D08F093AE
:101654007E08919A909AEA85E03011F0E1E002C0A8
:10166400E985EE0FE0937200E0917400E078E564A0
:10167400E09374002B9608950A921A92FA926A9350
:101684007A938A939A93AA93BA93EA93FA93EFB7C5
:10169400EA930E94EC101091890700918807309119
:1016A400760820918A07E12FA0917708B0917808F5
:1016B400F0E0EA0FFB1FAF01E0917100E87FE83032
:1016C40011F420E002C0E03119F4E091730810C075
:1016D400E83111F0E83249F5031798F4E02F0F5F71
:1016E400A0917408B0917508F0E0AE0FBF1FEC91A3
:1016F400E0937300E0917400EF70E068E09374008D
:1017040013C0E09179081E1770F4E0917308E1604A
:10171400E0937308E89423F8E0917400EF70E06AB2
:10172400E093740013C138C011C1E03531F4E09185
:101734007300DA01EC931F5F02C0E03489F4E09196
:101744007908E1501E1728F0E0917400EF70E0680A
:1017540004C0E0917400EF70E06CE0937400F6C094
:10176400E83531F4E0917300DA01EC931F5F02C0B5
:10177400E03209F402C0E03309F402C0E83469F449
:10178400203051F423FE03C0031728F005C0E09174
:1017940079081E1708F424E0D1C0E83331F422E0BC
:1017A400E0917400EF70E068CDC0E83611F0E837DE
:1017B40011F422E005C0E03611F0E037A9F420E08E
:1017C40010E0E89423F8E0917A08E03031F421E065
:1017D400E0917400EF70E06804C0E0917400EF7071
:1017E400E06CE0937400B2C0E03811F0E03941F5E8
:1017F40023FE02C021E0A2C0E0917300DA01EC9361
:101804001F5FE0917A081E17C0F4E0917B08F09105
:101814007C08309711F426E091C0A0E0E0917B08A9
:10182400F0917C080995E03039F0E0917400EF7094
:10183400E06CE09374008AC002C0689423F802C08C
:10184400E83809F402C0E83939F4E0917400EF7023
:10185400E068E09374007AC0E03AB9F4E09174006F
:10186400EF70E06CE0937400689424F8E0917B08D6
:10187400F0917C08309739F0A1E0E0917B08F09179
:101884007C08099501C026E061C0E03B11F422E028
:1018940002C0E83AB9F4E0917D08F0917E083097EF
:1018A40059F0A0E0E0917D08F0917E0809953E2F63
:1018B400E03011F020E002C026E040C000E0E894EF
:1018C40023F802C0E83B01F523FE02C021E036C044
:1018D400E02F0F5FA0917408B0917508F0E0AE0F8F
:1018E400BF1FEC91E0937300031728F4E091740098
:1018F400EF70E06C06C0689423F8E0917400EF7018
:10190400E068E093740022C0E03C11F0E83C99F4F4
:10191400E0917400EF70E06CE0937400E0917D0856
:10192400F0917E08309731F0A1E0E0917D08F091CC
:101934007E08099509C0E03049F423E0E091740081
:10194400EF70E06DE0937400689424F810938907B5
:101954000093880720938A07309376080E94F31037
:101964002696E991EFBFF991E991B991A9919991DD
:10197400899179916991F990199009901895FFE0EE
:10198400FA95F1F70895A4B3AF70A4BBA99AA898E7
:10199400F6DFAA9AF4DFA3B3AA98F1DFAA9AEFDFDD
:1019A400AA98A7FDF5CF0895A07FAB2BA5BBAA9A53
:1019B4000E94C10CAA980E94C10C0895AA93A998E8
:1019C400A4B3A76FA4BBB5B3BF70A881EDDFA88192
:1019D400A295EADFA99A0C94B60DAA9A0E94C10CAA
:1019E400E3B3AA980E94C10CE07F08950E94C10C41
:1019F400F4DFAE2FF2DFA998E295EA2B0895AA93BB
:101A04000E94C50CE881F0E0E158F74FE081A9811C
:101A1400AE0F0E94E00CE981E0938308E881E09333
:101A24008408229608950E94C50CA2E00E94E00C4E
:101A34000E94C50CACE00E94E00C0E94C50CA1E021
:101A44000E94E00CE0E0E0938408E09383080895AA
:101A5400AA93EF93FF93A8816894AA3039F0E8948D
:101A6400E0918508A0918308AE1758F0E0918408AE
:101A7400EF5FE0938408E0E0EA93A0918408BFDF7D
:101A840056F0E0918308EF5FE09383087CDFA89A27
:101A9400A8810E94E00CFF91EF910C94B60DBA93CB
:101AA400AA931A93A981BA81ED91A983BA831E2FAF
:101AB400E03019F0A12FCCDFF5CF10C0BA93AA9370
:101AC4001A93E981FA813196E983FA833197E49193
:101AD4001E2FE03019F0A12FBBDFF3CF188123961E
:101AE4000895AA27BB271197F1F70895AA93A998F7
:101AF400A4B3A76FA4BBB5B3BF70A8810E94D60CD2
:101B0400A99A32C0AA93AA98A898E881E093850874
:101B1400E058E0938108E881E054E09382080E9451
:101B24005A0F0E945A0F0E945A0FDBDFA0E2DEDF39
:101B3400D8DFA8E20E945F0FA4E00E945F0FA5E82F
:101B44000E945F0FA4B3AF70A4BBA99A0E94F80CC3
:101B5400E53011F0E0E008C00E94C50CA6E00E9448
:101B6400E00C0E94150DE1E021960895AA93BA9322
:101B7400EA93FA93EFB7EA930895A0916B08B091B2
:101B84006C080895ED91FD913196FE93EE930895BE
:101B9400E0E0E0936B08E0936C080895A091690875
:101BA400B0916A080895E0E0E0936908E0936A0858
:101BB4000895E091D207F091D30708950E94510D42
:101BC400E0E0EA93A1E00C94010DF0E0FA93EA93CB
:101BD400A7EDB7E00E94DB0AA7EDB7E00C94510D26
:101BE400A091B107B091B2070895A4E6B0E00E94B5
:101BF400D5106E0F7F1F0895AAE0B0E00E94D510A3
:101C0400E60FF71F0895EE0FFF1FEA0FFB1F08955D
:101C1400F801A3E0B0E00E94D5100895DF01AA0FF7
:101C2400BB1FA95DB74F0E94E81008950E94E810F9
:101C3400A0915A08B0915B08EA0FFB1FDB01ED93FA
:101C4400FC930895E0E0EA93A1E00C94010DE4E62E
:101C5400F0E0E093CB07F093CC07E093CD07F0934B
:101C6400CE070E94150DE0919C07F0919D073097D7
:101C740008950E94510DE0916908F0916A08FA9361
:101C8400EA93DE0112960E94DB0ADE010C94510DE8
:101C94000E94510DE0916B08F0916C08FA93EA935D
:101CA400DE0112960E94DB0ADE010C94510DAAEFAC
:101CB400B0E00E94B40FE0919C07F0919D070E9450
:101CC400C810F0E0E0939C07F0939D070895DE01AF
:101CD40016960E94DB0ADE0114960895E12FA6E40D
:101CE400B8E0F0E0EE0FFF1FAE0FBF1F0E94E81038
:101CF4000895E12FAEE4B8E0F0E0EE0FFF1FAE0F61
:101D0400BF1F0E94E8100895A4E11A020A92A0E0FD
:101D14000C94010DA3E8B1E00E94600DE0E0E093B3
:101D24009E07E0939F070895E050F240FA93EA93E8
:101D3400A1E4B8E00C94DB0AA1E4B8E00C94510DE2
:101D4400E657F140FA93EA93A1E4B8E00C94DB0A75
:101D5400EA93A0E00E94010DEFCFE12FF0E0EA5AF0
:101D6400F74FE081F0E0FA93EA93A1E4B8E00C9431
:101D7400DB0AE1E0F0E0E0939E07F0939F0708950B
:101D8400E12FE250A4E1EA020A92A1E00C94010DD1
:101D9400EA93A1E00E94010DCFCFE0911D08F091DC
:101DA4001E08662777270E942410DF01CB01EDEC83
:101DB400FCEC60E572E40E9452100895E4E6F0E061
:101DC400E093CB07F093CC07E093CD07F093CE07D5
:101DD4000895E0E0E093CB07E093CC07E4E6F0E07D
:101DE400E093CD07F093CE070895E4E6F0E0E093A6
:101DF400CB07F093CC07E0E0E093CD07E093CE0768
:101E04000895DF98DD9A0E94150D1CCF0E94510D94
:101E1400E0916908F0916A08FA93EA93A0EAB7E0BE
:101E24000E94DB0AA0EAB7E00C94510D0E94510D08
:101E3400E0916B08F0916C08FA93EA93A0EAB7E09A
:101E44000E94DB0AA0EAB7E00C94510DDF9ADD98FA
:101E54000E94150DF7CED998DB98A8EEB3E00E9446
:101E6400B40FA1CEDF98DD980E94150DEBCEE4E609
:101E7400F0E0FA93EA930895E6E4F0E0FA93EA9343
:101E84000895E1E0F0E0FA93EA93A1E008950E9456
:101E9400510DA8EEB3E00E94B40F0E94150DE1E0CD
:101EA400F0E06F010895A091C907B091CA070895A1
:101EB4000E94730DA0E30C94780D0E94E00C0C9426
:101EC400730DC398C598BB9ABD9815C0BD98BB98AF
:101ED400EE270000B59B0895B39B089504D0BD9AE6
:101EE40002D0BB9AE1E06BE107C0BD9ABB9A03D074
:101EF400BB98F9DFBD9865E36A95F1F7089578E03A
:101F0400BB98F1DFB39BFECFEEDF8894B5990894BC
:101F1400BB9AF1DFEE1F7A9599F77A2F772311F4A4
:101F2400BD9801C0BD9ADFDFBB98E5DFBB9ADBDF5C
:101F3400BD98D9CF78E0AA0F10F4BD9801C0BD9A1E
:101F4400DADFBB98D0DFB39BFECFCDDFBB9A7A95A7
:101F540091F7BD98C8DFBB98CEDFE1E0B599EE27D5
:101F6400BB9AC1CF109639F080EA9FE00197F1F750
:101F7400A8951197C9F70895552342F4503811F4E0
:101F8400E0FF04C03196691F791F6BF050E85727B2
:101F940011F45F9373C05F3F31F0660F000C5795E7
:101FA4006795752F08955F9300200AF073C06CC085
:101FB40050E8192E1522880F991F9527550F8795DC
:101FC40050E8072E0522660F771F7527550F679572
:101FD4000895689401C0E8945F93F2DF703818F0B4
:101FE4007F3F08F44BC056E1571BAAF45195583073
:101FF4000EF4593030F0EFEFFFEF6FEF7FE777F932
:102004001AC077275523B9F0EE0FFF1F661F771FFD
:102014005A95D1F710C07727583028F0EF2FF62FB4
:10202400672F5850F9CF552331F076956795F7957A
:10203400E7955A95D1F700200AF47BD05F91089573
:10204400689401C0E894309760407040B1F0002477
:1020540026F0772312F400946CD0172E7EE1112021
:1020640032F07A95EE0FFF1F661F111CF9CFEF2F88
:10207400F62F612D5F938ADF5F910895EE27FF2786
:10208400662777275F910895EFEFFFEF6FE77FEF04
:102094005F910895EFEFFFEF6FE77FE75F9108959A
:1020A4005F9386DF703821F411200AF4EDCFF2CF6C
:1020B400903809F4E3CF01240894970B1BF4D4F36C
:1020C4000020F3CF792F1F932F933F934F93112425
:1020D4001127222733274427552790E2AE17BF073D
:1020E4008607410730F0AE1BBF0B860B410B0894EB
:1020F40001C08894551F221F331F111CAA1FBB1F28
:10210400881F441F9A9551F7F901612D4F913F9112
:102114002F911F91662332F0550FEE1FFF1F661F8C
:102124007A9543F229DF5F910895F195E195F040A6
:102134000895F09560957095E195FF4F6F4F7F4F2F
:102144000895EE230E2EFD0121F0F695E7950A94ED
:10215400E1F70895EE0FFF1FEE0FFF1FEE0FFF1FB5
:10216400EE0FFF1F0895F695E795F695E795F6951A
:10217400E795F695E79508956F2F660F660B762F12
:102184000895AE17E1E008F0EE270895EF2BE1E0A3
:1021940009F0E0E00895FA9FF02DEB9FF00DEA9F1F
:1021A400E02DF10D089504D0F6DF0EF4BEDF08959E
:1021B400E894F7FF02C0B9DF6894B7FF06C0A095A2
:1021C400B095119600F8039400FA0895ED91FC91EE
:1021D400119708955A934A933A932A931A930A9318
:1021E40008955D814C813B812A811981088108957C
:00000001FF
