:060000000C94F3010C94C6
:1000060000000C9400000C9400000C9400000C946A
:1000160051020C9400000C9461020C9400000C94A4
:1000260000000C9400050C9400000C9400000C9445
:1000360000000C94D1020C9400000C94D8030C948C
:1000460000000C9400000C9400000C9400000C942A
:1000560023020C9400000C9400000C9400000C94F5
:10006600B4060C94F4060C9400000C9400000C9456
:1000760000000C9400000C9400000C9400000C94FA
:100086003F1A0C9400001027E80364000A000100E0
:10009600001000011000010001000100AA0000008C
:1000A600000000001B000A004441544100504F5319
:1000B6004954494F4E2D534552564F004C454654D0
:1000C6003A2031004C4546543A20300020524947E8
:1000D60048543A2031002052494748543A203000CB
:1000E6004D4C4546543A2031004D4C4546543A2035
:1000F60030004D52494748543A31004D524947481D
:10010600543A30002020202020454E434F4445528B
:1001160020203E3E003C3C202020454E434F444597
:100126005220202020004C3A0020523A0020202065
:1001360020205245434854532020202000202020D0
:1001460020204C494E4B532020202000464C45464B
:10015600543A203100464C4546543A203000465227
:10016600494748543A31004652494748543A3000C4
:100176004C4546543A0052494748543A004F626A41
:10018600656B7420676566756E64656E004B6569A0
:100196006E204F626A656B74006E6F7468696E6775
:1001A60000616C6C004C2073746174650062756745
:1001B600006D6F746800464F4C4C4F5700534D41CD
:1001C600525450484F4E4520204F4E4C5900202047
:1001D60020426C75654D6174696373002020202090
:1001E60020526F626279004F4B00427566666572F7
:1001F600206F766572666C6F770041726269747201
:100206006174696F6E206C6F73740042757320653C
:1002160072726F72004E41434B2072656365697658
:100226006564004275732074696D656F7574004668
:1002360061696C00556E6B6E6F776E206572726FBA
:10024600720001002D4E414E00494E460000070047
:1002560080C0010002009E000A000400A000010008
:10026600C506AA0001000007AC0005000005AE00A7
:100276000F000505B30008001405C20008001C05A0
:10028600CA000A002405D2000A002E05DC00090077
:100296003805E60009004105EF0009004A05F800A7
:1002A60009005305010111005C050A0111006D05E5
:1002B6001B0103007E052C01040081052F0110009F
:1002C600850533010F00950543010300A4052C01A4
:1002D6000400A7052F010800AB05C2000800B305FE
:1002E600CA000A00BB05D2000A00C505DC000900E9
:1002F600CF0552010900D8055B010900E10564013B
:100306000900EA056D010600F30576010700F90507
:100316007C01030000062C01040003062F010300E4
:1003260007062C0104000A062F0108000E069F018D
:1003360004001606A70103001A062C0104001D0678
:100346002F0108002106AB01030029062C01040039
:100356002C062F01030030062C01040033062F0162
:10036600030037062C0104003A062F0103003E065F
:100376002C01040041062F01030045062C01040050
:1003860048062F0103004C062C0104004F062F01DE
:10039600030053062C01040056062F0104005A06DA
:1003A600B30102005E062A0105006006B7010200DD
:1003B60065062A0107006706BC0111006E06C30127
:1003C6000E007F06D4010B008D06E20101009C079A
:1003D600480201009A0654020200AC0756020000C9
:1003E600F894EE27ECBBF1E0F5BFE5BFE0936C00B7
:1003F6008DE0A2E0BB27ED938A95E9F780E090E1D6
:10040600A0E0B1E0ED930197E9F7E8E5F2E0859128
:100416009591009761F0A591B59105901590BF0152
:10042600F00105900D920197E1F7FB01F0CF8BBF2C
:10043600EFEFEDBFE0E1EEBFC0E0D5E00C94CA19E6
:100446008A93AA93BA93EA93FA93EFB7EA93E09161
:100456008707ABE7B7E0F0E0EE0FFF1FAE0FBF1F59
:10046600E4B1F5B1ED93FC93A0918707AF5FA0933C
:100476008707A63018F0E0E0E0938707E09187074A
:10048600E05CE7B985E38A95F1F7369AE991EFBF23
:10049600F991E991B991A991899118950E94B91C90
:1004A6000E94C01CA032EEE4BE072CF4AAE8B7E016
:1004B6000E94C51C02C00E94CB1C8CC40E94B91CA1
:1004C6000E94D11CA032EEE4BE072CF4A8E8B7E0E7
:1004D6000E94C51C02C00E94D61C7CC4EAE8EABB86
:1004E600E2E0E7BBE1EAE1BBE4E0E2B9E0E2E093A7
:1004F6006100A0E10E94851CE0E4E7B9EFECE6B9F3
:10050600E0E0E0BDE0E8E8B9E0E0E0936A00E1E1C0
:10051600EABFE0E5E9BFE0E0E8BFE0BFE6E0E3BF51
:10052600E3E8E2BFE0E0E1BFE1E0EFBDEAE0EEBD17
:10053600E0E0EDBDECBDE7BDE6BDEBBDEABDE9BD66
:10054600E8BDE0937900E0937800E4E0E5BDE0E003
:10055600E4BDE3BDE0938B00EBECE0938A00E0E0C2
:10056600E0938900E0938800E0938100E0938000A7
:10057600E1E6E0938700E8EAE0938600E0E0E093B6
:100586008500E0938400E0938300E0938200E5E435
:10059600E7BFE0E3E0937D00789408950A92AA937A
:1005A600BA93EA93FA93EFB7EA93ECE9ECBDABEDB5
:1005B600B6E00E94C51C0E94DC1CA536E0E0BE0722
:1005C6002CF0E0E0E093DB06E093DC06E091DD064C
:1005D600F091DE060E94DC1CAE17BF0714F0DB9814
:1005E60001C0DB9AE091DF06F091E0060E94DC1C78
:1005F600AE17BF0714F0D99801C0D99AA0919407F5
:10060600B0919507A037E7E1BE072CF4A4E9B7E05F
:100616000E94C51C1BC0A0919607B0919707A83CE5
:10062600E0E0BE0714F4D2970CF405C0A6E9B7E0E3
:100636000E94C51C06C0E2E3F0E0E0939607F09343
:100646009707E0E0E0939407E0939507A091E3060F
:10065600B091E4060E9459223CF0A091E506B091C3
:10066600E6060E9459220CF5A091E106B091E20639
:10067600A83CE0E0BE072CF4A1EEB6E00E94C51C43
:1006860013C0A3EEB6E0ED91FD913197FE93EE9384
:10069600A5EEB6E0ED91FD913197FE93EE93E0E085
:1006A600E093E106E093E2060DC0E0E0E093E306A6
:1006B600E093E406E093E506E093E606E093E106C0
:1006C600E093E206E991EFBFF991E991B991A99119
:1006D60009901895BA93AA930E94E11C0E94EA1CFD
:1006E6002CF40E94E11C0E94F21C0CF41BC00E9418
:1006F600FA1C0E94EA1C2CF40E94FA1C0E94F21CAE
:100706000CF410C00E94031DDF01E881F981EA178D
:10071600FB0740F40E940C1DDF01E881F981EA170E
:10072600FB0708F019C00E94031D66277727E09390
:100736008C07F0938D0760938E0770938F070E9446
:100746000C1D66277727E0939007F0939107609337
:1007560092077093930711C0E0E0E0938C07E09353
:100766008D07E0938E07E0938F07E0939007E09361
:100776009107E0939207E093930765C2BA93AA9311
:10078600EE81FF810E94151DEC81FD810E941A1DDC
:10079600EA81E03011F4DF9801C0DF9AE881E030A9
:1007A60011F4DD9801C0DD9A8FC00E94B91CEEEFEE
:1007B600E2BFA091E706AF5FA093E706A434A0F0DE
:1007C600E091EB06E07421F4E091EB06E07209F4A7
:1007D60006C00E941F1DE093E806F093E906E0E0DC
:1007E600E093EA06E093EB06A0E020FCA1E0E0E05F
:1007F600CA99E1E0B0E0F0E0E7FDFFEFEA17FB079A
:1008060059F1E1E02E26A091E706AB3028F4E0E0AE
:10081600E093EA06E093EB060E941F1D309721F055
:10082600A091E706AD32C0F0E091EB06E07441F42A
:100836000E941F1DEE0FFF1FE093EA06F093EB06E2
:1008460020FC07C00E941F1DE160E093EA06F093BA
:10085600EB06E0E0E093E706BDC2BA93AA931A93CB
:100866000A93F8940091E8061091E906E0E0E09317
:10087600E806E093E9067894002E012A09F1D801EA
:10088600EBE00E94F121E170AE81BF81EC93D801CB
:10089600E6E00E94F121EF71AC81BD81EC93E02F7F
:1008A600EF73AE2FF801E095F0950E9405220E94A5
:1008B6000322E074EA2BAA81BB81EC93F80102C003
:1008C600E0E0F0E019810881289608950E94161C40
:1008D600A0E0B5E00E94241DA091EC06A05D0E9458
:1008E6002B1CA0E20E942B1CE091ED060E942B1D02
:1008F600A0E20E942B1CE091EE060E942B1D08959B
:10090600ECEEF6E0FA93EA93EDEEF6E0FA93EA936C
:10091600AEEEB6E0A2DF309779F0E091EE06F0E0B9
:10092600309751F4EBE1F0E0E093C306F093C40690
:10093600A4E6B0E00E94E220A091EE06A13021F4E8
:10094600EDE0F0E00E94361DA091EE06A23021F403
:10095600EEE0F0E00E94361DA091EE06A33021F4F1
:10096600EFE0F0E00E94361DA091EE06A43021F4DF
:10097600E0E1F0E00E94361DA091EE06A53021F4DC
:10098600E1E1F0E00E94361DA091EE06A63021F4CA
:10099600E2E1F0E00E94361DA091EE06A73021F4B8
:1009A600E3E1F0E00E94361DA091EE06A83021F4A6
:1009B600E4E1F0E00E94361DA091EE06A23121F49A
:1009C600ECE0F0E00E94361DA091EE06A33121F482
:1009D600EBE0F0E00E94361DA091EE06A63121F470
:1009E600E9E0F0E00E94361DA091EE06A73121F461
:1009F600EAE0F0E00E94361D0895EA93FA93EFB715
:100A0600EA9397988614970429F4E4E6F0E0E4154F
:100A1600F50539F44301E1E0F0E02F0164BC979A53
:100A260005C0F20132962F01E0E0E4BDE991EFBF87
:100A3600F991E99118952A970E94161CA5E0B5E050
:100A46000E94241DF301EA5AF040FA93EA93ABE9B7
:100A5600B6E00E94DC19ABE9B6E00E94521C36C231
:100A6600A091C506B091C606589741F4ECEDF0E0AA
:100A76006E167F061CF4F30131963F01A091C50660
:100A8600B091C606599741F4E8E7F0E0E615F70598
:100A96001CF4F30131973F010895A091C306B0916C
:100AA600C406109719F4EBE1F0E005C0E091C30627
:100AB600F091C4063197E093C506F093C6060895F3
:100AC600009903C0E1E0F0E002C0E0E0F0E0E0936E
:100AD600C706F093C806029903C0E1E0F0E002C041
:100AE600E0E0F0E0E093C906F093CA06049903C07B
:100AF600E1E0F0E002C0E0E0F0E0E093CB06F09346
:100B0600CC06069903C0E1E0F0E002C0E0E0F0E0C8
:100B1600E093CD06F093CE06E091C706F091C806A5
:100B2600A8EEB3E00E942F22BF01E091C906F09122
:100B3600CA060E943B1DE091CB06F091CC060E94AE
:100B4600421DA091CD06B091CE06EA0FFB1FE093A1
:100B5600D706F093D806B09903C0E1E0F0E002C0F2
:100B6600E0E0F0E0E093CF06F093D006B29903C040
:100B7600E1E0F0E002C0E0E0F0E0E093D106F093BF
:100B8600D206B49903C0E1E0F0E002C0E0E0F0E094
:100B9600E093D306F093D406B69903C0E1E0F0E003
:100BA60002C0E0E0F0E0E093D506F093D606E091CF
:100BB600CF06F091D006A8EEB3E00E942F22BF0127
:100BC600E091D106F091D2060E943B1DE091D3063A
:100BD600F091D4060E94421DA091D506B091D6068A
:100BE600EA0FFB1FE093D906F093DA060895E0E3D7
:100BF600EA93A1E016D0E0E3EA93A8E012D0E6E09B
:100C0600EA93A0E90ED0E8E0EA93A0EC0AD0EAE184
:100C1600EA93A0E406D0E3E3EA93A3E302D0A4E6D2
:100C260022C2AA930E949620A0EB0E94CA20A98104
:100C36000E94CA20A8810E94CA200E94A520AAE07C
:100C4600B0E00E94E220229608951A9310E00E94D6
:100C56009620A0EB0E94CA20A6E30E94CA200E940A
:100C6600A520A1E0B0E00E94E2200E949620A1EB20
:100C76000E94CA2010E01F3090F4E12FA0E4B7E0F4
:100C8600F0E00E94491DFF93EF93A1E00E94AF2080
:100C9600AF91BF91F0E0ED93FC931F5FECCFA0E026
:100CA6000E94AF20AEE5B7E0F0E0ED93FC930E9422
:100CB600A520199108951A930A9300E010E000E028
:100CC60010E00430E0E01E070CF048C00E944E1D04
:100CD6000E94541DE073F0700E94FA21E093790798
:100CE600F0937A07F801A5E6B7E00E94491DBF0117
:100CF6000E944E1DDF01AA0FBB1FAE5BB84F0E94BC
:100D06005C1D0E944E1D0E94541DE07CF0700E94E6
:100D1600FE21E0937907F0937A07F801ADE6B7E094
:100D26000E94491DBF010E944E1DDF01AA0FBB1F75
:100D3600AC5BB84F0E945C1DF801EB58F84FBF0141
:100D46000E944E1DDF01AA0FBB1FAA5BB84FEC9194
:100D5600EF70DB01EC930F5F1F4FB3CF0991199131
:100D660008950E94B91CE0918000E0933E07E0914F
:100D76008100E0933F070F9B0EC0E0913E07F09184
:100D86003F07E0933807F0933907E0918A00EF7B3D
:100D9600E0938A001FC0E0913E07F0913F07E09381
:100DA6003A07F0933B07E0918A00E064E0938A00FB
:100DB600A0913807B0913907E0913A07F0913B07C7
:100DC600EA1BFB0B0E94FE21E0933C07F0933D07D4
:100DD600689422F8E991EFBFF991E991B991A99147
:100DE60018958A93EA93EFB7C19A85E38A95F1F746
:100DF600C198EFBFE991899118950E94161C009938
:100E060003C0A4E1B5E002C0ACE1B5E00E94521C0B
:100E1600069903C0A4E2B5E002C0AEE2B5E00E94C6
:100E2600521C0E94681D029903C0A8E3B5E002C0E7
:100E3600A1E4B5E00E94521C049903C0AAE4B5E0FF
:100E460002C0A3E5B5E00E94521C089561970E9476
:100E56006D1D39F4ACE5B5E00E94521CDF98DD98B3
:100E660006C0ADE6B5E00E94521CDF9ADD9A0E94EC
:100E7600681DAEE7B5E00E947B1DA1E8B5E00E94C3
:100E86008A1DCE9902C00E94991D619608952A97DF
:100E96000E946D1D39F4A5E8B5E00E94521CDF984A
:100EA600DD9A06C0A5E9B5E00E94521CDF9ADD98DE
:100EB6000E94681DA4EAB5E00E947B1DA7EAB5E082
:100EC6000E948A1DCE9902C00E94991D2A960895F5
:100ED6000E94161CB09903C0ABEAB5E002C0A3EBB2
:100EE600B5E00E94521CB69903C0ABEBB5E002C058
:100EF600A5ECB5E00E94521C0E94681DB29903C081
:100F0600AFECB5E002C0A8EDB5E00E94521CB49962
:100F160003C0A1EEB5E002C0AAEEB5E00E94521CE5
:100F260008952A970E945F22E0918107F091820737
:100F36008F01E0917D07F0917E079F010E94161CAC
:100F4600A3EFB5E00E94521C3A932A930E94A91D72
:100F56000E94241DA9EFB5E00E94521C1A930A9321
:100F66000E94A91D0E94521C0E9466222E96089578
:100F76000E945F2210E069DE9EDE10E0143008F069
:100F86005FC0143058F50E94B01DEF3FA3E0FA078A
:100F960031F00E94BB1DEF3FA3E0FA0709F41DC024
:100FA6000E94B01D0E94C61DA4E11A020A920E9468
:100FB600CE1D0E94BB1D0E94D51DA4E11A02F001A0
:100FC600E85FEA930E94CE1D0E94DD1DA4E11A028D
:100FD600F001E05FEA930E94CE1D30C00E94B01D72
:100FE600EF3FA3E0FA0731F00E94BB1DEF3FA3E0FD
:100FF600FA0709F423C00E94B01D0E94C61DE12F06
:10100600E250A4E1EA020A920E94E91D0E94BB1D79
:101016000E94D51DE12FE250A4E1EA02F001E85F4B
:10102600EA930E94E91D0E94DD1DE12FE250A4E132
:10103600EA02F001E05FEA930E94E91D1F5F9ECF7E
:10104600AEE1B0E00E94E220C39B02C0C39801C09B
:10105600C39A0E9466222496089538DC08950E9459
:10106600161CE9DCA8ECB0E00E94E220089522FEFE
:1010760029C00E94681DA0913C07B0913D07A13789
:10108600E7E1BE07B8F40E94161CA3E8B1E00E948F
:10109600611C0E94681D0E94F01D0E941B21FA938C
:1010A600EA93A7E2B7E00E94DC19A7E2B7E00E9444
:1010B600521C06C00E94161CA3E9B1E00E94611CE6
:1010C600E89422F808950E94011E0E94081E0E94BC
:1010D6000D1E31F00E94131E0E94131E0E94181E40
:1010E6000E94201EAE17BF0734F40E94131E0E94F2
:1010F600221E0E94181E0E94201EEA17FB0734F4C7
:101106000E94221E0E94131E0E94181E08950E940D
:10111600011E0E94271E31F00E94131E0E94131EFC
:101126000E94291E0E94201EAE17BF0734F40E949B
:10113600131E0E94221E0E94291E0E94201EEA17CC
:10114600FB0734F40E94221E0E94131E0E94291ED1
:1011560008950E94131E0E94131E0E94311EA0E0D5
:1011660007C00E94131E0E94131E0E94361EA1E095
:10117600B0E004DB08950E94D61C0E94CB1CE0E080
:10118600E093DD06E093DE06E4E6F0E00E941A1D39
:10119600DF98DD9A0E943B1EA0E0B6E00E943E1E4C
:1011A600A3E0B6E00E944B1E0E94C01C51973CF380
:1011B60008950E94D61C0E94CB1CE4E6F0E00E9433
:1011C600151DE0E0E093DF06E093E006DF9ADD9888
:1011D6000E943B1EA7E0B6E00E943E1EAAE0B6E0D3
:1011E6000E944B1E0E94D11C51973CF30895CC9B44
:1011F6000AC0CE9B08C0B09B06C0B69B04C0B29B7B
:1012060002C0B49901C005C0E0E0E0939807E093FE
:101216009907CC9B0AC0CE9B08C0B09B06C0B69B64
:1012260004C0B29B02C0B49B01C002C00E945B1EF8
:10123600CC9B0AC0CE9B08C0B09B06C0B69B04C020
:10124600B29902C0B49901C002C00E94621ECC9B32
:101256000AC0CE9B08C0B09B06C0B69904C0B29B1C
:1012660002C0B49901C002C00E94691ECC9B0AC08C
:10127600CE9B08C0B09906C0B69B04C0B29B02C004
:10128600B49901C002C00E94701ECC9B0AC0CE99C0
:1012960008C0B09B06C0B69B04C0B29B02C0B499FE
:1012A60001C002C00E94771ECC990AC0CE9B08C01E
:1012B600B09B06C0B69B04C0B29B02C0B49901C0E5
:1012C60002C00E947E1ECC9B0AC0CE9B08C0B09B6B
:1012D60006C0B69B04C0B29902C0B49B01C002C04E
:1012E6000E94851ECC9B0AC0CE9B08C0B09B06C040
:1012F600B69904C0B29902C0B49901C002C00E9456
:101306008C1ECC9B0AC0CE9B08C0B09906C0B6996D
:1013160004C0B29B02C0B49901C002C00E94931ED1
:10132600CC9B0AC0CE9908C0B09906C0B69B04C033
:10133600B29B02C0B49901C002C00E949A1ECC9909
:101346000AC0CE9908C0B09B06C0B69B04C0B29B2B
:1013560002C0B49901C002C00E94A11ECC9B0AC063
:10136600CE9B08C0B09B06C0B69904C0B29902C015
:10137600B49B01C002C00E94A81ECC9B0AC0CE9B93
:1013860008C0B09906C0B69904C0B29902C0B49913
:1013960001C002C00E94AF1ECC9B0AC0CE9908C0F5
:1013A600B09906C0B69904C0B29B02C0B49901C0F8
:1013B60002C00E94B61ECC990AC0CE9908C0B09948
:1013C60006C0B69B04C0B29B02C0B49901C002C05D
:1013D6000E94BD1ECC9B0AC0CE9B08C0B09906C019
:1013E600B69904C0B29902C0B49B01C002C00E9463
:1013F600C41ECC9B0AC0CE9908C0B09906C0B69947
:1014060004C0B29902C0B49901C002C00E94CB1EAA
:10141600CC990AC0CE9908C0B09906C0B69904C046
:10142600B29B02C0B49901C002C00E94D21ECC9BDE
:101436000AC0CE9908C0B09906C0B69904C0B29940
:1014460002C0B49B01C002C00E94D91ECC990AC03A
:10145600CE9908C0B09906C0B69904C0B29902C028
:10146600B49901C002C00E94E01ECC990AC0CE9970
:1014760008C0B09906C0B69904C0B29902C0B49B20
:1014860001C002C00E94E71ECC9B0AC0CE9B08C0CA
:10149600B09B06C0B69904C0B29B02C0B49B01C003
:1014A60002C00E94EE1ECC9B0AC0CE9B08C0B0991B
:1014B60006C0B69B04C0B29902C0B49901C002C06E
:1014C6000E94F51ECC9B0AC0CE9908C0B09B06C0F0
:1014D600B69904C0B29B02C0B49901C002C00E9472
:1014E600FC1ECC990AC0CE9B08C0B09906C0B69B1C
:1014F60004C0B29B02C0B49901C002C00E94031F7F
:10150600CC9B0AC0CE9B08C0B09906C0B69B04C04F
:10151600B29B02C0B49B01C002C00E940A1FCC9BB2
:101526000AC0CE9908C0B09B06C0B69B04C0B2994B
:1015360002C0B49901C002C00E94111FCC990AC012
:10154600CE9B08C0B09B06C0B69904C0B29B02C031
:10155600B49901C002C00E94181FCC9B0AC0CE9944
:1015660008C0B09B06C0B69B04C0B29B02C0B49B29
:1015760001C002C00E941F1FCC990AC0CE9B08C0A2
:10158600B09B06C0B69B04C0B29902C0B49901C014
:1015960002C00E94261FCC990AC0CE9B08C0B09BF1
:1015A60006C0B69B04C0B29B02C0B49B01C002C079
:1015B6000E942D1FCC990AC0CE9908C0B09906C0CA
:1015C600B69904C0B29B02C0B49B01C002C00E947F
:1015D600341FCC990AC0CE9908C0B09906C0B69BF4
:1015E60004C0B29902C0B49B01C002C00E943B1F56
:1015F600CC990AC0CE9908C0B09B06C0B69904C063
:10160600B29902C0B49B01C002C00E94421FCC998D
:101616000AC0CE9B08C0B09906C0B69904C0B2995C
:1016260002C0B49B01C002C00E94491FCC990AC0E7
:10163600CE9908C0B09906C0B69B04C0B29B02C042
:10164600B49B01C002C00E94501FCC990AC0CE991B
:1016560008C0B09B06C0B69B04C0B29902C0B49B3A
:1016660001C002C00E94571FCC990AC0CE9B08C079
:10167600B09B06C0B69904C0B29902C0B49B01C023
:1016860002C00E945E1FCC990AC0CE9B08C0B099CA
:1016960006C0B69B04C0B29902C0B49901C002C08C
:1016A6000E94651FCC9B0AC0CE9908C0B09B06C09D
:1016B600B69904C0B29B02C0B49B01C002C00E948E
:1016C6006C1FCC990AC0CE9B08C0B09B06C0B699C9
:1016D60004C0B29902C0B49901C002C00E94731F2F
:1016E600CC9B0AC0CE9908C0B09906C0B69B04C070
:1016F600B29B02C0B49B01C002C00E947A1FCC9963
:101706000AC0CE9908C0B09B06C0B69904C0B29B69
:1017160002C0B49B01C002C00E94811FCC990AC0BE
:10172600CE9908C0B09B06C0B69904C0B29902C053
:10173600B49901C002C00E94881FCC990AC0CE9BF2
:1017460008C0B09906C0B69904C0B29B02C0B49B4B
:1017560001C002C00E948F1FCC990AC0CE9B08C050
:10176600B09906C0B69904C0B29902C0B49901C036
:1017760002C00E94961FCC9B0AC0CE9908C0B099A1
:1017860006C0B69904C0B29B02C0B49B01C002C099
:101796000E949D1FCC9B0AC0CE9908C0B09906C076
:1017A600B69B04C0B29902C0B49B01C002C00E949D
:1017B600A41FCC990AC0CE9908C0B09B06C0B69BA0
:1017C60004C0B29902C0B49901C002C00E94AB1F06
:1017D600CC9B0AC0CE9908C0B09906C0B69B04C07F
:1017E600B29B02C0B49B01C002C00E94B21FCC993A
:1017F6000AC0CE9908C0B09B06C0B69B04C0B29979
:1018060002C0B49901C002C00E94B91FCC990AC097
:10181600CE9908C0B09B06C0B69904C0B29B02C060
:10182600B49901C002C00E94C01FCC990AC0CE99CB
:1018360008C0B09906C0B69B04C0B29902C0B4995C
:1018460001C002C00E94C71FCC9B0AC0CE9B08C025
:10185600B09906C0B69904C0B29B02C0B49B01C041
:1018660002C00E94CE1FCC990AC0CE9B08C0B09B76
:1018760006C0B69B04C0B29902C0B49B01C002C0A8
:101886000E94D51FCC990AC0CE9B08C0B09906C04D
:10189600B69B04C0B29902C0B49B01C002C00E94AC
:1018A600DC1FCC9B0AC0CE9B08C0B09906C0B69B75
:1018B60004C0B29902C0B49B01C002C00E94E31FDB
:1018C600CC9B0AC0CE9908C0B09B06C0B69904C08E
:1018D600B29902C0B49B01C002C00E94EA1FCC9B11
:1018E6000AC0CE9908C0B09B06C0B69B04C0B29988
:1018F60002C0B49B01C002C00E94F11FCC990AC06D
:10190600CE9B08C0B09906C0B69904C0B29B02C06F
:10191600B49901C002C00E94F81F0E94F01D0E94E7
:10192600FF1F10F40E9408200895CC9B0AC0CE9B8E
:1019360008C0B09B06C0B69B04C0B29B02C0B49B55
:1019460001C002C00E945B1ECC9B0AC0CE9B08C091
:10195600B09B06C0B69B04C0B29902C0B49901C040
:1019660002C00E94621ECC9B0AC0CE9B08C0B09BE0
:1019760006C0B69904C0B29B02C0B49901C002C0A9
:101986000E94691ECC9B0AC0CE9B08C0B09906C0B7
:10199600B69B04C0B29B02C0B49901C002C00E94AB
:1019A600701ECC9B0AC0CE9908C0B09B06C0B69BE1
:1019B60004C0B29B02C0B49901C002C00E94771E47
:1019C600CC990AC0CE9B08C0B09B06C0B69B04C08B
:1019D600B29B02C0B49901C002C00E947E1ECC9B7D
:1019E6000AC0CE9B08C0B09B06C0B69B04C0B29985
:1019F60002C0B49B01C002C00E94851ECC9B0AC0D7
:101A0600CE9B08C0B09B06C0B69904C0B29902C06E
:101A1600B49901C002C00E948C1ECC9B0AC0CE9B0A
:101A260008C0B09906C0B69904C0B29B02C0B4996A
:101A360001C002C00E94931ECC9B0AC0CE9908C06A
:101A4600B09906C0B69B04C0B29B02C0B49901C04F
:101A560002C00E949A1ECC990AC0CE9908C0B09BBB
:101A660006C0B69B04C0B29B02C0B49901C002C0B6
:101A76000E94A11ECC9B0AC0CE9B08C0B09B06C08C
:101A8600B69904C0B29902C0B49B01C002C00E94BC
:101A9600A81ECC9B0AC0CE9B08C0B09906C0B699BA
:101AA60004C0B29902C0B49901C002C00E94AF1E20
:101AB600CC9B0AC0CE9908C0B09906C0B69904C09E
:101AC600B29B02C0B49901C002C00E94B61ECC9956
:101AD6000AC0CE9908C0B09906C0B69B04C0B29B96
:101AE60002C0B49901C002C00E94BD1ECC9B0AC0B0
:101AF600CE9B08C0B09906C0B69904C0B29902C080
:101B0600B49B01C002C00E94C41ECC9B0AC0CE99E1
:101B160008C0B09906C0B69904C0B29902C0B4997B
:101B260001C002C00E94CB1ECC990AC0CE9908C043
:101B3600B09906C0B69904C0B29B02C0B49901C060
:101B460002C00E94D21ECC9B0AC0CE9908C0B09992
:101B560006C0B69904C0B29902C0B49B01C002C0C7
:101B66000E94D91ECC990AC0CE9908C0B09906C069
:101B7600B69904C0B29902C0B49901C002C00E94CD
:101B8600E01ECC990AC0CE9908C0B09906C0B69995
:101B960004C0B29902C0B49B01C002C00E94E71EF5
:101BA600CC9B0AC0CE9B08C0B09B06C0B69904C0A9
:101BB600B29B02C0B49B01C002C00E94EE1ECC9B29
:101BC6000AC0CE9B08C0B09906C0B69B04C0B299A5
:101BD60002C0B49901C002C00E94F51ECC9B0AC087
:101BE600CE9908C0B09B06C0B69904C0B29B02C08D
:101BF600B49901C002C00E94FC1ECC990AC0CE9BBB
:101C060008C0B09906C0B69B04C0B29B02C0B49986
:101C160001C002C00E94031FCC9B0AC0CE9B08C015
:101C2600B09906C0B69B04C0B29B02C0B49B01C06B
:101C360002C00E940A1FCC9B0AC0CE9908C0B09B66
:101C460006C0B69B04C0B29902C0B49901C002C0D6
:101C56000E94111FCC990AC0CE9B08C0B09B06C03B
:101C6600B69904C0B29B02C0B49901C002C00E94DA
:101C7600181FCC9B0AC0CE9908C0B09B06C0B69B65
:101C860004C0B29B02C0B49B01C002C00E941F1FC9
:101C9600CC990AC0CE9B08C0B09B06C0B69B04C0B8
:101CA600B29902C0B49901C002C00E94261FCC9905
:101CB6000AC0CE9B08C0B09B06C0B69B04C0B29BB0
:101CC60002C0B49B01C002C00E942D1FCC990AC05D
:101CD600CE9908C0B09906C0B69904C0B29B02C09E
:101CE600B49B01C002C00E94341FCC990AC0CE9991
:101CF60008C0B09906C0B69B04C0B29902C0B49B96
:101D060001C002C00E943B1FCC990AC0CE9908C0F0
:101D1600B09B06C0B69904C0B29902C0B49B01C07C
:101D260002C00E94421FCC990AC0CE9B08C0B0993F
:101D360006C0B69904C0B29902C0B49B01C002C0E5
:101D46000E94491FCC990AC0CE9908C0B09906C016
:101D5600B69B04C0B29B02C0B49B01C002C00E94E5
:101D6600501FCC990AC0CE9908C0B09B06C0B69B3E
:101D760004C0B29902C0B49B01C002C00E94571FA2
:101D8600CC990AC0CE9B08C0B09B06C0B69904C0C9
:101D9600B29902C0B49B01C002C00E945E1FCC99DA
:101DA6000AC0CE9B08C0B09906C0B69B04C0B299C3
:101DB60002C0B49901C002C00E94651FCC9B0AC034
:101DC600CE9908C0B09B06C0B69904C0B29B02C0AB
:101DD600B49B01C002C00E946C1FCC990AC0CE9B66
:101DE60008C0B09B06C0B69904C0B29902C0B499A7
:101DF60001C002C00E94731FCC9B0AC0CE9908C0C6
:101E0600B09906C0B69B04C0B29B02C0B49B01C089
:101E160002C00E947A1FCC990AC0CE9908C0B09B16
:101E260006C0B69904C0B29B02C0B49B01C002C0F2
:101E36000E94811FCC990AC0CE9908C0B09B06C0EB
:101E4600B69904C0B29902C0B49901C002C00E94FA
:101E5600881FCC990AC0CE9B08C0B09906C0B69917
:101E660004C0B29B02C0B49B01C002C00E948F1F77
:101E7600CC990AC0CE9B08C0B09906C0B69904C0DA
:101E8600B29902C0B49901C002C00E94961FCC9BB1
:101E96000AC0CE9908C0B09906C0B69904C0B29BD4
:101EA60002C0B49B01C002C00E949D1FCC9B0AC009
:101EB600CE9908C0B09906C0B69B04C0B29902C0BC
:101EC600B49B01C002C00E94A41FCC990AC0CE993F
:101ED60008C0B09B06C0B69B04C0B29902C0B499B4
:101EE60001C002C00E94AB1FCC9B0AC0CE9908C09D
:101EF600B09906C0B69B04C0B29B02C0B49B01C099
:101F060002C00E94B21FCC990AC0CE9908C0B09BED
:101F160006C0B69B04C0B29902C0B49901C002C003
:101F26000E94B91FCC990AC0CE9908C0B09B06C0C2
:101F3600B69904C0B29B02C0B49901C002C00E9407
:101F4600C01FCC990AC0CE9908C0B09906C0B69BEE
:101F560004C0B29902C0B49901C002C00E94C71F52
:101F6600CC9B0AC0CE9B08C0B09906C0B69904C0E7
:101F7600B29B02C0B49B01C002C00E94CE1FCC9986
:101F86000AC0CE9B08C0B09B06C0B69B04C0B299DF
:101F960002C0B49B01C002C00E94D51FCC990AC0E2
:101FA600CE9B08C0B09906C0B69B04C0B29902C0C9
:101FB600B49B01C002C00E94DC1FCC9B0AC0CE9B12
:101FC60008C0B09906C0B69B04C0B29902C0B49BC3
:101FD60001C002C00E94E31FCC9B0AC0CE9908C074
:101FE600B09B06C0B69904C0B29902C0B49B01C0AA
:101FF60002C00E94EA1FCC9B0AC0CE9908C0B09BC3
:1020060006C0B69B04C0B29902C0B49B01C002C010
:102016000E94F11FCC990AC0CE9B08C0B09906C099
:10202600B69904C0B29B02C0B49901C002C00E9416
:10203600F81F0E94F01D0E94FF1F10F40E94082046
:10204600009B06C0029B04C0049B02C0069901C007
:1020560004C0E1E4F0E00E940F20009906C0029956
:1020660004C0049902C0069B01C004C0E2E4F0E08B
:102076000E940F20009906C0029B04C0049B02C068
:10208600069901C004C0E3E4F0E00E940F20009925
:1020960006C0029904C0049B02C0069901C004C090
:1020A600E4E4F0E00E940F20009906C0029904C003
:1020B600049902C0069901C004C0E5E4F0E00E945C
:1020C6000F20009B06C0029B04C0049B02C0069B17
:1020D60001C004C0E6E4F0E00E940F20009B06C0A9
:1020E600029B04C0049902C0069B01C004C0E7E439
:1020F600F0E00E940F20009B06C0029904C00499DC
:1021060002C0069B01C004C0E8E4F0E00E940F2074
:10211600009906C0029B04C0049B02C0069B01C036
:1021260004C0E9E4F0E00E940F20009B06C002997B
:1021360004C0049902C0069901C004C0EAE4F0E0B4
:102146000E940F2008950E94161CE0919A07F091B4
:102156009B07E130A0E0FA0741F40E94131E0E949B
:1021660014200E94311EA1E019C3E230A0E0FA0754
:1021760041F40E9414200E94131E0E94311EA1E009
:102186000DC3E330A0E0FA0729F40E941420E4E628
:10219600F0E0FFC2E430A0E0FA0729F40E94131E23
:1021A600E6E4F0E0F6C2E530A0E0FA0741F40E946A
:1021B600131E0E9414200E94311EA1E0EFC2E630D9
:1021C600A0E0FA0741F40E9414200E94131E0E9408
:1021D600311EA1E0E3C2E730A0E0FA0741F40E9415
:1021E60019200E94131E0E94311EA1E0D7C2E830BA
:1021F600A0E0FA0741F40E94131E0E9414200E94D8
:10220600311EA1E0CBC2E930A0E0FA0729F40E9412
:10221600221EE0E5F0E0BDC2EA30A0E0FA0741F494
:102226000E94131E0E9414200E94311EA1E0B6C215
:10223600EB30A0E0FA0741F40E94131E0E9414201E
:102246000E94311EA1E0AAC2EC30A0E0FA0741F4D8
:102256000E94131E0E9419200E94311EA1E09EC2F8
:10226600ED30A0E0FA0741F40E9419200E94131EE7
:102276000E94311EA1E092C2EE30A0E0FA0741F4BE
:102286000E94131E0E94221E0E94311EA1E086C2D9
:10229600EF30A0E0FA0741F40E94221E0E94131EAE
:1022A6000E94311EA1E07AC2E031A0E0FA0731F4C3
:1022B6000E941E200E94311EA1E070C2E131A0E002
:1022C600FA0731F40E941E200E94311EA1E066C268
:1022D600E231A0E0FA0731F40E941E200E94311E6E
:1022E600A1E05CC2E331A0E0FA0741F40E941420A9
:1022F6000E94221E0E94311EA1E050C2E431A0E0DD
:10230600FA0741F40E9414200E94221E0E94311EE8
:10231600A1E044C2E531A0E0FA0731F40E9423208F
:102326000E942820A1E03AC2E631A0E0FA0741F473
:102336000E94131E0E9414200E94311EA1E02EC28C
:10234600E731A0E0FA0741F40E9414200E94131E10
:102356000E94311EA1E022C2E831A0E0FA0741F452
:102366000E94131E0E9414200E94311EA1E016C274
:10237600E931A0E0FA0741F40E9414200E94131EDE
:102386000E94311EA1E00AC2EA31A0E0FA0741F438
:102396000E94131E0E9414200E94311EA1E0FEC15D
:1023A600EB31A0E0FA0741F40E9414200E94131EAC
:1023B6000E94311EA1E0F2C1EC31A0E0FA0741F41F
:1023C6000E94131E0E9414200E94311EA1E0E6C145
:1023D600ED31A0E0FA0741F40E94131E0E9414207A
:1023E6000E94311EA1E0DAC1EE31A0E0FA0741F405
:1023F6000E9414200E94131E0E94311EA1E0CEC12D
:10240600EF31A0E0FA0741F40E9414200E94131E47
:102416000E94311EA1E0C2C1E032A0E0FA0731F409
:102426000E94131E0E942820A1E0B8C1E132A0E05C
:10243600FA0731F40E942D200E94311EA1E0AEC1A0
:10244600E232A0E0FA0741F40E9414200E94131E13
:102456000E94311EA1E0A2C1E332A0E0FA0731F4E6
:102466000E942D200E94311EA1E098C1E432A0E016
:10247600FA0741F40E94131E0E9414200E94311E86
:10248600A1E08CC1E532A0E0FA0741F40E941420D5
:102496000E94131E0E94311EA1E080C1E632A0E018
:1024A600FA0741F40E94131E0E9414200E94311E56
:1024B600A1E074C1E732A0E0FA0741F40E941420BB
:1024C6000E94131E0E94311EA1E068C1E832A0E0FE
:1024D600FA0741F40E94131E0E9414200E94311E26
:1024E600A1E05CC1E932A0E0FA0741F40E941420A1
:1024F6000E94131E0E94311EA1E050C1EA32A0E0E4
:10250600FA0741F40E9414200E94131E0E94311EF5
:10251600A1E044C1EB32A0E0FA0741F40E94131E89
:102526000E9414200E94311EA1E038C1EC32A0E0C6
:10253600FA0741F40E9432200E94131E0E94311EA7
:10254600A1E02CC1ED32A0E0FA0741F40E94221E60
:102556000E9423200E94311EA1E020C1EE32A0E09D
:10256600FA0741F40E94221E0E9423200E94311E77
:10257600A1E014C1EF32A0E0FA0741F40E94232043
:102586000E94221E0E94311EA1E008C1E033A0E095
:10259600FA0741F40E9423200E94221E0E94311E47
:1025A600A1E0FCC0E133A0E0FA0731F40E94372035
:1025B6000E94311EA1E0F2C0E233A0E0FA0741F426
:1025C6000E94221E0E9414200E94311EA1E0E6C035
:1025D600E333A0E0FA0741F40E94131E0E94232071
:1025E6000E94311EA1E0DAC0E433A0E0FA0741F40C
:1025F6000E94131E0E9414200E94311EA1E0CEC02C
:10260600E533A0E0FA0731F40E9437200E94311E1C
:10261600A1E0C4C0E633A0E0FA0741F40E94221EFE
:102626000E9432200E94311EA1E0B8C0E733A0E02C
:10263600FA0741F40E94221E0E94131E0E94311EB8
:10264600A1E0ACC0E833A0E0FA0741F40E94221EE4
:102656000E94131E0E94311EA1E0A0C0E933A0E033
:10266600FA0741F40E94221E0E94131E0E94311E88
:10267600A1E094C0EA33A0E0FA0741F40E94131ED9
:102686000E94221E0E94311EA1E088C0EB33A0E00A
:10269600FA0731F40E94131E0E942820A1E07EC092
:1026A600EC33A0E0FA0741F40E94221E0E94142097
:1026B6000E94311EA1E072C0E034A0E0FA0741F4A6
:1026C6000E9414200E94131E0E94311EA1E066C0C3
:1026D600E134A0E0FA0779F4E0919607F0919707C4
:1026E600FA93EA93E8ECF0E00E943C20AEE0B6E014
:1026F6000E94521C56C0E234A0E0FA0759F40E9428
:10270600361E0E9432200E94181EA6E1B6E00E94E4
:10271600521C47C0E334A0E0FA0719F4E0E5F0E004
:1027260034C0E434A0E0FA0719F40E943F2031C017
:10273600E534A0E0FA0719F40E943F202AC0E634E7
:10274600A0E0FA0719F4E6E4F0E01FC0E734A0E0E1
:10275600FA0719F4E6E4F0E018C0E834A0E0FA0756
:1027660039F4EBE4F0E0FA93EA93E1E4F0E011C027
:10277600E934A0E0FA0719F40E943F200AC0EA34BF
:10278600A0E0FA0771F4ECE3F0E0FA93EA93ECE3E5
:10279600F0E0FA93EA930E94361EA0E0B0E00E94B1
:1027A600C1030895E0919807F0919907309741F495
:1027B6000E94131E0E94131E0E94361EA0E0E8C14E
:1027C600E130A0E0FA0729F40E94131EE6E4F0E0E7
:1027D600DAC1E230A0E0FA0709F4CFC1E330A0E0A5
:1027E600FA0741F40E9414200E94131E0E94361E0E
:1027F600A0E0CEC1E430A0E0FA0741F40E94131E27
:102806000E9414200E94361EA0E0C2C1E530A0E05E
:10281600FA0729F40E94131EE6E4F0E0B4C1E6309C
:10282600A0E0FA0709F4A9C1E730A0E0FA0719F415
:10283600E2E3F0E0A4C1E830A0E0FA0729F40E9440
:10284600131EE6E4F0E09FC1E930A0E0FA0741F488
:102856000E94221E0E94221E0E94361EA0E098C1DF
:10286600EA30A0E0FA0729F40E94131EE6E4F0E03D
:102876008AC1EB30A0E0FA0729F40E94131EE6E4B1
:10288600F0E081C1EC30A0E0FA0729F40E94131EA3
:10289600E2E3F0E078C1ED30A0E0FA0719F4E2E3F4
:1028A600F0E06DC1EE30A0E0FA0729F40E94131E95
:1028B600E0E5F0E068C1EF30A0E0FA0719F4E0E5E2
:1028C600F0E05DC1E031A0E0FA0719F4EAE5F0E0D6
:1028D60056C1E131A0E0FA0719F4EAE5F0E04FC18C
:1028E600E231A0E0FA0719F4EAE5F0E048C1E33185
:1028F600A0E0FA0729F40E941420E0E5F0E043C1C5
:10290600E431A0E0FA0729F40E941420E0E5F0E0A3
:102916003AC1E531A0E0FA0729F40E942320E5E553
:10292600F0E031C1E631A0E0FA0729F40E94131E57
:10293600E6E4F0E028C1E731A0E0FA0709F41DC19A
:10294600E831A0E0FA0729F40E94131EE6E4F0E05D
:102956001AC1E931A0E0FA0709F40FC1EA31A0E093
:10296600FA0729F40E94131EE6E4F0E00CC1EB31ED
:10297600A0E0FA0709F401C1EC31A0E0FA0729F456
:102986000E94131EE6E4F0E0FEC0ED31A0E0FA0777
:1029960029F40E94131EE6E4F0E0F5C0EE31A0E053
:1029A600FA0709F4EAC0EF31A0E0FA0709F4E5C036
:1029B600E032A0E0FA0729F40E94131EE5E5F0E0F4
:1029C600E2C0E132A0E0FA0719F4E5E5F0E0D7C08D
:1029D600E232A0E0FA0709F4D0C0E332A0E0FA0739
:1029E60019F4E5E5F0E0CBC0E432A0E0FA0729F4FB
:1029F6000E94131EE6E4F0E0C6C0E532A0E0FA0746
:102A060009F4BBC0E632A0E0FA0729F40E94131EBF
:102A1600E6E4F0E0B8C0E732A0E0FA0709F4ADC09A
:102A2600E832A0E0FA0729F40E94131EE6E4F0E07B
:102A3600AAC0E932A0E0FA0709F49FC0EA32A0E092
:102A4600FA0709F49AC0EB32A0E0FA0729F40E94CB
:102A5600131EE6E4F0E097C0EC32A0E0FA0719F4A2
:102A6600E1E4F0E08CC0ED32A0E0FA0729F40E9420
:102A7600221EEAE5F0E087C0EE32A0E0FA0729F46C
:102A86000E94221EEAE5F0E07EC0EF32A0E0FA07DF
:102A960029F40E942320E0E5F0E075C0E033A0E0D1
:102AA600FA0729F40E942320E0E5F0E06CC0E13348
:102AB600A0E0FA0719F4EBE4F0E061C0E233A0E02D
:102AC600FA0729F40E94221EE6E4F0E05CC0E33334
:102AD600A0E0FA0729F40E94131EEAE5F0E053C0CD
:102AE600E433A0E0FA0729F40E94131EE6E4F0E0BE
:102AF6004AC0E533A0E0FA0719F4EBE4F0E03FC082
:102B0600E633A0E0FA0729F40E94221EE1E4F0E091
:102B16003AC0E733A0E0FA0719F4E0E5F0E02FC089
:102B2600E833A0E0FA0719F4E0E5F0E028C0E9335D
:102B3600A0E0FA0719F4E0E5F0E021C0EA33A0E0EE
:102B4600FA0729F40E94131EE0E5F0E01CC0EB33FF
:102B5600A0E0FA0729F40E94131EE5E5F0E013C091
:102B6600EC33A0E0FA0729F40E94221EE6E4F0E026
:102B76000AC0E034A0E0FA0771F4E6E4F0E0FA9364
:102B8600EA93E4E6F0E0FA93EA930E94311EA1E0AC
:102B9600B0E00E94C10308950E94D61C0E94CB1C7F
:102BA600E4E6F0E00E94151DE4E6F0E00E941A1D3E
:102BB600DF9ADD980E943B1EAAE1B6E00E943E1E07
:102BC600ADE1B6E00E944B1E0E94D11CA034E0E0AD
:102BD600BE0734F40E94C01CA034E0E0BE070CF02F
:102BE60001C0DECF0895E4E0F0E0E0938807F093BB
:102BF6008907E5E0F0E0E0938A07F0938B070E94EF
:102C0600161CE0E0EA93A0E00E94021CA1E2B6E0F6
:102C16000E94521C0E94271E21F00E9446200E94FC
:102C26004B200E94201EAE17BF0724F40E941420DA
:102C36000E944B200E94201EEA17FB0734F40E94D4
:102C460046200E9414200E94181E0E94681DA9E2B8
:102C5600B6E00E943E1EACE2B6E00E944B1E0E9409
:102C66004E20C1F60E94361E0E94361E0E94181E75
:102C76000E94D61C0E94CB1C0E945B200E94D61C80
:102C86000E94CB1C0E9419200E9419200E94361E09
:102C96000E945F20A0E3B6E00E943E1EA3E3B6E0DA
:102CA6000E944B1E0E94C01C1D9764F30E94361E94
:102CB6000E94361E0E94181E0E94D61C0E94CB1C23
:102CC6000E945B200E94271E21F00E9446200E943F
:102CD6004B200E94201EAE17BF0724F40E9414202A
:102CE6000E944B200E94201EEA17FB0734F40E9424
:102CF60046200E9414200E94181E0E94681DA7E309
:102D0600B6E00E943E1EAAE3B6E00E944B1E0E9459
:102D16004E20C1F60E94361E0E94361E0E94181EC4
:102D26000E94D61C0E94CB1C0E945B200E94D61CCF
:102D36000E94CB1C0E9419200E9419200E94361E58
:102D46000E945F20AEE3B6E00E943E1EA1E4B6E01C
:102D56000E944B1E0E94C01C5E9764F30E94361EA2
:102D66000E94361E0E94181E0E94D61C0E94CB1C72
:102D76000E945B200E94271E21F00E9446200E948E
:102D86004B200E94201EAE17BF0724F40E94142079
:102D96000E944B200E94201EEA17FB0734F40E9473
:102DA60046200E9414200E94181E0E94681DA5E459
:102DB600B6E00E943E1EA8E4B6E00E944B1E0E94AA
:102DC6004E20C1F60E94361E0E94361E0E94181E14
:102DD6000E94D61C0E94CB1C0E945B200E94D61C1F
:102DE6000E94CB1C0E9419200E9419200E94311EAD
:102DF600A0E0B0E00E94C1030E94681DACE4B6E00A
:102E06000E943E1EAFE4B6E00E944B1E0E94C01C0C
:102E16001D9744F30E94361E0E94361E0E94181EFD
:102E26000E94D61C0E94CB1C0E945B200E94271E7B
:102E360021F00E9446200E944B200E94201EAE17C1
:102E4600BF0724F40E9414200E944B200E94201EDB
:102E5600EA17FB0734F40E9446200E9414200E94C1
:102E6600181E0E94681DA3E5B6E00E943E1EA6E558
:102E7600B6E00E944B1E0E944E20C1F60E94361EEE
:102E86000E94361E0E94181E0E94D61C0E94CB1C51
:102E9600ACEDB5E0EBC10E94FA0884DC08950E940F
:102EA600161CAAE5B6E00E94241D0E9464200E941A
:102EB6006B20AEE5B6E00E9473200E947C200E9443
:102EC60081200E94311EA1E015C00E94161CA0E6BA
:102ED600B6E00E94241D0E9464200E946B20A5E695
:102EE600B6E00E9473200E947C200E9481200E94EE
:102EF600361EA0E0B0E00E94C10308950E94980C1F
:102F060022D908951A9310E00E9428060E945E06B0
:102F16000E94161CA7E6B6E00E94521C10E0123072
:102F260008F03FC01230D8F50E94B01DEF3FA3E075
:102F3600FA0731F00E94BB1DEF3FA3E0FA0709F440
:102F46002EC00E94B01DE050F240EF3FA3E0FA070A
:102F560038F4E4E6F0E0E093E506F093E60606C012
:102F6600E4E6F0E0E093E306F093E4060E94B01D89
:102F7600E050F240E093AE06F093AF06E091000712
:102F8600ADE6B7E0F0E0EE0FFF1FAE0FBF1F0E94E9
:102F96005522E657F140E093B006F093B1061F5F65
:102FA600BECF0E94F01DDF01CB01E0E0F0E060E261
:102FB60072E40E94C52109F008F40CC0E091E30612
:102FC600F091E406FA93EA93E091E506F091E606BD
:102FD6000E943C20AEE1B0E00E94E220C39B02C00A
:102FE600C39801C0C39A199108950E94161CAEE6B3
:102FF600B6E00E94521C0895E0E0E093DD06E093FF
:10300600DE06E093DF06E093E006E091C506F09168
:10301600C606309749F40A2C0B2819F4E1E0F0E0D3
:103026005F010E94000720C1E130A0E0FA0749F4E1
:103036000A2C0B2819F4E1E0F0E05F010E94290751
:1030460013C1E230A0E0FA0749F40A2C0B2819F460
:10305600E1E0F0E05F010E944A0706C1E330A0E02C
:10306600FA0749F40A2C0B2819F4E1E0F0E05F01B5
:103076000E946B07F9C0E430A0E0FA0749F40A2C75
:103086000B2819F4E1E0F0E05F010E949407ECC020
:10309600E530A0E0FA0749F40A2C0B2819F4E1E020
:1030A600F0E05F010E94BB07DFC0E630A0E0FA0750
:1030B60049F40A2C0B2819F4E1E0F0E05F010E94C4
:1030C6003008D2C0E730A0E0FA0749F40A2C0B28F2
:1030D60019F4E1E0F0E05F010E943208C5C0E83073
:1030E600A0E0FA0749F40A2C0B2819F4E1E0F0E015
:1030F6005F010E943A08B8C0E930A0E0FA0749F437
:103106000A2C0B2819F4E1E0F0E05F010E94660842
:10311600ABC0EA30A0E0FA0749F40A2C0B2819F4F0
:10312600E1E0F0E05F010E948A089EC0EB30A0E07B
:10313600FA0749F40A2C0B2819F4E1E0F0E05F01E4
:103146000E94AC0891C0EC30A0E0FA0749F40A2CC2
:103156000B2819F4E1E0F0E05F010E94B40884C096
:10316600E631A0E0FA0749F40A2C0B2819F4E1E04D
:10317600F0E05F010E94DC0877C0E731A0E0FA07C3
:1031860049F40A2C0B2819F4E1E0F0E05F010E94F3
:10319600BE086AC0ED30A0E0FA0741F40A2C0B28FD
:1031A60019F4E1E0F0E05F01F7DC5EC0EE30A0E08C
:1031B600FA0741F40A2C0B2819F4E1E0F0E05F016C
:1031C60012DD52C0EF30A0E0FA0741F40A2C0B28BA
:1031D60019F4E1E0F0E05F015EDE46C0E031A0E018
:1031E600FA0741F40A2C0B2819F4E1E0F0E05F013C
:1031F60056DE3AC0E131A0E0FA0741F40A2C0B286A
:1032060019F4E1E0F0E05F0160DE2EC0E231A0E0FB
:10321600FA0741F40A2C0B2819F4E1E0F0E05F010B
:103226006DDE22C0E331A0E0FA0741F40A2C0B2838
:1032360019F4E1E0F0E05F0165DE16C0E431A0E0DC
:10324600FA0741F40A2C0B2819F4E1E0F0E05F01DB
:10325600CCDE0AC00E94161CAFE7B6E00E94241D11
:10326600ADE8B6E00E94521CA2E3B0E00E94E22064
:103276000895AA93E0919A06E03019F4689421F82B
:1032860005C0E89421F8E0E00C94B71CE881E03032
:1032960019F0E0E00C94B71CA0919906E2E10E94B7
:1032A60011220C94B71CAA93E881E03009F04CC0B7
:1032B600E091D706E0931507E091D906E09316074B
:1032C600E0917D07F0917E07E0931707F0931807CA
:1032D600E0918107F0918207E0931907F0931A07AE
:1032E6000E94081EE0931B07F0931C07E0918A07D3
:1032F600F0918B07E0931D07F0931E07E091AE0651
:10330600F091AF06E0931F07F0932007E091B00617
:10331600F091B106E0932107F0932207E091EE06C3
:10332600E0932307E62DEA5AE09324070E94F01D56
:10333600A5E2B7E00E941921EC93E0910107E09322
:103346002607E2E10C94B71C21FE07C0E0911407A2
:10335600F0E0E093C306F093C406E0E00C94B71CDB
:10336600E0E0EA93E0E5EA93E3E0F7E0FA93EA9334
:10337600E2E1EA93E5E1F7E0FA93EA93ECE3F9E1B7
:10338600FA93EA93A6E5B9E10E940A1A08950E9403
:1033960071020E9491200E94FA05E2DF0E94330525
:1033A6002BDE0E9450050E9463050E948304F6CF1F
:1033B600FFCFBA93AA93A991B991E991F991309661
:1033C6002AF4E095F09531966DE26D93E89480E1EC
:1033D60097E20DD088EE93E00AD084E6992707D0CD
:1033E6008AE005D06E2F10D066276C930895662765
:1033F600E817F90720F06395E81BF90BC9F7662370
:1034060011F416F008956894605D6D930895BA936B
:10341600AA93689424F8E7E0E0939A06EF81F8858A
:10342600E093A407F093A507EE81E093A707EC814C
:10343600FD81E093A107F093A207EA81FB81E09367
:10344600A807F093A907E881F981E093AA07F0930A
:10345600AB07919A909AEA85E03011F0E1E002C05C
:10346600E985EE0FE0937200E0917400E078E56480
:10347600E09374002B9608950A921A92FA926A9330
:103486007A938A939A93AA93BA93EA93FA93EFB7A5
:10349600EA930E945D221091990600919806309158
:1034A600A30720919A06E12FA091A407B091A50742
:1034B600F0E0EA0FFB1FAF01E0917100E87FE83012
:1034C60011F420E002C0E03119F4E091A00710C029
:1034D600E83111F0E83249F5031798F4E02F0F5F51
:1034E600A091A107B091A207F0E0AE0FBF1FEC912B
:1034F600E0937300E0917400EF70E068E09374006D
:1035060013C0E091A6071E1770F4E091A007E160D2
:10351600E093A007E89423F8E0917400EF70E06A66
:10352600E093740013C138C011C1E03531F4E09165
:103536007300DA01EC931F5F02C0E03489F4E09176
:10354600A607E1501E1728F0E0917400EF70E068BE
:1035560004C0E0917400EF70E06CE0937400F6C074
:10356600E83531F4E0917300DA01EC931F5F02C095
:10357600E03209F402C0E03309F402C0E83469F429
:10358600203051F423FE03C0031728F005C0E09154
:10359600A6071E1708F424E0D1C0E83331F422E070
:1035A600E0917400EF70E068CDC0E83611F0E837BE
:1035B60011F422E005C0E03611F0E037A9F420E06E
:1035C60010E0E89423F8E091A707E03031F421E019
:1035D600E0917400EF70E06804C0E0917400EF7051
:1035E600E06CE0937400B2C0E03811F0E03941F5C8
:1035F60023FE02C021E0A2C0E0917300DA01EC9341
:103606001F5FE091A7071E17C0F4E091A807F0918D
:10361600A907309711F426E091C0A0E0E091A80731
:10362600F091A9070995E03039F0E0917400EF7048
:10363600E06CE09374008AC002C0689423F802C06C
:10364600E83809F402C0E83939F4E0917400EF7003
:10365600E068E09374007AC0E03AB9F4E09174004F
:10366600EF70E06CE0937400689424F8E091A8078A
:10367600F091A907309739F0A1E0E091A807F09101
:10368600A907099501C026E061C0E03B11F422E0DC
:1036960002C0E83AB9F4E091AA07F091AB07309777
:1036A60059F0A0E0E091AA07F091AB0709953E2FEB
:1036B600E03011F020E002C026E040C000E0E894CF
:1036C60023F802C0E83B01F523FE02C021E036C024
:1036D600E02F0F5FA091A107B091A207F0E0AE0F17
:1036E600BF1FEC91E0937300031728F4E091740078
:1036F600EF70E06C06C0689423F8E0917400EF70F8
:10370600E068E093740022C0E03C11F0E83C99F4D4
:10371600E0917400EF70E06CE0937400E091AA070A
:10372600F091AB07309731F0A1E0E091AA07F09154
:10373600AB07099509C0E03049F423E0E091740035
:10374600EF70E06DE0937400689424F81093990686
:103756000093980620939A063093A3070E9464224A
:103766002696E991EFBFF991E991B991A9919991BD
:10377600899179916991F990199009901895FFE0CE
:10378600FA95F1F70895A4B3AF70A4BBA99AA898C7
:10379600F6DFAA9AF4DFA3B3AA98F1DFAA9AEFDFBD
:1037A600AA98A7FDF5CF0895A07FAB2BA5BBAA9A33
:1037B6000E94C21BAA980E94C21B0895AA93A998A8
:1037C600A4B3A76FA4BBB5B3BF70A881EDDFA88172
:1037D600A295EADFA99A0C94B71CAA9A0E94C21B6A
:1037E600E3B3AA980E94C21BE07F08950E94C21B01
:1037F600F4DFAE2FF2DFA998E295EA2B0895AA939B
:103806000E94C61BE881F0E0E455F84FE081A981EB
:10381600AE0F0E94E11BE981E093B007E881E093D7
:10382600B107229608950E94C61BA2E00E94E11BE2
:103836000E94C61BACE00E94E11B0E94C61BA1E0D1
:103846000E94E11BE0E0E093B107E093B007089522
:10385600AA93EF93FF93A8816894AA3039F0E8946D
:10386600E091B207A091B007AE1758F0E091B1070A
:10387600EF5FE093B107E0E0EA93A091B107BFDF05
:1038860056F0E091B007EF5FE093B0077CDFA89AAF
:10389600A8810E94E11BFF91EF910C94B71CBA938B
:1038A600AA931A93A981BA81ED91A983BA831E2F8F
:1038B600E03019F0A12FCCDFF5CF10C0BA93AA9350
:1038C6001A93E981FA813196E983FA833197E49173
:1038D6001E2FE03019F0A12FBBDFF3CF18812396FE
:1038E6000895AA27BB271197F1F70895AA93A998D7
:1038F600A4B3A76FA4BBB5B3BF70A8810E94D71BA2
:10390600A99A32C0AA93AA98A898E881E093B20728
:10391600E058E093AE07E881E054E093AF070E94D9
:1039260088200E9488200E948820DBDFA0E2DEDF5C
:10393600D8DFA8E20E948D20A4E00E948D20A5E891
:103946000E948D20A4B3AF70A4BBA99A0E94F91B54
:10395600E53011F0E0E008C00E94C61BA6E00E9418
:10396600E11B0E94161CE1E021960895AA93BA93E2
:10397600EA93FA93EFB7EA930895A0918A07B09174
:103986008B070895ED91FD913196FE93EE93089580
:10399600E0E0E0938A07E0938B070895A0918807FB
:1039A600B09189070895E0E0E0938807E0938907DE
:1039B6000895A091DB06B091DC060895A0918C07CE
:1039C600B0918D0780918E0790918F070895AF3F34
:1039D600E0E0BE07E0E08E07E0E09E070895A03035
:1039E600E0E0BE07E0E08E07E0E09E070895A091C4
:1039F6009007B0919107809192079091930708954F
:103A0600A0917D07B0917E07E5E0F0E00E943422A8
:103A16000895A0918107B0918207E5E0F0E00E9449
:103A260034220895E093DD06F093DE060895E093D0
:103A3600DF06F093E0060895E091EA06F091EB06C2
:103A460008950E94521CE0E0EA93A1E00C94021C47
:103A5600F0E0FA93EA93AFEEB6E00E94DC19AFEE1F
:103A6600B6E00C94521CE093C506F093C606089582
:103A7600A4E6B0E00E942F226E0F7F1F0895AAE0F1
:103A8600B0E00E942F22E60FF71F0895EE0FFF1FEA
:103A9600EA0FFB1F0895F801A3E0B0E00E942F2271
:103AA6000895DF01AA0FBB1FAA5BB84F0E945522DB
:103AB60008950E945522A0917907B0917A07EA0FDE
:103AC600FB1FDB01ED93FC930895E0E0EA93A1E090
:103AD6000C94021CE4E6F0E0A5DFE4E6F0E0A7DFE4
:103AE6000E94161CE091AC06F091AD063097089541
:103AF6000E94521CE0918807F0918907FA93EA9395
:103B0600DE0112960E94DC19DE010C94521C0E9402
:103B1600521CE0918A07F0918B07FA93EA93DE0133
:103B260012960E94DC19DE010C94521CAAEFB0E03A
:103B36000E94E220E091AC06F091AD060E9422229E
:103B4600F0E0E093AC06F093AD060895DE0116961C
:103B56000E94DC19DE0114960895E12FA5E6B7E070
:103B6600F0E0EE0FFF1FAE0FBF1F0E945522089513
:103B7600E12FADE6B7E0F0E0EE0FFF1FAE0FBF1F7F
:103B86000E9455220895E050F240FA93EA93A0E687
:103B9600B7E00C94DC19A0E00E94021CA0E6B7E096
:103BA6000C94521CE657F140FA93EA93A0E6B7E06C
:103BB6000C94DC19E12FF0E0EB58F84FE081F0E0CF
:103BC600FA93EA93A0E6B7E00C94DC19A1E00E9410
:103BD600021CA0E6B7E00C94521CE0913C07F09161
:103BE6003D07662777270E945221DF01CB01EDECC6
:103BF600FCEC60E572E40E9480210895E2E0F0E0CA
:103C0600E0938807F0938907C3CEE0918807F09187
:103C160089070895E0938A07F0938B0730970895F4
:103C2600E4E6F0E0FA93EA930895E0E0F0E0FA9330
:103C3600EA93A0E0B0E00C94C103E7DF9ECEE0E596
:103C4600F0E0FA93EA930895E0DFE4CFE1E0F0E0F4
:103C5600FA93EA93A1E0B0E00C94C103E1E0F0E04E
:103C6600FA93EA930895E0E0F0E0FA93EA93089570
:103C76000E94161C2ACF0E94521CC7DFFA93EA93B1
:103C8600A2EBB6E00E94DC19A2EBB6E00C94521C43
:103C96000E94521CE0918A07F0918B07FA93EA93EF
:103CA600A2EBB6E00E94DC19A2EBB6E00C94521C23
:103CB600E1E0F0E0E0939807F09399070895E2E0D9
:103CC600F0E0E0939807F09399070895E3E0F0E0B9
:103CD600E0939807F09399070895E4E0F0E0E09305
:103CE6009807F09399070895E5E0F0E0E0939807C8
:103CF600F09399070895E6E0F0E0E0939807F093D3
:103D060099070895E7E0F0E0E0939807F0939907A4
:103D16000895E8E0F0E0E0939807F0939907089596
:103D2600E9E0F0E0E0939807F09399070895EAE058
:103D3600F0E0E0939807F09399070895EBE0F0E040
:103D4600E0939807F09399070895ECE0F0E0E0938C
:103D56009807F09399070895EDE0F0E0E09398074F
:103D6600F09399070895EEE0F0E0E0939807F0935A
:103D760099070895EFE0F0E0E0939807F09399072C
:103D86000895E0E1F0E0E0939807F093990708952D
:103D9600E1E1F0E0E0939807F09399070895E2E1F6
:103DA600F0E0E0939807F09399070895E3E1F0E0D7
:103DB600E0939807F09399070895E4E1F0E0E09323
:103DC6009807F09399070895E5E1F0E0E0939807E6
:103DD600F09399070895E6E1F0E0E0939807F093F1
:103DE60099070895E7E1F0E0E0939807F0939907C3
:103DF6000895E8E1F0E0E0939807F09399070895B5
:103E0600E9E1F0E0E0939807F09399070895EAE175
:103E1600F0E0E0939807F09399070895EBE1F0E05E
:103E2600E0939807F09399070895ECE1F0E0E093AA
:103E36009807F09399070895EDE1F0E0E09398076D
:103E4600F09399070895EEE1F0E0E0939807F09378
:103E560099070895EFE1F0E0E0939807F09399074A
:103E66000895E0E2F0E0E0939807F093990708954B
:103E7600E1E2F0E0E0939807F09399070895E2E213
:103E8600F0E0E0939807F09399070895E3E2F0E0F5
:103E9600E0939807F09399070895E4E2F0E0E09341
:103EA6009807F09399070895E5E2F0E0E093980704
:103EB600F09399070895E6E2F0E0E0939807F0930F
:103EC60099070895E7E2F0E0E0939807F0939907E1
:103ED6000895E8E2F0E0E0939807F09399070895D3
:103EE600E9E2F0E0E0939807F09399070895EAE293
:103EF600F0E0E0939807F09399070895EBE2F0E07D
:103F0600E0939807F09399070895ECE2F0E0E093C8
:103F16009807F09399070895EDE2F0E0E09398078B
:103F2600F09399070895EEE2F0E0E0939807F09396
:103F360099070895EFE2F0E0E0939807F093990768
:103F46000895E0E3F0E0E0939807F0939907089569
:103F5600E1E3F0E0E0939807F09399070895E2E330
:103F6600F0E0E0939807F09399070895E3E3F0E013
:103F7600E0939807F09399070895E4E3F0E0E0935F
:103F86009807F09399070895E5E3F0E0E093980722
:103F9600F09399070895E6E3F0E0E0939807F0932D
:103FA60099070895E7E3F0E0E0939807F0939907FF
:103FB6000895E8E3F0E0E0939807F09399070895F1
:103FC600E9E3F0E0E0939807F09399070895EAE3B0
:103FD600F0E0E0939807F09399070895EBE3F0E09B
:103FE600E0939807F09399070895ECE3F0E0E093E7
:103FF6009807F09399070895DF01CB01E0E0F0E020
:1040060060EA71E40E94C5210895E0E4F0E0E093DF
:104016009807F09399070895E0939A07F0939B0702
:104026000895E6E4F0E0FA93EA930895E2E3F0E017
:10403600FA93EA930895EAE5F0E0FA93EA93F0CD6D
:10404600EAE5F0E0FA93EA930895E5E5F0E0FA93FD
:10405600EA9304CEE5E5F0E0FA93EA93E1CDE1E4F4
:10406600F0E0FA93EA930895EBE4F0E0FA93EA932A
:10407600D7CDFA93EA93D9CDECE3F0E0FA93EA933D
:10408600E6E4F0E00895ECE3F0E0FA93EA930895AD
:10409600ECE3F0E0EECF71DCEDECF0E00E941622EE
:1040A6000E2E6BDCEFEFFFEF0E941C22E02108953D
:1040B600ACEDB5E00C94E220A1E0B0E00E94C103B3
:1040C60004CDE0919007F0919107FA93EA93089551
:1040D600A2EBB6E00E94DC19A2EBB6E00C94521CEF
:1040E6000E94521CE0918C07F0918D07FA93EA9397
:1040F600EFCFA6E4B0E00E946D03E3CFE0918C071A
:10410600F0918D07FA93EA9308950E94741CA0E338
:104116000C94791C0E94E11B0C94741CC398C598DE
:10412600BB9ABD9815C0BD98BB98EE270000B59BFD
:104136000895B39B089504D0BD9A02D0BB9AE1E0DE
:104146006BE107C0BD9ABB9A03D0BB98F9DFBD9857
:1041560065E36A95F1F7089578E0BB98F1DFB39BC4
:10416600FECFEEDF8894B5990894BB9AF1DFEE1F77
:104176007A9599F77A2F772311F4BD9801C0BD9AE5
:10418600DFDFBB98E5DFBB9ADBDFBD98D9CF78E0F0
:10419600AA0F10F4BD9801C0BD9ADADFBB98D0DF34
:1041A600B39BFECFCDDFBB9A7A9591F7BD98C8DF5A
:1041B600BB98CEDFE1E0B599EE27BB9AC1CF10964A
:1041C60039F080EA9FE00197F1F7A8951197C9F7B2
:1041D6000895552342F4503811F4E0FF04C0319697
:1041E600691F791F6BF050E8572711F45F9373C06E
:1041F6005F3F31F0660F000C57956795752F089550
:104206005F9300200AF073C06CC050E8192E152287
:10421600880F991F9527550F879550E8072E052279
:10422600660F771F7527550F67950895689401C027
:10423600E8945F93F2DF703818F07F3F08F44BC0C4
:1042460056E1571BAAF4519558300EF4593030F008
:10425600EFEFFFEF6FEF7FE777F91AC07727552368
:10426600B9F0EE0FFF1F661F771F5A95D1F710C0E2
:104276007727583028F0EF2FF62F672F5850F9CFB1
:10428600552331F076956795F795E7955A95D1F7C9
:1042960000200AF49BD05F910895689401C0E894C9
:1042A600309760407040B1F0002426F0772312F476
:1042B60000948CD0172E7EE1112032F07A95EE0F05
:1042C600FF1F661F111CF9CFEF2FF62F612D5F938D
:1042D6008ADF5F910895EE27FF27662777275F918C
:1042E6000895EFEFFFEF6FE77FEF5F910895EFEF30
:1042F600FFEF6FE77FE75F9108955F9386DF703882
:1043060021F411200AF4EDCFF2CF903809F4E3CF6F
:1043160001240894970B1BF4D4F30020F3CF792FD4
:104326001F932F933F934F9311241127222733274F
:104336004427552790E2AE17BF078607410730F09E
:10434600AE1BBF0B860B410B089401C08894551F0A
:10435600221F331F111CAA1FBB1F881F441F9A95BB
:1043660051F7F901612D4F913F912F911F916623CE
:1043760032F0550FEE1FFF1F661F7A9543F229DFB5
:104386005F91089599239AF0772342F0971748F0A2
:1043960029F4AE17BF07860720F031F09894889469
:1043A6000895989408940895189488940895772306
:1043B600C2F7971798F3A9F7EA17FB07680788F378
:1043C60099F3ECCFF195E195F0400895F09560955D
:1043D6007095E195FF4F6F4F7F4F0895EE230E2E98
:1043E600FD0121F0F695E7950A94E1F70895EE0FA1
:1043F600FF1FEE0FFF1FEE0FFF1FEE0FFF1F0895AB
:10440600F695E795F695E795F695E795F695E7958A
:1044160008956F2F660F660B762F0895AE17E1E0AD
:1044260008F0EE270895AE17BF07E1E00CF0EE277F
:104436000895EA17FB07E1E00CF0EE270895EF2B4D
:10444600E1E009F0E0E00895FA9FF02DEB9FF00D12
:10445600EA9FE02DF10D089517D0F6DF0EF4B2DFD6
:1044660008950024112490E1AA0FBB1F001C111C03
:104476000E1A1F0A18F40E0E1F1E01C0A1609A958F
:1044860099F7FD01D0010895E894F7FF02C09ADF7D
:104496006894B7FF06C0A095B095119600F80394EE
:1044A60000FA0895ED91FC911197089500240A16DB
:1044B6000B0608955A934A933A932A931A930A93AA
:1044C60008955D814C813B812A8119810881089577
:00000001FF
