:100000000C946E020C9400000C9400000C94000000
:100010000C9400000C94CC020C9400000C94E102AF
:100020000C9400000C9400000C9417040C94000035
:100030000C9400000C9400000C94FC050C9400003F
:100040000C9455030C9400000C9400000C940000D8
:100050000C9400000C949E020C9400000C94000080
:100060000C9400000C9426050C9460050C94000080
:100070000C9400000C9400000C9400000C94000000
:100080000C9400000C947E060C9400001027E803EA
:1000900064000A00010000100001100001000100CE
:1000A0000100AA0000000000000011000A00444105
:1000B000544100504F534954494F4E2D53455256C9
:1000C0004F004C4546543A2031004C4546543A20A6
:1000D00030002052494748543A20310020524947C5
:1000E00048543A2030004D4C4546543A2031004D9A
:1000F0004C4546543A2030004D52494748543A3115
:10010000004D52494748543A3000202020202045D5
:100110004E434F44455220203E3E003C3C20202090
:10012000454E434F44455220202020004C3A0020A9
:10013000523A00202020202052454348545320208A
:1001400020200020202020204C494E4B53202020EE
:100150002000464C4546543A203100464C45465412
:100160003A2030004652494748543A3100465249F5
:100170004748543A30004C4546543A0052494748A3
:10018000543A004E6F204F626A65637421004F62DB
:100190006A656B7420676566756E64656E004B6595
:1001A000696E204F626A656B740020204C494E4591
:1001B0004445544543544F52202000202020202005
:1001C000454E47494E452020202000202020202059
:1001D0005354454552494E47202020200020444991
:1001E0005354414E434553454E534F522000202017
:1001F0004C494748542053454E534F52202000202D
:10020000202020205749492043414D202020002014
:10021000202020495220544F5745522020202000B2
:100220002020202020534552564F202020200020FF
:100230002020554C545241534F4E4943202000201A
:1002400020202020464F5220202020202020002047
:1002500020202020204241434B202020202020200D
:10026000002020202020204C454654202020202003
:1002700020002020202020524947485420202020C0
:10028000200020202020203930B04C45465420202A
:1002900020202000202020203930B05249474854E7
:1002A0002020202000202020205350494E202020B4
:1002B00020002020202031737420535441544520C5
:1002C00020202000202020426C75654D61746963F8
:1002D00073002020202020526F626279004F4B0073
:1002E000427566666572206F766572666C6F770020
:1002F0004172626974726174696F6E206C6F73749D
:1003000000427573206572726F72004E41434B203C
:100310007265636569766564004275732074696D02
:10032000656F7574004661696C00556E6B6E6F7712
:100330006E206572726F720001002D4E414E0049B1
:100340004E460000070080C0010002009E000A0027
:100350000400A00001008F07AA0005000005AE0000
:100360000F000505B30008001405C20008001C05B5
:10037000CA000A002405D2000A002E05DC0009008C
:100380003805E60009004105EF0009004A05F800BC
:1003900009005305010111005C050A0111006D05FA
:1003A0001B0103007E052C01040081052F011000B4
:1003B000850533010F00950543010300A4052C01B9
:1003C0000400A7052F010800AB05C2000800B30513
:1003D000CA000A00BB05D2000A00C505DC000900FE
:1003E000CF0552010900D8055B010900E105640150
:1003F0000900EA056D010600F30576010700F9051D
:100400007C01030000062C01040003062F010300F9
:1004100007062C0104000A062F0103000E062C011A
:10042000040011062F01030015062C010400180614
:100430002F0103001C062C0104001F062F010300DE
:1004400023062C01040026062F0103002A062C0196
:1004500004002D062F0111003106AA0110004206EA
:10046000BB0112005206CB0111006406DD01110030
:100470007506EE0110008606FF01110096060F02B8
:100480000F00A70620021000B6062F021000C606B5
:100490003F021200D6064F021100E806610210006A
:1004A000F906720212000907820211001B0794026A
:1004B0000D002C07A50212003907B2020E004B07EF
:1004C000C4020B005907D202010049083803010099
:1004D000660744030200590846030000F894EE271B
:1004E000ECBBF1E0F5BFE5BFE0936C008DE0A2E06E
:1004F000BB27ED938A95E9F780E090E1A0E0B1E0B9
:10050000ED930197E9F7E8E4F3E085919591009781
:1005100061F0A591B59105901590BF01F00105908E
:100520000D920197E1F7FB01F0CF8BBFEFEFEDBF2D
:10053000E0E1EEBFC0E0D5E00C942E068A93AA93CA
:10054000BA93EA93FA93EFB7EA93E0914408A8E3E9
:10055000B8E0F0E0EE0FFF1FAE0FBF1FE4B1F5B142
:10056000ED93FC93A0914408AF5FA0934408A6309C
:1005700018F0E0E0E0934408E0914408E05CE7B95B
:1005800085E38A95F1F7369AE991EFBFF991E99100
:10059000B991A991899118950E949B08A09147084B
:1005A000B0914808A032EEE4BE072CF4A7E4B8E00E
:1005B0000E94A20805C0E0E0E0934708E0934808E5
:1005C000CBC00E949B08A0914508B0914608A0327C
:1005D000EEE4BE072CF4A5E4B8E00E94A20805C032
:1005E000E0E0E0934508E0934608B6C0EAE8EABBDD
:1005F000E2E0E7BBE1EAE1BBE0E2E2B9E0936100FF
:10060000A0E10E946708E0E4E7B9EFECE6B9E0E0BA
:10061000E0BDE0E8E8B9E0E0E0936A00E1E1EABFCC
:10062000E0E5E9BFE0E0E8BFE0BFE6E0E3BFE3E824
:10063000E2BFE0E0E1BFE1E0EFBDEAE0EEBDE0E017
:10064000EDBDECBDE7BDE6BDEBBDEABDE9BDE8BD76
:10065000E0937900E0937800E4E0E5BDE0E0E4BDFC
:10066000E3BDE0938B00EBECE0938A00E0E0E093E5
:100670008900E0938800E0938100E0938000E1E648
:10068000E0938700E8EAE0938600E0E0E0938500ED
:10069000E0938400E0938300E0938200E5E4E7BF09
:1006A000E0E3E0937D00789408950E949B08EEEFCC
:1006B000E2BFA091AB07AF5FA093AB07A434A0F05B
:1006C000E091AF07E07421F4E091AF07E07209F424
:1006D00006C00E94A808E093AC07F093AD07E0E0E5
:1006E000E093AE07E093AF07A0E020FCA1E0E0E0DC
:1006F000CA99E1E0B0E0F0E0E7FDFFEFEA17FB07A1
:1007000059F1E1E02E26A091AB07AB3028F4E0E0F0
:10071000E093AE07E093AF070E94A808309721F05E
:10072000A091AB07AD32C0F0E091AF07E07441F4A7
:100730000E94A808EE0FFF1FE093AE07F093AF07EB
:1007400020FC07C00E94A808E160E093AE07F09388
:10075000AF07E0E0E093AB07E991EFBFF991E991D2
:10076000B991A9911895BA93AA931A930A93F894F8
:100770000091AC071091AD07E0E0E093AC07E09387
:10078000AD077894002E012A09F1D801EBE00E9410
:100790000E0AE170AE81BF81EC93D801E6E00E94C1
:1007A0000E0AEF71AC81BD81EC93E02FEF73AE2F99
:1007B000F801E095F0950E941E0A0E941C0AE07460
:1007C000EA2BAA81BB81EC93F80102C0E0E0F0E0E3
:1007D0001981088128960895E0EBF7E0FA93EA93EF
:1007E000E1EBF7E0FA93EA93A2EBB7E0BCDF3097D6
:1007F000E9F0E091B207F0E0309719F4E1E1F0E0C0
:100800000DC0E130A0E0FA0719F4EFE0F0E006C017
:10081000E230A0E0FA0751F4E0E1F0E0E0938F0766
:10082000F0939007A4E6B0E00E941F090895EA93B0
:10083000FA93EFB7EA9397988614970429F4E5E0C2
:10084000F0E0E415F50539F44301E1E0F0E02F01B3
:1008500064BC979A05C0F20131962F01E0E0E4BD37
:10086000E991EFBFF991E99118950E94AD0854976D
:1008700041F4ECEDF0E06E167F061CF4F3013596C2
:100880003F010E94AD08559741F4E8E7F0E0E61516
:10089000F7051CF4F30135973F010E94AD0810974E
:1008A00019F4E1E1F0E005C0E0918D07F0918E07C9
:1008B0003197E0938F07F09390070895009903C054
:1008C000E1E0F0E002C0E0E0F0E0E0939107F093B7
:1008D0009207029903C0E1E0F0E002C0E0E0F0E03E
:1008E000E0939307F0939407049903C0E1E0F0E0EC
:1008F00002C0E0E0F0E0E0939507F09396070699D8
:1009000003C0E1E0F0E002C0E0E0F0E0E093970730
:10091000F0939807E0919107F0919207A8EEB3E069
:100920000E94370ABF01E0919307F09194070E945B
:10093000B208E0919507F09196070E94B908A0913E
:100940009707B0919807EA0FFB1FE093A107F09378
:10095000A207B09903C0E1E0F0E002C0E0E0F0E0FF
:10096000E0939907F0939A07B29903C0E1E0F0E0B1
:1009700002C0E0E0F0E0E0939B07F0939C07B4999D
:1009800003C0E1E0F0E002C0E0E0F0E0E0939D07AA
:10099000F0939E07B69903C0E1E0F0E002C0E0E00A
:1009A000F0E0E0939F07F093A007E0919907F091A2
:1009B0009A07A8EEB3E00E94370ABF01E0919B07B7
:1009C000F0919C070E94B208E0919D07F0919E076C
:1009D0000E94B908A0919F07B091A007EA0FFB1FE2
:1009E000E093A307F093A4070895E0E3EA93A1E05E
:1009F00019D0E0E3EA93A8E015D0E6E0EA93A0E995
:100A000011D0E8E0EA93A0EC0DD0EAE1EA93A0E48B
:100A100009D0E3E3EA93A3E305D0A4E6B0E00E94A3
:100A20001F090895AA930E94D308A0EB0E9407090A
:100A3000A9810E940709A8810E9407090E94E20873
:100A4000AAE0B0E00E941F09229608950E949B0828
:100A5000E0918000E093FB07E0918100E093FC07C8
:100A60000F9B0EC0E091FB07F091FC07E093F507A8
:100A7000F093F607E0918A00EF7BE0938A001FC0B5
:100A8000E091FB07F091FC07E093F707F093F8077C
:100A9000E0918A00E064E0938A00A091F507B091AC
:100AA000F607E091F707F091F807EA1BFB0B0E94AD
:100AB000170AE093F907F093FA07689422F8C7C081
:100AC0008A93EA93EFB7C19A85E38A95F1F7C198C3
:100AD000EFBFE99189911895AA93E0916607E030FC
:100AE00019F4689421F805C0E89421F8E0E00C942A
:100AF0009908E881E03019F0E0E00C949908A091A1
:100B00006507EFE00E942A0A0C949908AA93E881ED
:100B1000E03009F04EC0E091A107E093D507E091E5
:100B2000A307E093D607E0913A08F0913B08E093E1
:100B3000D707F093D807E0913E08F0913F08E09383
:100B4000D907F093DA07E0914508F0914608E09361
:100B5000DB07F093DC07E0914708F0914808E09349
:100B6000DD07F093DE07E0917A07E093DF07E0917D
:100B7000B207E093E0076092E107E091F907F09196
:100B8000FA07662777270E948F09DF01CB01EDEC7A
:100B9000FCEC60E572E40E94BD09A2EEB7E00E94A1
:100BA0005609EC93E091C407E093E307EFE00C945F
:100BB000990821FE07C0E091D407F0E0E0938D078B
:100BC000F0938E07E0E00C949908E0E0EA93E0E50A
:100BD000EA93E6ECF7E0FA93EA93EFE0EA93E5EDC7
:100BE000F7E0FA93EA93ECE6F5E0FA93EA93A6E8E5
:100BF000B5E00E94490608950E949B08ECE9ECBD0F
:100C0000A5EAB7E00E94A2080E94C008A030E1E077
:100C1000BE072CF0E0E0E093A507E093A607E09183
:100C2000A707F091A8070E94C008AE17BF0714F0ED
:100C3000DB9801C0DB9AE091A907F091AA070E9416
:100C4000C008AE17BF0714F0D99801C0D99AE9912E
:100C5000EFBFF991E991B991A9911895C7DC0E946C
:100C6000CE08C3DEB2DFE0E0E093A707E093A80779
:100C7000E093A907E093AA07F8DDCE9906C0E0E16A
:100C8000F0E0E0938F07F0939007A6DD17DEEBCF3F
:100C9000FFCFBA93AA93689424F8E7E0E09366073D
:100CA000EF81F885E0935108F0935208EE81E093CC
:100CB0005408EC81FD81E0934E08F0934F08EA81DF
:100CC000FB81E0935508F0935608E881F981E093A1
:100CD0005708F0935808919A909AEA85E03011F0FD
:100CE000E1E002C0E985EE0FE0937200E09174004C
:100CF000E078E564E09374002B9608950A921A92C6
:100D0000FA926A937A938A939A93AA93BA93EA93FC
:100D1000FA93EFB7EA930E944A0A1091650700918F
:100D200064073091500820916607E12FA091510887
:100D3000B0915208F0E0EA0FFB1FAF01E0917100A3
:100D4000E87FE83011F420E002C0E03119F4E091CE
:100D50004D0810C0E83111F0E83249F5031798F456
:100D6000E02F0F5FA0914E08B0914F08F0E0AE0F5A
:100D7000BF1FEC91E0937300E0917400EF70E068A6
:100D8000E093740013C0E09153081E1770F4E091D3
:100D90004D08E160E0934D08E89423F8E091740079
:100DA000EF70E06AE093740013C138C011C1E03500
:100DB00031F4E0917300DA01EC931F5F02C0E0347C
:100DC00089F4E0915308E1501E1728F0E091740077
:100DD000EF70E06804C0E0917400EF70E06CE093A5
:100DE0007400F6C0E83531F4E0917300DA01EC9359
:100DF0001F5F02C0E03209F402C0E03309F402C010
:100E0000E83469F4203051F423FE03C0031728F0BE
:100E100005C0E09153081E1708F424E0D1C0E83360
:100E200031F422E0E0917400EF70E068CDC0E83664
:100E300011F0E83711F422E005C0E03611F0E03798
:100E4000A9F420E010E0E89423F8E0915408E030A1
:100E500031F421E0E0917400EF70E06804C0E091AB
:100E60007400EF70E06CE0937400B2C0E03811F0F1
:100E7000E03941F523FE02C021E0A2C0E0917300F9
:100E8000DA01EC931F5FE09154081E17C0F4E09163
:100E90005508F0915608309711F426E091C0A0E073
:100EA000E0915508F09156080995E03039F0E0914D
:100EB0007400EF70E06CE09374008AC002C0689424
:100EC00023F802C0E83809F402C0E83939F4E091A7
:100ED0007400EF70E068E09374007AC0E03AB9F40F
:100EE000E0917400EF70E06CE0937400689424F873
:100EF000E0915508F0915608309739F0A1E0E09163
:100F00005508F0915608099501C026E061C0E03B04
:100F100011F422E002C0E83AB9F4E0915708F091E8
:100F20005808309759F0A0E0E0915708F091580820
:100F300009953E2FE03011F020E002C026E040C0CD
:100F400000E0E89423F802C0E83B01F523FE02C06C
:100F500021E036C0E02F0F5FA0914E08B0914F08FE
:100F6000F0E0AE0FBF1FEC91E0937300031728F47D
:100F7000E0917400EF70E06C06C0689423F8E09193
:100F80007400EF70E068E093740022C0E03C11F060
:100F9000E83C99F4E0917400EF70E06CE093740029
:100FA000E0915708F0915808309731F0A1E0E091B6
:100FB0005708F0915808099509C0E03049F423E03A
:100FC000E0917400EF70E06DE0937400689424F891
:100FD00010936507009364072093660730935008C9
:100FE0000E94510A2696E991EFBFF991E991B991D2
:100FF000A9919991899179916991F99019900990A4
:101000001895FFE0FA95F1F70895A4B3AF70A4BB6B
:10101000A99AA898F6DFAA9AF4DFA3B3AA98F1DFF9
:10102000AA9AEFDFAA98A7FDF5CF0895A07FAB2B72
:10103000A5BBAA9A0E940108AA980E9401080895D7
:10104000AA93A998A4B3A76FA4BBB5B3BF70A88196
:10105000EDDFA881A295EADFA99A0C949908AA9AD3
:101060000E940108E3B3AA980E940108E07F089556
:101070000E940108F4DFAE2FF2DFA998E295EA2B77
:1010800008950E940508A2E00E9420080E94050819
:10109000ACE00E9420080E940508A1E00E94200800
:1010A000E0E0E0935E08E0935D080895AA27BB277F
:1010B0001197F1F70895AA93A998A4B3A76FA4BBB9
:1010C000B5B3BF70A8810E941608A99A32C0AA932E
:1010D000AA98A898E881E0935F08E058E0935B083D
:1010E000E881E054E0935C080E94C5080E94C508AE
:1010F0000E94C508DBDFA0E2DEDFD8DFA8E20E94A5
:10110000CA08A4E00E94CA08A5E80E94CA08A4B3BD
:10111000AF70A4BBA99A0E943808E53011F0E0E056
:1011200008C00E940508A6E00E9420080E9441080D
:10113000E1E021960895AA93BA93EA93FA93EFB760
:10114000EA930895ED91FD913196FE93EE93089503
:10115000E091AE07F091AF070895A0918D07B0918F
:101160008E070895A4E6B0E00E94370A6E0F7F1F35
:101170000895AAE0B0E00E94370AE60FF71F08952D
:10118000A091A507B091A60708950E945608A0E374
:101190000C945B080E9420080C945608C398C598CC
:1011A000BB9ABD9815C0BD98BB98EE270000B59BB3
:1011B0000895B39B089504D0BD9A02D0BB9AE1E094
:1011C0006BE107C0BD9ABB9A03D0BB98F9DFBD980D
:1011D00065E36A95F1F7089578E0BB98F1DFB39B7A
:1011E000FECFEEDF8894B5990894BB9AF1DFEE1F2D
:1011F0007A9599F77A2F772311F4BD9801C0BD9A9B
:10120000DFDFBB98E5DFBB9ADBDFBD98D9CF78E0A5
:10121000AA0F10F4BD9801C0BD9ADADFBB98D0DFE9
:10122000B39BFECFCDDFBB9A7A9591F7BD98C8DF0F
:10123000BB98CEDFE1E0B599EE27BB9AC1CF1096FF
:1012400039F080EA9FE00197F1F7A8951197C9F767
:101250000895552342F4503811F4E0FF04C031964C
:10126000691F791F6BF050E8572711F45F9373C023
:101270005F3F31F0660F000C57956795752F089505
:101280005F9300200AF073C06CC050E8192E15223D
:10129000880F991F9527550F879550E8072E05222F
:1012A000660F771F7527550F67950895689401C0DD
:1012B000E8945F93F2DF703818F07F3F08F44BC07A
:1012C00056E1571BAAF4519558300EF4593030F0BE
:1012D000EFEFFFEF6FEF7FE777F91AC0772755231E
:1012E000B9F0EE0FFF1F661F771F5A95D1F710C098
:1012F0007727583028F0EF2FF62F672F5850F9CF67
:10130000552331F076956795F795E7955A95D1F77E
:1013100000200AF47BD05F910895689401C0E8949E
:10132000309760407040B1F0002426F0772312F42B
:1013300000946CD0172E7EE1112032F07A95EE0FDA
:10134000FF1F661F111CF9CFEF2FF62F612D5F9342
:101350008ADF5F910895EE27FF27662777275F9141
:101360000895EFEFFFEF6FE77FEF5F910895EFEFE5
:10137000FFEF6FE77FE75F9108955F9386DF703837
:1013800021F411200AF4EDCFF2CF903809F4E3CF25
:1013900001240894970B1BF4D4F30020F3CF792F8A
:1013A0001F932F933F934F93112411272227332705
:1013B0004427552790E2AE17BF078607410730F054
:1013C000AE1BBF0B860B410B089401C08894551FC0
:1013D000221F331F111CAA1FBB1F881F441F9A9571
:1013E00051F7F901612D4F913F912F911F91662384
:1013F00032F0550FEE1FFF1F661F7A9543F229DF6B
:101400005F910895F195E195F0400895F09560950C
:101410007095E195FF4F6F4F7F4F0895EE230E2E8D
:10142000FD0121F0F695E7950A94E1F70895EE0F96
:10143000FF1FEE0FFF1F0895F695E795F695E795C8
:10144000F695E795F695E79508956F2F660F660B6D
:10145000762F0895AE17E1E008F0EE270895FA9F81
:10146000F02DEB9FF00DEA9FE02DF10D089504D0D3
:10147000F6DF0EF4C7DF0895E894F7FF02C0C2DF7D
:101480006894B7FF06C0A095B095119600F8039434
:1014900000FA08955A934A933A932A931A930A9317
:1014A00008955D814C813B812A81198108810895CD
:00000001FF
