:100000000C9486020C9400000C9400000C940000E8
:100010000C9400000C94E4020C9400000C94F40284
:100020000C9400000C9400000C943A040C94000012
:100030000C9400000C9400000C94350C0C940000FF
:100040000C9464030C9400000C9400000C940000C9
:100050000C9400000C94B6020C9400000C94000068
:100060000C9400000C94E3050C9423060C940000FF
:100070000C9400000C9400000C9400000C94000000
:100080000C9400000C94D80C0C9400001027E8038A
:1000900064000A00010000100001100001000100CE
:1000A0000100AA0000000000000013000A00444103
:1000B000544100504F534954494F4E2D53455256C9
:1000C0004F004C4546543A2031004C4546543A20A6
:1000D00030002052494748543A20310020524947C5
:1000E00048543A2030004D4C4546543A2031004D9A
:1000F0004C4546543A2030004D52494748543A3115
:10010000004D52494748543A3000202020202045D5
:100110004E434F44455220203E3E003C3C20202090
:10012000454E434F44455220202020004C3A0020A9
:10013000523A00202020202052454348545320208A
:1001400020200020202020204C494E4B53202020EE
:100150002000464C4546543A203100464C45465412
:100160003A2030004652494748543A3100465249F5
:100170004748543A30004C4546543A0052494748A3
:10018000543A004E6F204F626A65637421004F62DB
:100190006A656B7420676566756E64656E004B6595
:1001A000696E204F626A656B740020204C494E4591
:1001B0004445544543544F52202000202020202005
:1001C000454E47494E452020202000202020202059
:1001D0005354454552494E47202020200020444991
:1001E0005354414E434553454E534F522000202017
:1001F0004C494748542053454E534F52202000202D
:10020000202020205749492043414D202020002014
:10021000202020495220544F5745522020202000B2
:100220002020202020534552564F202020200020FF
:100230002020554C545241534F4E4943202000201A
:1002400020202020464F5220202020202020002047
:1002500020202020204241434B202020202020200D
:10026000002020202020204C454654202020202003
:1002700020002020202020524947485420202020C0
:10028000200020202020203930B04C45465420202A
:1002900020202000202020203930B05249474854E7
:1002A0002020202000202020205350494E202020B4
:1002B00020002020202031737420535441544520C5
:1002C0002020200020202020326E642053544154EE
:1002D0004520202020002020202033726420535409
:1002E0004154452020202000202020426C75654D7F
:1002F0006174696373002020202020526F6262794C
:10030000004F4B00427566666572206F76657266B7
:100310006C6F77004172626974726174696F6E20EC
:100320006C6F737400427573206572726F72004E49
:1003300041434B207265636569766564004275735D
:100340002074696D656F7574004661696C00556E47
:100350006B6E6F776E206572726F720001002D4EAA
:10036000414E00494E460000070080C001000200D7
:100370009E000A000400A0000100B307AA000500C7
:100380000005AE000F000505B30008001405C2000B
:1003900008001C05CA000A002405D2000A002E0528
:1003A000DC0009003805E60009004105EF000900FE
:1003B0004A05F80009005305010111005C050A0116
:1003C00011006D051B0103007E052C010400810551
:1003D0002F011000850533010F009505430103002F
:1003E000A4052C010400A7052F010800AB05C200DD
:1003F0000800B305CA000A00BB05D2000A00C50503
:10040000DC000900CF0552010900D8055B01090095
:10041000E10564010900EA056D010600F3057601B6
:100420000700F9057C01030000062C010400030607
:100430002F01030007062C0104000A062F01030008
:100440000E062C01040011062F01030015062C01D5
:10045000040018062F0103001C062C0104001F06CF
:100460002F01030023062C01040026062F010300A0
:100470002A062C0104002D062F0111003106AA01C5
:1004800010004206BB0112005206CB0111006406A7
:10049000DD0111007506EE0110008606FF01110056
:1004A00096060F020F00A70620021000B6062F02C4
:1004B0001000C6063F021200D6064F021100E806E1
:1004C00061021000F906720212000907820211008F
:1004D0001B0794020D002C07A50212003907B20277
:1004E00012004B07C40212005D07D6020E006F0710
:1004F000E8020B007D07F60201006F085C030100B3
:100500008A07680302007F086A030000F894EE2758
:10051000ECBBF1E0F5BFE5BFE0936C008DE0A2E03D
:10052000BB27ED938A95E9F780E090E1A0E0B1E088
:10053000ED930197E9F7ECE6F3E08591959100974B
:1005400061F0A591B59105901590BF01F00105905E
:100550000D920197E1F7FB01F0CF8BBFEFEFEDBFFD
:10056000E0E1EEBFC0E0D5E00C94670C8A93AA935B
:10057000BA93EA93FA93EFB7EA93E0916808ACE58F
:10058000B8E0F0E0EE0FFF1FAE0FBF1FE4B1F5B112
:10059000ED93FC93A0916808AF5FA0936808A63024
:1005A00018F0E0E0E0936808E0916808E05CE7B9E3
:1005B00085E38A95F1F7369AE991EFBFF991E991D0
:1005C000B991A991899118950E94520F0E94590FD3
:1005D000A032EEE4BE072CF4ABE6B8E00E945E0F5A
:1005E00002C00E94640F28C30E94520F0E946A0F2B
:1005F000A032EEE4BE072CF4A9E6B8E00E945E0F3C
:1006000002C00E946F0F18C3EAE8EABBE2E0E7BB52
:10061000E1EAE1BBE4E5E2B9E0E2E0936100A0E1F8
:100620000E941E0FE0E4E7B9EFECE6B9E0E0E0BDC0
:10063000E0E8E8B9E0E0E0936A00E1E1EABFE0E584
:10064000E9BFE0E0E8BFE0BFE6E0E3BFE3E8E2BF28
:10065000E0E0E1BFE1E0EFBDEAE0EEBDE0E0EDBDEE
:10066000ECBDE7BDE6BDEBBDEABDE9BDE8BDE0938D
:100670007900E0937800E4E0E5BDE0E0E4BDE3BDAF
:10068000E0938B00EBECE0938A00E0E0E0938900DC
:10069000E0938800E0938100E0938000E1E6E0933E
:1006A0008700E8EAE0938600E0E0E0938500E093CD
:1006B0008400E0938300E0938200E5E4E7BFE0E399
:1006C000E0937D00789408950E94520FEEEFE2BF10
:1006D000A091CF07AF5FA093CF07A434A0F0E09123
:1006E000D307E07421F4E091D307E07209F406C067
:1006F0000E94750FE093D007F093D107E0E0E093FC
:10070000D207E093D307A0E020FCA1E0E0E0CA9983
:10071000E1E0B0E0F0E0E7FDFFEFEA17FB0759F199
:10072000E1E02E26A091CF07AB3028F4E0E0E09383
:10073000D207E093D3070E94750F309721F0A09164
:10074000CF07AD32C0F0E091D307E07441F40E94CE
:10075000750FEE0FFF1FE093D207F093D30720FC35
:1007600007C00E94750FE160E093D207F093D307B2
:10077000E0E0E093CF0760C2BA93AA931A930A937A
:10078000F8940091D0071091D107E0E0E093D007F2
:10079000E093D1077894002E012A09F1D801EBE00B
:1007A0000E946112E170AE81BF81EC93D801E6E056
:1007B0000E946112EF71AC81BD81EC93E02FEF7369
:1007C000AE2FF801E095F0950E9475120E94731209
:1007D000E074EA2BAA81BB81EC93F80102C0E0E04F
:1007E000F0E019810881289608950E94AF0EA0E0DC
:1007F000B5E00E947A0FA091D407A05D0E94C40EBC
:10080000A0E20E94C40EE091D5070E94810FA0E2F1
:100810000E94C40EE091D6070E94810F0895E4ED76
:10082000F7E0FA93EA93E5EDF7E0FA93EA93A6EDA1
:10083000B7E0A2DF3097E9F0E091D607F0E030971B
:1008400019F4E3E1F0E00DC0E130A0E0FA0719F49B
:10085000EFE0F0E006C0E230A0E0FA0751F4E0E19A
:10086000F0E0E093B307F093B407A4E6B0E00E9491
:1008700072110895EA93FA93EFB7EA939798861462
:10088000970429F4E5E0F0E0E415F50539F44301B7
:10089000E1E0F0E02F0164BC979A05C0F2013196C7
:1008A0002F01E0E0E4BDE991EFBFF991E9911895DE
:1008B0002A970E94AF0EA5E0B5E00E947A0F7A92C7
:1008C0006A92ABE8B7E00E94750CABE8B7E00E9413
:1008D000EB0E2EC20E948C0F549741F4ECEDF0E029
:1008E0006E167F061CF4F30135963F010E948C0FB3
:1008F000559741F4E8E7F0E0E615F7051CF4F3013D
:1009000035973F010E948C0F109719F4E3E1F0E056
:1009100005C0E091B107F091B2073197E093B307BA
:10092000F093B4070895009903C0E1E0F0E002C03D
:10093000E0E0F0E0E093B507F093B607029903C05A
:10094000E1E0F0E002C0E0E0F0E0E093B707F09310
:10095000B807049903C0E1E0F0E002C0E0E0F0E095
:10096000E093B907F093BA07069903C0E1E0F0E01D
:1009700002C0E0E0F0E0E093BB07F093BC07E09139
:10098000B507F091B607A8EEB3E00E949312BF013D
:10099000E091B707F091B8070E94910FE091B90775
:1009A000F091BA070E94980FA091BB07B091BC07C5
:1009B000EA0FFB1FE093C507F093C607B09903C089
:1009C000E1E0F0E002C0E0E0F0E0E093BD07F0938A
:1009D000BE07B29903C0E1E0F0E002C0E0E0F0E061
:1009E000E093BF07F093C007B49903C0E1E0F0E0E3
:1009F00002C0E0E0F0E0E093C107F093C207B699CF
:100A000003C0E1E0F0E002C0E0E0F0E0E093C30703
:100A1000F093C407E091BD07F091BE07A8EEB3E0E4
:100A20000E949312BF01E091BF07F091C0070E949E
:100A3000910FE091C107F091C2070E94980FA09119
:100A4000C307B091C407EA0FFB1FE093C707F093F9
:100A5000C8070895E0E3EA93A1E016D0E0E3EA9343
:100A6000A8E012D0E6E0EA93A0E90ED0E8E0EA932D
:100A7000A0EC0AD0EAE1EA93A0E406D0E3E3EA932B
:100A8000A3E302D0A4E624C2AA930E942611A0EBFD
:100A90000E945A11A9810E945A11A8810E945A11DC
:100AA0000E943511AAE0B0E00E94721122960895CA
:100AB0001A9310E00E942611A0EB0E945A11A6E39F
:100AC0000E945A110E943511A1E0B0E00E947211FB
:100AD0000E942611A1EB0E945A1110E01F3090F4E1
:100AE000E12FA1E2B8E0F0E00E949F0FFF93EF93A7
:100AF000A1E00E943F11AF91BF91F0E0ED93FC9314
:100B00001F5FECCFA0E00E943F11AFE3B8E0F0E040
:100B1000ED93FC930E943511D3C11A930A9300E020
:100B200010E000E010E00430E0E01E070CF048C0E8
:100B30000E94A40F0E94AA0FE073F0700E946A1234
:100B4000E0935A08F0935B08F801A6E4B8E00E942D
:100B50009F0FBF010E94A40FDF01AA0FBB1FAD5D55
:100B6000B74F0E94B20F0E94A40F0E94AA0FE07C10
:100B7000F0700E946E12E0935A08F0935B08F8013F
:100B8000AEE4B8E00E949F0FBF010E94A40FDF01F6
:100B9000AA0FBB1FAB5DB74F0E94B20FF801EA5A14
:100BA000F74FBF010E94A40FDF01AA0FBB1FA95D71
:100BB000B74FEC91EF70DB01EC930F5F1F4FB3CF9A
:100BC0000991199108950E94520FE0918000E093DD
:100BD0001F08E0918100E09320080F9B0EC0E09178
:100BE0001F08F0912008E0931908F0931A08E0918B
:100BF0008A00EF7BE0938A001FC0E0911F08F0910C
:100C00002008E0931B08F0931C08E0918A00E06440
:100C1000E0938A00A0911908B0911A08E0911B088E
:100C2000F0911C08EA1BFB0B0E946E12E0931D085A
:100C3000F0931E08689422F8E991EFBFF991E991C9
:100C4000B991A99118958A93EA93EFB7C19A85E370
:100C50008A95F1F7C198EFBFE991899118950E94A3
:100C6000AF0E009903C0A4E1B5E002C0ACE1B5E06D
:100C70000E94EB0E069903C0A4E2B5E002C0AEE20A
:100C8000B5E00E94EB0E0E94BE0F029903C0A8E3DC
:100C9000B5E002C0A1E4B5E00E94EB0E049903C0E8
:100CA000AAE4B5E002C0A3E5B5E00E94EB0E08950A
:100CB00061970E94C30F39F4ACE5B5E00E94EB0EDA
:100CC000DF98DD9806C0ADE6B5E00E94EB0EDF9A36
:100CD000DD9A0E94BE0FAEE7B5E00E94D50FA1E8F5
:100CE000B5E00E94E40FCE9902C00E94F30F619616
:100CF00008952A970E94C30F39F4A5E8B5E00E9431
:100D0000EB0EDF98DD9A06C0A5E9B5E00E94EB0E78
:100D1000DF9ADD980E94BE0FA4EAB5E00E94D50FCD
:100D2000A7EAB5E00E94E40FCE9902C00E94F30F3B
:100D30002A9608950E94AF0EB09903C0ABEAB5E0C1
:100D400002C0A3EBB5E00E94EB0EB69903C0ABEB7B
:100D5000B5E002C0A5ECB5E00E94EB0E0E94BE0F0C
:100D6000B29903C0AFECB5E002C0A8EDB5E00E94B7
:100D7000EB0EB49903C0A1EEB5E002C0AAEEB5E057
:100D80000E94EB0E08952A970E94AC12E09162082F
:100D9000F09163088F01E0915E08F0915F089F0178
:100DA0000E94AF0EA3EFB5E00E94EB0E3A932A9398
:100DB0000E9403100E947A0FA9EFB5E00E94EB0E8B
:100DC0001A930A930E9403100E94EB0E0E94B31222
:100DD0002E9608951A9310E06BDE9FDE0E94AF0EF0
:100DE00010E0143008F063C0123070F50E940A1051
:100DF000EF3FA3E0FA0731F00E941510EF3FA3E0A8
:100E0000FA0729F40E9420100E9426101CC00E949C
:100E10000A100E9430100E9420100E9438100E9478
:100E200015100E943C10A4E11A02F001E85F0E9434
:100E300044100E944910A4E11A02F001E05F0E94F0
:100E400044100E94551031C00E940A10EF3FA3E0E9
:100E5000FA0731F00E941510EF3FA3E0FA0729F4DA
:100E60000E945C100E94261020C00E940A100E945E
:100E700030100E945C100E9438100E9415100E94D1
:100E80003C10E12FE250A4E1EA02F001E85F0E9489
:100E900064100E944910E12FE250A4E1EA02F0013F
:100EA000E05F0E9464100E9455101F5F9ACFAEE170
:100EB000B0E00E947211C39B02C0C39801C0C39AE4
:100EC0001991089592DC08950E94AF0EF1DCA8EC10
:100ED000B0E00E947211089522FE29C00E94BE0F48
:100EE000A0911D08B0911E08A137E7E1BE07B8F434
:100EF0000E94AF0EAEE8B1E00E94FA0E0E94BE0F53
:100F00000E9469100E94AB11FA93EA93A8E0B8E03E
:100F10000E94750CA8E0B8E00E94EB0E06C00E948B
:100F2000AF0EAEE9B1E00E94FA0EE89422F80895FF
:100F30000E947A100AC00E947A10DF9ADD9A089502
:100F40000E94851002C00E949110DF98DD980895DC
:100F50000E946F0F0E94640F0E9485100E949D10D6
:100F6000A0E0B6E00E94A210A3E0B6E00E94B2109A
:100F70000E94590F519784F308950E946F0F0E94A9
:100F8000640F0E9491100E94C210A7E0B6E00E9478
:100F9000A210AAE0B6E00E94B2100E946A0F519718
:100FA00084F308950E946F0F0E94640F0E947A10CC
:100FB0000E94C210AEE0B6E00E94A210A1E1B6E02D
:100FC0000E94B2100E946A0FA034E0E0BE0734F421
:100FD0000E94590FA034E0E0BE070CF001C0E6CF3C
:100FE00008950E946F0F0E94640F0E9485100E9456
:100FF000C210A5E1B6E00E94A210A8E1B6E00E94EE
:10100000B2100E946A0F519784F30E94C7100E9489
:10101000640F0E947A100E94CE10ACE1B6E00E94EC
:10102000A210AFE1B6E00E94B2100E946A0FA4368F
:10103000E0E0BE0734F40E94590FA436E0E0BE079A
:101040000CF001C0E6CF0E94C7100E94640F0E94FE
:1010500091100E949D10A3E2B6E00E94A210A6E2A9
:10106000B6E00E94B2100E94590F519784F30E947B
:10107000C7100E94640F0E947A100E94CE10AAE24C
:10108000B6E00E94A210ADE2B6E00E94B2100E944B
:101090006A0FA436E0E0BE0734F40E94590FA4366C
:1010A000E0E0BE070CF001C0E6CF0895BA93AA9322
:1010B000EE81FF81E093CB07F093CC07EC81FD81BB
:1010C000E093CD07F093CE07EA81E03011F4DF988A
:1010D00001C0DF9AE881E03011F4DD9801C0DD9AAB
:1010E00028960895E0916D08F0916E08309739F4D4
:1010F0000E94D3100E94D3100E94D810FAC1E13090
:10110000A0E0FA0719F4E4E6F0E0E8C1E230A0E07C
:10111000FA0729F40E94DE10E4E6F0E0E3C1E330D0
:10112000A0E0FA0739F40E94DE100E94D3100E945A
:10113000D810DFC1E430A0E0FA0739F40E94D310E0
:101140000E94DE100E94D810D4C1E530A0E0FA075A
:1011500019F4E4E6F0E0C2C1E630A0E0FA0729F4B1
:101160000E94DE10E4E6F0E0BDC1E730A0E0FA073F
:1011700019F40E94E310B6C1E830A0E0FA0719F4B0
:10118000E4E6F0E0ABC1E930A0E0FA0739F40E94F0
:10119000EA100E94EA100E94D810ABC1EA30A0E029
:1011A000FA0719F4E4E6F0E099C1EB30A0E0FA07A1
:1011B00019F4E4E6F0E092C1EC30A0E0FA0729F47B
:1011C0000E94D310E2E3F0E08DC1ED30A0E0FA0719
:1011D00019F40E94E31086C1EE30A0E0FA0729F46A
:1011E0000E94D310E0E5F0E07DC1EF30A0E0FA0707
:1011F00029F40E94EA10E4E6F0E074C1E031A0E0D6
:10120000FA0719F40E94EF106DC1E131A0E0FA076E
:1012100019F40E94EF1066C1E231A0E0FA0719F458
:101220000E94EF105FC1E331A0E0FA0729F40E94A9
:10123000DE10E0E5F0E056C1E431A0E0FA0729F461
:101240000E94DE10E0E5F0E04DC1E531A0E0FA07D4
:1012500029F40E94F610E5E5F0E044C1E631A0E093
:10126000FA0719F4E4E6F0E039C1E731A0E0FA0743
:1012700029F40E94DE10E4E6F0E034C1E831A0E099
:10128000FA0719F4E4E6F0E029C1E931A0E0FA0731
:1012900029F40E94DE10E4E6F0E024C1EA31A0E087
:1012A000FA0719F4E4E6F0E019C1EB31A0E0FA071F
:1012B00029F40E94DE10E4E6F0E014C1EC31A0E075
:1012C000FA0719F4E4E6F0E009C1ED31A0E0FA070D
:1012D00019F4E4E6F0E002C1EE31A0E0FA0729F4E7
:1012E0000E94DE10E4E6F0E0FDC0EF31A0E0FA0776
:1012F00029F40E94DE10E4E6F0E0F4C0E032A0E061
:10130000FA0729F40E94D310E5E5F0E0EBC0E132E2
:10131000A0E0FA0719F40E94FB10E4C0E232A0E05A
:10132000FA0729F40E94DE10E4E6F0E0DBC0E332C5
:10133000A0E0FA0719F40E94FB10D4C0E432A0E048
:10134000FA0719F4E4E6F0E0C9C0E532A0E0FA07D4
:1013500029F40E94DE10E4E6F0E0C4C0E632A0E02A
:10136000FA0719F4E4E6F0E0B9C0E732A0E0FA07C2
:1013700029F40E94DE10E4E6F0E0B4C0E832A0E018
:10138000FA0719F4E4E6F0E0A9C0E932A0E0FA07B0
:1013900029F40E94DE10E4E6F0E0A4C0EA32A0E006
:1013A000FA0729F40E94DE10E4E6F0E09BC0EB327D
:1013B000A0E0FA0719F4E4E6F0E090C0EC32A0E017
:1013C000FA0729F4E1E4F0E00E9402118BC0ED324B
:1013D000A0E0FA0729F40E94EA10EAE5F0E082C0F2
:1013E000EE32A0E0FA0729F40E94EA10EAE5F0E004
:1013F00079C0EF32A0E0FA0729F40E94F610E0E588
:10140000F0E070C0E033A0E0FA0729F40E94F61083
:10141000E0E5F0E067C0E133A0E0FA0729F4EBE48F
:10142000F0E00E9402115EC0E233A0E0FA0709F486
:1014300053C0E333A0E0FA0729F40E94D310EAE591
:10144000F0E050C0E433A0E0FA0719F4E4E6F0E07D
:1014500045C0E533A0E0FA0729F4EBE4F0E00E9490
:10146000021140C0E633A0E0FA0729F40E94EA1016
:10147000E1E4F0E037C0E733A0E0FA0729F40E9486
:10148000EA10E4E6F0E02EC0E833A0E0FA0729F421
:101490000E94EA10E4E6F0E025C0E933A0E0FA0794
:1014A00029F40E94EA10E4E6F0E01CC0EA33A0E070
:1014B000FA0729F40E94D310E0E5F0E013C0EB3303
:1014C000A0E0FA0729F40E94D310E5E5F0E00AC095
:1014D000EC33A0E0FA0779F4E0E5F0E0FA93EA9360
:1014E000E6E4F0E0FA93EA93E1E0F0E0FA93EA93BD
:1014F000A1E0B0E0DBDD0895E0E0E093CB07E0930E
:10150000CC07E093CD07E093CE07E091B307F091CD
:10151000B407309759F40C2C0D2831F40E94AF0E0B
:10152000A1E3B6E00E9407119ADB18C1E130A0E008
:10153000FA0759F40C2C0D2831F40E94AF0EA2E4E6
:10154000B6E00E940711B4DB09C1E230A0E0FA075F
:1015500059F40C2C0D2831F40E94AF0EA2E5B6E030
:101560000E940711C6DBFAC0E330A0E0FA0759F485
:101570000C2C0D2831F40E94AF0EA4E6B6E00E94B8
:101580000711D8DBEBC0E430A0E0FA0759F40C2CCB
:101590000D2831F40E94AF0EA5E7B6E00E940711B6
:1015A000F2DBDCC0E530A0E0FA0759F40C2C0D2882
:1015B00031F40E94AF0EA6E8B6E00E9407110ADCE3
:1015C000CDC0E630A0E0FA0759F40C2C0D2831F418
:1015D0000E94AF0EA6E9B6E00E94071173DCBEC000
:1015E000E730A0E0FA0759F40C2C0D2831F40E94E2
:1015F000AF0EA7EAB6E00E94071166DCAFC0E83084
:10160000A0E0FA0759F40C2C0D2831F40E94AF0E1B
:10161000A6EBB6E00E9407115FDCA0C0E930A0E0B5
:10162000FA0759F40C2C0D2831F40E94AF0EA6ECE9
:10163000B6E00E9407117CDC91C0EA30A0E0FA0716
:1016400059F40C2C0D2831F40E94AF0EA6EDB6E033
:101650000E94071170DC82C0EB30A0E0FA0759F459
:101660000C2C0D2831F40E94AF0EA8EEB6E00E94BB
:10167000071166DC73C0EC30A0E0FA0759F40C2CBB
:101680000D2831F40E94AF0EA9EFB6E00E940711B9
:101690005ADC64C0ED30A0E0FA0759F40C2C0D2898
:1016A00031F40E94AF0EA9E0B7E00E94071165DC9B
:1016B00055C0EE30A0E0FA0759F40C2C0D2831F497
:1016C0000E94AF0EABE1B7E00E94071141DC46C0BB
:1016D000EF30A0E0FA0759F40C2C0D2831F40E94E9
:1016E000AF0EACE2B7E00E9407115CDC37C0E0311E
:1016F000A0E0FA0759F40C2C0D2831F40E94AF0E2B
:10170000A9E3B7E00E9407116CDC28C0E131A0E03A
:10171000FA0759F40C2C0D2831F40E94AF0EABE4FB
:10172000B7E00E940711DEDC19C0E231A0E0FA0741
:1017300059F40C2C0D2831F40E94AF0EADE5B7E042
:101740000E940711CFDC0AC00E94AF0EAFE6B7E0DF
:101750000E947A0FADE7B7E00E94EB0EA2E3B0E083
:101760000E9472110895AA93E0918A07E03019F45B
:10177000689421F805C0E89421F8E0E00C94500F3B
:10178000E881E03019F0E0E00C94500FA091890757
:10179000EFE00E9481120C94500FAA93E881E03090
:1017A00009F040C0E091C507E093F907E091C70751
:1017B000E093FA07E0915E08F0915F08E093FB0781
:1017C000F093FC07E0916208F0916308E093FD0755
:1017D000F093FE07E0916908F0916A08E093FF0733
:1017E000F0930008E0916B08F0916C08E093010819
:1017F000F0930208E0919E07E0930308E091D6077A
:10180000E0930408609205080E946910A6E0B8E021
:101810000E94A911EC93E091E807E0930708EFE03C
:101820000C94500F21FE07C0E091F807F0E0E09320
:10183000B107F093B207E0E00C94500FE0E0EA93B8
:10184000E0E5EA93EAEEF7E0FA93EA93EFE0EA9351
:10185000E9EFF7E0FA93EA93E3EBFBE0FA93EA931C
:10186000ADECBBE00E94A30C08950E94520FECE97E
:10187000ECBDA9ECB7E00E945E0F0E941311A030EE
:10188000E1E0BE072CF0E0E0E093C907E093CA076F
:10189000E091CB07F091CC070E941311AE17BF0760
:1018A00014F0DB9801C0DB9AE091CD07F091CE07F0
:1018B0000E941311AE17BF0714F0D99801C0D99A2E
:1018C000E991EFBFF991E991B991A99118950E9419
:1018D00004030E942111BED8B1DF0EDE0E946A040B
:1018E0000E940F0420D8F9CFFFCFBA93AA93A991F1
:1018F000B991E991F99130962AF4E095F0953196F5
:101900006DE26D93E89480E197E20DD088EE93E06C
:101910000AD084E6992707D08AE005D06E2F10D030
:1019200066276C9308956627E817F90720F06395FA
:10193000E81BF90BC9F7662311F416F008956894B3
:10194000605D6D930895BA93AA93689424F8E7E0D4
:10195000E0938A07EF81F885E0937708F0937808A1
:10196000EE81E0937A08EC81FD81E0937408F093B6
:101970007508EA81FB81E0937B08F0937C08E8819D
:10198000F981E0937D08F0937E08919A909AEA8518
:10199000E03011F0E1E002C0E985EE0FE093720063
:1019A000E0917400E078E564E09374002B9608956C
:1019B0000A921A92FA926A937A938A939A93AA93C2
:1019C000BA93EA93FA93EFB7EA930E94AA1210919E
:1019D0008907009188073091760820918A07E12FC6
:1019E000A0917708B0917808F0E0EA0FFB1FAF01F3
:1019F000E0917100E87FE83011F420E002C0E031AE
:101A000019F4E091730810C0E83111F0E83249F59B
:101A1000031798F4E02F0F5FA0917408B091750838
:101A2000F0E0AE0FBF1FEC91E0937300E091740003
:101A3000EF70E068E093740013C0E09179081E171E
:101A400070F4E0917308E160E0937308E89423F880
:101A5000E0917400EF70E06AE093740013C138C045
:101A600011C1E03531F4E0917300DA01EC931F5FAE
:101A700002C0E03489F4E0917908E1501E1728F0A3
:101A8000E0917400EF70E06804C0E0917400EF70C2
:101A9000E06CE0937400F6C0E83531F4E091730037
:101AA000DA01EC931F5F02C0E03209F402C0E033B8
:101AB00009F402C0E83469F4203051F423FE03C075
:101AC000031728F005C0E09179081E1708F424E0F8
:101AD000D1C0E83331F422E0E0917400EF70E068A7
:101AE000CDC0E83611F0E83711F422E005C0E03649
:101AF00011F0E037A9F420E010E0E89423F8E09139
:101B00007A08E03031F421E0E0917400EF70E06891
:101B100004C0E0917400EF70E06CE0937400B2C018
:101B2000E03811F0E03941F523FE02C021E0A2C007
:101B3000E0917300DA01EC931F5FE0917A081E17C1
:101B4000C0F4E0917B08F0917C08309711F426E016
:101B500091C0A0E0E0917B08F0917C080995E0300D
:101B600039F0E0917400EF70E06CE09374008AC08B
:101B700002C0689423F802C0E83809F402C0E839CA
:101B800039F4E0917400EF70E068E09374007AC07B
:101B9000E03AB9F4E0917400EF70E06CE093740007
:101BA000689424F8E0917B08F0917C08309739F034
:101BB000A1E0E0917B08F0917C08099501C026E046
:101BC00061C0E03B11F422E002C0E83AB9F4E091D0
:101BD0007D08F0917E08309759F0A0E0E0917D08F3
:101BE000F0917E0809953E2FE03011F020E002C010
:101BF00026E040C000E0E89423F802C0E83B01F58D
:101C000023FE02C021E036C0E02F0F5FA0917408D0
:101C1000B0917508F0E0AE0FBF1FEC91E093730038
:101C2000031728F4E0917400EF70E06C06C068942C
:101C300023F8E0917400EF70E068E093740022C034
:101C4000E03C11F0E83C99F4E0917400EF70E06C36
:101C5000E0937400E0917D08F0917E08309731F0B8
:101C6000A1E0E0917D08F0917E08099509C0E0307F
:101C700049F423E0E0917400EF70E06DE0937400AC
:101C8000689424F8109389070093880720938A07A3
:101C9000309376080E94B1122696E991EFBFF99130
:101CA000E991B991A9919991899179916991F99065
:101CB000199009901895FFE0FA95F1F70895A4B3EB
:101CC000AF70A4BBA99AA898F6DFAA9AF4DFA3B3D1
:101CD000AA98F1DFAA9AEFDFAA98A7FDF5CF089599
:101CE000A07FAB2BA5BBAA9A0E945B0EAA980E946C
:101CF0005B0E0895AA93A998A4B3A76FA4BBB5B32C
:101D0000BF70A881EDDFA881A295EADFA99A0C94A3
:101D1000500FAA9A0E945B0EE3B3AA980E945B0E32
:101D2000E07F08950E945B0EF4DFAE2FF2DFA998EA
:101D3000E295EA2B0895AA930E945F0EE881F0E0F5
:101D4000E158F74FE081A981AE0F0E947A0EE98138
:101D5000E0938308E881E0938408229608950E9426
:101D60005F0EA2E00E947A0E0E945F0EACE00E941D
:101D70007A0E0E945F0EA1E00E947A0EE0E0E093EE
:101D80008408E09383080895AA93EF93FF93A881B2
:101D90006894AA3039F0E894E0918508A09183080E
:101DA000AE1758F0E0918408EF5FE0938408E0E01C
:101DB000EA93A0918408BFDF56F0E0918308EF5FBB
:101DC000E09383087CDFA89AA8810E947A0EFF9195
:101DD000EF910C94500FBA93AA931A93A981BA81E8
:101DE000ED91A983BA831E2FE03019F0A12FCCDF2B
:101DF000F5CF10C0BA93AA931A93E981FA8131966C
:101E0000E983FA833197E4911E2FE03019F0A12F76
:101E1000BBDFF3CF188123960895AA27BB2711971C
:101E2000F1F70895AA93A998A4B3A76FA4BBB5B37B
:101E3000BF70A8810E94700EA99A32C0AA93AA9876
:101E4000A898E881E0938508E058E0938108E8814C
:101E5000E054E09382080E9418110E9418110E9419
:101E60001811DBDFA0E2DEDFD8DFA8E20E941D113F
:101E7000A4E00E941D11A5E80E941D11A4B3AF703B
:101E8000A4BBA99A0E94920EE53011F0E0E008C0D0
:101E90000E945F0EA6E00E947A0E0E94AF0EE1E063
:101EA00021960895AA93BA93EA93FA93EFB7EA9327
:101EB0000895A0916B08B0916C080895ED91FD9183
:101EC0003196FE93EE930895E0E0E0936B08E09383
:101ED0006C080895A0916908B0916A080895E0E03F
:101EE000E0936908E0936A080895E091D207F091C1
:101EF000D30708950E94EB0EE0E0EA93A1E00C9472
:101F00009B0EF0E0FA93EA93A7EDB7E00E94750C00
:101F1000A7EDB7E00C94EB0EA091B107B091B2071A
:101F20000895A4E6B0E00E9493126E0F7F1F0895FB
:101F3000AAE0B0E00E949312E60FF71F0895EE0F9B
:101F4000FF1FEA0FFB1F0895F801A3E0B0E00E9415
:101F500093120895DF01AA0FBB1FA95DB74F0E941E
:101F6000A61208950E94A612A0915A08B0915B088B
:101F7000EA0FFB1FDB01ED93FC930895E0E0EA9389
:101F8000A1E00C949B0EE4E6F0E0E093CB07F09325
:101F9000CC07E093CD07F093CE070E94AF0EE091FF
:101FA0009C07F0919D07309708950E94EB0EE091F9
:101FB0006908F0916A08FA93EA93DE0112960E948A
:101FC000750CDE010C94EB0E0E94EB0EE0916B0899
:101FD000F0916C08FA93EA93DE0112960E94750C58
:101FE000DE010C94EB0EAAEFB0E00E947211E091BA
:101FF0009C07F0919D070E948612F0E0E0939C07F9
:10200000F0939D070895DE0116960E94750CDE017F
:1020100014960895E12FA6E4B8E0F0E0EE0FFF1F5C
:10202000AE0FBF1F0E94A6120895E12FAEE4B8E0E4
:10203000F0E0EE0FFF1FAE0FBF1F0E94A612089523
:10204000A4E11A020A92A0E00C949B0EA3E8B1E06E
:102050000E94FA0EE0E0E0939E07E0939F07089548
:10206000E050F240FA93EA93A1E4B8E00C94750CC6
:10207000A1E4B8E00C94EB0EE657F140FA93EA9332
:10208000A1E4B8E00C94750CEA93A0E00E949B0ECA
:10209000EFCFE12FF0E0EA5AF74FE081F0E0FA935A
:1020A000EA93A1E4B8E00C94750CE1E0F0E0E09371
:1020B0009E07F0939F070895E12FE250A4E1EA0202
:1020C0000A92A1E00C949B0EEA93A1E00E949B0E61
:1020D000CFCFE0911D08F0911E08662777270E9458
:1020E000E211DF01CB01EDECFCEC60E572E40E9453
:1020F00010120895E4E6F0E0E093CB07F093CC07EC
:10210000E093CD07F093CE070895E0E0E093CB078E
:10211000E093CC07E4E6F0E0E093CD07F093CE0740
:102120000895E4E6F0E0E093CB07F093CC07E0E01D
:10213000E093CD07E093CE070895DF98DD9A0E94E3
:10214000AF0E1CCF0E94EB0EE0916908F0916A0877
:10215000FA93EA93A0EAB7E00E94750CA0EAB7E010
:102160000C94EB0E0E94EB0EE0916B08F0916C0862
:10217000FA93EA93A0EAB7E00E94750CA0EAB7E0F0
:102180000C94EB0EDF9ADD980E94AF0EF7CED99833
:10219000DB98A8EEB3E00E947211A1CEDF98DD9823
:1021A0000E94AF0EEBCEE4E6F0E0FA93EA930895D6
:1021B000E0E0F0E0FA93EA93A0E00895E6E4F0E0CE
:1021C000FA93EA930895E2E3F0E0FA93EA93E4E6FF
:1021D000F0E00895E0E5F0E0FA93EA930895EAE587
:1021E000F0E0FA93EA93E4E6F0E00895EAE5F0E03F
:1021F000FA93EA930895E5E5F0E0FA93EA93E4E6CA
:10220000F0E00895FA93EA93E4E6F0E008950E947E
:10221000EB0EA8EEB3E00E9472110E94AF0EE1E057
:10222000F0E06F010895A091C907B091CA07089521
:102230000E940D0FA0E30C94120F0E947A0E0C94D2
:102240000D0FC398C598BB9ABD9815C0BD98BB9893
:10225000EE270000B59B0895B39B089504D0BD9A66
:1022600002D0BB9AE1E06BE107C0BD9ABB9A03D0F4
:10227000BB98F9DFBD9865E36A95F1F7089578E0BA
:10228000BB98F1DFB39BFECFEEDF8894B59908943D
:10229000BB9AF1DFEE1F7A9599F77A2F772311F425
:1022A000BD9801C0BD9ADFDFBB98E5DFBB9ADBDFDD
:1022B000BD98D9CF78E0AA0F10F4BD9801C0BD9A9F
:1022C000DADFBB98D0DFB39BFECFCDDFBB9A7A9528
:1022D00091F7BD98C8DFBB98CEDFE1E0B599EE2756
:1022E000BB9AC1CF109639F080EA9FE00197F1F7D1
:1022F000A8951197C9F70895552342F4503811F461
:10230000E0FF04C03196691F791F6BF050E8572732
:1023100011F45F9373C05F3F31F0660F000C579567
:102320006795752F08955F9300200AF073C06CC005
:1023300050E8192E1522880F991F9527550F87955C
:1023400050E8072E0522660F771F7527550F6795F2
:102350000895689401C0E8945F93F2DF703818F034
:102360007F3F08F44BC056E1571BAAF451955830F3
:102370000EF4593030F0EFEFFFEF6FEF7FE777F9B2
:102380001AC077275523B9F0EE0FFF1F661F771F7E
:102390005A95D1F710C07727583028F0EF2FF62F35
:1023A000672F5850F9CF552331F076956795F795FB
:1023B000E7955A95D1F700200AF47BD05F910895F4
:1023C000689401C0E894309760407040B1F00024F8
:1023D00026F0772312F400946CD0172E7EE11120A2
:1023E00032F07A95EE0FFF1F661F111CF9CFEF2F09
:1023F000F62F612D5F938ADF5F910895EE27FF2707
:10240000662777275F910895EFEFFFEF6FE77FEF84
:102410005F910895EFEFFFEF6FE77FE75F9108951A
:102420005F9386DF703821F411200AF4EDCFF2CFEC
:10243000903809F4E3CF01240894970B1BF4D4F3EC
:102440000020F3CF792F1F932F933F934F931124A5
:102450001127222733274427552790E2AE17BF07BD
:102460008607410730F0AE1BBF0B860B410B08946B
:1024700001C08894551F221F331F111CAA1FBB1FA8
:10248000881F441F9A9551F7F901612D4F913F9193
:102490002F911F91662332F0550FEE1FFF1F661F0D
:1024A0007A9543F229DF5F910895F195E195F04027
:1024B0000895F09560957095E195FF4F6F4F7F4FB0
:1024C0000895EE230E2EFD0121F0F695E7950A946E
:1024D000E1F70895EE0FFF1FEE0FFF1FEE0FFF1F36
:1024E000EE0FFF1F0895F695E795F695E795F6959B
:1024F000E795F695E79508956F2F660F660B762F93
:102500000895AE17E1E008F0EE270895EF2BE1E023
:1025100009F0E0E00895FA9FF02DEB9FF00DEA9F9F
:10252000E02DF10D089504D0F6DF0EF4BEDF08951E
:10253000E894F7FF02C0B9DF6894B7FF06C0A09522
:10254000B095119600F8039400FA0895ED91FC916E
:10255000119708955A934A933A932A931A930A9398
:1025600008955D814C813B812A81198108810895FC
:00000001FF
