:040000000C948602D4
:100004000C9400000C9400000C9400000C9400006C
:100014000C94E4020C9400000C94F4020C94000080
:100024000C9400000C9439040C9400000C9400000F
:100034000C9400000C94250A0C9400000C946303A7
:100044000C9400000C9400000C9400000C9400002C
:100054000C94B6020C9400000C9400000C94000064
:100064000C94E5050C9425060C9400000C940000F7
:100074000C9400000C9400000C9400000C940000FC
:100084000C94C60A0C9400001027E80364000A00CC
:100094000100001000011000010001000100AA008D
:1000A40000000000000013000A00444154410050C5
:1000B4004F534954494F4E2D534552564F004C45CA
:1000C40046543A2031004C4546543A2030002052E0
:1000D400494748543A2031002052494748543A206D
:1000E40030004D4C4546543A2031004D4C45465461
:1000F4003A2030004D52494748543A31004D524954
:100104004748543A30002020202020454E434F4495
:10011400455220203E3E003C3C202020454E434F8B
:1001240044455220202020004C3A0020523A00201E
:1001340020202020524543485453202020200020D2
:10014400202020204C494E4B532020202000464C98
:100154004546543A203100464C4546543A20300036
:100164004652494748543A31004652494748543A5E
:1001740030004C4546543A0052494748543A004EE0
:100184006F204F626A65637421004F626A656B7405
:1001940020676566756E64656E004B65696E204FF9
:1001A400626A656B740020204C494E4544455445B1
:1001B40043544F522020002020202020454E474900
:1001C4004E45202020200020202020205354454547
:1001D40052494E4720202020002044495354414E88
:1001E400434553454E534F52200020204C49474825
:1001F400542053454E534F522020002020202020CD
:100204005749492043414D202020002020202049E7
:100214005220544F574552202020200020202020D7
:1002240020534552564F2020202000202020554C9A
:10023400545241534F4E4943202000202020202077
:10024400464F522020202020202000202020202043
:10025400204241434B202020202020200020202029
:100264002020204C454654202020202020002020FF
:1002740020202052494748542020202020002020BC
:100284002020203930B04C45465420202020200026
:10029400202020203930B0524947485420202020C3
:1002A40000202020205350494E20202020002020D0
:1002B40020203173742053544154452020202000C1
:1002C40020202020326E64205354415445202020A5
:1002D40020002020202033726420535441544520B0
:1002E40020202000202020426C75654D61746963D4
:1002F40073002020202020526F626279004F4B004F
:10030400427566666572206F766572666C6F7700FB
:100314004172626974726174696F6E206C6F737478
:1003240000427573206572726F72004E41434B2018
:100334007265636569766564004275732074696DDE
:10034400656F7574004661696C00556E6B6E6F77EE
:100354006E206572726F720001002D4E414E00498D
:100364004E460000070080C0010002009E000A0003
:100374000400A0000100B307AA0005000005AE00B8
:100384000F000505B30008001405C20008001C0591
:10039400CA000A002405D2000A002E05DC00090068
:1003A4003805E60009004105EF0009004A05F80098
:1003B40009005305010111005C050A0111006D05D6
:1003C4001B0103007E052C01040081052F01100090
:1003D400850533010F00950543010300A4052C0195
:1003E4000400A7052F010800AB05C2000800B305EF
:1003F400CA000A00BB05D2000A00C505DC000900DA
:10040400CF0552010900D8055B010900E10564012B
:100414000900EA056D010600F30576010700F905F8
:100424007C01030000062C01040003062F010300D5
:1004340007062C0104000A062F0103000E062C01F6
:10044400040011062F01030015062C0104001806F0
:100454002F0103001C062C0104001F062F010300BA
:1004640023062C01040026062F0103002A062C0172
:1004740004002D062F0111003106AA0110004206C6
:10048400BB0112005206CB0111006406DD0111000C
:100494007506EE0110008606FF01110096060F0294
:1004A4000F00A70620021000B6062F021000C60691
:1004B4003F021200D6064F021100E8066102100046
:1004C400F906720212000907820211001B07940246
:1004D4000D002C07A50212003907B20212004B07C7
:1004E400C40212005D07D6020E006F07E8020B007B
:1004F4007D07F60201006F085C0301008A076803A8
:1005040002007F086A030000F894EE27ECBBF1E0D8
:10051400F5BFE5BFE0936C008DE0A2E0BB27ED934F
:100524008A95E9F780E090E1A0E0B1E0ED930197CE
:10053400E9F7ECE6F3E085919591009761F0A591D8
:10054400B59105901590BF01F00105900D920197AA
:10055400E1F7FB01F0CF8BBFEFEFEDBFE0E1EEBFC2
:10056400C0E0D5E00C94570A8A93AA93BA93EA930D
:10057400FA93EFB7EA93E0916808ACE5B8E0F0E0ED
:10058400EE0FFF1FAE0FBF1FE4B1F5B1ED93FC9367
:10059400A0916808AF5FA0936808A63018F0E0E067
:1005A400E0936808E0916808E05CE7B985E38A9520
:1005B400F1F7369AE991EFBFF991E991B991A991CF
:1005C400899118950E94400D0E94470DA032EEE4D7
:1005D400BE072CF4ABE6B8E00E944C0D02C00E94AA
:1005E400520D2AC30E94400D0E94580DA032EEE421
:1005F400BE072CF4A9E6B8E00E944C0D02C00E948C
:100604005D0D1AC3EAE8EABBE2E0E7BBE1EAE1BB5D
:10061400E0E2E2B9E0936100A0E10E940C0DE0E4A5
:10062400E7B9EFECE6B9E0E0E0BDE0E8E8B9E0E026
:10063400E0936A00E1E1EABFE0E5E9BFE0E0E8BF9A
:10064400E0BFE6E0E3BFE3E8E2BFE0E0E1BFE1E012
:10065400EFBDEAE0EEBDE0E0EDBDECBDE7BDE6BD1B
:10066400EBBDEABDE9BDE8BDE0937900E093780015
:10067400E4E0E5BDE0E0E4BDE3BDE0938B00EBEC3A
:10068400E0938A00E0E0E0938900E0938800E0933F
:100694008100E0938000E1E6E0938700E8EAE093DC
:1006A4008600E0E0E0938500E0938400E09383001B
:1006B400E0938200E5E4E7BFE0E3E0937D00789413
:1006C40008950E94400DEEEFE2BFA091CF07AF5F07
:1006D400A093CF07A434A0F0E091D307E07421F4F1
:1006E400E091D307E07209F406C00E94630DE09321
:1006F400D007F093D107E0E0E093D207E093D3076B
:10070400A0E020FCA1E0E0E0CA99E1E0B0E0F0E084
:10071400E7FDFFEFEA17FB0759F1E1E02E26A09170
:10072400CF07AB3028F4E0E0E093D207E093D3079F
:100734000E94630D309721F0A091CF07AD32C0F035
:10074400E091D307E07441F40E94630DEE0FFF1FA4
:10075400E093D207F093D30720FC07C00E94630DF7
:10076400E160E093D207F093D307E0E0E093CF0792
:1007740063C2BA93AA931A930A93F8940091D00788
:100784001091D107E0E0E093D007E093D10778948B
:10079400002E012A09F1D801EBE00E941B10E17040
:1007A400AE81BF81EC93D801E6E00E941B10EF718B
:1007B400AC81BD81EC93E02FEF73AE2FF801E0958F
:1007C400F0950E942F100E942D10E074EA2BAA814C
:1007D400BB81EC93F80102C0E0E0F0E019810881EC
:1007E400289608950E949D0CA0E0B5E00E94680D33
:1007F400A091D407A05D0E94B20CA0E20E94B20CAA
:10080400E091D5070E946F0DA0E20E94B20CE09126
:10081400D6070E946F0D0895E4EDF7E0FA93EA938A
:10082400E5EDF7E0FA93EA93A6EDB7E0A2DF30979F
:10083400E9F0E091D607F0E0309719F4E3E1F0E055
:100844000DC0E130A0E0FA0719F4EFE0F0E006C0D3
:10085400E230A0E0FA0751F4E0E1F0E0E093B307FE
:10086400F093B407A4E6B0E00E942C0F0895EA9335
:10087400FA93EFB7EA9397988614970429F4E5E07E
:10088400F0E0E415F50539F44301E1E0F0E02F016F
:1008940064BC979A05C0F20131962F01E0E0E4BDF3
:1008A400E991EFBFF991E99118952A970E949D0C5F
:1008B400A5E0B5E00E94680D7A926A92ABE8B7E0D1
:1008C4000E94630AABE8B7E00E94D90C31C20E94CF
:1008D4007A0D549741F4ECEDF0E06E167F061CF4AB
:1008E400F30135963F010E947A0D559741F4E8E7EC
:1008F400F0E0E615F7051CF4F30135973F010E947B
:100904007A0D109719F4E3E1F0E005C0E091B10726
:10091400F091B2073197E093B307F093B4070895C9
:10092400009903C0E1E0F0E002C0E0E0F0E0E09311
:10093400B507F093B607029903C0E1E0F0E002C006
:10094400E0E0F0E0E093B707F093B807049903C040
:10095400E1E0F0E002C0E0E0F0E0E093B907F093FA
:10096400BA07069903C0E1E0F0E002C0E0E0F0E07D
:10097400E093BB07F093BC07E091B507F091B6078D
:10098400A8EEB3E00E944D10BF01E091B707F091CB
:10099400B8070E947F0DE091B907F091BA070E9451
:1009A400860DA091BB07B091BC07EA0FFB1FE09333
:1009B400C507F093C607B09903C0E1E0F0E002C0B8
:1009C400E0E0F0E0E093BD07F093BE07B29903C006
:1009D400E1E0F0E002C0E0E0F0E0E093BF07F09374
:1009E400C007B49903C0E1E0F0E002C0E0E0F0E049
:1009F400E093C107F093C207B69903C0E1E0F0E0C9
:100A040002C0E0E0F0E0E093C307F093C407E09194
:100A1400BD07F091BE07A8EEB3E00E944D10BF01E0
:100A2400E091BF07F091C0070E947F0DE091C107DC
:100A3400F091C2070E94860DA091C307B091C4072C
:100A4400EA0FFB1FE093C707F093C8070895E0E39C
:100A5400EA93A1E019D0E0E3EA93A8E015D0E6E038
:100A6400EA93A0E911D0E8E0EA93A0EC0DD0EAE122
:100A7400EA93A0E409D0E3E3EA93A3E305D0A4E670
:100A8400B0E00E942C0F0895AA930E94E00EA0EB00
:100A94000E94140FA9810E94140FA8810E94140FB0
:100AA4000E94EF0EAAE0B0E00E942C0F2296089557
:100AB4001A9310E00E94E00EA0EB0E94140FA6E32C
:100AC4000E94140F0E94EF0EA1E0B0E00E942C0FD0
:100AD4000E94E00EA1EB0E94140F10E01F3090F46E
:100AE400E12FA1E2B8E0F0E00E948D0DFF93EF93B7
:100AF400A1E00E94F90EAF91BF91F0E0ED93FC9359
:100B04001F5FECCFA0E00E94F90EAFE3B8E0F0E085
:100B1400ED93FC930E94EF0ED3C11A930A9300E065
:100B240010E000E010E00430E0E01E070CF048C0E4
:100B34000E94920D0E94980DE073F0700E942410A0
:100B4400E0935A08F0935B08F801A6E4B8E00E9429
:100B54008D0DBF010E94920DDF01AA0FBB1FAD5D79
:100B6400B74F0E94A00D0E94920D0E94980DE07C48
:100B7400F0700E942810E0935A08F0935B08F80183
:100B8400AEE4B8E00E948D0DBF010E94920DDF011A
:100B9400AA0FBB1FAB5DB74F0E94A00DF801EA5A24
:100BA400F74FBF010E94920DDF01AA0FBB1FA95D81
:100BB400B74FEC91EF70DB01EC930F5F1F4FB3CF96
:100BC4000991199108950E94400DE0918000E093ED
:100BD4001F08E0918100E09320080F9B0EC0E09174
:100BE4001F08F0912008E0931908F0931A08E09187
:100BF4008A00EF7BE0938A001FC0E0911F08F09108
:100C04002008E0931B08F0931C08E0918A00E0643C
:100C1400E0938A00A0911908B0911A08E0911B088A
:100C2400F0911C08EA1BFB0B0E942810E0931D089E
:100C3400F0931E08689422F8E991EFBFF991E991C5
:100C4400B991A99118958A93EA93EFB7C19A85E36C
:100C54008A95F1F7C198EFBFE991899118950E949F
:100C64009D0C009903C0A4E1B5E002C0ACE1B5E07D
:100C74000E94D90C069903C0A4E2B5E002C0AEE21A
:100C8400B5E00E94D90C0E94AC0D029903C0A8E300
:100C9400B5E002C0A1E4B5E00E94D90C049903C0F8
:100CA400AAE4B5E002C0A3E5B5E00E94D90C08951A
:100CB40061970E94B10D39F4ACE5B5E00E94D90CFE
:100CC400DF98DD9806C0ADE6B5E00E94D90CDF9A46
:100CD400DD9A0E94AC0DAEE7B5E00E94C30DA1E819
:100CE400B5E00E94D20DCE9902C00E94E10D61963A
:100CF40008952A970E94B10D39F4A5E8B5E00E9441
:100D0400D90CDF98DD9A06C0A5E9B5E00E94D90C9C
:100D1400DF9ADD980E94AC0DA4EAB5E00E94C30DF1
:100D2400A7EAB5E00E94D20DCE9902C00E94E10D5F
:100D34002A9608950E949D0CB09903C0ABEAB5E0D1
:100D440002C0A3EBB5E00E94D90CB69903C0ABEB8B
:100D5400B5E002C0A5ECB5E00E94D90C0E94AC0D30
:100D6400B29903C0AFECB5E002C0A8EDB5E00E94B3
:100D7400D90CB49903C0A1EEB5E002C0AAEEB5E067
:100D84000E94D90C08952A970E946610E091620887
:100D9400F09163088F01E0915E08F0915F089F0174
:100DA4000E949D0CA3EFB5E00E94D90C3A932A93BC
:100DB4000E94F10D0E94680DA9EFB5E00E94D90CC4
:100DC4001A930A930E94F10D0E94D90C0E946D108F
:100DD4002E9608951A9310E06BDE9FDE0E949D0C00
:100DE40010E0143008F063C0123070F50E94F80D62
:100DF400EF3FA3E0FA0731F00E94030EEF3FA3E0B8
:100E0400FA0729F40E940E0E0E94140E1CC00E94C0
:100E1400F80D0E941E0E0E940E0E0E94260E0E94C5
:100E2400030E0E942A0EA4E11A02F001E85F0E9458
:100E3400320E0E94370EA4E11A02F001E05F0E9414
:100E4400320E0E94430E31C00E94F80DEF3FA3E022
:100E5400FA0731F00E94030EEF3FA3E0FA0729F4EA
:100E64000E944A0E0E94140E20C00E94F80D0E9497
:100E74001E0E0E944A0E0E94260E0E94030E0E941D
:100E84002A0EE12FE250A4E1EA02F001E85F0E9499
:100E9400520E0E94370EE12FE250A4E1EA02F00163
:100EA400E05F0E94520E0E94430E1F5F9ACFAEE194
:100EB400B0E00E942C0FC39B02C0C39801C0C39A28
:100EC400199108958FDC08950E949D0CEEDCA8EC26
:100ED40034C222FE29C00E94AC0DA0911D08B0911D
:100EE4001E08A137E7E1BE07B8F40E949D0CAEE8E6
:100EF400B1E00E94E80C0E94AC0D0E94570E0E94C3
:100F0400650FFA93EA93A8E0B8E00E94630AA8E0A8
:100F1400B8E00E94D90C06C00E949D0CAEE9B1E075
:100F24000E94E80CE89422F808950E94680E0AC012
:100F34000E94680EDF9ADD9A08950E94730E02C023
:100F44000E947F0EDF98DD9808950E945D0D0E9437
:100F5400520D0E94730E0E948B0EA0E0B6E00E9418
:100F6400900EA3E0B6E00E94A00E0E94470D519798
:100F740084F308950E945D0D0E94520D0E947F0E1D
:100F84000E94B00EA7E0B6E00E94900EAAE0B6E080
:100F94000E94A00E0E94580D519784F308950E9458
:100FA4005D0D0E94520D0E94680E0E94B00EAEE0CC
:100FB400B6E00E94900EA1E1B6E00E94A00E0E944D
:100FC400580DA034E0E0BE0734F40E94470DA0346D
:100FD400E0E0BE070CF001C0E6CF08950E945D0D6D
:100FE4000E94520D0E94730E0E94B00EA5E1B6E05D
:100FF4000E94900EA8E1B6E00E94A00E0E94580D37
:10100400519784F30E94B50E0E94520D0E94680EFF
:101014000E94BC0EACE1B6E00E94900EAFE1B6E0D7
:101024000E94A00E0E94580DA436E0E0BE0734F4DE
:101034000E94470DA436E0E0BE070CF001C0E6CFE5
:101044000E94B50E0E94520D0E947F0E0E948B0ECC
:10105400A3E2B6E00E94900EA6E2B6E00E94A00EC3
:101064000E94470D519784F30E94B50E0E94520DC1
:101074000E94680E0E94BC0EAAE2B6E00E94900E86
:10108400ADE2B6E00E94A00E0E94580DA436E0E046
:10109400BE0734F40E94470DA436E0E0BE070CF00E
:1010A40001C0E6CF08950E945D0D0E94520D0E947A
:1010B400680EDF98DD980E94580DA034E0E0BE076A
:1010C40034F40E94470DA034E0E0BE070CF001C0E8
:1010D400EECF0895E0E0E093CB07E093CC07E093F4
:1010E400CD07E093CE07E091B307F091B4073097B2
:1010F40059F40C2C0D2831F40E949D0CA1E3B6E0A8
:101104000E94C10EACDD18C1E130A0E0FA0759F429
:101114000C2C0D2831F40E949D0CA2E4B6E00E9430
:10112400C10EC6DD09C1E230A0E0FA0759F40C2C67
:101134000D2831F40E949D0CA2E5B6E00E94C10E78
:10114400D8DDFAC0E330A0E0FA0759F40C2C0D28DE
:1011540031F40E949D0CA4E6B6E00E94C10EEADDC3
:10116400EBC0E430A0E0FA0759F40C2C0D2831F45C
:101174000E949D0CA5E7B6E00E94C10E04DEDCC00F
:10118400E530A0E0FA0759F40C2C0D2831F40E9444
:101194009D0CA6E8B6E00E94C10E1CDECDC0E63070
:1011A400A0E0FA0759F40C2C0D2831F40E949D0C90
:1011B400A6E9B6E00E94C10E85DEBEC0E730A0E01D
:1011C400FA0759F40C2C0D2831F40E949D0CA7EA5F
:1011D400B6E00E94C10E78DEAFC0E830A0E0FA07A6
:1011E40059F40C2C0D2831F40E949D0CA6EBB6E0AA
:1011F4000E94C10E6EDEA0C0E930A0E0FA0759F4E7
:101204000C2C0D2831F40E949D0CA6ECB6E00E9433
:10121400C10E8BDE91C0EA30A0E0FA0759F40C2C21
:101224000D2831F40E949D0CA6EDB6E00E94C10E7B
:101234007FDE82C0EB30A0E0FA0759F40C2C0D28B5
:1012440031F40E949D0CA8EEB6E00E94C10E75DE3A
:1012540073C0EC30A0E0FA0759F40C2C0D2831F4DB
:101264000E949D0CA9EFB6E00E94C10E69DE64C025
:10127400ED30A0E0FA0759F40C2C0D2831F40E944B
:101284009D0CA9E0B7E00E94C10E74DE55C0EE309B
:10129400A0E0FA0759F40C2C0D2831F40E949D0C9F
:1012A400ABE1B7E00E94C10E50DE46C0EF30A0E0D3
:1012B400FA0759F40C2C0D2831F40E949D0CACE271
:1012C400B7E00E94C10E6BDE37C0E031A0E0FA0740
:1012D40059F40C2C0D2831F40E949D0CA9E3B7E0BD
:1012E4000E94C10E7BDE28C0E131A0E0FA0759F468
:1012F4000C2C0D2831F40E949D0CABE4B7E00E9445
:10130400C10ED1DE19C0E231A0E0FA0759F40C2C69
:101314000D2831F40E949D0CADE5B7E00E94C10E8A
:10132400C2DE0AC00E949D0CAFE6B7E00E94680DC1
:10133400ADE7B7E00E94D90CA2E3B0E00E942C0F05
:101344000895AA93E0918A07E03019F4689421F88B
:1013540005C0E89421F8E0E00C943E0DE881E0300B
:1013640019F0E0E00C943E0DA0918907EFE00E9493
:101374003B100C943E0DAA93E881E03009F040C084
:10138400E091C507E093F907E091C707E093FA07F6
:10139400E0915E08F0915F08E093FB07F093FC078F
:1013A400E0916208F0916308E093FD07F093FE0773
:1013B400E0916908F0916A08E093FF07F093000850
:1013C400E0916B08F0916C08E0930108F093020837
:1013D400E0919E07E0930308E091D607E0930408A8
:1013E400609205080E94570EA6E0B8E00E94630FC1
:1013F400EC93E091E807E0930708EFE00C943E0DCE
:1014040021FE07C0E091F807F0E0E093B107F09304
:10141400B207E0E00C943E0DE0E0EA93E0E5EA93E5
:10142400EAEEF7E0FA93EA93EFE0EA93E9EFF7E004
:10143400FA93EA93E3EAF9E0FA93EA93ADEBB9E0BD
:101444000E94910A08950E94400DECE9ECBDA9ECBC
:10145400B7E00E944C0D0E94CD0EA030E1E0BE0723
:101464002CF0E0E0E093C907E093CA07E091CB07D2
:10147400F091CC070E94CD0EAE17BF0714F0DB9895
:1014840001C0DB9AE091CD07F091CE070E94CD0E0A
:10149400AE17BF0714F0D99801C0D99AE991EFBFEC
:1014A400F991E991B991A99118950E9404030E94B8
:1014B400DB0ECDDAB1DF0EDE0ADAAED931DAFBCFDC
:1014C400FFCFBA93AA93A991B991E991F991309672
:1014D4002AF4E095F09531966DE26D93E89480E1FD
:1014E40097E20DD088EE93E00AD084E6992707D0DE
:1014F4008AE005D06E2F10D066276C930895662776
:10150400E817F90720F06395E81BF90BC9F7662380
:1015140011F416F008956894605D6D930895BA937C
:10152400AA93689424F8E7E0E0938A07EF81F885AA
:10153400E0937708F0937808EE81E0937A08EC81E1
:10154400FD81E0937408F0937508EA81FB81E093D0
:101554007B08F0937C08E881F981E0937D08F0939F
:101564007E08919A909AEA85E03011F0E1E002C099
:10157400E985EE0FE0937200E0917400E078E56491
:10158400E09374002B9608950A921A92FA926A9341
:101594007A938A939A93AA93BA93EA93FA93EFB7B6
:1015A400EA930E9464101091890700918807309192
:1015B400760820918A07E12FA0917708B0917808E6
:1015C400F0E0EA0FFB1FAF01E0917100E87FE83023
:1015D40011F420E002C0E03119F4E091730810C066
:1015E400E83111F0E83249F5031798F4E02F0F5F62
:1015F400A0917408B0917508F0E0AE0FBF1FEC9194
:10160400E0937300E0917400EF70E068E09374007D
:1016140013C0E09179081E1770F4E0917308E1603B
:10162400E0937308E89423F8E0917400EF70E06AA3
:10163400E093740013C138C011C1E03531F4E09176
:101644007300DA01EC931F5F02C0E03489F4E09187
:101654007908E1501E1728F0E0917400EF70E068FB
:1016640004C0E0917400EF70E06CE0937400F6C085
:10167400E83531F4E0917300DA01EC931F5F02C0A6
:10168400E03209F402C0E03309F402C0E83469F43A
:10169400203051F423FE03C0031728F005C0E09165
:1016A40079081E1708F424E0D1C0E83331F422E0AD
:1016B400E0917400EF70E068CDC0E83611F0E837CF
:1016C40011F422E005C0E03611F0E037A9F420E07F
:1016D40010E0E89423F8E0917A08E03031F421E056
:1016E400E0917400EF70E06804C0E0917400EF7062
:1016F400E06CE0937400B2C0E03811F0E03941F5D9
:1017040023FE02C021E0A2C0E0917300DA01EC9351
:101714001F5FE0917A081E17C0F4E0917B08F091F6
:101724007C08309711F426E091C0A0E0E0917B089A
:10173400F0917C080995E03039F0E0917400EF7085
:10174400E06CE09374008AC002C0689423F802C07D
:10175400E83809F402C0E83939F4E0917400EF7014
:10176400E068E09374007AC0E03AB9F4E091740060
:10177400EF70E06CE0937400689424F8E0917B08C7
:10178400F0917C08309739F0A1E0E0917B08F0916A
:101794007C08099501C026E061C0E03B11F422E019
:1017A40002C0E83AB9F4E0917D08F0917E083097E0
:1017B40059F0A0E0E0917D08F0917E0809953E2F54
:1017C400E03011F020E002C026E040C000E0E894E0
:1017D40023F802C0E83B01F523FE02C021E036C035
:1017E400E02F0F5FA0917408B0917508F0E0AE0F80
:1017F400BF1FEC91E0937300031728F4E091740089
:10180400EF70E06C06C0689423F8E0917400EF7008
:10181400E068E093740022C0E03C11F0E83C99F4E5
:10182400E0917400EF70E06CE0937400E0917D0847
:10183400F0917E08309731F0A1E0E0917D08F091BD
:101844007E08099509C0E03049F423E0E091740072
:10185400EF70E06DE0937400689424F810938907A6
:101864000093880720938A07309376080E946B10B0
:101874002696E991EFBFF991E991B991A9919991CE
:10188400899179916991F990199009901895FFE0DF
:10189400FA95F1F70895A4B3AF70A4BBA99AA898D8
:1018A400F6DFAA9AF4DFA3B3AA98F1DFAA9AEFDFCE
:1018B400AA98A7FDF5CF0895A07FAB2BA5BBAA9A44
:1018C4000E94490CAA980E94490C0895AA93A998C9
:1018D400A4B3A76FA4BBB5B3BF70A881EDDFA88183
:1018E400A295EADFA99A0C943E0DAA9A0E94490C8B
:1018F400E3B3AA980E94490CE07F08950E94490C22
:10190400F4DFAE2FF2DFA998E295EA2B0895AA93AB
:101914000E944D0CE881F0E0E158F74FE081A98185
:10192400AE0F0E94680CE981E0938308E881E0939C
:101934008408229608950E944D0CA2E00E94680C2F
:101944000E944D0CACE00E94680C0E944D0CA1E07A
:101954000E94680CE0E0E0938408E0938308089513
:10196400AA93EF93FF93A8816894AA3039F0E8947E
:10197400E0918508A0918308AE1758F0E09184089F
:10198400EF5FE0938408E0E0EA93A0918408BFDF6E
:1019940056F0E0918308EF5FE09383087CDFA89A18
:1019A400A8810E94680CFF91EF910C943E0DBA93AC
:1019B400AA931A93A981BA81ED91A983BA831E2FA0
:1019C400E03019F0A12FCCDFF5CF10C0BA93AA9361
:1019D4001A93E981FA813196E983FA833197E49184
:1019E4001E2FE03019F0A12FBBDFF3CF188123960F
:1019F4000895AA27BB271197F1F70895AA93A998E8
:101A0400A4B3A76FA4BBB5B3BF70A8810E945E0C3A
:101A1400A99A32C0AA93AA98A898E881E093850865
:101A2400E058E0938108E881E054E09382080E9442
:101A3400D20E0E94D20E0E94D20EDBDFA0E2DEDFC5
:101A4400D8DFA8E20E94D70EA4E00E94D70EA5E832
:101A54000E94D70EA4B3AF70A4BBA99A0E94800CB5
:101A6400E53011F0E0E008C00E944D0CA6E00E94B1
:101A7400680C0E949D0CE1E021960895AA93BA9304
:101A8400EA93FA93EFB7EA930895A0916B08B091A3
:101A94006C080895ED91FD913196FE93EE930895AF
:101AA400E0E0E0936B08E0936C080895A091690866
:101AB400B0916A080895E0E0E0936908E0936A0849
:101AC4000895E091D207F091D30708950E94D90CAC
:101AD400E0E0EA93A1E00C94890CF0E0FA93EA9335
:101AE400A7EDB7E00E94630AA7EDB7E00C94D90C08
:101AF400A091B107B091B2070895A4E6B0E00E94A6
:101B04004D106E0F7F1F0895AAE0B0E00E944D10A3
:101B1400E60FF71F0895EE0FFF1FEA0FFB1F08954E
:101B2400F801A3E0B0E00E944D100895DF01AA0F70
:101B3400BB1FA95DB74F0E94601008950E946010FA
:101B4400A0915A08B0915B08EA0FFB1FDB01ED93EB
:101B5400FC930895E0E0EA93A1E00C94890CE4E698
:101B6400F0E0E093CB07F093CC07E093CD07F0933C
:101B7400CE070E949D0CE0919C07F0919D07309741
:101B840008950E94D90CE0916908F0916A08FA93CB
:101B9400EA93DE0112960E94630ADE010C94D90CCA
:101BA4000E94D90CE0916B08F0916C08FA93EA93C7
:101BB400DE0112960E94630ADE010C94D90CAAEF8E
:101BC400B0E00E942C0FE0919C07F0919D070E94C9
:101BD4004010F0E0E0939C07F0939D070895DE0128
:101BE40016960E94630ADE0114960895E12FA6E476
:101BF400B8E0F0E0EE0FFF1FAE0FBF1F0E946010B1
:101C04000895E12FAEE4B8E0F0E0EE0FFF1FAE0F51
:101C1400BF1F0E9460100895A4E11A020A92A0E076
:101C24000C94890CA3E8B1E00E94E80CE0E0E09396
:101C34009E07E0939F070895E050F240FA93EA93D9
:101C4400A1E4B8E00C94630AA1E4B8E00C94D90CC4
:101C5400E657F140FA93EA93A1E4B8E00C94630ADE
:101C6400EA93A0E00E94890CEFCFE12FF0E0EA5A5A
:101C7400F74FE081F0E0FA93EA93A1E4B8E00C9422
:101C8400630AE1E0F0E0E0939E07F0939F07089574
:101C9400E12FE250A4E1EA020A92A1E00C94890C3B
:101CA400EA93A1E00E94890CCFCFE0911D08F09146
:101CB4001E08662777270E949C0FDF01CB01EDECFD
:101CC400FCEC60E572E40E94CA0F0895E4E6F0E0DB
:101CD400E093CB07F093CC07E093CD07F093CE07C6
:101CE4000895E0E0E093CB07E093CC07E4E6F0E06E
:101CF400E093CD07F093CE070895E4E6F0E0E09397
:101D0400CB07F093CC07E0E0E093CD07E093CE0758
:101D14000895DF98DD9A0E949D0C1CCF0E94D90C77
:101D2400E0916908F0916A08FA93EA93A0EAB7E0AF
:101D34000E94630AA0EAB7E00C94D90C0E94D90C63
:101D4400E0916B08F0916C08FA93EA93A0EAB7E08B
:101D54000E94630AA0EAB7E00C94D90CDF9ADD98DC
:101D64000E949D0CF7CED998DB98A8EEB3E00E94B0
:101D74002C0FA1CEDF98DD980E949D0CEBCE0E9423
:101D8400D90CA8EEB3E00E942C0F0E949D0CE1E058
:101D9400F0E06F010895A091C907B091CA070895B2
:101DA4000E94FB0CA0E30C94000D0E94680C0C94A0
:101DB400FB0CC398C598BB9ABD9815C0BD98BB9839
:101DC400EE270000B59B0895B39B089504D0BD9AF7
:101DD40002D0BB9AE1E06BE107C0BD9ABB9A03D085
:101DE400BB98F9DFBD9865E36A95F1F7089578E04B
:101DF400BB98F1DFB39BFECFEEDF8894B5990894CE
:101E0400BB9AF1DFEE1F7A9599F77A2F772311F4B5
:101E1400BD9801C0BD9ADFDFBB98E5DFBB9ADBDF6D
:101E2400BD98D9CF78E0AA0F10F4BD9801C0BD9A2F
:101E3400DADFBB98D0DFB39BFECFCDDFBB9A7A95B8
:101E440091F7BD98C8DFBB98CEDFE1E0B599EE27E6
:101E5400BB9AC1CF109639F080EA9FE00197F1F761
:101E6400A8951197C9F70895552342F4503811F4F1
:101E7400E0FF04C03196691F791F6BF050E85727C3
:101E840011F45F9373C05F3F31F0660F000C5795F8
:101E94006795752F08955F9300200AF073C06CC096
:101EA40050E8192E1522880F991F9527550F8795ED
:101EB40050E8072E0522660F771F7527550F679583
:101EC4000895689401C0E8945F93F2DF703818F0C5
:101ED4007F3F08F44BC056E1571BAAF45195583084
:101EE4000EF4593030F0EFEFFFEF6FEF7FE777F943
:101EF4001AC077275523B9F0EE0FFF1F661F771F0F
:101F04005A95D1F710C07727583028F0EF2FF62FC5
:101F1400672F5850F9CF552331F076956795F7958B
:101F2400E7955A95D1F700200AF47BD05F91089584
:101F3400689401C0E894309760407040B1F0002488
:101F440026F0772312F400946CD0172E7EE1112032
:101F540032F07A95EE0FFF1F661F111CF9CFEF2F99
:101F6400F62F612D5F938ADF5F910895EE27FF2797
:101F7400662777275F910895EFEFFFEF6FE77FEF15
:101F84005F910895EFEFFFEF6FE77FE75F910895AB
:101F94005F9386DF703821F411200AF4EDCFF2CF7D
:101FA400903809F4E3CF01240894970B1BF4D4F37D
:101FB4000020F3CF792F1F932F933F934F93112436
:101FC4001127222733274427552790E2AE17BF074E
:101FD4008607410730F0AE1BBF0B860B410B0894FC
:101FE40001C08894551F221F331F111CAA1FBB1F39
:101FF400881F441F9A9551F7F901612D4F913F9124
:102004002F911F91662332F0550FEE1FFF1F661F9D
:102014007A9543F229DF5F910895F195E195F040B7
:102024000895F09560957095E195FF4F6F4F7F4F40
:102034000895EE230E2EFD0121F0F695E7950A94FE
:10204400E1F70895EE0FFF1FEE0FFF1FEE0FFF1FC6
:10205400EE0FFF1F0895F695E795F695E795F6952B
:10206400E795F695E79508956F2F660F660B762F23
:102074000895AE17E1E008F0EE270895EF2BE1E0B4
:1020840009F0E0E00895FA9FF02DEB9FF00DEA9F30
:10209400E02DF10D089504D0F6DF0EF4BEDF0895AF
:1020A400E894F7FF02C0B9DF6894B7FF06C0A095B3
:1020B400B095119600F8039400FA0895ED91FC91FF
:1020C400119708955A934A933A932A931A930A9329
:1020D40008955D814C813B812A811981088108958D
:00000001FF
