:040000000C947202E8
:100004000C9400000C9400000C9400000C9400006C
:100014000C94D0020C9400000C94E0020C940000A8
:100024000C9400000C943E030C9400000C9400000B
:100034000C9400000C9400000C9400000C947C03BD
:100044000C9400000C9400000C9400000C9400002C
:100054000C94A2020C9400000C9400000C94000078
:100064000C94A3050C94E3050C9400000C9400007C
:100074000C9400000C9400000C9400000C940000FC
:100084000C94330A0C9400001027E80364000A005F
:10009400010000100001100001000B00000011001D
:1000A4005E01A00F0100AA000A00504F53495449B1
:1000B4004F4E2D534552564F0044415441004C4538
:1000C40046543A2031004C4546543A2030002052E0
:1000D400494748543A2031002052494748543A206D
:1000E40030004D4C4546543A2031004D4C45465461
:1000F4003A2030004D52494748543A31004D524954
:100104004748543A30002020202020454E434F4495
:10011400455220203E3E003C3C202020454E434F8B
:1001240044455220202020004C3A0020523A00201E
:1001340020202020524543485453202020200020D2
:10014400202020204C494E4B532020202000464C98
:100154004546543A203100464C4546543A20300036
:100164004652494748543A31004652494748543A5E
:1001740030004C4546543A0052494748543A004EE0
:100184006F204F626A65637421004F626A656B7405
:1001940020676566756E64656E004B65696E204FF9
:1001A400626A656B740020204C494E4544455445B1
:1001B40043544F5220200020202020204D4F544FE4
:1001C40052454E202020200020202020204C454E47
:1001D4004B554E4720202020002044495354414E83
:1001E4005A2053454E534F52200020204C49434837
:1001F400542053454E534F522020002020202020CD
:100204005749492043414D202020002020202049E7
:100214005220544F574552202020200020202020D7
:1002240020534552564F2020202000202020554C9A
:10023400545241534348414C4C202000202020205C
:100244002020564F52202020202020200020202033
:100254002020205A55522020202020202000202019
:10026400202020204C494E4B5320202020202000C9
:100274002020202020524543485453202020202071
:1002840000202020202039304C494E4B5320202080
:100294002020002020202039305245434854532048
:1002A400202020002020202044524548554E47203D
:1002B4002020200020202020316D316D202020209E
:1002C40000202020426C75654D61746963730020C1
:1002D40020202020526F626279004F4B00427566E5
:1002E400666572206F766572666C6F770041726224
:1002F4006974726174696F6E206C6F7374004275F7
:1003040073206572726F72004E41434B20726563B5
:100314006569766564004275732074696D656F75EF
:1003240074004661696C00556E6B6E6F776E206564
:1003340072726F72000001002D4E414E00494E460C
:100344000000070080C0020002009E0004000400B8
:10035400A0000100A007A8000100A207AA000F0046
:100364000005AE0005000F05BD0008001405C2001D
:1003740008001C05CA000A002405D2000A002E0544
:10038400DC0009003805E60009004105EF0009001A
:100394004A05F80009005305010111005C050A0132
:1003A40011006D051B0103007E052C01040081056D
:1003B4002F011000850533010F009505430103004B
:1003C400A4052C010400A7052F010800AB05C200F9
:1003D4000800B305CA000A00BB05D2000A00C5051F
:1003E400DC000900CF0552010900D8055B010900B2
:1003F400E10564010900EA056D010600F3057601D3
:100404000700F9057C01030000062C010400030623
:100414002F01030007062C0104000A062F01030024
:100424000E062C01040011062F01030015062C01F1
:10043400040018062F0103001C062C0104001F06EB
:100444002F01030023062C01040026062F010300BC
:100454002A062C0104002D062F0111003106AA01E1
:1004640011004206BB0111005306CC0111006406C1
:10047400DD0111007506EE0110008606FF01110072
:1004840096060F020F00A70620021100B6062F02DF
:100494001100C70640021100D80651021200E906F5
:1004A40062021100FB06740212000C07850211009F
:1004B4001E07970210002F07A8020D003F07B8027D
:1004C4000E004C07C5020B005A07D3020100420874
:1004D4003A0301006707460302005208480300007C
:1004E400F894EE27ECBBF1E0F5BFE5BFE0936C00B8
:1004F4008DE0A2E0BB27ED938A95E9F780E090E1D7
:10050400A0E0B1E0ED930197E9F7EAE4F3E0859127
:100514009591009761F0A591B59105901590BF0153
:10052400F00105900D920197E1F7FB01F0CF8BBF2D
:10053400EFEFEDBFE0E1EEBFC0E0D5E00C94910930
:100544008A93AA93BA93EA93FA93EFB7EA93E09162
:100554003D08A1E3B8E0F0E0EE0FFF1FAE0FBF1FB0
:10056400E4B1F5B1ED93FC93A0913D08AF5FA09386
:100574003D08A63018F0E0E0E0933D08E0913D0826
:10058400E05CE7B985E38A95F1F7369AE991EFBF24
:10059400F991E991B991A991899118950E94AD0CAD
:1005A4000E94B40CA032EEE4BE072CF4A0E4B8E040
:1005B4000E94B90C02C00E94BF0CFCC20E94AD0C88
:1005C4000E94C50CA032EEE4BE072CF4AEE3B8E002
:1005D4000E94B90C02C00E94CA0CECC2EAE8EABB51
:1005E400E2E0E7BBE1EAE1BBE0E2E2B9E09361000B
:1005F400A0E10E94790CE0E4E7B9EFECE6B9E0E0B1
:10060400E0BDE0E8E8B9E0E0E0936A00E1E1EABFD8
:10061400E0E5E9BFE0E0E8BFE0BFE6E0E3BFE3E830
:10062400E2BFE0E0E1BFE0938B00EBECE0938A00F3
:10063400E0E0E0938900E0938800E0938100E09398
:100644008000E1E6E0938700E8EAE0938600E0E0DA
:10065400E0938500E0938400E0938300E0938200BC
:10066400E4E0E5BDE0E0E4BDE3BDE1E4E7BFE0E3F1
:10067400E0937D00789408950E94AD0C9798E091E2
:10068400A407F091A5070E94D00CEA17FB0731F4E8
:10069400A091A007B091A107159789F40E94D50CE9
:1006A400E093A407F093A507E1E0F0E0E093A0074E
:1006B400F093A107E091A207E4BD979A06C0A0EACF
:1006C400B7E00E94B90CE0E0E4BD74C22A970E942E
:1006D4000A0CA0E0B5E00E94DA0C0E94D50CFA9353
:1006E400EA93AFE8B7E00E94D009AFE8B7E00E9410
:1006F400460CDCC20E94AD0CEEEFE2BFA09176077F
:10070400AF5FA0937607A434A0F0E0917A07E07479
:1007140021F4E0917A07E07209F406C00E94E10C2A
:10072400E0937707F0937807E0E0E0937907E093AC
:100734007A07A0E020FCA1E0E0E0CA99E1E0B0E0A3
:10074400F0E0E7FDFFEFEA17FB0759F1E1E02E26A1
:10075400A0917607AB3028F4E0E0E0937907E093CA
:100764007A070E94E10C309721F0A0917607AD3210
:10077400C0F0E0917A07E07441F40E94E10CEE0FBE
:10078400FF1FE0937907F0937A0720FC07C00E94CB
:10079400E10CE160E0937907F0937A07E0E0E093FD
:1007A400760708C2BA93AA931A930A93F89400910D
:1007B400770710917807E0E0E0937707E0937807F4
:1007C4007894002E012A09F1D801EBE00E947B0FF6
:1007D400E170AE81BF81EC93D801E6E00E947B0F0B
:1007E400EF71AC81BD81EC93E02FEF73AE2FF80174
:1007F400E095F0950E948F0F0E948D0FE074EA2B14
:10080400AA81BB81EC93F80102C0E0E0F0E0198119
:100814000881289608950E940A0CAFE0B5E00E9472
:10082400DA0CA0917B07A05D0E941F0CA0E20E943D
:100834001F0CE0917C070E94E60CA0E20E941F0CB2
:10084400E0917D070E94E60C0895E4E1F0E0E415F0
:10085400F50569F40E94D00CAC3DE0E0BE073CF421
:100864000E94D50C3596E093A207F093A307E5E127
:10087400F0E0E415F50569F40E94D00CA937E0E036
:10088400BE073CF00E94D50C3597E093A207F09385
:10089400A307042C052819F4E1E1F0E002C0F201F9
:1008A40031973F010895009904C0E1E0F0E04F0161
:1008B40002C088249924029904C0E1E0F0E05F01B9
:1008C40002C0AA24BB24049904C0E1E0F0E06F0153
:1008D40002C0CC24DD24069907C0E1E0F0E0E093F7
:1008E4006807F093690705C0E0E0E0936807E093C8
:1008F4006907F401A8EEB3E00E94AD0FBF01F50152
:100904000E94F10CF6010E94F80CA0916807B091C6
:100914006907EA0FFB1FE0937207F0937307B0991E
:1009240007C0E1E0F0E0E0936A07F0936B0705C0CD
:10093400E0E0E0936A07E0936B07B29907C0E1E057
:10094400F0E0E0936C07F0936D0705C0E0E0E093FE
:100954006C07E0936D07B49907C0E1E0F0E0E09321
:100964006E07F0936F0705C0E0E0E0936E07E09335
:100974006F07B69907C0E1E0F0E0E0937007F093E9
:10098400710705C0E0E0E0937007E0937107E09120
:100994006A07F0916B07A8EEB3E00E94AD0FBF01A8
:1009A400E0916C07F0916D070E94F10CE0916E07E5
:1009B400F0916F070E94F80CA0917007B091710735
:1009C400EA0FFB1FE0937407F09375070895E0E3C3
:1009D400EA93A1E017D0E0E3EA93A8E013D0E6E0BD
:1009E400EA93A0E90FD0E8E0EA93A0EC0BD0EAE1A7
:1009F400EA93A0E407D0E3E3EA93A3E303D00E94DD
:100A0400FF0C0895AA930E94400EA0EB0E94740E5E
:100A1400A9810E94740EA8810E94740E0E944F0E38
:100A2400AAE0B0E00E948C0E229608951A9310E07A
:100A34000E94400EA0EB0E94740EA6E30E94740E66
:100A44000E944F0EA1E0B0E00E948C0E0E94400E66
:100A5400A1EB0E94740E10E01F3090F4E12FAFED73
:100A6400B7E0F0E00E94030DFF93EF93A1E00E9432
:100A7400590EAF91BF91F0E0ED93FC931F5FECCF63
:100A8400A0E00E94590EADEFB7E0F0E0ED93FC93C7
:100A94000E944F0ED3C11A930A9300E010E000E0C5
:100AA40010E00430E0E01E070CF048C00E94080D7E
:100AB4000E940E0DE073F0700E94840FE0931808FA
:100AC400F0931908F801A4E0B8E00E94030DBF01F7
:100AD4000E94080DDF01AA0FBB1FAF51B84F0E943F
:100AE400160D0E94080D0E940E0DE07CF0700E940D
:100AF400880FE0931808F0931908F801ACE0B8E007
:100B04000E94030DBF010E94080DDF01AA0FBB1F45
:100B1400AD51B84F0E94160DF801EC5EF74FBF01BE
:100B24000E94080DDF01AA0FBB1FAB51B84FEC9117
:100B3400EF70DB01EC930F5F1F4FB3CF0991199155
:100B440008950E94AD0CE0918000E093DD07E091F0
:100B54008100E093DE070F9B0EC0E091DD07F0916A
:100B6400DE07E093D707F093D807E0918A00EF7B84
:100B7400E0938A001FC0E091DD07F091DE07E09367
:100B8400D907F093DA07E0918A00E064E0938A00E1
:100B9400A091D707B091D807E091D907F091DA076F
:100BA400EA1BFB0B0E94880FE093DB07F093DC0742
:100BB400689426F8E991EFBFF991E991B991A99167
:100BC40018958A93EA93EFB7C19A85E38A95F1F76A
:100BD400C198EFBFE991899118950E940A0C009978
:100BE40003C0A4E1B5E002C0ACE1B5E00E94460C4C
:100BF400069903C0A4E2B5E002C0AEE2B5E00E94EB
:100C0400460C0E94220D029903C0A8E3B5E002C07D
:100C1400A1E4B5E00E94460C049903C0AAE4B5E03F
:100C240002C0A3E5B5E00E94460C089561970E94B6
:100C3400270D39F4ACE5B5E00E94460CDF98DD9849
:100C440006C0ADE6B5E00E94460CDF9ADD9A0E942C
:100C5400220DAEE7B5E00E94310DA1E8B5E00E9497
:100C6400400DCE9902C00E944F0D619608952A97B7
:100C74000E94270D39F4A5E8B5E00E94460CDF98E0
:100C8400DD9A06C0A5E9B5E00E94460CDF9ADD981E
:100C94000E94220DA4EAB5E00E94310DA7EAB5E056
:100CA4000E94400DCE9902C00E944F0D2A960895CD
:100CB4000E940A0CB09903C0ABEAB5E002C0A3EBF2
:100CC400B5E00E94460CB69903C0ABEBB5E002C098
:100CD400A5ECB5E00E94460C0E94220DB29903C017
:100CE400AFECB5E002C0A8EDB5E00E94460CB499A3
:100CF40003C0A1EEB5E002C0AAEEB5E00E94460C26
:100D040008952A970E94C60FE0913708F091380899
:100D14008F01E0913308F09134089F010E940A0C7E
:100D2400A3EFB5E00E94460C3A932A930E945F0D0C
:100D34000E94DA0CA9EFB5E00E94460C1A930A93BC
:100D44000E945F0D0E94460C0E94CD0F2E960895BE
:100D54001A9310E06BDE9FDE0E940A0C10E0143040
:100D640008F063C0123070F50E94660DEF3FA3E0F7
:100D7400FA0731F00E94710DEF3FA3E0FA0729F45E
:100D84000E947C0D0E94820D1CC00E94660D0E9470
:100D94008C0D0E947C0D0E94940D0E94710D0E9486
:100DA400980DA4E11A02F001E85F0E94A00D0E94D0
:100DB400A50DA4E11A02F001E05F0E94A00D0E94BB
:100DC400B10D31C00E94660DEF3FA3E0FA0731F088
:100DD4000E94710DEF3FA3E0FA0729F40E94B80DB9
:100DE4000E94820D20C00E94660D0E948C0D0E94FC
:100DF400B80D0E94940D0E94710D0E94980DE12F70
:100E0400E250A4E1EA02F001E85F0E94C00D0E94F2
:100E1400A50DE12FE250A4E1EA02F001E05F0E9497
:100E2400C00D0E94B10D1F5F9ACFAEE1B0E00E94E9
:100E34008C0EC39B02C0C39801C0C39A1991089534
:100E4400EADC0E94C50D49F0E0917D07F0E0E13055
:100E5400A0E0FA0711F40E94FF0C08950E940A0C06
:100E640035DCA8ECEFC126FE29C00E94220DA0911A
:100E7400DB07B091DC07A137E7E1BE07B8F40E94B5
:100E84000A0CAEE8B1E00E94550C0E94220D0E94AB
:100E9400D30D0E94C50EFA93EA93A6ECB7E00E9424
:100EA400D009A6ECB7E00E94460C06C00E940A0CCA
:100EB400AEE9B1E00E94550CE89426F80895D99A59
:100EC40009C0D99ADB9ADF9ADD9A0895D99ADB98FA
:100ED40002C0D998DB9ADF98DD9808950E94CA0C65
:100EE4000E94BF0C0E94E40DA0E0B6E00E94EB0D4E
:100EF400A3E0B6E00E94FB0D0E94B40C519794F35A
:100F040008950E94CA0C0E94BF0C0E940B0EA7E019
:100F1400B6E00E94EB0DAAE0B6E00E94FB0D0E9431
:100F2400C50C519794F308950E94CA0C0E94BF0CFB
:100F3400D99ADB9ADF9A0E94120EAEE0B6E00E94C4
:100F4400EB0DA1E1B6E00E94FB0D0E94C50CA0349C
:100F5400E0E0BE0734F40E94B40CA034E0E0BE0725
:100F64000CF001C0E5CF08950E94CA0C0E94BF0C8A
:100F74000E940B0EA5E1B6E00E94EB0DA8E1B6E0DD
:100F84000E94FB0D0E94C50C519794F30E94160E0B
:100F94000E94BF0CD99ADB9ADF980E94120EACE132
:100FA400B6E00E94EB0DAFE1B6E00E94FB0D0E949B
:100FB400C50CA436E0E0BE0734F40E94B40CA43699
:100FC400E0E0BE070CF001C0E5CF0E94160E0E94BF
:100FD400BF0C0E94E40DA3E2B6E00E94EB0DA6E272
:100FE400B6E00E94FB0D0E94B40C519794F30E944A
:100FF400160E0E94BF0CD99ADB9ADF980E94120E3B
:10100400AAE2B6E00E94EB0DADE2B6E00E94FB0D51
:101014000E94C50CA436E0E0BE0734F40E94B40C70
:10102400A436E0E0BE070CF001C0E5CF0895D998DE
:10103400DB98F301309759F40E941D0E31F40E949D
:101044000A0CA1E3B6E00E94230EC7DDFAC0E1302A
:10105400A0E0FA0759F40E941D0E31F40E940A0C14
:10106400A2E4B6E00E94230EE1DDEBC0E230A0E092
:10107400FA0759F40E941D0E31F40E940A0CA3E5EC
:10108400B6E00E94230EF3DDDCC0E330A0E0FA07F3
:1010940059F40E941D0E31F40E940A0CA4E6B6E035
:1010A4000E94230E05DECDC0E430A0E0FA0759F417
:1010B4000E941D0E31F40E940A0CA5E7B6E00E94BE
:1010C400230E1FDEBEC0E530A0E0FA0759F40E94EB
:1010D4001D0E31F40E940A0CA6E8B6E00E94230E0D
:1010E40037DEAFC0E630A0E0FA0759F40E941D0EC7
:1010F40031F40E940A0CA6E9B6E00E94230EA0DE99
:10110400A0C0E730A0E0FA0759F40E941D0E31F4A4
:101114000E940A0CA7EAB6E00E94230E9FDE91C04B
:10112400E830A0E0FA0759F40E941D0E31F40E9441
:101134000A0CA6EBB6E00E94230E95DE82C0E930CD
:10114400A0E0FA0759F40E941D0E31F40E940A0C23
:10115400A7ECB6E00E94230EB2DE73C0EA30A0E032
:10116400FA0759F40E941D0E31F40E940A0CA8EDEE
:10117400B6E00E94230EA5DE64C0EB30A0E0FA07BF
:1011840059F40E941D0E31F40E940A0CA9EEB6E037
:101194000E94230E9BDE55C0EC30A0E0FA0759F400
:1011A4000E941D0E31F40E940A0CABEFB6E00E94BF
:1011B400230E8FDE46C0ED30A0E0FA0759F40E94FA
:1011C4001D0E31F40E940A0CACE0B7E00E94230E1D
:1011D40098DE37C0EE30A0E0FA0759F40E941D0EE5
:1011E40031F40E940A0CAEE1B7E00E94230E76DED1
:1011F40028C0EF30A0E0FA0759F40E941D0E31F424
:101204000E940A0CAFE2B7E00E94230E8DDE19C0E3
:10121400E031A0E0FA0759F40E941D0E31F40E9457
:101224000A0CAFE3B7E00E94230E9EDE0AC00E94C0
:101234000A0CACE4B7E00E94DA0CAAE5B7E00E941D
:10124400460CA2E3B0E00E948C0E0895AA93E091AC
:101254006707E03019F4689425F805C0E89425F888
:10126400E0E00C94AB0CE881E03019F0E0E00C9481
:10127400AB0CA0916607EFE00E949B0F0C94AB0CA3
:10128400AA93E881E03009F042C0E0917207E0934C
:10129400B707E0917407E093B807E0913308F09141
:1012A4003408E093B907F093BA07E0913708F09156
:1012B4003808E093BB07F093BC07E0913E08F09137
:1012C4003F08E093BD07F093BE07E0914008F0911A
:1012D4004108E093BF07F093C007E0911E08E09334
:1012E400C107E0917D07E093C207E091A207E09374
:1012F400C3070E94D30DA4ECB7E00E94C30EEC9385
:10130400E091A607E093C507EFE00C94AB0C25FE33
:1013140003C04090B6075524E0E00C94AB0C5ED9B2
:101324000E943B0E54DBE0E0EA93E0E5EA93E8EA4E
:10133400F7E0FA93EA93EFE0EA93E7EBF7E0FA9346
:10134400EA93E8E2F9E0FA93EA93A2E4B9E00E94AE
:10135400FE096DDE7ADACE9903C0E0E1F0E03F01E8
:101364000E94C50DC1F0E0917D07F0E0309719F4BB
:10137400E1E1F0E00DC0E130A0E0FA0719F4EFE09C
:10138400F0E006C0E230A0E0FA0729F4E0E1F0E082
:101394003F010E94FF0C87DADCCFFFCFBA93AA93F8
:1013A400A991B991E991F99130962AF4E095F095D3
:1013B40031966DE26D93E89480E197E20DD088EE6A
:1013C40093E00AD084E6992707D08AE005D06E2FEF
:1013D40010D066276C9308956627E817F90720F064
:1013E4006395E81BF90BC9F7662311F416F0089509
:1013F4006894605D6D930895BA93AA93689430F8E5
:10140400E7E0E0936707EF81F885E0934A08F093FB
:101414004B08EE81E0934D08EC81FD81E093470891
:10142400F0934808EA81FB81E0934E08F0934F085B
:10143400E881F981E0935008F0935108919A909AC9
:10144400EA85E03011F0E1E002C0E985EE0FE093B7
:101454007200E0917400E078E564E09374002B96E8
:1014640008950A921A92FA926A937A938A939A93B3
:10147400AA93BA93EA93FA93EFB7EA930E94C40F3C
:10148400109166070091650730914908209167071C
:10149400E12FA0914A08B0914B08F0E0EA0FFB1F3E
:1014A400AF01E0917100E87FE83011F420E002C060
:1014B400E03119F4E091460810C0E83111F0E83247
:1014C40049F5031798F4E02F0F5FA0914708B091F6
:1014D4004808F0E0AE0FBF1FEC91E0937300E09179
:1014E4007400EF70E068E093740013C0E0914C085E
:1014F4001E1770F4E0914608E160E0934608E89412
:1015040027F8E0917400EF70E06AE093740013C16F
:1015140038C011C1E03531F4E0917300DA01EC9385
:101524001F5F02C0E03489F4E0914C08E1501E17BB
:1015340028F0E0917400EF70E06804C0E09174005A
:10154400EF70E06CE0937400F6C0E83531F4E0919C
:101554007300DA01EC931F5F02C0E03209F402C0A9
:10156400E03309F402C0E83469F4203051F427FE72
:1015740003C0031728F005C0E0914C081E1708F4B7
:1015840024E0D1C0E83331F422E0E0917400EF703C
:10159400E068CDC0E83611F0E83711F422E005C068
:1015A400E03611F0E037A9F420E010E0E89427F8E1
:1015B400E0914D08E03031F421E0E0917400EF70E7
:1015C400E06804C0E0917400EF70E06CE093740094
:1015D400B2C0E03811F0E03941F527FE02C021E045
:1015E400A2C0E0917300DA01EC931F5FE0914D0813
:1015F4001E17C0F4E0914E08F0914F08309711F493
:1016040026E091C0A0E0E0914E08F0914F080995C2
:10161400E03039F0E0917400EF70E06CE093740016
:101624008AC002C0689427F802C0E83809F402C0EE
:10163400E83939F4E0917400EF70E068E0937400E5
:101644007AC0E03AB9F4E0917400EF70E06CE09392
:101654007400689430F8E0914E08F0914F08309788
:1016640039F0A1E0E0914E08F0914F08099501C0CE
:1016740026E061C0E03B11F422E002C0E83AB9F48C
:10168400E0915008F0915108309759F0A0E0E091B2
:101694005008F091510809953E2FE03011F020E0F8
:1016A40002C026E040C000E0E89427F802C0E83B0E
:1016B40001F527FE02C021E036C0E02F0F5FA091A4
:1016C4004708B0914808F0E0AE0FBF1FEC91E093DB
:1016D4007300031728F4E0917400EF70E06C06C007
:1016E400689427F8E0917400EF70E068E093740068
:1016F40022C0E03C11F0E83C99F4E0917400EF70F2
:10170400E06CE0937400E0915008F0915108309738
:1017140031F0A1E0E0915008F0915108099509C019
:10172400E03049F423E0E0917400EF70E06DE09361
:101734007400689430F8109366070093650720934B
:101744006707309349080E94CB0F2696E991EFBFB3
:10175400F991E991B991A9919991899179916991B5
:10176400F990199009901895FFE0FA95F1F708950A
:10177400A4B3AF70A4BBA99AA898F6DFAA9AF4DF21
:10178400A3B3AA98F1DFAA9AEFDFAA98A7FDF5CF31
:101794000895A07FAB2BA5BBAA9A0E94B60BAA986A
:1017A4000E94B60B0895AA93A998A4B3A76FA4BBEB
:1017B400B5B3BF70A881EDDFA881A295EADFA99A2D
:1017C4000C94AB0CAA9A0E94B60BE3B3AA980E949D
:1017D400B60BE07F08950E94B60BF4DFAE2FF2DF64
:1017E400A998E295EA2B0895AA930E94BA0BE8817E
:1017F400F0E0EE5AF74FE081A981AE0F0E94D50BBD
:10180400E981E0935608E881E09357082296089509
:101814000E94BA0BA2E00E94D50B0E94BA0BACE066
:101824000E94D50B0E94BA0BA1E00E94D50BE0E008
:10183400E0935708E09356080895AA93EF93FF9313
:10184400A8816894AA3039F0E894E0915808A091EE
:101854005608AE1758F0E0915708EF5FE093570829
:10186400E0E0EA93A0915708BFDF56F0E0915608F4
:10187400EF5FE09356087CDFA89AA8810E94D50BFD
:10188400FF91EF910C94AB0CBA93AA931A93A9818C
:10189400BA81ED91A983BA831E2FE03019F0A12FEC
:1018A400CCDFF5CF10C0BA93AA931A93E981FA81D9
:1018B4003196E983FA833197E4911E2FE03019F0D1
:1018C400A12FBBDFF3CF188123960895AA27BB2746
:1018D4001197F1F70895AA93A998A4B3A76FA4BB8D
:1018E400B5B3BF70A8810E94CB0BA99A32C0AA934A
:1018F400AA98A898E881E0935808E058E09354081F
:10190400E881E054E09355080E94320E0E94320EA2
:101914000E94320EDBDFA0E2DEDFD8DFA8E20E9405
:10192400370EA4E00E94370EA5E80E94370EA4B338
:10193400AF70A4BBA99A0E94ED0BE53011F0E0E072
:1019440008C00E94BA0BA6E00E94D50B0E940A0CA4
:10195400E1E021960895AA93BA93EA93FA93EFB734
:10196400EA930895A0914008B09141080895ED913B
:10197400FD913196FE93EE930895E0E0E0934008E4
:10198400E09341080895A0913E08B0913F0808955E
:10199400E0E0E0933E08E0933F080895A091A20799
:1019A400B091A3070895E091A207F091A3070895C9
:1019B4000E94460CE0E0EA93A1E00C94F60BE0915F
:1019C4007907F0917A070895F0E0FA93EA93AEE785
:1019D400B7E00E94D009AEE7B7E00C94460CA4E649
:1019E400B0E00E94AD0F6E0F7F1F0895AAE0B0E033
:1019F4000E94AD0FE60FF71F0895A4E6B0E00C9423
:101A04008C0EEE0FFF1FEA0FFB1F0895F801A3E0F1
:101A1400B0E00E94AD0F0895DF01AA0FBB1FAB51C8
:101A2400B84F0E94C00F08950E94C00FA0911808DB
:101A3400B0911908EA0FFB1FDB01ED93FC930895A5
:101A4400E0E0EA93A1E00C94F60BD99ADB9A0E94A9
:101A54000A0CE0911C08F0911D08309708950E942B
:101A6400460CE0913E08F0913F08FA93EA93DE01B8
:101A740012960E94D009DE010C94460C0E94460C7A
:101A8400E0914008F0914108FA93EA93DE0112963E
:101A94000E94D009DE010C94460CAAEFB0E00E942B
:101AA4008C0EE0911C08F0911D080E94A00FF0E03C
:101AB400E0931C08F0931D080895DE0116960E9419
:101AC400D009DE0114960895E12FA4E0B8E0F0E017
:101AD400EE0FFF1FAE0FBF1F0E94C00F0895E12F2E
:101AE400ACE0B8E0F0E0EE0FFF1FAE0FBF1F0E94A6
:101AF400C00F0895A4E11A020A92A0E00C94F60B18
:101B0400A3E8B1E00E94550CE0E0E0931E08E093E6
:101B14001F080895E050F240FA93EA93AFEFB7E05C
:101B24000C94D009AFEFB7E00C94460CE657F140A3
:101B3400FA93EA93AFEFB7E00C94D009EA93A0E0EC
:101B44000E94F60BEFCFE12FF0E0EC5EF74FE0815F
:101B5400F0E0FA93EA93AFEFB7E00C94D009E1E038
:101B6400F0E0E0931E08F0931F080895E12FE2507F
:101B7400A4E1EA020A92A1E00C94F60BEA93A1E034
:101B84000E94F60BCFCFEBE7F7E0FA93EA93ECE78A
:101B9400F7E0FA93EA93ADE7B7E00E94D4033097F5
:101BA4000895E091DB07F091DC07662777270E9410
:101BB400FC0EDF01CB01EDECFCEC60E572E40E946D
:101BC4002A0F0895D99ADB98DF98DD9A0E940A0CAF
:101BD40037CF0E94460CE0913E08F0913F08FA93FB
:101BE400EA93A0E2B8E00E94D009A0E2B8E00C9425
:101BF400460C0E94460CE0914008F0914108FA938B
:101C0400EA93A0E2B8E00E94D009A0E2B8E00C9404
:101C1400460CD998DB9ADF9ADD980E940A0C10CF03
:101C2400DD980E940A0C0CCFD998DB98A8EEB3E09B
:101C34000E948C0EADCEE0911A08F0911B083097EB
:101C440008950E94460CA8EEB3E00E948C0E0E94F8
:101C54000A0CE1E0F0E0E0931A08F0931B08089501
:101C64000E94680CA0E30C946D0C0E94D50B0C949C
:101C7400680CC398C598BB9ABD9815C0BD98BB980D
:101C8400EE270000B59B0895B39B089504D0BD9A38
:101C940002D0BB9AE1E06BE107C0BD9ABB9A03D0C6
:101CA400BB98F9DFBD9865E36A95F1F7089578E08C
:101CB400BB98F1DFB39BFECFEEDF8894B59908940F
:101CC400BB9AF1DFEE1F7A9599F77A2F772311F4F7
:101CD400BD9801C0BD9ADFDFBB98E5DFBB9ADBDFAF
:101CE400BD98D9CF78E0AA0F10F4BD9801C0BD9A71
:101CF400DADFBB98D0DFB39BFECFCDDFBB9A7A95FA
:101D040091F7BD98C8DFBB98CEDFE1E0B599EE2727
:101D1400BB9AC1CF109639F080EA9FE00197F1F7A2
:101D2400A8951197C9F70895552342F4503811F432
:101D3400E0FF04C03196691F791F6BF050E8572704
:101D440011F45F9373C05F3F31F0660F000C579539
:101D54006795752F08955F9300200AF073C06CC0D7
:101D640050E8192E1522880F991F9527550F87952E
:101D740050E8072E0522660F771F7527550F6795C4
:101D84000895689401C0E8945F93F2DF703818F006
:101D94007F3F08F44BC056E1571BAAF451955830C5
:101DA4000EF4593030F0EFEFFFEF6FEF7FE777F984
:101DB4001AC077275523B9F0EE0FFF1F661F771F50
:101DC4005A95D1F710C07727583028F0EF2FF62F07
:101DD400672F5850F9CF552331F076956795F795CD
:101DE400E7955A95D1F700200AF47BD05F910895C6
:101DF400689401C0E894309760407040B1F00024CA
:101E040026F0772312F400946CD0172E7EE1112073
:101E140032F07A95EE0FFF1F661F111CF9CFEF2FDA
:101E2400F62F612D5F938ADF5F910895EE27FF27D8
:101E3400662777275F910895EFEFFFEF6FE77FEF56
:101E44005F910895EFEFFFEF6FE77FE75F910895EC
:101E54005F9386DF703821F411200AF4EDCFF2CFBE
:101E6400903809F4E3CF01240894970B1BF4D4F3BE
:101E74000020F3CF792F1F932F933F934F93112477
:101E84001127222733274427552790E2AE17BF078F
:101E94008607410730F0AE1BBF0B860B410B08943D
:101EA40001C08894551F221F331F111CAA1FBB1F7A
:101EB400881F441F9A9551F7F901612D4F913F9165
:101EC4002F911F91662332F0550FEE1FFF1F661FDF
:101ED4007A9543F229DF5F910895F195E195F040F9
:101EE4000895F09560957095E195FF4F6F4F7F4F82
:101EF4000895EE230E2EFD0121F0F695E7950A9440
:101F0400E1F70895EE0FFF1FEE0FFF1FEE0FFF1F07
:101F1400EE0FFF1F0895F695E795F695E795F6956C
:101F2400E795F695E79508956F2F660F660B762F64
:101F34000895AE17E1E008F0EE270895EF2BE1E0F5
:101F440009F0E0E00895FA9FF02DEB9FF00DEA9F71
:101F5400E02DF10D089504D0F6DF0EF4BEDF0895F0
:101F6400E894F7FF02C0B9DF6894B7FF06C0A095F4
:101F7400B095119600F8039400FA0895ED91FC9140
:101F8400119708955A934A933A932A931A930A936A
:101F940008955D814C813B812A81198108810895CE
:00000001FF
